:040000006F008069A4
:100004000000000000000000F6040000F8040000F6
:100014000000000096060000000000000000000040
:100024009606000096060000000000000000000094
:100034006810000000000000000100000000000043
:10004400960600009606000096060000960600003C
:10005400960600009606000096060000960600002C
:10006400960600009606000096060000960600001C
:10007400960600009606000096060000960600000C
:1000840096060000960600009606000096060000FC
:1000940096060000960600009606000096060000EC
:1000A40096060000960600009606000096060000DC
:1000B40096060000960600009606000096060000CC
:1000C40096060000960600009606000096060000BC
:1000D40096060000960600009606000096060000AC
:1000E400960600009606000096060000960600009C
:0C00F4009606000096060000960600002C
:10010000130181F806C216C41AC61EC822CA26CC1C
:100110002ACE2ED032D236D43AD63ED842DA46DC77
:100120004ADECEC0D2C2D6C4DAC6DEC8E2CAE6CC47
:10013000EACEEED0F2D2F6D4FAD6FED8F3220030D0
:1001400096DA9702002083A262F823A02200F3250A
:1001500010342EC003A18181EF10704217030020DC
:100160000323C3F603210300824273901234D65254
:10017000739002309240A2423243C2435244E2445E
:10018000724582551256A2563257C2575258E258FB
:1001900072598649164AA64A364BC64B564CE64C0F
:1001A000764D865D165EA65E365FC65F13018107DB
:1001B0007300203013000000130000001300000043
:1001C00013000000130000001300000013000000E3
:1001D00013000000130000001300000013000000D3
:1001E00013000000130000001300000013000000C3
:1001F00013000000130000001300000013000000B3
:1002000083A28181938202E073900234170100205F
:100210000321C1EB024182403243C2435244E244D3
:10022000724582551256A2563257C2575258E2585A
:1002300072598649164AA64A364BC64B564CE64C6E
:10024000764D865D165EA65E365FC65FD652A1020B
:1002500073900230A24213018107828013000000D4
:100260001300000013000000130000001300000042
:100270001300000013000000130000001300000032
:100280001300000013000000130000001300000022
:100290001300000013000000130000001300000012
:1002A0001300000013000000130000001300000002
:1002B00013000000130000001300000013000000F2
:1002C00013000000130000001300000013000000E2
:1002D00013000000130000001300000013000000D2
:1002E00013000000130000001300000013000000C2
:1002F00013000000130000001300000013000000B2
:10030000F322003093F272FF130380181203B3E25A
:100310006200711523205500130585FA10C12115BF
:10032000232005009302000063870200711523203B
:100330000500FD12D5BF71150CC1828000000000C0
:1003400000000000000000000000000000000000AD
:10035000000000000000000000000000000000009D
:10036000000000000000000000000000000000008D
:10037000000000000000000000000000000000007D
:10038000000000000000000000000000000000006D
:10039000000000000000000000000000000000005D
:1003A000000000000000000000000000000000004D
:1003B000000000000000000000000000000000003D
:1003C000000000000000000000000000000000002D
:1003D000000000000000000000000000000000001D
:1003E0000000000000000000000000000000397163
:1003F00001436EC619A0397141536AC866CA62CCFE
:100400005ECE19A0397101535AD056D252D44ED66D
:100410004AD826DA22DC06DE3301614082824111AD
:100420004AC026C222C406C68282B24D4101024D94
:10043000924C224CB24B4101024B924A224AB249A1
:100440004101024992442244B240410182803D432D
:100450002A876373C3029377F700BDEFADE5937608
:1004600006FF3D8ABA960CC34CC30CC74CC7410764
:10047000E36BD7FE11E28280B306C3408A0697027F
:10048000000096966780A6002307B700A306B70072
:100490002306B700A305B7002305B700A304B700E0
:1004A0002304B700A303B7002303B700A302B700D8
:1004B0002302B700A301B7002301B700A300B700D0
:1004C0002300B700828093F5F50F93968500D58DB4
:1004D00093960501D58D61B793962700970200008A
:1004E00096968682E78086FA9680C1171D8F3E9683
:1004F000E374C3F8A5B701A041113EC4B707EFBE2E
:100500003AC69387070837E700E03CC701A0B71752
:1005100002409843B706FFF041111367170098C3D4
:10052000D84337150240B7050200758FD8C39843EA
:10053000B706F7FEFD16758F98C39843B706FCFF04
:10054000FD16758F98C3D843B70601FFFD16758F4A
:10055000D8C337079F0098C702C402C69843C16634
:100560000566558F98C321A0A247638AC7001C4126
:10057000ED8F3EC6A24785073EC4B247F5D7B717F1
:1005800002409C431397E700635A070085473EC625
:10059000324785476309F7004101828002C632472E
:1005A0008547E31BF7FEB7170240D8433706C1FF64
:1005B0007D16D8C3D843D8C3D4433717024093E637
:1005C0000640D4C3D443F18ED4C3D44337062900A4
:1005D000D18ED4C3944337060001D18E94C31C43FB
:1005E00093966700E3DD06FE5C4337160240A146A2
:1005F000F19B5CC35C4393E727005CC35C42B18B17
:10060000E39ED7FE41018280B7160240D842B71759
:100610007A002146318B938707206305C70237177D
:100620000240584311839376F700370700201307E1
:10063000070036971823B3D7E70037070020232099
:10064000F7088280DC42D8424166C983BD8B8907A6
:10065000C546718F638ED70211EF374702400327DB
:100660000780418B19CF37177A0013070720B3870C
:10067000E70275B73717024058439316E700E3D4F3
:1006800006FE37173D0013070790B387E70241BF07
:10069000C9476DF3D9B701A0970100209381811E4E
:1006A000175100201301019617450000130585D14D
:1006B00097050020938505951386018263FAC5008E
:1006C0008322050023A0550011059105E3EAC5FE2C
:1006D000170500201305059D971500209385C54C2F
:1006E0006377B500232005001105E36DB5FEFD42DB
:1006F000739002BC894273904280B72200009382BB
:10070000028073900230970200009382E28F93E29E
:10071000320073905230EFF09FDF972200009382F7
:10072000A20273901234730020309C4103A885010B
:10073000D04DD4415841B3E70701D18F3706F1E0DE
:10074000A2061306F6EF718FD58FD98F5CC1D04505
:100750009C4994451845D18F37F6F1FF860613065C
:10076000D67F718FD58FD98F1CC5DC295855B70618
:1007700010FFFD1793F7F70FFD16758FD207D98F6E
:100780005CD582801C4589C593E717001CC5828013
:10079000F99B1CC58280A54763F7B704138865FFE2
:1007A000131718008328C50042979D47B397E700A9
:1007B00093C7F7FFB3F71701B396E600DD8E54C574
:1007C000994763E5C7047D16931726003E9658594E
:1007D000FD47B397C70093C7F7FFF98F3396C5005E
:1007E0005D8E50D9828013971500032805012E973E
:1007F0009D47B397E70093C7F7FFB3F70701B39699
:10080000E600DD8E14C99947E3FFC7FAB14763E3F9
:10081000C702130796FF1316270014593A96FD478F
:10082000B397C70093C7F7FFF58F3396C5005D8E6A
:1008300010D982804D161317260054553A96FD475D
:10084000B397C70093C7F7FFF58FB395C500DD8D4C
:100850004CD5828008416D8D3335A0008280B7F77A
:10086000FF1F03A54770828003A8850093770801C6
:100870001373F80081C7DC413363F300B7270240EC
:10088000985BB707000FF98FF1E7B707002005471E
:100890002380E70AB71701406307F50C962193F709
:1008A000F60FADE39307F00F63FDD70483284500EF
:1008B000A147854EBD4F130F800293028004414E25
:1008C00021A08507638DC7033397FE00B375D7005A
:1008D000E319B7FE139627000116B395CF0093C511
:1008E000F5FFB3F815013316C300B36816016303AF
:1008F000E809E31858FC18C98507E397C7FD2322C8
:10090000150182800C418147854EBD4F130F800237
:1009100093028004214E21A08507638BC703339780
:10092000FE003376D700E319C7FE13962700B3986D
:10093000CF0093C8F8FFB3F5B8003316C300D18DCC
:100940006308E803E31A58FC18C98507E399C7FD53
:100950000CC189BFB7170140E312F5F4B7070020B7
:1009600083C7070A85DF9621B58296A1C1FE8280E2
:1009700058C95DB758C9B1B7B71701406305F5004D
:1009800011CA0CC98280B707002083C7070AEDDBB4
:10099000B58165FA4CC98280B707002023A2A70A57
:1009A0008280B7160240DC4251777D17F98F5D8D4A
:1009B000C8C28280371702405C439146B18B638581
:1009C000D700A1466381D706B7177A00938707201F
:1009D0001CC1371602405442370700201307070195
:1009E0009182BD8ABA969422B3D7D7005CC1544293
:1009F000A1829D8ABA969422B3D6D70014C55442D8
:100A0000AD829D8A36971823B3D7E7005CC558425C
:100A10003983937637001387418036971823B3D7ED
:100A2000E7021CC982805C4358434166C983BD8B81
:100A30008907C546718F6380D70419EF3747024095
:100A400003270780418B05C337177A001307072058
:100A5000B387E7021CC1B5BF37170240584393164E
:100A6000E700E3D306FE37173D0013070790B3876F
:100A7000E7021CC1B9BFC94765F3C9B799C53717A4
:100A800002401C4F5D8D08CF8280B7170240984FFF
:100A90001345F5FF798D88CF82801E21B73601403E
:100AA000938606C0C207C183F22183D8450003D8CC
:100AB00005006300D504370700406307E50213070C
:100AC00007406303E5023717004013070780630DF3
:100AD000E50093F7F7CFD18F1EA12316150323143A
:100AE000050385475EA98280BA2193F7F7F8D98F6D
:100AF000CDB7BA2193F7F7F85D8F1377F7CF518F02
:100B00001AA123161503231405039C251EB9854736
:100B10005EA982801A3103D38500B6214207418342
:100B20003D9B420741831AB11E3103D80500522173
:100B300083588501C2076577C183B3E66600130752
:100B4000F7CF220892063377170193F7F7FD336743
:100B50000701D58F37380140931606014207C207B7
:100B6000130808C0C1824183C18363080501F221D3
:100B700056A11AAD12BD1EB1828083D8A50003D341
:100B8000C500F225920893F7F7F7B3E71701FD7850
:100B9000336666009388F83F03D845000A06B3F62B
:100BA0001601D18EC207C183C206F22193F7F7FB6B
:100BB0001208C18256A1B3E707011AADC207C1836B
:100BC00012BD1EB182801E2189C593E717001EA1A8
:100BD0008280C207C183F99BC207C1831EA18280A4
:100BE0008357450491C52167D98F2312F50482806C
:100BF000C607C5832312F50482801E2189C593E7A9
:100C000007081EA18280C207C18393F7F7F7C207C6
:100C1000C1831EA182801A2DFD779387F77FF98FFC
:100C2000A205CD8FC207C1831EAD82800EBD82801A
:100C3000EFF2EFFE1629FA21F577FD17F58FD98F20
:100C40001EA99225DE21BA255625D18FD98F7D7711
:100C50001307379F758FD98F5EA55E29DA2501119D
:100C6000C207C18393F7F7CFD98F2A845EA86800A3
:100C7000AE848933B747014093870780630FF4043C
:100C8000D2476545B335F502904081460A063305E3
:100C9000F502EF10905893064006B357D50213069D
:100CA000F063920713D747003387E602198D1205C8
:100CB00013052503637AA6001385070142054181C8
:100CC0000AA405616FF0EFF73355D5025D8D42053B
:100CD00041810AA405616FF0CFF6E2475DB791C587
:100CE0005E250967D98F5EA582805A25F977FD17A1
:100CF000F98F5EA5828093F5F51F4EA182800A21AF
:100D00006D8D3335A0008280370700201307070C54
:100D100011A03E871C43E3EEA7FE50435441B305A8
:100D2000C7006307B5023306D5006387C7001CC13F
:100D30006303E50008C38280370600200326860A85
:100D4000E387C7FED0439C43B29654C11CC1CDB7C4
:100D5000B29654C33A85C1BFEFF2CFEA2A84EF00BE
:100D6000D05E370600201306860A1C42FDC3B70773
:100D7000002003AAC70AB3778A00DDEF9307F4FFC8
:100D80003957636BF70A9307040113F7F7005DEB1C
:100D9000B70900209389090B83A4090063EEF408C6
:100DA000B706002003A4060C9386060C29A00C406D
:100DB00091C5A2862E845840E36BF7FE1042630D66
:100DC00086060C4003A906003306F7408CC2930642
:100DD0000002410963E0C60EB70600209386460B69
:100DE0009042B387E44023A0F90063F3C7009CC29C
:100DF000B70700209387870B94433367EA0058C0F6
:100E0000232004001387160098C3EF001055937732
:100E1000F90095C789679387078073900730374635
:100E20000000374500001306C6079305001113059F
:100E3000450AEF20C00201A0EF00305201494A8567
:100E40006FF08FDF13F707FF4107E3F7E7FEBA877D
:100E500081B7B70600209387C61313F7F70059E749
:100E60001387C6139386C61385659385057FAE9752
:100E7000C19BB705002023A0070023A2070093858C
:100E8000050C23A2050094C13387E7401CC29CC215
:100E9000B707002023AAE70AB707002023A8E70A1C
:100EA000D8C2B70700203707008023A6E70A370A11
:100EB0000080D1B53305F4001377F5001DC38967B1
:100EC000938707807390073037460000374500004E
:100ED0001306C6079305F00C1305450AEF1030788A
:100EE00001A050C15CC00D355840FDB51387F70017
:100EF000419BBA8695BF55C1EFF26FD2B70700206C
:100F0000032745FF83A7C70A2A84B376F70095C64F
:100F1000832605FFA9C689679387078073900730EA
:100F200037460000374500001306C60793055012E8
:100F30001305450AEF10B07201A0896793870780F7
:100F40007390073037460000374500001306C60788
:100F5000930540121305450AEF10707001A093C766
:100F6000F7FFF98F232AF5FEEF00303EB707002088
:100F70009387070B9443032744FF130504FF369719
:100F800098C35933B70700209387C70B98430507C9
:100F900098C3EF00903C6FF0CFCA8280B7E700E0C3
:100FA00041572387E7402386E740B7F700E023A0B7
:100FB000070023A20700814694C70147D8C7370717
:100FC0000020832507081307401F814633D6E5021A
:100FD0003D4790CBD4CB98C38280EFF24FC44111F0
:100FE00002C6F32750303EC6B2470D478D8B639B38
:100FF000E704B757002093870700BD8B9DC389671F
:10100000938707807390073037460000374500000C
:101010001306860C9305B00B1305450AEF103064D8
:1010200001A0AD3FB7E700E0116723A0E710056717
:1010300023A0E71023A40180EFF08F9C014541011C
:101040006FF02FC08967938707807390073037460A
:101050000000374500001306860C9305600B13054E
:10106000450AEF10D05F01A0397106DE16DC1ADAEE
:101070001ED82AD62ED432D236D03ACE3ECC42CA50
:1010800046C872C676C47AC27EC0731101348967BD
:101090009387078073900730B7F700E023A207001B
:1010A000EF00704B11C5B7E700E0116723A0E72000
:1010B0008967938787887390073073110134F250E2
:1010C000E2525253C2533255A255125682567247BB
:1010D000E2475248C248324EA24E124F824F21611F
:1010E0007300203089679387078073900730938758
:1010F00081809843050798C38280138781801C43B1
:1011000091CBFD171CC391E78967938787887390FC
:1011100007308280EFF2AFB08967938707807390C2
:10112000073037460000374500001306860C93054C
:1011300030101305450AEF10905201A09307850067
:101140007D575CC118C55CC51CC923200500828081
:101150002328050082809041FD5713078500631402
:10116000F60039A83E875C439443E37DD6FEDCC19C
:101170008CC71C4198C54CC388C985071CC1828097
:1011800018495C43EDB71C4954411845D04398C6F3
:1011900054C36309A6009843232805007D1798C30C
:1011A00088438280D8C39843232805007D1798C3BD
:1011B0008843828030410DC2EFF26FA65C4518452E
:1011C000B2975CC563E4E7001C415CC52E85BE8513
:1011D000EF10D03D6FF0EFA68280EFF24FA4AA840B
:1011E000113703C4540462046184635D8002DC50DF
:1011F00095CB1389440211A87D149377F40F1394AF
:101200008701618485C3DC5091CF4A85EF00104D82
:1012100065D57D14EF00D06B9377F40F139487019D
:101220006184F5F3FD57A382F404C13D653D03C419
:10123000440462046184635D80029C4895CB1389F9
:10124000040111A87D149377F40F1394870161842E
:1012500085C39C4891CF4A85EF00504865D57D14E1
:10126000EF0010679377F40F139487016184F5F30F
:10127000FD572382F40451356FF0AF9CEFF22F9AA3
:1012800035C55C5D2A84A9C33841B3B7E7028DEF49
:10129000AE84893D34405C5C1840232C0402B38743
:1012A000F6027D562302C40458C0A302C404B386C8
:1012B000D740BA9736971CC458C4B9E81C48A5E370
:1012C0002D3D05456FF0EF978967938707807390F1
:1012D000073037460000374500001306060F930518
:1012E00050141305450AEF10903701A089679387C2
:1012F000078073900730374600003745000013061B
:10130000060F930500111305450AEF10503501A093
:10131000130504012535130544020D3555B7130592
:101320000401EF00B03B49DDB7E700E0116723A0FF
:10133000E72079B7EFF2AF8E01CDB3B7A502AA844B
:101340002E8999E73305B502930770FB63F4A70272
:1013500089679387078073900730374600003745C9
:1013600000001306060F9305601C1305450AEF10D5
:10137000102F01A013058504C5322A8419C9AA8734
:10138000631C09001CC044DC2320240585452285FC
:10139000F53522856FF0EF8A93078504E5B7EFF204
:1013A0006F86011132C6630105122A842E89638873
:1013B000050EEF00B052630F050A2D33045CADE853
:1013C000B247638E07082808EF001043FD59130B3E
:1013D0004402B7EA00E0116A0D33EF0000771933D9
:1013E00083474404E207E18763943701230204043E
:1013F00083475404E207E18763943701A30204049E
:10140000ED396C002808EF0090400DEDE1391C5CCF
:10141000A1EFE531B2455A85EF0010202285753BDA
:10142000EF00A07305E923A04A216D39045C95C43F
:10143000CA852285FD14BD3B04DC1C48C5EB75390B
:10144000054505A02285513BEF00207161391C5CE8
:1014500099C765314139045CE1FCB247B5FF713988
:10146000014505616FE05FFD49392285BD33EF001D
:10147000C06ECDB7B247E38207F4896793870780D0
:101480007390073037460000374500001306060FFB
:101490009305A0551305450AEF10701C01A03C41AF
:1014A000E38907F089679387078073900730374691
:1014B0000000374500001306060F9305505513052D
:1014C000450AEF10D01901A08967938707807390B0
:1014D000073037460000374500001306060F930516
:1014E00010551305450AEF10901701A013050401CC
:1014F000EF00D01EE30505F4B7E700E0116723A075
:10150000E72035BF2DC58DC937260020814701480A
:101510001306C693A14813173800B306E60003A3C9
:1015200046006303A3041307180081CB3A88E31431
:1015300017FF99C38CC3C8C38280A106C28703A8C2
:1015400086FF630F0800E30917FF03A84600BA8768
:10155000630B0501A10603A886FF0507E31508FE36
:101560008E07B297E1B70E07B307E600E1B7EFE2E7
:101570001FEB896793870780739007303746000019
:101580008565374500001306060F938585AC130566
:10159000450AEF10D00C01A0EFE27FE82A84AE8468
:1015A00032898936834744047D57E207E187639493
:1015B000E70023020404834754047D57E207E187D0
:1015C0006394E700A30204040D3E1C5C89C72285D6
:1015D00029316FE01FE74A86A68513054402EF0014
:1015E00030082285DD3E6FE0DFE537270020130756
:1015F000C7978546B7E500E011661C43E3FFF6FE9A
:1016000023A0C5201C43E3EDF6FEC5BFB7070020AD
:1016100003A7C70CB70700205847184323A4E70EB9
:101620008280EFE23FDE37040020B707002013047A
:10163000840C03A9870F1C40AA84AE891385470038
:101640009936FD576381F4041C40CA94C4C363E314
:101650002403B707002003A5C70C0C409105E53C07
:10166000B70700209387870E984363F3E40084C391
:101670006FE09FDCB707002003A5070D0C40910524
:10168000D93C6FE07FDBE38109FCB727002093871B
:1016900087A5D8430C401440104798C50C40D0C6CD
:1016A0000328870010400840944391052322B80086
:1016B000110610C7138716005CC998C36FE0DFD707
:1016C000EFE2FFD5B70700209387870F804305041B
:1016D00080C363170412B70600209386C60C9C4291
:1016E0009C43639B0716370700201307070D9042A2
:1016F0000C43B70700209387C70E8CC210C39843D2
:10170000050798C39C429C43FDEB37060020130657
:10171000860EFD571CC21C42636BF40EB7060020F8
:10172000B7270020B708002001459386C60C938E8A
:10173000C7979388880C370F00209C429C43CDCFDD
:101740009C42DC47DC47D8436366E410D84B03A8CF
:101750008700CC4703234700138E47002324B8009B
:1017600023A205016303C30F032807008C5723AA94
:1017700007007D182320070195C503A8070203A3CE
:10178000C70183AF4500138787012324030103A802
:10179000070223226800638CEF0A984123A4070202
:1017A0007D1798C113070F0ECC57032807006373EA
:1017B000B8000CC3139725002E970A0776970328C5
:1017C000470003230700832F880023A40701050394
:1017D00023A6F701832F880023A2CF012324C80169
:1017E000D8CB2320670083A70800DC57E3E7F5F494
:1017F0009C4205459C43A9F7FD571CC215A03935ED
:10180000370600201306860E1C42E379F4F0B72752
:101810000020B70800200145938EC7979388880C55
:1018200083A708008546D85793172700BA978A07D9
:10183000F6979C4363F3F6000545B707002083A79E
:10184000C70F91C305456FE0DFBF4CC331BF23A273
:101850000501A1B718C2E9B789679387078073901C
:101860000730374600008565374500001306C6106F
:10187000938575AC1305450AEF10605E01A0EFE299
:101880009FB793192600AA8A4E852E84368BBA8B71
:101890003E8AEFF06FCC630405142A8913054005D6
:1018A000EFF08FCBAA84630105162328250363027A
:1018B0000416A285930745039306040103870500D8
:1018C00085078505A38FE7FE19C3E399D5FEA3819C
:1018D00004049D4763E87711138C4400628523A6B6
:1018E000740323A2740523A40404EFF07F861385F8
:1018F0008401EFF0FF85A1471385C9FFB38B7741C2
:101900004A9584C823AC7401C4D023860404A386FA
:10191000040423870404A3870404238804045A8648
:10192000D6854199EFE0DF9D88C063040A0023203B
:101930009A00EFF02FFBB70700209387470D9843DD
:10194000370900201309890C050798C303270900EC
:1019500069CBB70700209389470F83A70900D454A8
:1019600081EB03270900585763E8E60A2320990012
:10197000372400201304C497370700201307C70D2E
:101980001043B70700209387070E8C43050610C34A
:1019900063F3D50094C393972600B6978A07A2975E
:1019A000D8439443104798C48506D0C410472322D7
:1019B000860123248701DCC894C3EFF00FF483A7CA
:1019C0000900054591CF03270900DC545857637976
:1019D000F700B7E700E0116723A0E72011A07D55CD
:1019E0006FE0FFA4896793870780739007303746BD
:1019F0000000374500001306C61093057039130523
:101A0000450AEF10C04501A04A85EFF0CFCE7D55C5
:101A1000C1BF230A050275BDB72700201384C797ED
:101A2000A1BF2320990098438547630CF700B7278F
:101A300000201384C797B7070020D4549389470F19
:101A400025BFB72900201384C997130A040A938974
:101A5000C9974E85D109EFF06FEEE39C49FFB72798
:101A600000201385C7A1138AC7A1EFF02FEDB72778
:101A70000020138507A3938907A3EFF02FEC3725E8
:101A80000020130545A4EFF06FEB37250020130568
:101A900085A5EFF0AFEA37070020B707002023261F
:101AA000470D23A8370DB7070020D4549389470F5B
:101AB000E1B5EFE2DF96B7070020B7450000371524
:101AC00000009387470E014781461306000893855F
:101AD00045101305A55E6533054463098500FD5770
:101AE0006302F50483A7C1806FE0BF95EF0070101B
:101AF000E31785FE89679387078073900730FD564B
:101B0000B707002023A4D70E37070020B70700200F
:101B1000232AA70E23AC070EEFF02FCC83A7C1809A
:101B20006FE03F928967938707807390073037464D
:101B300000008565374500001306C61093850584AF
:101B40001305450AEF10A03101A0B70700209387C5
:101B5000870D9843050798C38280EFE2BF8A370458
:101B600000201304840D1C4085E789679387078054
:101B7000739007303746000085653745000013062F
:101B8000C6109385358B1305450AEF10402D01A033
:101B9000EFF04FD51C40FD171CC01C4099C70144F5
:101BA000EFF0AFD522856FE03F89B707002083A70C
:101BB000470DF5D7370900203726002037250020AC
:101BC00081471309C90F130646A4B70E0020130559
:101BD000C597370E0020054318424DC35C46DC47CD
:101BE000CC4F945398571388870194C503AF0702CD
:101BF000832847002322BF006388080D144323A4D1
:101C00000702FD1614C3D84B8C47D447832F4700D7
:101C10009388470094C5CCC2130F8E0C13880E0E08
:101C200063821F0B0C43D45723AA0700FD150CC376
:101C3000832508001397260036970A072A9763F42E
:101C4000D5002320D8004C430328070083AF85002C
:101C50008CC7050823A6F70183AF850023A21F01C7
:101C600023A41501D8CB2320070103270F005857C1
:101C7000E3E4E6F62320690018422DF381CFB7078D
:101C8000002083A7C70C9C43B9EFB70700207D57FE
:101C900023A4E70EB70400209384040F83A9040053
:101CA00063880902054A09A8EFF09FA119C1232002
:101CB0004901FD19638C09001C40FDD79C40850734
:101CC0009CC0C5BF54C3B9BF54C30DBF23A00400FB
:101CD00083270900E38507ECB7E700E0116723A03D
:101CE000E720054475BDEFF07F926DB719E5B7E7C2
:101CF00000E0116723A0E7208280EFE24FF2B707F0
:101D000000209387870D98431DC3896793870780B9
:101D10007390073037460000374500001306C610A1
:101D2000930590541305450AEF10601301A09843E2
:101D3000050798C38145EFF0DF8E053511E5B7E75C
:101D400000E0116723A0E7206FE0AFEFB7070020A6
:101D500003A5870F8280B707002083A7870D99E727
:101D6000EFE2EFEBEFF0DF956FE0AFEDB7070020AC
:101D70009387070F98430145050798C38280B707EB
:101D8000002083A7870D99C7B7070020054723AE1A
:101D9000E70E8280B7070020B705002023AE070EAC
:101DA0009385050EB726002098419386C69719A003
:101DB00005CF7D17931727003386E7000A0636966E
:101DC00010427DD6BA978A073386F6004842A107AB
:101DD000B697544154C2638EF602D446B70700202A
:101DE00023A4D70C98C18280EFE26FE389679387C1
:101DF000078073900730374600008565374500003F
:101E00001306C610938525C01305450AEF1020055B
:101E100001A0D44254C2D1B7EFE26FE019CDB707A9
:101E200000202E8483A5870CE105EFF0CFB2854515
:101E30002285EFF00FFF6FE0CFE08967938707807F
:101E4000739007303746000085653745000013065C
:101E5000C6109385C5C11305450AEF10400001A0C7
:101E6000EFE2EFDB2A8721C95443B70700209387AD
:101E7000870C83A8070003A886002E858C4323AE19
:101E8000D80083A8070023A0050303A3860003A8A6
:101E90000700E1088C431C4361082322130123A49B
:101EA000060198D585071CC311C27D55B285EFF098
:101EB0004FF76FE00FD989679387078073900730DA
:101EC000374600008565374500001306C610938528
:101ED00025C51305450AEF00907801A05C45DC4755
:101EE000FDC79857D04F945348439385870114C634
:101EF000D0C2630AB50C144323A40702370600209E
:101F0000FD1614C30327860DD45725EFD0478C4701
:101F1000D84B1385470090C5D047032847004CC2D3
:101F20006305A80A104323AA07007D1610C33707CC
:101F300000201307070E10436373D60014C31397D2
:101F40002600369713162700372700201307C79758
:101F5000329750430C430328860090C7850523A67B
:101F60000701032886002322A80008C6D8CB0CC38B
:101F7000B707002083A7870C0145DC5763EED70223
:101F8000828037270020130747A4504308430328C3
:101F90008600D0CF050523A007030328860008C3C9
:101FA00001452322B8000CC698D7B707002083A7A5
:101FB000870CDC57E3F6D7FCB7070020054723AEB4
:101FC000E70E0545828054C33DB750C3A1BFEFE281
:101FD0000FC58967938707807390073037460000E5
:101FE0008565374500001306C610938525C813057F
:101FF000450AEF00D06601A037070020B707002090
:102000000327C70E83A7870F18C15CC18280EFE248
:102010000FC141CD2E89BDC52A84EFF0AF8C3707A3
:1020200000201307870F8327090003280700FD56A8
:1020300081446381D702B70600209386C60E88428A
:10204000832804005040638CA800636AC8002320E2
:1020500009008544EFF06F8A26856FE08FBE330557
:10206000C840E376F5FE9442B38707411843B29720
:102070002320F90014C058C0EFF02F888144268532
:102080006FE02FBC896793870780739007303746CE
:1020900000008565374500001306C6109385E5CF1F
:1020A0001305450AEF00B05B01A08967938707809D
:1020B00073900730374600008565374500001306EA
:1020C000C6109385D5CF1305450AEF00505901A0DE
:1020D000B7070020054723AEE70E8280B707002030
:1020E00083A7470F054581CBB707002003A5870DC0
:1020F0001335150006058280EFE26FB23704002029
:10210000EFE05FFE1304C4101C4089C7EFE0FFFE40
:102110006FE02FB3B72700201385C7A61389C7A682
:10212000EFF0CF81B7270020138507A8938407A875
:10213000EFF0CF80B707002023A027110146B70793
:102140000020B145094523A29710EFF0AF9E08C0CB
:1021500055DDB745000093858514EFF0AFBA7DB724
:10216000EFE2EFAB4CC108C9AA876369B600184D0E
:10217000158E05456364E6026FE0AFAC6375D6006B
:102180000545E3FBD5FE370700200325071093859F
:102190004700EFE05FFC01456FE0AFAA3707002082
:1021A0000325471093854700EFE0FFFA01456FE0F4
:1021B0004FA9EFE2CFA62A84AE84328931A0184C11
:1021C0001C502285BA9482970C4CA6864A86A69506
:1021D000228579376DF56FE0CFA6EFE24FA4B70700
:1021E000002083A70710AA842E89DC47C047130567
:1021F0004400EFE05FF98347440213F7470009EB1F
:10220000F99B2302F4021C50228582976FE06FA392
:102210004A86A6852285713F1C50228582976FE0F1
:102220004FA2EFE2CF9F37040020130404101C409C
:10223000984301CBDC47FD55884345371C40984304
:1022400075FB370700201307471014431CC314C045
:102250006FE02F9FEFE22F9A37090020B70400208C
:10226000370400209169B70A0020411113090910B1
:10227000938484101304C41093890912938A4A101A
:10228000B7EB00E0116B254A8327090098436305EB
:10229000070EDC4783AC0700EFF03F8BEFF01FAB7E
:1022A0009C402A8C636BF50E88C00146637F950FB6
:1022B0000840B3858C41EFF02FAEEFF01F8A19E193
:1022C00023A06B21084001464C00EFF04F8D4DDDFF
:1022D0009247E3C907FE324C83274C0189C7130597
:1022E0004C00EFE05FEAEFF07FA69C40AA8C636CA5
:1022F000F50A924723A09401E366FAFC8A07CE9779
:102300009C43828783474C0213F727004DC7F99BF4
:102310002302FC0245BF83474C02A24593E7170006
:102320002302FC02232CBC00DDC1E6866686E6950E
:1023300062853D3541BF83474C02F99B2302FC0275
:1023400051B783474C0283258C01A24693E71700BF
:102350002302FC026686B6956285193525D583472A
:102360004C0213F7470021EFF99B2302FC0283275D
:102370000C0262858297B9B7EFF02FFDEFF01F9D39
:102380009C402A8C636BF50083A70A0023A084017C
:10239000814C90431336160021BF613523A0840180
:1023A000EFF0AFFB05B7B53DA9B7EFF00FFBE28546
:1023B0006685253501BF6285EFE0FFB321B783272E
:1023C0008C01A24566866285BE95E5334DB7896767
:1023D0009387078073900730374600003745000029
:1023E00013060615930590351305450AEF003027AF
:1023F00001A0EFE2CF820933B707002083A7C710FF
:1024000085C7B7070020B745000037250000938730
:1024100007111D478146130600089385851613058D
:102420004525EFF0CFC51DE189679387078073903D
:1024300007303746000037450000130606159305A0
:1024400090111305450AEF00902101A06FD07FFF86
:10245000B707002083A7070837177A00130707205C
:10246000B3D7E7021307803EB706002093F7F70FB4
:102470003387E702238BF610B7070020239AE71073
:102480008280EFD2DFF9AA8411650111854511051B
:10249000EFE0CFDE930700207C82371501408D47A7
:1024A0004C003EC413050580E147374401403EC659
:1024B000EFE08FBBB70708000C08130504803ECC83
:1024C00026C802CA231E0100EFE08FF685451305DA
:1024D0000480EFE0DF8005616FD0BFF6EFD29FF29E
:1024E000B2896359C00237440140AE843389C500C4
:1024F00013040480930500042285EFE05F807DD9FA
:1025000085048385F4FF2285C205C181EFE0AFFE1B
:10251000E31299FE4E856FD03FF293870181944379
:1025200037270020130747BA3695636BE500375706
:102530000020130707806365A70088C33685828063
:10254000FD563685828037070020130707131C438A
:102550008D4663C5F602EFD29FECAA85614593864E
:102560001700B387A70237250020130545A9614648
:1025700014C33E95EF0090036FD0BFEC8280EFD282
:102580007FE8B73401402A84938404C0930920066D
:10259000374900000E2C2685EFE04FE91C4C8507DB
:1025A00063CCF9001CCC0C4C13050917EF00300B61
:1025B0002945EFF0AFF3F9BF232C0400EDB7EFD2BC
:1025C0001FE637140140130404C0014685452285E7
:1025D000EFE08FBA1305800CEFF04FF1228505462E
:1025E0008545EFE06FB91305800CEFF02FF0F1BFD8
:1025F000EFD25FE1056AB71901404169AA84130A65
:102600002AFD938909C07D19B74A0000804C21C476
:1026100083C50404854605462285EFE0CF97FC403C
:102620005CDCBC447CC489452285EFE0AFA265DD5B
:1026300060441316040141823336460113461600E6
:102640004E858945EFE04FB3B375240113858A1792
:10265000EF00F00065BF01440146DDB7EFD23FDC7B
:102660002A84854513050020EFE04FC13165EFE076
:102670004FB3930504023724014013050440EFE0F3
:10268000CF8A130504408545EFE0CF8F8327444070
:102690003707000513040440D98F5CC06FD07FDA80
:1026A000EFD2FFD7AA840565854513050580373429
:1026B0000140EFE0AFBC93854403130504C0EFE095
:1026C000CFBD93854402130504C0EFE0AFC41305EA
:1026D00004C08545EFE0CFD0130504C0A145EFE06D
:1026E0008FD3130504C08545EFE02FD18545130531
:1026F00004C0EFE04FCD6FD0DFD4B7170140138790
:1027000007806307E502138707C06305E5026305D9
:10271000F502938707406303F502B7070140631290
:10272000F5020545EFD2BFCFEFE04FB56FD07FD1B7
:102730001145CDBF2145FDB74145EDB71305000259
:10274000D5B78280EFD21FCC41110545EFE0CFA471
:10275000EFD09FEBF5397165130505201D33B707E1
:10276000002083A507083745000013058518C52DEF
:10277000EFE0EF8EAA853745000013058519C525C2
:10278000B7450000374500009385851A1305051BE2
:10279000F925B704002083A70413372400208D46B1
:1027A00093840413130444A963C8F6021387170023
:1027B00098C06147B387E70213070010A297DAA316
:1027C00037170140130707C098C70947DAA74147E1
:1027D00023A0070094CBD8CBB70900209387091218
:1027E0009C230F00F00F93F7F70F37290020BDE768
:1027F0001385091219243DC137170140930749B3C6
:102800001307078098C70947DAA73727014013073E
:10281000074098CF0547C1462380E704238AE70293
:1028200037270000F4C31307C765A146B4C7239236
:102830000700B7060E0023A8070023AA070023AE4F
:10284000070098C31385091223A0070223A20702D9
:1028500023A40702D4D723A807025D2A130549B38E
:10286000DD31B7450000372500005C0015479306B1
:1028700049B3130600089385051D1305055F02C2C1
:10288000B7090020EFE0BFFF938789129C230F0058
:10289000F00F93F7F70F372900208DEF138589127A
:1028A000A92A0DC937170140930709B8130707C0B4
:1028B00098C70547DAA70D4798CB414723A00700E3
:1028C00023920700D8CB23AC070023AE0700138563
:1028D00089123D2A130509B8EFF0FFC6B74500007D
:1028E000372500003C001547930609B81306000879
:1028F0009385C51D1305E55B02C4B7090020EFE011
:102900001FF8938789119C230F00F00F93F7F70F9F
:1029100037290020B5E313858911C52031CD37173C
:102920000140930749AF1307078098C7130700209A
:10293000DAA705671307F72BD8DB1307300698DFF4
:102940000D4798CB6147D8CB416713070707D8D30A
:10295000372700001307076A2392070023AE0700FA
:1029600023A0070298C31385891123AC0700239580
:102970000702239607026928130549AFEFF0BFBC91
:10298000B745000037250000930649AF7C00154786
:10299000130600089385051E1305E55702C6014975
:1029A000EFE0FFED85498C40635CB9025C2095E760
:1029B00008448545993308449305C400EFD0DFEA05
:1029C0005C4891C750304E240844EFD0FFFA1C40B9
:1029D00099C3228582972302340105096104E1B776
:1029E000374500001305C51E9D29EFF08F8C374435
:1029F000000013054420B52BEDBF1C2181EB1C31D9
:102A000091C3029085471CB10545828001458280B3
:102A10008547A30005001CA18280B687B2882A835F
:102A20002E88639B061463F8C50A4167636BE61A38
:102A3000B70700016360F63493568601E147171724
:102A400000001307677E36971823BA971307000212
:102A50001D8F19CB3398E500B357F500B318E60086
:102A600033E807013313E50013D608013355C802D4
:102A700093960801C182935703013377C802B38547
:102A8000A60242073368F700637AB80046989307B6
:102A9000F5FF636418016365B8303E853308B840BC
:102AA0003357C8024203135303013378C802B38675
:102AB000E602420833686800637BD80046989307B3
:102AC000F7FF6365180179176363D8003E874205F5
:102AD000598D8145828001E60547B358C702416799
:102AE00063E8E80EB707000163EAF82893D6880187
:102AF000E147171700001307277336971423BE9674
:102B000093070002958FFDE7939E080133871541D7
:102B100013DF080193DE0E018545935703013355FA
:102B2000E7033377E703B306D5034207D98F63FA88
:102B3000D700C6971307F5FF63E4170163E5D726AF
:102B40003A85958F33D7E703420313530301B3F755
:102B5000E703B30ED703C207B3E7670063FBD701F0
:102B6000C6979306F7FF63E51701791763E3D7016B
:102B700036874205598D828063E1D504C16763E1E0
:102B8000F604B707000163E3F61E13D78601614818
:102B90009717000093874769BA979823130E00028E
:102BA0004297330EEE40631A0E0C63EDB61C3335BC
:102BB000C50013451500814582808145014582800D
:102BC0009307F00F63F3D71C13D786002148C9B7CA
:102BD0001307F00FC686E37E17F193D68800A1474E
:102BE00009BF1307F00FB286E37BC7E49356860054
:102BF000A147B1B5B398F80033D6D50013DF08016B
:102C0000335EE6033397F500B356D500558F939E98
:102C1000080193DE0E013313F50093550701B376D7
:102C2000E603B387CE03C206CD8E63FBF600C696DD
:102C30001306FEFF63E4161763F2F616791EC696B6
:102C40009D8E33D6E60393170701C183B3F6E603DF
:102C50003385CE02139706015D8F637BA7004697ED
:102C60009307F6FF636817136376A71279164697E2
:102C700093150E01098FD18D4DB5B357E600B3966C
:102C8000C601DD8E33D3E50013DF0601B357E3033E
:102C9000939E060193DE0E013398C5013357E5007C
:102CA00033680701935808013316C6013373E303F1
:102CB000B385FE024203B368130163FBB800B69804
:102CC0001387F7FF63EAD80C63F8B80CF917B698C6
:102CD000B388B84033D7E803420813580801B3F863
:102CE000E8033383EE02C208B3E5080163FB650025
:102CF000B6951308F7FF63EDD50863FB65087917F0
:102D0000B695C207416FD98F1307FFFFB3F6E700EF
:102D100093D80701718F4182B38EE602B385654077
:102D2000B386C60213D80E013387E802BA96C2965C
:102D30003386C80263F3E6007A9693D80601469676
:102D400063E2C5026385C5003E8581458280416797
:102D50007D17F98EC206B3FEEE003315C501F69657
:102D6000E374D5FE1385F7FF8145828013D70601F2
:102D7000414839BD93560601C147D1B193D60801E8
:102D8000C14785BB8145054582803687014809B525
:102D9000428785BF3E86E9BDBA871DBF328E4DB5DD
:102DA00079154698E5B97915C69761BBB3C7A500F3
:102DB0008D8B3307C50081E78D4763EDC700AA8778
:102DC000637EE508942185078505A38FD7FEE3EB95
:102DD000E7FE828093763500AA8789CA9421850709
:102DE0008505A38FD7FE93F63700C5BF9376C7FF3F
:102DF000138606FE63F0C70683A3050083A2450081
:102E000083AF850003AFC50083AE050103AE450166
:102E100003A3850183A8C5019385450223A07700FC
:102E200003A8C5FF23A2570023A4F70123A6E701A7
:102E300023A8D70123AAC70123AC670023AE17013B
:102E40009387470223AE07FF75B79041910791051D
:102E500023AEC7FEE3EBD7FEE3E6E7F682803971E7
:102E60003EDA2ED232D436D63AD842DC46DE9387CA
:102E7000418122CC804326CA06CEAA8409C41C4CB8
:102E800099E32285ED290C4454102686228536C606
:102E9000EF00F013F2406244D244216182800111BC
:102EA00026CA4AC806CE22CC4EC652C4AA842E894F
:102EB00001C51C4D91E3E1219C4C804499E326859A
:102EC0007D299717000093872748631BF402C040B1
:102ED0005E24A18BB1C71C48A1C7FD59294A1C44D7
:102EE00083450900FD17B1E91CC463DD070622868E
:102EF000A94526856120FD576308F502294535A0BF
:102F000097170000938747466314F4008044C9B7BD
:102F10009717000093874741E31CF4FAC0444DBF64
:102F2000A2852685112A55D97D55F2406244D244A6
:102F30004249B249224A056182801CC4050963D70F
:102F40000700184C63CAE700638845011C401387DB
:102F5000170018C08CA361B7228626850520E310D0
:102F600035F9D9B71C401387170018C0294798A313
:102F700071B793874181AA85884315B7011122CC87
:102F800026CA4AC806CE4EC6AA842E89328401C5F6
:102F90001C4D91E3ED26971700009387E73A6317DE
:102FA000F406C0401C4C1CC45E24A18BC1C31C4849
:102FB000B5CF1C4808409379F90F1379F90F1D8D8F
:102FC0005C486346F500A2852685692C25E51C44EE
:102FD0000505FD171CC41C401387170018C023806B
:102FE00037015C486388A7005E24858B81CBA947A5
:102FF0006316F900A2852685B5240DEDF2406244E2
:103000004A85D2444249B24905618280971700003F
:10301000938787356314F400804469B797170000DD
:1030200093878730E310F4F8C044ADBFA2852685AE
:10303000212041D17D59D9B741119387418126C2C1
:10304000844322C44AC006C62A892E8489C49C4C63
:1030500099E326852D26971700009387E72E631B9B
:10306000F402C0400317C40093170701C18393F60D
:103070008700ADEA93F6070195EEA5472320F900F6
:10308000136707045AA47D55B24022449244024972
:1030900041018280971700009387072D6314F40085
:1030A0008044C9B79717000093870728E31CF4FAF8
:1030B000C0444DBF918B9DC34C5889C993074404AC
:1030C0006384F5004A853123232A04025E242322E7
:1030D000040093F7B7FD5EA41C481CC05E2493E770
:1030E00087005EA41C4899EB5E241307002093F729
:1030F00007286385E700A2854A85A1215E2413F78E
:1031000017001DC35C4823240400B307F0401CCC07
:103110001C480145B5FB8317C40013F707082DD7DA
:1031200093E707045EA485B7898B014791E358486C
:1031300018C4F9BFDE25011122CC26CA06CE4AC822
:103140004EC613F78700AA842E8479EBD841634DCD
:10315000E000B841634AE0000145F2406244D244D5
:103160004249B2490561828058547DD703A90400C1
:103170009396370123A0040063DB060670485E24A3
:10318000918B99C75C401D8E5C5899C33C401D8E45
:103190005C540C50814626858297FD575A24631D46
:1031A000F5009440F54763E8D706B7074020850748
:1031B000B3D7D700858BA5C31C48232204001CC0AD
:1031C0009317370163D80700FD576314F5009C403F
:1031D00091E368C84C5823A02401BDDD9307440443
:1031E0006384F5002685F526232A0402B5B70C5022
:1031F0000146854626850297FD572A86E311F5F894
:103200009C40B5DF75476385E70059476393E70442
:1032100023A0240191B7136707045AA47D5535BF35
:1032200083A90501E38A09F203A905008D8B23A078
:10323000350133093941014791E3D84918C4E35DA9
:1032400020F11C540C50CA864E862685829763470F
:10325000A0005E2493E707045EA4C9B7AA993309C6
:10326000A940F1BF9C49B9CF011122CC06CE2A84D6
:1032700011C51C4D81E72EC61922B24597170000D3
:103280009387870C639BF5004C408397C50095C7D7
:1032900022856244F240056171BD97170000938753
:1032A000A70C6394F5000C44CDB7971700009387E3
:1032B000A707E39CF5FC4C44C9BFF24062440145BA
:1032C0000561828001458280411122C406C62A849C
:1032D0004EA572A523200500232205002324050006
:1032E0002322050623280500232A0500232C050098
:1032F000214681451305C505EFD06F95971700004E
:10330000938787B35CD0971700009387A7B51CD429
:1033100097170000938787B95CD4971700009387AD
:10332000E7BB00D01CD8B2402244410182809705FF
:103330000000938565F3A9A2411126C213068006F9
:103340009384F5FFB384C4024AC02E8922C406C602
:10335000938544073D262A8401CD2320050023229E
:103360002501310508C4138684068145EFD02F8ED0
:103370002285B240224492440249410182801C4D80
:10338000ADE3411106C622C497070000938767FA90
:103390001CD59387C1819C4323240504232605045F
:1033A000232805046314F50085471CCD2A841D28B5
:1033B00048C02285052808C422852D2048C44840DD
:1033C00001469145113708440546A545F53D484459
:1033D0000946C945D53D85471CCCB2402244410130
:1033E0008280828041119387C18126C284434AC072
:1033F00006C69C4C22C42A8999E3268549379384C2
:1034000084048044DC40FD1763D607009C40B9CF9C
:103410008440C5BF0317C40039E7C177850723225D
:1034200004062320040023220400232404005CC497
:1034300023280400232A0400232C0400214681456C
:103440001305C405EFD0AF80232A0402232C040205
:1034500023240404232604042285B24022449244F7
:103460000249410182801304840671BF91454A8557
:10347000E13588C051FDB1472320F9000144E9BF7F
:10348000797122D44AD052CC56CA5AC85EC606D6E2
:1034900026D24ECE2A8AAE8A130485040149054BF2
:1034A000FD5B09ECB25022544A8592540259F2490C
:1034B000624AD24A424BB24B45618280044483291E
:1034C0004400FD1963D409000040E1BFDE24637BA2
:1034D000FB008397E40063877701A6855285829A73
:1034E0003369A90093848406E9BF1971A6DAAE8412
:1034F0008395E500A2DC86DE328463DB0500DE24F2
:1035000023A0060093F7070885E7930700401DA056
:10351000300836C6EF001023B246E34205FE72477C
:10352000BD67F98F7977BA9793B717009CC2F1BF3F
:10353000930700041CC0F6506654D6540145096137
:103540008280DE25011122CC06CE26CA4AC8898B8C
:103550002E8489CF930774041CC01CC885475CC89F
:10356000F2406244D24442490561828074003000D6
:10357000AA84A53FA2452A892685212219E9831715
:10358000C40013F7072069FFF19B93E727005EA4AF
:10359000D1B7970700009387C7D99CD45E2408C091
:1035A00008C893E707085EA4A2475CC8B24781CF6A
:1035B0008315E4002685EF00101C11C55E24F19BE5
:1035C00093E717005EA45E243369F90023162401F3
:1035D00041BFDDC583A7C5FF411122C406C626C26F
:1035E0001384C5FF63D307003E94AA84EF007020C4
:1035F00097D7FF1F938747B49C4391EF2322040082
:1036000097D7FF1F23AA87B22244B240268592444F
:1036100041016F00301E637EF40014403307D40074
:103620006396E7009843DC43369718C05CC0C9BF77
:10363000BA87D84319C3E37DE4FE94433386D700A9
:10364000631F86001040B29694C33386D700E31DF3
:10365000C7FA10435843B29694C3D8C375B763757D
:10366000C400B1479CC04DB71040B306C4006316F8
:10367000D70014435843B29614C058C0C0C369B7AA
:103680008280011126CA93843500F19806CE22CC9F
:103690004AC84EC6A104B14763F9F404B14463E8D3
:1036A000B4042A89EF00F01497D7FF1F9387C7A8A7
:1036B00098433A8439E497D7FF1F938727A89C4300
:1036C00081EB81454A85352F97D7FF1F23A8A7A6F1
:1036D000A6854A853D27FD59631B3507B147232041
:1036E000F9004A85EF00101129A0E3DA04FAB14786
:1036F0001CC10145F2406244D2444249B2490561CD
:1037000082801C40858F63C10704AD4663F6F600D6
:103710001CC03E9404C001A85C406315870217D703
:10372000FF1F232BF7A04A85EF00D00C1305B40030
:103730009307440061993307F5404DDF3A94898F30
:103740001CC04DBF5CC3C5B722874040A5B713045A
:1037500035007198E30085FCB305A4404A855525E2
:10376000E31A35FBA5BF1C46FD171CC663DA07002C
:10377000184E63C5E700A9476394F5006FF01F80FA
:103780001C422E851387170018C28CA3828001115A
:1037900022CC26CA4AC84EC652C406CE2A89AE8951
:1037A0003284B304D6007D5A63149400014501A805
:1037B0000C204E864A85453F0504E31745FFF2403D
:1037C0006244D2444249B249224A0561828035713D
:1037D00022CD26CB4AC94EC706CF52C556C35AC1C1
:1037E000DEDEE2DCE6DAAA89AE843289368409C5F7
:1037F0001C4D99E3EFF0BFB8971700009387C7B44B
:103800006397F40C83A44900DE24A18BFDC39C487C
:10381000EDC393070002A304F1029307000302D251
:103820002305F10222C6930B5002971A0000938AD7
:10383000AAB5054C294B4A841C2099C3639E770D79
:10384000B30C2441638D0C00E6864A86A6854E851E
:103850003D3FFD57630FF51C9256E69636D21C206D
:103860006389071CFD571309140002C802CE3ECA23
:1038700002CCA309010482D483450900154656856C
:10388000A92F13041900C24751E913F7070109C70B
:1038900013070002A309E10413F7870009C7130700
:1038A000B002A309E104834609001307A002638F55
:1038B000E606F2474A8481462546182093051400FF
:1038C000130707FD6377E60AB5CA3ECE85A89717AA
:1038D0000000938767A96395F40083A489002DB73E
:1038E00097170000938747A4E390F4F283A4C900DC
:1038F00021BFA6854E85EFF02FF401DD7D55FA40FE
:103900006A44DA444A49BA492A4A9A4A0A4BF65B57
:10391000665CD65C0D618280050439BF3305554174
:103920003315AC00C98F3EC82289B9B73247930618
:103930004700184336C6634707023ACE182093075C
:10394000E002631DF70418309307A002631BF7021F
:10395000B2470904138747009C433AC663C1070274
:103960003ECA2DA83307E04093E727003ACE3EC871
:10397000F1B7B387670385462E84BA973DBFFD57DD
:10398000C5B7050402CA814681472546182093051C
:103990001400130707FD6374E606F9F20C200D46C8
:1039A000171500001305C59E0D2D11CD97170000AA
:1039B0009387079E1D8D93070004B397A700424588
:1039C00005045D8D2AC80C20194617150000130543
:1039D000659C130914002304B102012535C197C762
:1039E000FFFF9387276295E74247B2471377071097
:1039F00009CF91073EC69257D2973ED22DBDB387CD
:103A0000670385462E84BA9751B79D07E19BA107AE
:103A1000D5B77800970600009386A6D726860C08AF
:103A20004E8597000000E7000000FD572A8AE31446
:103A3000F5FCDE2493F70704E39207EC1255C1B5B9
:103A40007800970600009386C6D426860C084E851B
:103A5000012AE1BF797156CA9C49BA8A984522D495
:103A600026D24ECE52CC06D64AD05AC85EC6AA89B5
:103A70002E84B284368A63D3E700BA879CC003479A
:103A8000340419C385079CC01C4093F7070281C703
:103A90009C4089079CC00329040013796900631ABC
:103AA0000900130B9401FD5B5C449840998F634CB3
:103AB000F9041C408346340493F70702B336D00060
:103AC000A5EB13063404D2854E85829AFD57630315
:103AD000F5041C4011469840998B544481446397E7
:103AE000C700B384E64063D3040081441C441848F3
:103AF0006354F700998FBE94014969047D5B639814
:103B00002405014509A885465A86D2854E85829AA4
:103B1000631E75017D55B250225492540259F249E8
:103B2000624AD24A424BB24B456182800509ADBF21
:103B30003307D40013060003A301C704034754044A
:103B400093871600A2978906A381E7049DBF854647
:103B50002286D2854E85829AE30E65FB050945B71C
:103B6000797122D426D24AD04ECE06D652CC56CA2D
:103B70005AC8B689942D930790063289AA842E8458
:103B800013863504638DF60263E2D706930780053A
:103B90006386F61863EDD700638E06209307300422
:103BA000638EF60A930A24042301D404C9A0930760
:103BB00030066385F60A93074006E395F6FE1C403F
:103BC000084393F6070893054500C5C61C410CC37E
:103BD00063D807001307D002B307F040A301E40441
:103BE000970600009386867B294765A89307000700
:103BF0006382F61663E5D7029307E0066389F61839
:103C00009307F006E390F6FA0C401C4313F80508FE
:103C1000138547006307080608C39C4385A89307DC
:103C20005007E383F6FE930780076389F612930734
:103C30003007E399F6F61C43D0418145938647004F
:103C400014C383AA07005685492E01C53305554183
:103C500048C05C401CC8A301040461A81C43930A2B
:103C60002404938647009C4314C32301F40485472E
:103C7000D5B793F607041C410CC3B9DAC207C18754
:103C800081BF93F5050408C3C9D99E231307F00625
:103C90006387E60E97060000938646702947A301C6
:103CA00004044C400CC463C5050008406D9908C06D
:103CB00099E3B28A89CDB28AB3F5E702FD1AB695C7
:103CC0008C212380BA00B3D5E70263F0E70CA1474B
:103CD000631EF7001C40858B91CB58401C4863C77E
:103CE000E70093070003A38FFAFEFD1A330656413F
:103CF00010C84E87CA867000A2852685EFF09FD532
:103D00007D5A631D450B7D55B25022549254025981
:103D1000F249624AD24A424B45618280A382D5046D
:103D200097060000938686670C40084313F8050841
:103D30001C411105630D080208C313F7150001C7E4
:103D400093E505020CC04147B9FB0C4093F5F5FD26
:103D50000CC0B1B79C4193E707029CC19307800751
:103D6000A302F404970600009386866475BF13F8D7
:103D7000050408C3E30308FCC207C1837DBF97069F
:103D800000009386A661214719BFAE8735B79441DD
:103D90001C43CC4913F80608138547006306080046
:103DA00008C39C438CC339A008C393F606049C4304
:103DB000F5DA8EA323280400B28A25BF144856865C
:103DC000CA8526858299E30045F51C40898B8DE7DD
:103DD000B2474844E35AF5F23E853DB785465686DC
:103DE000CA8526858299E30065F3050A5C4432475B
:103DF000998FE345FAFEE9BF014A930A94017D5B7E
:103E0000F5B7411122C42A842E8597E7FF1F23AB03
:103E100007D806C6EFE06FF0FD576319F50097E786
:103E2000FF1F938727D89C4391C31CC0B2402244F4
:103E300041018280411122C42E848395E50006C68B
:103E40005D2A634905007C48AA977CC8B240224499
:103E5000410182805E247D777D17F98F5EA4FDB7D6
:103E6000DE25011122CC26CA4AC84EC606CE93F7DB
:103E70000710AA842E843289B68991C78395E500FC
:103E8000894601460D225E247D777D17F98F5EA459
:103E90008315E4006244F240CE864A86B249424924
:103EA0002685D244056125A8411122C42E8483951C
:103EB000E50006C6CD28FD575A24631AF500FD77A4
:103EC000FD17F98F5EA4B2402244410182808567CC
:103ED000D98F5EA468C8C5BF8395E50025A84111A8
:103EE00022C42A842E85B285368697E7FF1F23AB2E
:103EF00007CA06C6EFE08FDEFD576319F50097E7A6
:103F0000FF1F938727CA9C4391C31CC0B240224421
:103F100041018280411122C42A842E8597E7FF1F28
:103F200023A207C806C61122FD576319F50097E7BB
:103F3000FF1F938727C79C4391C31CC0B2402244F4
:103F400041018280411122C42A842E85B28597E7DF
:103F5000FF1F23A907C406C6CD20FD576319F5002E
:103F600097E7FF1F938707C49C4391C31CC0B240CF
:103F7000224441018280411122C42A842E8597E780
:103F8000FF1F23A107C206C6C920FD576319F5000C
:103F900097E7FF1F938707C19C4391C31CC0B240A2
:103FA000224441018280411122C42A842E85B28597
:103FB000368697E7FF1F23A707BE06C67928FD5759
:103FC0006319F50097E7FF1F9387C7BD9C4391C313
:103FD0001CC0B24022444101828093F5F50F2A961D
:103FE0006314C500014582801C21E38EB7FE0505E0
:103FF000C5BF82808280411122C42A842E85B28569
:10400000368697E7FF1F23AF07B806C6B928FD57C6
:104010006319F50097E7FF1F9387C7B89C4391C3C7
:104020001CC0B2402244410182809307800517E7FB
:10403000FF1F2329F7B67D5582809307800517E778
:10404000FF1F2321F7B67D5582809307800517E770
:10405000FF1F2329F7B4014582809307800517E7E6
:10406000FF1F2321F7B47D5582809307800517E752
:10407000FF1F2329F7B27D55828000002E2E2F4688
:1040800072656552544F532F706F727461626C6524
:104090002F4D656D4D616E672F686561705F342EC1
:1040A00063000000657272206174206C696E652087
:1040B0002564206F662066696C6520222573222E98
:1040C000200D0A20000000002E2E2F46726565523A
:1040D000544F532F706F727461626C652F47434366
:1040E0002F524953432D562F706F72742E63000068
:1040F0002E2E2F4672656552544F532F717565757C
:10410000652E630049444C45000000002E2E2F46CA
:1041100072656552544F532F7461736B732E630035
:10412000C422000042230000422300003623000086
:104130001623000004230000422300004223000055
:104140003623000016230000546D72510000000059
:104150002E2E2F4672656552544F532F74696D652C
:1041600072732E6300000000546D7220537663005A
:1041700025640A0D00000000546F7563684B657973
:10418000323A2025640A0D0053797374656D436CCF
:104190006B3A25640D0A00004368697049443A256A
:1041A0003038780D0A0000005631302E342E36009B
:1041B0004672656552544F53204B65726E656C2094
:1041C00056657273696F6E3A25730D0A0000000020
:1041D000546F7563684B6579000000004C454400DE
:1041E000525570576865656C000000005B494E468B
:1041F0004F5D204770696F2053697A6528256429CF
:104200000D0A00005B4552524F525D2073686F7576
:104210006C646E27742072756E20617420686572FC
:1042200065212100000102020303030304040404C6
:104230000404040405050505050505050505050532
:104240000505050506060606060606060606060612
:1042500006060606060606060606060606060606FE
:1042600006060606070707070707070707070707E2
:1042700007070707070707070707070707070707CE
:1042800007070707070707070707070707070707BE
:1042900007070707070707070707070707070707AE
:1042A0000707070708080808080808080808080892
:1042B000080808080808080808080808080808087E
:1042C000080808080808080808080808080808086E
:1042D000080808080808080808080808080808085E
:1042E000080808080808080808080808080808084E
:1042F000080808080808080808080808080808083E
:10430000080808080808080808080808080808082D
:10431000080808080808080808080808080808081D
:10432000080808080000000000000000000000006D
:10433000000000000000000000000000000000007D
:10434000000000000000000000000000000000006D
:10435000000000000000000000000000000000005D
:10436000000000000000000000000000000000004D
:10437000000000000000000000000000000000003D
:1043800000000000232D302B20000000686C4C0042
:10439000656667454647000030313233343536377D
:1043A0003839414243444546000000003031323341
:1043B0003435363738396162636465660000000061
:1043C00000000000000000000102030406070809C5
:1043D00000000000010203040102030406070809AB
:1043E0000000000044430000644300002443000038
:1043F00000000000000000000000000000000000BD
:1044000000000000000000000000000000000000AC
:10441000000000000000000000000000000000009C
:10442000000000000000000000000000000000008C
:10443000000000000000000000000000000000007C
:1044400000D8B80502040608AAAAAAAA0700000014
:10445000A41B00202000002000500020200000208D
:00000001FF
