:040000006F00C06865
:100004000000000000000000F6040000F8040000F6
:10001400000000008A06000000000000000000004C
:100024008A0600008A0600000000000000000000AC
:10003400B00E0000000000000001000000000000FD
:100044008A0600008A0600008A0600008A0600006C
:100054008A0600008A0600008A0600008A0600005C
:100064008A0600008A0600008A0600008A0600004C
:100074008A0600008A0600008A0600008A0600003C
:100084008A0600008A0600008A0600008A0600002C
:100094008A0600008A0600008A0600008A0600001C
:1000A4008A0600008A0600008A0600008A0600000C
:1000B4008A0600008A0600008A0600008A060000FC
:1000C4008A0600008A0600008A0600008A060000EC
:1000D4008A0600008A0600008A0600008A060000DC
:1000E4008A0600008A0600008A0600008A060000CC
:0C00F4008A0600008A0600008A06000050
:10010000130181F806C216C41AC61EC822CA26CC1C
:100110002ACE2ED032D236D43AD63ED842DA46DC77
:100120004ADECEC0D2C2D6C4DAC6DEC8E2CAE6CC47
:10013000EACEEED0F2D2F6D4FAD6FED8F3220030D0
:1001400096DA9702002083A262F823A02200F3250A
:1001500010342EC003A18181EF10D01317030020AB
:100160000323C3F603210300824273901234D65254
:10017000739002309240A2423243C2435244E2445E
:10018000724582551256A2563257C2575258E258FB
:1001900072598649164AA64A364BC64B564CE64C0F
:1001A000764D865D165EA65E365FC65F13018107DB
:1001B0007300203013000000130000001300000043
:1001C00013000000130000001300000013000000E3
:1001D00013000000130000001300000013000000D3
:1001E00013000000130000001300000013000000C3
:1001F00013000000130000001300000013000000B3
:1002000083A28181938202E073900234170100205F
:100210000321C1EB024182403243C2435244E244D3
:10022000724582551256A2563257C2575258E2585A
:1002300072598649164AA64A364BC64B564CE64C6E
:10024000764D865D165EA65E365FC65FD652A1020B
:1002500073900230A24213018107828013000000D4
:100260001300000013000000130000001300000042
:100270001300000013000000130000001300000032
:100280001300000013000000130000001300000022
:100290001300000013000000130000001300000012
:1002A0001300000013000000130000001300000002
:1002B00013000000130000001300000013000000F2
:1002C00013000000130000001300000013000000E2
:1002D00013000000130000001300000013000000D2
:1002E00013000000130000001300000013000000C2
:1002F00013000000130000001300000013000000B2
:10030000F322003093F272FF130380181203B3E25A
:100310006200711523205500130585FA10C12115BF
:10032000232005009302000063870200711523203B
:100330000500FD12D5BF71150CC1828000000000C0
:1003400000000000000000000000000000000000AD
:10035000000000000000000000000000000000009D
:10036000000000000000000000000000000000008D
:10037000000000000000000000000000000000007D
:10038000000000000000000000000000000000006D
:10039000000000000000000000000000000000005D
:1003A000000000000000000000000000000000004D
:1003B000000000000000000000000000000000003D
:1003C000000000000000000000000000000000002D
:1003D000000000000000000000000000000000001D
:1003E0000000000000000000000000000000397163
:1003F00001436EC619A0397141536AC866CA62CCFE
:100400005ECE19A0397101535AD056D252D44ED66D
:100410004AD826DA22DC06DE3301614082824111AD
:100420004AC026C222C406C68282B24D4101024D94
:10043000924C224CB24B4101024B924A224AB249A1
:100440004101024992442244B240410182803D432D
:100450002A876373C3029377F700BDEFADE5937608
:1004600006FF3D8ABA960CC34CC30CC74CC7410764
:10047000E36BD7FE11E28280B306C3408A0697027F
:10048000000096966780A6002307B700A306B70072
:100490002306B700A305B7002305B700A304B700E0
:1004A0002304B700A303B7002303B700A302B700D8
:1004B0002302B700A301B7002301B700A300B700D0
:1004C0002300B700828093F5F50F93968500D58DB4
:1004D00093960501D58D61B793962700970200008A
:1004E00096968682E78086FA9680C1171D8F3E9683
:1004F000E374C3F8A5B701A041113EC4B707EFBE2E
:100500003AC69387070837E700E03CC701A0B71752
:1005100002409843B706FFF041111367170098C3D4
:10052000D84337060200758FD8C39843B706F7FE45
:10053000FD16758F98C39843B706FCFFFD16758F9F
:1005400098C3D843B70601FFFD16758FD8C3370788
:100550009F0098C702C402C69843C166558F98C3CE
:10056000B716024005679C42F18F3EC6A247850739
:100570003EC4B24781E7A247E397E7FEB7170240C0
:100580009C431397E7006357070685473EC63247EB
:100590008547631FF704B7170240D843B706C1FF6A
:1005A000FD16D8C3D843D8C3D84313670740D8C370
:1005B000D843758FD8C3D843B7062900558FD8C301
:1005C0009843B7060001558F98C398439316670068
:1005D000E3DD06FED843B7160240719BD8C3D8436B
:1005E00013672700D8C32147DC42B18BE39EE7FEA7
:1005F0004101828002C661BFB7160240DC42370764
:1006000000201146B18B130707086385C7002146F8
:100610006388C702B7177A00938707201CC3B717F0
:100620000240DC43918393F6F700B70700209387DD
:100630000700B69794231C43B3D7D7001CC382800E
:10064000DC42D4424166C983BD8BF18E89074546A1
:100650006393C700C94781EEB746024083A6068070
:10066000C18A89CEB7167A009386062021A8B716CC
:100670000240D4421396E600E35606FEB7163D004C
:1006800093860690B387D70251BF01A0970100203F
:100690009381411F175100201301C1961745000097
:1006A00013058599970500209385C59513860182CA
:1006B00063FAC5008322050023A0550011059105AA
:1006C000E3EAC5FE170500201305C59D97350020F8
:1006D0009385C5276377B500232005001105E36DD9
:1006E000B5FEFD42739002BC894273904280B722EE
:1006F0000000938202807390023097020000938280
:10070000A29093E2320073905230EFF05FE09722B4
:100710000000938202DB73901234730020305C413E
:100720003707F1E01307F7EF944D7D8F9C41D58F8C
:10073000D44DD58FD441A206D58FD98F5CC11C452D
:1007400037F7F1FF1307D77FD4457D8F9C49D58FAD
:1007500094458606D58FD98F1CC55C55370710FF89
:100760007D177D8FDC29FD1793F7F70FD207D98FFF
:100770005CD582801C4589C593E717001CC5828023
:10078000F99BEDBFA54763F7B7048D47138765FF56
:100790003307F7020328C5009D47B397E70093C7C7
:1007A000F7FFB3F70701B396E600DD8E54C599470E
:1007B00063E3C70495477D163306F6025859FD4793
:1007C000B397C70093C7F7FFF98F3396C5005D8EC7
:1007D00050D982800D473387E502032805019D47E4
:1007E000B397E70093C7F7FFB3F70701B396E600A7
:1007F000DD8E14C96DBFB14763E2C7029547651628
:100800003306F6021859FD47B397C70093C7F7FFA1
:10081000F98F3396C5005D8E10D9828095474D16AD
:100820003306F6025855FD47B397C70093C7F7FF45
:10083000F98FB395C500DD8D4CD5828008416D8D53
:100840003335A0008280B7F7FF1F03A54770828071
:100850009C4513F7070113F8F70001C7D841336827
:10086000E80037270240145B3707000F758F5DEBF8
:100870003707002085462300D70A37170140631544
:10088000E5009A2135839AA18E2113F7F50F39C31C
:1008900018418146854E3D4F930F8002930280049C
:1008A000214E3396DE00B3F8C5006311160393980A
:1008B000260033131F011343F3FF3377E300B3180C
:1008C000180133E7E8006399F70750C98506E39AF2
:1008D000C6FD18C11307F00F6375B70454412146D4
:1008E000854E3D4F930F800293028004414EB39892
:1008F000CE0033F715016392E802131726000117A3
:100900003313EF001343F3FFB376D3003317E8003C
:10091000D98E6397F703232A15010506E319C6FD4F
:1009200054C1828037170140E310E5F637070020F5
:100930000347070A31DBB1B7E39A57F810C979B713
:10094000E39D57FC23281501C9BFB7170140631861
:10095000F500B707002083C7070A91C3B58119C204
:100960000CC982804CC98280B707002023A2A70A45
:100970008280B7160240DC4251777D17F98F5D8D7A
:10098000C8C28280371702405C439146B18B6385B1
:10099000D700A1466382D706B7177A00938707204E
:1009A0001CC1371602405C423707002013070701BD
:1009B0009183BD8BBA9794231C41B3D7D7005CC1F8
:1009C0005442A1829D8ABA969422B3D6D70014C508
:1009D0005442AD829D8A36971823B3D7E7005CC591
:1009E000584239839376370013874180369718230E
:1009F000B3D7E7021CC982805C435843C166C983F0
:100A0000BD8B758F8907C5466393D700C94701EF32
:100A10003747024003270780418B09CF37177A00F9
:100A20001307072021A83717024058439316E70001
:100A3000E3D606FE37173D0013070790B387E7029A
:100A400085B799C5371702405C4B5D8D48CB8280D6
:100A5000B7170240D84B1345F5FF798DC8CB82807C
:100A600099C5371702401C4F5D8D08CF8280B7179C
:100A70000240984F1345F5FF798D88CF828099C544
:100A8000371702405C4F5D8D48CF8280B717024018
:100A9000D84F1345F5FF798DC8CF8280EFF23F988C
:100AA0001A29F577FD17F98FFA2101112A84D98FB8
:100AB0001EA99A25DE215625AE84D98FBA25D98F55
:100AC0007D771307379F758FD98F5EA55E29DA254D
:100AD000C207C18393F7F7CFD98F5EA968005D3550
:100AE000B7470140938707806316F404E2476545E2
:100AF000B335F502904081460A063305F502EF1042
:100B0000D03A930640063357D50212079357470051
:100B1000B387F6021D8D93174500138527039307AE
:100B2000F06363FBA70013050701420541810AA496
:100B3000056101BAD24765BF3355D502598DF5B766
:100B400091C55E250967D98F5EA582805A25F97700
:100B5000FD17F98FD5BF93F5F51F4EA182800A21AD
:100B60006D8D3335A0008280B70700209387070C76
:100B70009843636FA702D043B386C7006316D500BE
:100B800054413E85B296D4C35041B306C500631CA0
:100B9000D700B706002083A6860A6306D700544311
:100BA0001843B29654C118C16303F50088C382800C
:100BB000BA877DBFEFF21F8541112AC6EF00F03AD8
:100BC000B706002083A7860A370600209386860A88
:100BD0001306C60A3245A1EF370700209307871294
:100BE00093F5F7001307871281C51387F700419B20
:100BF000B70500209385050C23A2050098C18D65DB
:100C0000C115AE97C19B23A2070023A00700B3859F
:100C1000E7409CC21CC3B707002023AAB70AB70746
:100C2000002023A8B70AB70700804CC31CC2032AC0
:100C30000600B377AA0085E39307F5FF3957636C85
:100C4000F7009307050113F7F70041C313F707FFF8
:100C5000410763EBE706814489A022872E8461A0C7
:100C600058C15CC011375840B70600209386460B28
:100C70009042B307E94023A0F90063F3C7009CC288
:100C8000B70700203367EA009387870B58C0984363
:100C9000C10423200400050798C3EF00504993F7CF
:100CA000F400D1CB8967938707807390073037466C
:100CB0000000374500001306C6D093050011130548
:100CC00045D3EF10D06201A0BA873707002003296F
:100CD000070B9309070BE360F9F83707002003249B
:100CE000070C1307070C50406374F6000C40B5F571
:100CF0009442E38286F61440044314C33307F6405B
:100D000093060002E3F1E6F63305F4009376F5006E
:100D1000A1DA896793870780739007303746000010
:100D2000374500001306C6D09305F00C130545D3D4
:100D3000EF10F05B01A0268541016FF0EFEF55C188
:100D4000EFF2EFEDB7070020032745FF83A7C70A9F
:100D50002A84B376F7009DE28967938707807390B2
:100D6000073037460000374500001306C6D093050C
:100D70004012130545D3EF10905701A0832605FFBD
:100D80009DC28967938707807390073037460000BC
:100D9000374500001306C6D093055012130545D3FE
:100DA000EF10F05401A093C7F7FFF98F232AF5FE47
:100DB000EF00B01BB70700209387070B944303276E
:100DC00044FF130504FF369798C3793BB70700200B
:100DD0009387C70B9843050798C3EF0050356FF012
:100DE0004FE68280B7E700E041572387E74023863C
:100DF000E740B7F700E023A0070023A207008146E1
:100E000094C70147D8C73707002083250708130771
:100E1000401F814633D6E5023D4790CBD4CB98C3E3
:100E20008280EFF2CFDF411102C6F32750303EC679
:100E3000B2470D478D8B6384E702896793870780EC
:100E4000739007303746000037450000130686D5FB
:100E50009305600B130545D3EF10704901A0B757F8
:100E6000002093870700BD8B9DC389679387078008
:100E7000739007303746000037450000130686D5CB
:100E80009305B00B130545D3EF10704601A0993FB1
:100E9000B7E700E0116723A0E710056723A0E7107C
:100EA00023A40180EFF0CFB5014541016FF06FD968
:100EB000397106DE16DC1ADA1ED82AD62ED432D2C2
:100EC00036D03ACE3ECC42CA46C872C676C47AC242
:100ED0007EC0731101348967938707807390073050
:100EE000B7F700E023A20700EF00D00911C5B7E76C
:100EF00000E0116723A0E7208967938787887390B4
:100F0000073073110134F250E2525253C25332553A
:100F1000A255125682567247E2475248C248324E94
:100F2000A24E124F824F2161730020308967938750
:100F3000078073900730938781809843050798C393
:100F40008280138781801C438DE7EFF24FCD896744
:100F500093870780739007303746000037450000BD
:100F6000130686D593053010130545D3EF1030389E
:100F700001A0FD171CC391E7896793878788739049
:100F800007308280930785007D575CC118C55CC51A
:100F90001CC92320050082802328050082809841F7
:100FA000FD5693078500631ED7001C49D843D8C15E
:100FB0000CC79CC5CCC31C4188C985071CC1828055
:100FC000B687D4439042E37DC7FECDB75441184560
:100FD0001C4998C654C3D4436393A600D8C398430E
:100FE000232805007D1798C388438280EFF22FC322
:100FF00041112AC6253F3245005DA1371335140043
:1010000041016FF00FC4304115C2EFF24FC1584596
:101010001445AA87329758C56364D700184158C54C
:101020002E85CC47EF1090216FF0AFC18280EFF298
:101030000FBF2A84E53D8344540413094402E204AB
:10104000E18463459002FD57A302F404DD3DF93DC0
:101050008344440413090401E204E18463449002DC
:10106000FD572302F404F13D6FF0AFBD5C50E1DFAA
:101070004A85EF00B03719C1EF00F053FD14E204C8
:10108000E184C1B71C48E9DF4A85EF00303619C159
:10109000EF007052FD14E204E184C9B7EFF22FB8FB
:1010A00041111DE1896793870780739007303746A8
:1010B000000037450000130606D8930500111305FC
:1010C00045D3EF10D02201A05C5D2EC62A84BDC39B
:1010D0003841B3B7E702B9EF913D3040585C144056
:1010E000232C0402B307E602B24554C03387F6004E
:1010F000918FB6975CC4FD572302F40418C4A30271
:10110000F40495E11C4899CB13050401EF00102E5F
:1011100011C5B7E700E0116723A0E7201D3505459D
:1011200041016FF00FB213050401A93D13054402FC
:10113000913DEDB7896793870780739007303746F5
:10114000000037450000130606D893055014130518
:1011500045D3EF10D01901A0EFF26FAC411121C1BE
:10116000B3B7A502AA8485EF3305B502930770FBD8
:1011700063E7A702130585042EC62D3C2A8401CD02
:10118000B245AA8799C1930785042CC01CC044DCD2
:10119000854522852137228541016FF08FAA896715
:1011A000938707807390073037460000374500006B
:1011B000130606D89305601C130545D3EF103013B2
:1011C00001A0EFF24FA3011132C61DE18967938799
:1011D000078073900730374600003745000013063C
:1011E00006D893051055130545D3EF10501001A0F4
:1011F0002A84AE898DE53C419DC38967938707802A
:10120000739007303746000037450000130606D8B4
:1012100093055055130545D3EF10700D01A0EF0055
:10122000503A15E5B247014985C78967938707801A
:10123000739007303746000037450000130606D884
:101240009305A055130545D3EF10700A01A001497D
:101250007D5A930A440237EB00E0916B95A0B247A8
:1012600081E7C531014559A0631509002808EF0041
:10127000B026C139DD295D3983474404E207E1879F
:10128000639447012302040483475404E207E1877F
:1012900063944701A30204046D316C002808EF0039
:1012A000102521ED2285993329C5B2455685EF00D9
:1012B00010082285AD3BA52D19E123207B2105498E
:1012C000B531045CC9DCCE852285FD142D3B04DCE0
:1012D0001C4899CB13050401EF00501111C5B7E765
:1012E00000E0116723A0E720A939054505616FF0EB
:1012F0000F9422852D3B252DD9B722850D3B052D39
:101300002285ED314DDDB9BF15E5EFF24F918967CB
:10131000938707807390073037460000856537450F
:101320000000130606D8938585AC130545D3EF104E
:10133000007C01A09DCD37360020930686128147A0
:10134000014713068612214883A846006398A80027
:1013500093173700B2978CC3C8C321A891E783A81D
:10136000060063930800B6870507A106E31E07FD84
:10137000FDF38280EFF2AF8A41112A842EC632C477
:101380007536834744047D572246E207E187B2451C
:101390006394E70023020404834754047D57E20763
:1013A000E1876394E700A302040432C62EC4513ED1
:1013B0001C5CA245324689E713054402EF00A07B7E
:1013C0002285B53141016FF0CF8737070020130721
:1013D000C70C1C439443B70700209387C70E81E6D0
:1013E0007D5798C38280184358471843DDBFEFF2FA
:1013F0006F8137090020B70700209304890C83A967
:10140000C70F2A849C4088404111A3880704110516
:101410002EC66D3E7D579307890CB245631CE402CE
:1014200095C9B73700209387072D9440D84398C6B5
:1014300010479440D0C694401047910654C294403F
:10144000910614C798405CCB9843050798C34101A7
:101450006FE09FFE98434E9440C3637A3401370790
:1014600000200325070D8C439105153ECDB73707A6
:1014700000200325C70C8C4391051536B7070020C3
:101480009387C70E9843E374E4FC80C3C9B7EFE2C7
:101490007FF737340020B70900201304442E370AA1
:1014A00000209384890D9C40EDDF49345C4403A9FE
:1014B000C70013054900193E13074A0D1C43FD17C9
:1014C0001CC39C40FD179CC0AD3C03250903EFF0F5
:1014D0001F874A85EFF0BF86E9B7EFE2DFF1131906
:1014E0002600AA8A4A852E8A368BBA8BBE89EFF0EF
:1014F0006FEC1DC1AA8413054005EFF0AFEB2A8401
:1015000009C904D98147C146631A0A00230A0502A2
:1015100025A02685EFF0BF827D5555A23307FA003E
:10152000030707003306F400230AE60201C7850714
:10153000E396D7FEA3010404B94763F477038967F0
:1015400093870780739007303746000037450000C7
:10155000130646D993057039130545D3EF1020596A
:1015600001A0130A44005285232674032322740524
:1015700023240404153413058401393C3D47130525
:10158000C9FF33077741269500C818CC40D0230601
:101590000404A306040423070404A3070404230883
:1015A0000404A30804045A86D6854199EFE05FD568
:1015B00008C06384090023A08900EFF03F97B707B4
:1015C00000209387470D9843B7040020B7390020C7
:1015D000050798C31387840C18439384840C1389DC
:1015E00089166310070E80C0984385476316F70677
:1015F00093898916930AC9124E85D109EFF09F98F5
:10160000E39C3AFF37350020930A45291305452905
:10161000EFF05F97373500209309852A1305852A57
:10162000EFF05F96373500201305C52BEFF09F953F
:10163000373500201305452EEFF0DF9437350020B5
:101640001305052DEFF01F94B707002023A6570DB3
:10165000B707002023A8370DB70700209387070E90
:101660009843050798C3370700201307470E5C54BB
:10167000144363F3F6001CC35147B387E702CA97CC
:10168000D843144718C454C4144723A24601232442
:10169000470198435CC8050798C3EFF09F8AB707D6
:1016A000002083A7870F054599CB9C40D8575C54F1
:1016B0006377F700B7E700E0116723A0E7206FE04A
:1016C0001FD7B707002083A7870FD9F79C40D857AB
:1016D0005C54E3E3E7F880C041B7EFE25FD4B707BB
:1016E0000020B7450000371500009387870E01479B
:1016F000814613060010938585DA1305E548F13B12
:101700000544631E8502EF00B01A631A85028967DB
:101710009387078073900730B70700207D5723A673
:10172000E70EB707002023ACA70EB707002023AEB3
:10173000070EEFF00FEF83A7C1806FE09FD0FD573A
:10174000E31BF5FE89679387078073900730374660
:101750000000856537450000130646D9938505844A
:10176000130545D3EF10A03801A0B70700209387D9
:10177000C70D9843050798C38280B707002003A5CB
:10178000C70F8280B707002083A7C70D639807188B
:10179000EFE2FFC8B70700209387C70F8043050417
:1017A00080C339E8B70700209387C70C98431843D4
:1017B00005C7896793870780739007303746000015
:1017C000856537450000130646D9938575AC13052A
:1017D00045D3EF10C03101A0370700201307070DD4
:1017E0009443104390C3B707002014C39387070F97
:1017F0009843050798C3D13E370600209307C60ECD
:101800009C4337370020B70500201306C60E130788
:1018100087169385850C01456375F4029C41D1467A
:10182000DC57B387D7023E971843854763F3E70039
:101830000545B707002083A7071091C305456FE052
:101840005FC0370E0020B70E0020514F9307CE0C1B
:101850009443944281E6FD571CC2C9B79C43DC47C0
:10186000DC47D4436374D40014C24DBF83A88700FF
:1018700003A8C700D44B1383470023A408012322E5
:10188000180183A846006394680023A2060103A8F8
:10189000060023AA07007D1823A00601945795CAC5
:1018A00003A8C70183A8070283AF460023241801B9
:1018B00083A8070223A208011388870163940F01FC
:1018C00023A2160103A8060023A407027D1823A063
:1018D000060193864E0E03A8C70283A8060063F490
:1018E000080123A00601B306E803BA9683A84600C0
:1018F00083AF880023A4170123A6F70183AF8800D4
:1019000023A26F0023A46800D4CB9C4285079CC20D
:101910009C41DC57E36CF8F205450DBFB70700208A
:101920009387470F98430145050798C38280EFE2EC
:101930007FAD370400201304C40D1C40411185E71E
:101940008967938707807390073037460000856565
:1019500037450000130646D99385358B130545D3CB
:10196000EF10E01801A0EFF06FDC1C40FD171CC069
:101970001C4089CB01452AC6EFF0AFDC324541015E
:101980006FE09FABB707002083A7470DE5D7B736B9
:1019900000203735002081479386C62B370F002063
:1019A00013058516D14837030020370E0020854ED9
:1019B00059A8DC46DC47CC4F9053985790C503A8F4
:1019C00007022322B8000328470093858701631389
:1019D000B80050C3104323A407027D1610C38C47E0
:1019E000D047D84B1388470090C54CC24C436393F3
:1019F000050150C3104323AA07007D1610C3130727
:101A00004F0ED0570C4363F3C50010C333071603C2
:101A10002A974C4383AF85008CC723A6F70183AF79
:101A2000850023A20F0123A405010C43D8CB850513
:101A30000CC31307830C184358576366E60013075B
:101A40000E102320D70198422DF799C3EFF0FF978E
:101A5000B70700201387470F04431384470F91CC27
:101A6000370900208549393B09C59307091023A090
:101A70003701FD14EDF823200400B707002083A7E9
:101A80000710E38907EEB7E700E0116723A0E7201E
:101A90000545D5B5B707002003A7C70DB707002038
:101AA0009387071001C7054798C3828023A00700CA
:101AB000B70700201387470E18431386470EB73722
:101AC0000020938787165148B3060703B385D700D4
:101AD000884115C5C841A106BE964841C8C16314D6
:101AE000D5005441D4C1D146B306D702B697DC43E2
:101AF000D447B707002023A4D70C18C2828015E76B
:101B0000EFE2FF918967938707807390073037462C
:101B10000000856537450000130646D9938525C02A
:101B2000130545D3EF00B07C01A07D1771BFEFE234
:101B30001F8F05E5896793870780739007303746C5
:101B40000000856537450000130646D99385C5C159
:101B5000130545D3EF00B07901A0B70700202E840C
:101B600083A5870CE105EFF08FC385452285EFF053
:101B70001F886FE01F8DEFE29F8A2A8705E589673E
:101B80009387078073900730374600008565374597
:101B90000000130646D9938525C5130545D3EF00EC
:101BA000107501A0B70700209387870C54432E853A
:101BB0008C4303A88600D4CD8C4323A0050303A83F
:101BC00007008C46610823A2050103A807009C4377
:101BD000610823A4060198D71C4385071CC311C2C2
:101BE0007D55B285EFF0BF806FE0BF855C45DC4777
:101BF00095E7EFE2DF82896793870780739007306C
:101C000037460000856537450000130646D99385A1
:101C100025C8130545D3EF00906D01A0D04F945314
:101C200098579385870114C6D0C250436313B600FA
:101C300054C3144323A40702FD1614C3370700201E
:101C40000327C70DD45725EF8C47D047D84B90C5F5
:101C5000D04748434CC2938547006313B50050C337
:101C6000104323AA07007D1610C33707002013076F
:101C7000470E10436373D60014C351473386E60200
:101C8000373700201307871632975043084690C70E
:101C9000C8C708464CC10CC6D8CB1C4301458507B4
:101CA0001CC3B707002083A7870CDC5763F8D70055
:101CB000B7070020054723A0E71005458280373786
:101CC00000201307C72B50430846D0CF88D30846BF
:101CD0004CC10CC698D7D1B7B707002083A7070F10
:101CE0001CC1B707002083A7C70F5CC18280EFE249
:101CF0000FF3411105E589679387078073900730DB
:101D000037460000856537450000130646D99385A0
:101D1000D5CF130545D3EF00905D01A085E5896718
:101D200093870780739007303746000085653745F5
:101D30000000130646D99385E5CF130545D3EF0080
:101D4000105B01A02EC62AC4EFF04F9E370700207B
:101D5000B70700201307870C83A6C70F1C43224533
:101D6000B24583C7170599CB1C43A38807040544D4
:101D7000EFF02F9D228541016FE0AFEC9C417D5734
:101D80000144E387E7FE370600200326060F0328F9
:101D9000050058416307C80063E5E60023A005007D
:101DA000F9B73386E640E37BF6FE958FBA979CC180
:101DB0002537014475BFB7070020054723A0E7106A
:101DC0008280B707002083A7870F054581CBB7071F
:101DD000002003A5C70D1335150006058280EFE22C
:101DE0000FE437040020EFF06F94130404111C403B
:101DF000B1E7373500201309852F1305852FEFF044
:101E00006F98373500209304C5301305C530EFF0C7
:101E10006F97B707002023A227110146B7070020BC
:101E2000C145114523A49710EFF00FB308C019C5A1
:101E3000B7450000938545DDEFF00FCDEFF06F90D3
:101E40006FE02FE0EFE2AFDD4CC108C9AA87636203
:101E5000B602184D158E0545637BE6009385470055
:101E6000B707002003A58710EFF06F9301456FE0DF
:101E70004FDD6375D6000545E3FBD5FE938547002E
:101E8000B707002003A54710C5B7EFE24FD92A8452
:101E9000AE8432890C4CA6864A86A69522855D378B
:101EA00019E16FE00FDA1C4C2285BE941C5082971A
:101EB000D5B7EFE2CFD6B707002083A7471041116F
:101EC000AA84DC472EC6C04713054400EFF00F90EC
:101ED00083474402324613F7470011CBA68522857B
:101EE0006D371C502285829741016FE08FD5F99B99
:101EF0002302F402FDB7EFE28FD2370400209306ED
:101F0000441098421C4391EBB70700209387871039
:101F1000904398C390C26FE0CFD25C47FD55884391
:101F2000493FF1BFEFE22FCD11694111B70A0020FF
:101F3000B7090020370B0020B70B0020130909DB7D
:101F400083A74A10984329CBDC47814C03AC070098
:101F5000EFF0BF81EFF07F8283A7C9102A849384BA
:101F6000C910130A0B11636CF50288C0638F0C0251
:101F700083A78B1090431336160003250A00B30580
:101F80008C40EFF02FBFEFF09F9A11EDB7E700E024
:101F9000116723A0E72001A8854C014C55BFA13F44
:101FA00080C0EFF0DF98214C05A00146E36785FD76
:101FB000EFF0FF97A2856285ED3DF5B79247B245F8
:101FC0008297824763DD070003250A0001468A8560
:101FD000EFF02F9F35D582472245E3C107FE22440B
:101FE0005C4895E3EFF06FF99C40AA8C6373F500B1
:101FF0001937824723A09401FD17E367FCFC8A0789
:10200000CA979C43828713054400EFE03FFCD9BF89
:10201000834744020C4C924693E717002302F402D4
:102020006686B6952285393D45D18347440213F72C
:10203000470019CB1C4C924566862285BE95B1356A
:102040001C502285829749B7F99B2302F402CDBF29
:1020500083474402F99B2302F402BDB7834744023D
:10206000924593E717002302F4020CCC9DE18967A7
:10207000938707807390073037460000374500008C
:102080001306C6DD93059035130545D3EF003026C2
:1020900001A0E6866686E69522856D3335B78347CF
:1020A000440213F727005DF72285EFE05FC929BFDF
:1020B000EFE2EFB62D33B707002083A707119DE3AA
:1020C000896793870780739007303746000037454C
:1020D00000001306C6DD93059011130545D3EF00EC
:1020E000102101A0B7070020B745000037250000E8
:1020F000938747113947814613060010938545DFC2
:10210000130545F2EFF06FBD45DD6FE08FB3B70704
:10211000002083A7070837177A0013070720B3D7D3
:10212000E7023707002093F7F70F230DF710130787
:10213000803EB387E70237070020231CF710828018
:10214000EFE2EFAD2A841165011185451105EFE03D
:102150003F91930700207C82371501408D473EC494
:102160004C00E147130505803EC6EFE06FEE22C844
:1021700037440140B70708000C08130504803ECC23
:1021800002CA231E0100EFE07F91854513050480FC
:10219000EFE01F9B05616FE0CFAAEFE2AFA6B74467
:1021A0000140AE893289014493840480634524014F
:1021B0004A856FE06FA8930500042685EFE03F9AFB
:1021C0007DD9B38789008385070026850504C2056C
:1021D000C181EFE05F98D9BF138701811C43B746E7
:1021E0000020938686943E95636BD500B7560020F9
:1021F0009386068063E5A60008C33E858280FD576E
:10220000EDBFEFE2CFA12A843165EFE08FF69305B1
:1022100084033724014013050440EFE04FD0130539
:1022200004408545EFE00FD583274440370700057C
:1022300013040440D98F5CC06FE0AFA0EFE28F9C25
:10224000372401400569B7140140AA8913040440EA
:10225000130949FB938404808546054689452285F8
:10226000EFE04FD283A7C9055CDC83A709067CC4D5
:1022700089452285EFE08FDC65DD70448545268544
:10228000420641823336260113461600EFE0EFEB9B
:10229000E1B74DC1B7270140938707406301F50CB3
:1022A000B7370140138707806307E50E138707C020
:1022B0006308E50E630CF50EB7470140938707806E
:1022C000630AF50EB7070040630AF50E93870740CF
:1022D000630AF50EB7170040138707806308E50E01
:1022E000938707C06308F50EB74700401387078040
:1022F0006306E50E938707406306F50EB757004067
:10230000138707806305E50E138707C06306E50E94
:10231000938707406307F50EB76700401387078070
:102320006306E50E938707406307F50EB707024083
:102330006308F50E014582808545EFE06FF2B387B3
:102340008400054798A3338784003E23054585070D
:102350003EA36FE00F8F8545EFE06FF2CDB7894761
:10236000130500201547EFE28F8BB74400209386BA
:10237000848E131427003387860018239384848E59
:1023800079F30947E38AE7FA0D47E386E7FC8545D9
:10239000EFE02FEB6DB78947130500401947E1B710
:1023A00005658947130505801D4775BF8947056584
:1023B000314755BF89471165394775B78D47054581
:1023C000214755B78D470945254771BF8D471145B1
:1023D000294751BF8D4721452D4771B78D4711655D
:1023E000354751B78D47370502003D47ADBF8D4793
:1023F00037050400414785BF8D473705080045472D
:102400009DB78D47370520004947B1BF8D47370538
:1024100040004D4789BF8D47370500025547A1B79A
:1024200085470545514781B7EFD2DFFDB71701401A
:10243000138707806309E506138707C06308E5066D
:102440006309F506938707406318F5061309000230
:102450009144374400208347848E1304848E91EB8B
:1024600085450545EFE0CFDF85471CA03E20850769
:102470003EA0DD4701456386F402630409028A0435
:10248000B309940083C7090081EB85454A85EFE0D5
:102490002FDD85472380F90026943E2005458507DA
:1024A0003EA06FD07FF91149854465B72149894421
:1024B0004DB741498D4471BF0149DD4459BFEFD249
:1024C0007FF475710545EFE02FCAEFE0EF9281319F
:1024D000716513050520AD31B707002083A50708F6
:1024E000374500001305C5DF1925EFE0CFB5AA85F4
:1024F000374500001305C5E0DD2BB7450000374523
:1025000000009385C5E1B7040020130545E2C5230B
:102510001389C41103260900130A800237340020EE
:10252000B3074603930A0432B716014005478D45A9
:1025300093860680414505062320C900B6C0D6977C
:102540009AABD4CB9AAFCCCF88D323A2070023A4D5
:10255000070023A6070023A2070291472312F104D4
:10256000B727014093870740BECC89472302F10873
:10257000A1473EC7B7070E00AEC4230AE104AECEA2
:102580002AC5BED802D802DA02DC231E010282C6A6
:1025900082C882D082D282D482D682DAB745000045
:1025A0003725000074109C10230CE1061306001060
:1025B0001547938545E41305C523EFE01FF2314627
:1025C000AC084800A52931464C0008188529B727D2
:1025D000000093872720130680026C1048003ED627
:1025E000B12983290900130680024C003385490371
:1025F0008509130404329384C411374A00005695A8
:10260000352923203901014985498C406353B90498
:102610001C3885EB4848093D1C4481C7484015C516
:102620008D39484893058401EFE08FA210280E2CC5
:102630004848EFE08FB11C4099C322858297A308D8
:102640003401050913048402C9B71305CAE44521FE
:10265000C9BF374500001305C5E55129EFF0EF87E5
:1026600037440000130544E7692BEDBFB73700205E
:10267000938707321387875C23A2070023A40700F0
:1026800023A6070023880700A388070023AA0700C2
:1026900023AC070023AE070023A0070223A20702F2
:1026A00093878702E39AE7FC8280B687B2882A8301
:1026B0002E88639B061463F8C50A4167636BE61AAC
:1026C000B70700016360F63493568601E147171798
:1026D00000001307677C36971823BA971307000288
:1026E0001D8F19CB3398E500B357F500B318E600FA
:1026F00033E807013313E50013D608013355C80248
:1027000093960801C182935703013377C802B385BA
:10271000A60242073368F700637AB8004698930729
:10272000F5FF636418016365B8303E853308B8402F
:102730003357C8024203135303013378C802B386E8
:10274000E602420833686800637BD8004698930726
:10275000F7FF6365180179176363D8003E87420568
:10276000598D8145828001E60547B358C70241670C
:1027700063E8E80EB707000163EAF82893D68801FA
:10278000E147171700001307277136971423BE96E9
:1027900093070002958FFDE7939E0801338715414B
:1027A00013DF080193DE0E0185459357030133556E
:1027B000E7033377E703B306D5034207D98F63FAFC
:1027C000D700C6971307F5FF63E4170163E5D72623
:1027D0003A85958F33D7E703420313530301B3F7C9
:1027E000E703B30ED703C207B3E7670063FBD70164
:1027F000C6979306F7FF63E51701791763E3D701DF
:1028000036874205598D828063E1D504C16763E153
:10281000F604B707000163E3F61E13D7860161488B
:102820009717000093874767BA979823130E000203
:102830004297330EEE40631A0E0C63EDB61C33352F
:10284000C500134515008145828081450145828080
:102850009307F00F63F3D71C13D786002148C9B73D
:102860001307F00FC686E37E17F193D68800A147C1
:1028700009BF1307F00FB286E37BC7E493568600C7
:10288000A147B1B5B398F80033D6D50013DF0801DE
:10289000335EE6033397F500B356D500558F939E0C
:1028A000080193DE0E013313F50093550701B3764B
:1028B000E603B387CE03C206CD8E63FBF600C69651
:1028C0001306FEFF63E4161763F2F616791EC6962A
:1028D0009D8E33D6E60393170701C183B3F6E60353
:1028E0003385CE02139706015D8F637BA700469761
:1028F0009307F6FF636817136376A7127916469756
:1029000093150E01098FD18D4DB5B357E600B396DF
:10291000C601DD8E33D3E50013DF0601B357E303B1
:10292000939E060193DE0E013398C5013357E500EF
:1029300033680701935808013316C6013373E30364
:10294000B385FE024203B368130163FBB800B69877
:102950001387F7FF63EAD80C63F8B80CF917B69839
:10296000B388B84033D7E803420813580801B3F8D6
:10297000E8033383EE02C208B3E5080163FB650098
:10298000B6951308F7FF63EDD50863FB6508791763
:10299000B695C207416FD98F1307FFFFB3F6E70063
:1029A00093D80701718F4182B38EE602B3856540EB
:1029B000B386C60213D80E013387E802BA96C296D0
:1029C0003386C80263F3E6007A9693D806014696EA
:1029D00063E2C5026385C5003E858145828041670B
:1029E0007D17F98EC206B3FEEE003315C501F696CB
:1029F000E374D5FE1385F7FF8145828013D7060166
:102A0000414839BD93560601C147D1B193D608015B
:102A1000C14785BB8145054582803687014809B598
:102A2000428785BF3E86E9BDBA871DBF328E4DB550
:102A300079154698E5B97915C69761BBB3C7A50066
:102A40008D8B3307C50081E78D4763EDC700AA87EB
:102A5000637EE508942185078505A38FD7FEE3EB08
:102A6000E7FE828093763500AA8789CA942185077C
:102A70008505A38FD7FE93F63700C5BF9376C7FFB2
:102A8000138606FE63F0C70683A3050083A24500F4
:102A900083AF850003AFC50083AE050103AE4501DA
:102AA00003A3850183A8C5019385450223A0770070
:102AB00003A8C5FF23A2570023A4F70123A6E7011B
:102AC00023A8D70123AAC70123AC670023AE1701AF
:102AD0009387470223AE07FF75B790419107910591
:102AE00023AEC7FEE3EBD7FEE3E6E7F6828039715B
:102AF0003EDA2ED232D436D63AD842DC46DE93873E
:102B0000418122CC804326CA06CEAA8409C41C4C2B
:102B100099E32285ED290C4454102686228536C679
:102B2000EF00F013F2406244D2442161828001112F
:102B300026CA4AC806CE22CC4EC652C4AA842E89C2
:102B400001C51C4D91E3E1219C4C804499E326850D
:102B50007D299717000093872746631BF402C04026
:102B60005E24A18BB1C71C48A1C7FD59294A1C444A
:102B700083450900FD17B1E91CC463DD0706228601
:102B8000A94526856120FD576308F502294535A032
:102B900097170000938747446314F4008044C9B733
:102BA000971700009387473FE31CF4FAC0444DBFDA
:102BB000A2852685112A55D97D55F2406244D2441A
:102BC0004249B249224A056182801CC4050963D783
:102BD0000700184C63CAE700638845011C4013874F
:102BE000170018C08CA361B7228626850520E31044
:102BF00035F9D9B71C401387170018C0294798A387
:102C000071B793874181AA85884315B7011122CCFA
:102C100026CA4AC806CE4EC6AA842E89328401C569
:102C20001C4D91E3ED26971700009387E738631753
:102C3000F406C0401C4C1CC45E24A18BC1C31C48BC
:102C4000B5CF1C4808409379F90F1379F90F1D8D02
:102C50005C486346F500A2852685692C25E51C4461
:102C60000505FD171CC41C401387170018C02380DE
:102C700037015C486388A7005E24858B81CBA94718
:102C80006316F900A2852685B5240DEDF240624455
:102C90004A85D2444249B2490561828097170000B3
:102CA000938787336314F400804469B79717000053
:102CB0009387872EE310F4F8C044ADBFA285268524
:102CC000212041D17D59D9B741119387418126C235
:102CD000844322C44AC006C62A892E8489C49C4CD7
:102CE00099E326852D26971700009387E72C631B11
:102CF000F402C0400317C40093170701C18393F681
:102D00008700ADEA93F6070195EEA5472320F90069
:102D1000136707045AA47D55B240224492440249E5
:102D200041018280971700009387072B6314F400FA
:102D30008044C9B79717000093870726E31CF4FA6D
:102D4000C0444DBF918B9DC34C5889C9930744041F
:102D50006384F5004A853123232A04025E2423225A
:102D6000040093F7B7FD5EA41C481CC05E2493E7E3
:102D700087005EA41C4899EB5E241307002093F79C
:102D800007286385E700A2854A85A1215E2413F701
:102D900017001DC35C4823240400B307F0401CCC7B
:102DA0001C480145B5FB8317C40013F707082DD74E
:102DB00093E707045EA485B7898B014791E35848E0
:102DC00018C4F9BFDE25011122CC26CA06CE4AC896
:102DD0004EC613F78700AA842E8479EBD841634D41
:102DE000E000B841634AE0000145F2406244D24449
:102DF0004249B2490561828058547DD703A9040035
:102E00009396370123A0040063DB060670485E2416
:102E1000918B99C75C401D8E5C5899C33C401D8EB8
:102E20005C540C50814626858297FD575A24631DB9
:102E3000F5009440F54763E8D706B70740208507BB
:102E4000B3D7D700858BA5C31C48232204001CC020
:102E50009317370163D80700FD576314F5009C40B2
:102E600091E368C84C5823A02401BDDD93074404B6
:102E70006384F5002685F526232A0402B5B70C5095
:102E80000146854626850297FD572A86E311F5F807
:102E90009C40B5DF75476385E70059476393E704B6
:102EA00023A0240191B7136707045AA47D5535BFA9
:102EB00083A90501E38A09F203A905008D8B23A0EC
:102EC000350133093941014791E3D84918C4E35D1D
:102ED00020F11C540C50CA864E8626858297634783
:102EE000A0005E2493E707045EA4C9B7AA9933093A
:102EF000A940F1BF9C49B9CF011122CC06CE2A844A
:102F000011C51C4D81E72EC61922B2459717000046
:102F10009387870A639BF5004C408397C50095C74C
:102F200022856244F240056171BD971700009387C6
:102F3000A70A6394F5000C44CDB797170000938758
:102F4000A705E39CF5FC4C44C9BFF240624401452F
:102F50000561828001458280411122C406C62A840F
:102F60004EA572A523200500232205002324050079
:102F70002322050623280500232A0500232C05000B
:102F8000214681451305C505EFD06FCC971700008A
:102F9000938787B35CD0971700009387A7B51CD49D
:102FA00097170000938787B95CD497170000938721
:102FB000E7BB00D01CD8B240224441018280970573
:102FC0000000938565F3A9A2411126C2130680066D
:102FD0009384F5FFB384C4024AC02E8922C406C676
:102FE000938544073D262A8401CD23200500232212
:102FF0002501310508C4138684068145EFD02FC50D
:103000002285B240224492440249410182801C4DF3
:10301000ADE3411106C622C497070000938767FA03
:103020001CD59387C1819C432324050423260504D2
:10303000232805046314F50085471CCD2A841D2828
:1030400048C02285052808C422852D2048C4484050
:1030500001469145113708440546A545F53D4844CC
:103060000946C945D53D85471CCCB24022444101A3
:103070008280828041119387C18126C284434AC0E5
:1030800006C69C4C22C42A8999E326854937938435
:1030900084048044DC40FD1763D607009C40B9CF10
:1030A0008440C5BF0317C40039E7C17785072322D1
:1030B00004062320040023220400232404005CC40B
:1030C00023280400232A0400232C040021468145E0
:1030D0001305C405EFD0AFB7232A0402232C040242
:1030E00023240404232604042285B240224492446B
:1030F0000249410182801304840671BF91454A85CB
:10310000E13588C051FDB1472320F9000144E9BFF2
:10311000797122D44AD052CC56CA5AC85EC606D655
:1031200026D24ECE2A8AAE8A130485040149054B65
:10313000FD5B09ECB25022544A8592540259F2497F
:10314000624AD24A424BB24B456182800444832991
:103150004400FD1963D409000040E1BFDE24637B15
:10316000FB008397E40063877701A6855285829AE6
:103170003369A90093848406E9BF1971A6DAAE8485
:103180008395E500A2DC86DE328463DB0500DE2465
:1031900023A0060093F7070885E7930700401DA0CA
:1031A000300836C6EF001023B246E34205FE7247F0
:1031B000BD67F98F7977BA9793B717009CC2F1BFB3
:1031C000930700041CC0F6506654D65401450961AB
:1031D0008280DE25011122CC06CE26CA4AC8898B00
:1031E0002E8489CF930774041CC01CC885475CC813
:1031F000F2406244D244424905618280740030004A
:10320000AA84A53FA2452A892685212219E9831788
:10321000C40013F7072069FFF19B93E727005EA422
:10322000D1B7970700009387C7D99CD45E2408C004
:1032300008C893E707085EA4A2475CC8B24781CFDD
:103240008315E4002685EF00101C11C55E24F19B58
:1032500093E717005EA45E243369F9002316240166
:1032600041BFDDC583A7C5FF411122C406C626C2E2
:103270001384C5FF63D307003E94AA84EF00702037
:1032800097D7FF1F938707EA9C4391EF23220400FF
:1032900097D7FF1F23A887E82244B240268592448F
:1032A00041016F00301E637EF40014403307D400E8
:1032B0006396E7009843DC43369718C05CC0C9BFEB
:1032C000BA87D84319C3E37DE4FE94433386D7001D
:1032D000631F86001040B29694C33386D700E31D67
:1032E000C7FA10435843B29694C3D8C375B76375F1
:1032F000C400B1479CC04DB71040B306C40063166C
:10330000D70014435843B29614C058C0C0C369B71D
:103310008280011126CA93843500F19806CE22CC12
:103320004AC84EC6A104B14763F9F404B14463E846
:10333000B4042A89EF00F01497D7FF1F938787DE24
:1033400098433A8439E497D7FF1F9387E7DD9C437E
:1033500081EB81454A85352F97D7FF1F23A6A7DC30
:10336000A6854A853D27FD59631B3507B1472320B4
:10337000F9004A85EF00101129A0E3DA04FAB147F9
:103380001CC10145F2406244D2444249B249056140
:1033900082801C40858F63C10704AD4663F6F6004A
:1033A0001CC03E9404C001A85C406315870217D777
:1033B000FF1F2329F7D64A85EF00D00C1305B40070
:1033C0009307440061993307F5404DDF3A94898FA4
:1033D0001CC04DBF5CC3C5B722874040A5B71304CE
:1033E00035007198E30085FCB305A4404A85552556
:1033F000E31A35FBA5BF1C46FD171CC663DA0700A0
:10340000184E63C5E700A9476394F5006FF01F806D
:103410001C422E851387170018C28CA382800111CD
:1034200022CC26CA4AC84EC652C406CE2A89AE89C4
:103430003284B304D6007D5A63149400014501A878
:103440000C204E864A85453F0504E31745FFF240B0
:103450006244D2444249B249224A056182803571B0
:1034600022CD26CB4AC94EC706CF52C556C35AC134
:10347000DEDEE2DCE6DAAA89AE843289368409C56A
:103480001C4D99E3EFF0BFB8971700009387C7B2C0
:103490006397F40C83A44900DE24A18BFDC39C48F0
:1034A000EDC393070002A304F1029307000302D2C5
:1034B0002305F10222C6930B5002971A0000938A4B
:1034C000AAB3054C294B4A841C2099C3639E770DEF
:1034D000B30C2441638D0C00E6864A86A6854E8592
:1034E0003D3FFD57630FF51C9256E69636D21C20E1
:1034F0006389071CFD571309140002C802CE3ECA97
:1035000002CCA309010482D48345090015465685DF
:10351000A92F13041900C24751E913F7070109C77E
:1035200013070002A309E10413F7870009C7130773
:10353000B002A309E104834609001307A002638FC8
:10354000E606F2474A848146254618209305140072
:10355000130707FD6377E60AB5CA3ECE85A897171D
:103560000000938767A76395F40083A489002DB7B3
:1035700097170000938747A2E390F4F283A4C90051
:1035800021BFA6854E85EFF02FF401DD7D55FA4071
:103590006A44DA444A49BA492A4A9A4A0A4BF65BCB
:1035A000665CD65C0D618280050439BF33055541E8
:1035B0003315AC00C98F3EC82289B9B7324793068C
:1035C0004700184336C6634707023ACE18209307D0
:1035D000E002631DF70418309307A002631BF70293
:1035E000B2470904138747009C433AC663C10702E8
:1035F0003ECA2DA83307E04093E727003ACE3EC8E5
:10360000F1B7B387670385462E84BA973DBFFD5750
:10361000C5B7050402CA814681472546182093058F
:103620001400130707FD6374E606F9F20C200D463B
:10363000171500001305C59C0D2D11CD971700001F
:103640009387079C1D8D93070004B397A7004245FD
:1036500005045D8D2AC80C201946171500001305B6
:10366000659A130914002304B102012535C197D7C7
:10367000FFFF9387279995E74247B24713770710D3
:1036800009CF91073EC69257D2973ED22DBDB38740
:10369000670385462E84BA9751B79D07E19BA10722
:1036A000D5B77800970600009386A6D726860C0823
:1036B0004E8597000000E7000000FD572A8AE314BA
:1036C000F5FCDE2493F70704E39207EC1255C1B52D
:1036D0007800970600009386C6D426860C084E858F
:1036E000012AE1BF797156CA9C49BA8A984522D409
:1036F00026D24ECE52CC06D64AD05AC85EC6AA8929
:103700002E84B284368A63D3E700BA879CC003470D
:10371000340419C385079CC01C4093F7070281C776
:103720009C4089079CC00329040013796900631A2F
:103730000900130B9401FD5B5C449840998F634C26
:10374000F9041C408346340493F70702B336D000D3
:10375000A5EB13063404D2854E85829AFD57630388
:10376000F5041C4011469840998B5444814463975A
:10377000C700B384E64063D3040081441C44184866
:103780006354F700998FBE94014969047D5B639887
:103790002405014509A885465A86D2854E85829A18
:1037A000631E75017D55B250225492540259F2495C
:1037B000624AD24A424BB24B456182800509ADBF95
:1037C0003307D40013060003A301C70403475404BE
:1037D00093871600A2978906A381E7049DBF8546BB
:1037E0002286D2854E85829AE30E65FB050945B790
:1037F000797122D426D24AD04ECE06D652CC56CAA1
:103800005AC8B689942D930790063289AA842E84CB
:1038100013863504638DF60263E2D70693078005AD
:103820006386F61863EDD700638E06209307300495
:10383000638EF60A930A24042301D404C9A09307D3
:1038400030066385F60A93074006E395F6FE1C40B2
:10385000084393F6070893054500C5C61C410CC3F1
:1038600063D807001307D002B307F040A301E404B4
:103870009706000093868679294765A89307000775
:103880006382F61663E5D7029307E0066389F618AC
:103890009307F006E390F6FA0C401C4313F8050872
:1038A000138547006307080608C39C4385A8930750
:1038B0005007E383F6FE930780076389F6129307A8
:1038C0003007E399F6F61C43D041814593864700C3
:1038D00014C383AA07005685492E01C533055541F7
:1038E00048C05C401CC8A301040461A81C43930A9F
:1038F0002404938647009C4314C32301F4048547A2
:10390000D5B793F607041C410CC3B9DAC207C187C7
:1039100081BF93F5050408C3C9D99E231307F00698
:103920006387E60E970600009386466E2947A3013B
:1039300004044C400CC463C5050008406D9908C0E0
:1039400099E3B28A89CDB28AB3F5E702FD1AB6953A
:103950008C212380BA00B3D5E70263F0E70CA147BE
:10396000631EF7001C40858B91CB58401C4863C7F1
:10397000E70093070003A38FFAFEFD1A33065641B2
:1039800010C84E87CA867000A2852685EFF09FD5A5
:103990007D5A631D450B7D55B250225492540259F5
:1039A000F249624AD24A424B45618280A382D504E1
:1039B00097060000938686650C40084313F80508B7
:1039C0001C411105630D080208C313F7150001C758
:1039D00093E505020CC04147B9FB0C4093F5F5FD9A
:1039E0000CC0B1B79C4193E707029CC193078007C5
:1039F000A302F404970600009386866275BF13F84D
:103A0000050408C3E30308FCC207C1837DBF970612
:103A100000009386A65F214719BFAE8735B7944152
:103A20001C43CC4913F806081385470063060800B9
:103A300008C39C438CC339A008C393F606049C4377
:103A4000F5DA8EA323280400B28A25BF14485686CF
:103A5000CA8526858299E30045F51C40898B8DE750
:103A6000B2474844E35AF5F23E853DB7854656864F
:103A7000CA8526858299E30065F3050A5C443247CE
:103A8000998FE345FAFEE9BF014A930A94017D5BF1
:103A9000F5B7411122C42A842E859707002023A55B
:103AA00007EA06C6EFE04FF3FD576319F5009707E5
:103AB0000020938767E99C4391C31CC0B240224415
:103AC00041018280411122C42E848395E50006C6FF
:103AD0005D2A634905007C48AA977CC8B24022440D
:103AE000410182805E247D777D17F98F5EA4FDB74A
:103AF000DE25011122CC26CA4AC84EC606CE93F74F
:103B00000710AA842E843289B68991C78395E5006F
:103B1000894601460D225E247D777D17F98F5EA4CC
:103B20008315E4006244F240CE864A86B249424997
:103B30002685D244056125A8411122C42E8483958F
:103B4000E50006C6CD28FD575A24631AF500FD7717
:103B5000FD17F98F5EA4B24022444101828085673F
:103B6000D98F5EA468C8C5BF8395E50025A841111B
:103B700022C42A842E85B28536869707002023A585
:103B800007DC06C6EFE06FE1FD576319F500970704
:103B90000020938767DB9C4391C31CC0B240224442
:103BA00041018280411122C42A842E85970700207A
:103BB00023AC07D806C61122FD576319F5009707F5
:103BC0000020938767D89C4391C31CC0B240224415
:103BD00041018280411122C42A842E85B285970733
:103BE000002023A307D606C6CD20FD576319F50094
:103BF00097070020938747D59C4391C31CC0B240D0
:103C0000224441018280411122C42A842E859707D3
:103C1000002023AB07D206C6C920FD576319F50063
:103C200097070020938747D29C4391C31CC0B240A2
:103C3000224441018280411122C42A842E85B2850A
:103C400036869707002023A107D006C67928FD579E
:103C50006319F50097070020938707CF9C4391C312
:103C60001CC0B24022444101828093F5F50F2A9690
:103C70006314C500014582801C21E38EB7FE050553
:103C8000C5BF82808280411122C42A842E85B285DC
:103C900036869707002023A907CA06C6B928FD570C
:103CA0006319F50097070020938707CA9C4391C3C7
:103CB0001CC0B2402244410182809307800517074F
:103CC00000202323F7C87D558280930780051707BE
:103CD0000020232BF7C67D558280930780051707A8
:103CE00000202323F7C6014582809307800517072C
:103CF0000020232BF7C47D5582809307800517078A
:103D000000202323F7C47D55828000002E2E2F46ED
:103D100072656552544F532F706F727461626C6597
:103D20002F4D656D4D616E672F686561705F342E34
:103D300063000000657272206174206C696E6520FA
:103D40002564206F662066696C6520222573222E0B
:103D5000200D0A20000000002E2E2F4672656552AD
:103D6000544F532F706F727461626C652F474343D9
:103D70002F524953432D562F706F72742E630000DB
:103D80002E2E2F4672656552544F532F71756575EF
:103D9000652E63002E2E2F4672656552544F532FA9
:103DA0007461736B732E630049444C45000000003E
:103DB0001020000010200000502000005C200000B7
:103DC0009E20000010200000102000005020000065
:103DD0005C200000546D7251000000002E2E2F4612
:103DE00072656552544F532F74696D6572732E63FB
:103DF00000000000546D7220537663005379737491
:103E0000656D436C6B3A25640D0A00004368697068
:103E100049443A253038780D0A0000005631302EDA
:103E2000342E36004672656552544F53204B6572EE
:103E30006E656C2056657273696F6E3A25730D0A54
:103E4000000000007461736B31730000457870618D
:103E50006E644D6F6465206E756C6C005B494E46F8
:103E60004F5D204770696F2053697A652825642962
:103E70000D0A00005B4552524F525D2073686F750A
:103E80006C646E27742072756E2061742068657290
:103E9000652121000001020203030303040404045A
:103EA00004040404050505050505050505050505C6
:103EB00005050505060606060606060606060606A6
:103EC0000606060606060606060606060606060692
:103ED0000606060607070707070707070707070776
:103EE0000707070707070707070707070707070762
:103EF0000707070707070707070707070707070752
:103F00000707070707070707070707070707070741
:103F10000707070708080808080808080808080825
:103F20000808080808080808080808080808080811
:103F30000808080808080808080808080808080801
:103F400008080808080808080808080808080808F1
:103F500008080808080808080808080808080808E1
:103F600008080808080808080808080808080808D1
:103F700008080808080808080808080808080808C1
:103F800008080808080808080808080808080808B1
:103F90000808080800000000000000000000000001
:103FA0000000000000000000000000000000000011
:103FB0000000000000000000000000000000000001
:103FC00000000000000000000000000000000000F1
:103FD00000000000000000000000000000000000E1
:103FE00000000000000000000000000000000000D1
:103FF00000000000232D302B20000000686C4C00D6
:104000006566674546470000303132333435363710
:1040100038394142434445460000000030313233D4
:1040200034353637383961626364656600000000F4
:044030006C260000FA
:104034000000000000000000010203040607080954
:10404400000000000102030401020304060708093A
:1040540000000000B43F0000D43F0000943F000083
:10406400000000000000000000000000000000004C
:10407400000000000000000000000000000000003C
:10408400000000000000000000000000000000002C
:10409400000000000000000000000000000000001C
:1040A400000000000000000000000000000000000C
:1040B40000D8B80502040608AAAAAAAA0E0000009D
:1040C400483900202000002000500020200000205B
:00000001FF
