:040000006F10E01D80
:1000040000000000000000004C1000004E10000032
:1000140000000000DC1100000000000000000000EF
:10002400DC110000DC1100000000000000000000F2
:10003400141A00000000000000010000000000008D
:1000440062060000DC110000DC110000DC1100007D
:10005400DC110000DC110000DC110000DC110000E8
:10006400DC110000DC110000DC110000DC110000D8
:10007400DC110000DC110000DC110000DC110000C8
:10008400DC110000DC110000DC110000DC110000B8
:10009400DC110000DC110000DC110000DC110000A8
:1000A400DC110000DC110000DC110000DC11000098
:1000B400DC110000DC110000DC110000DC11000088
:1000C400DC110000DC110000DC110000DC11000078
:1000D400DC110000DC110000DC110000DC11000068
:1000E400DC110000DC110000DC110000DC11000058
:0C00F400DC110000DC110000DC11000039
:10010000130181F806C216C41AC61EC822CA26CC1C
:100110002ACE2ED032D236D43AD63ED842DA46DC77
:100120004ADECEC0D2C2D6C4DAC6DEC8E2CAE6CC47
:10013000EACEEED0F2D2F6D4FAD6FED8F3220030D0
:1001400096DA9702002083A2A2FA23A02200F325C8
:1001500010342EC003A18182EF20C062170300205B
:10016000032303F903210300824273901234D65211
:10017000739002309240A2423243C2435244E2445E
:10018000724582551256A2563257C2575258E258FB
:1001900072598649164AA64A364BC64B564CE64C0F
:1001A000764D865D165EA65E365FC65F13018107DB
:1001B0007300203013000000130000001300000043
:1001C00013000000130000001300000013000000E3
:1001D00013000000130000001300000013000000D3
:1001E00013000000130000001300000013000000C3
:1001F00013000000130000001300000013000000B3
:1002000083A28182938202E073900234170100205E
:10021000032101EE024182403243C2435244E24490
:10022000724582551256A2563257C2575258E2585A
:1002300072598649164AA64A364BC64B564CE64C6E
:10024000764D865D165EA65E365FC65FD652A1020B
:1002500073900230A24213018107828013000000D4
:100260001300000013000000130000001300000042
:100270001300000013000000130000001300000032
:100280001300000013000000130000001300000022
:100290001300000013000000130000001300000012
:1002A0001300000013000000130000001300000002
:1002B00013000000130000001300000013000000F2
:1002C00013000000130000001300000013000000E2
:1002D00013000000130000001300000013000000D2
:1002E00013000000130000001300000013000000C2
:1002F00013000000130000001300000013000000B2
:10030000F322003093F272FF130380181203B3E25A
:100310006200711523205500130585FA10C12115BF
:10032000232005009302000063870200711523203B
:100330000500FD12D5BF71150CC1828000000000C0
:1003400000000000000000000000000000000000AD
:10035000000000000000000000000000000000009D
:10036000000000000000000000000000000000008D
:10037000000000000000000000000000000000007D
:10038000000000000000000000000000000000006D
:10039000000000000000000000000000000000005D
:1003A000000000000000000000000000000000004D
:1003B000000000000000000000000000000000003D
:1003C000000000000000000000000000000000002D
:1003D000000000000000000000000000000000001D
:1003E0000000000000000000000000000000397163
:1003F00001436EC619A0397141536AC866CA62CCFE
:100400005ECE19A0397101535AD056D252D44ED66D
:100410004AD826DA22DC06DE3301614082824111AD
:100420004AC026C222C406C68282B24D4101024D94
:10043000924C224CB24B4101024B924A224AB249A1
:100440004101024992442244B240410182803D432D
:100450002A876373C3029377F700BDEFADE5937608
:1004600006FF3D8ABA960CC34CC30CC74CC7410764
:10047000E36BD7FE11E28280B306C3408A0697027F
:10048000000096966780A6002307B700A306B70072
:100490002306B700A305B7002305B700A304B700E0
:1004A0002304B700A303B7002303B700A302B700D8
:1004B0002302B700A301B7002301B700A300B700D0
:1004C0002300B700828093F5F50F93968500D58DB4
:1004D00093960501D58D61B793962700970200008A
:1004E00096968682E78086FA9680C1171D8F3E9683
:1004F000E374C3F8A5B7EFF29FF241112A84EF101D
:1005000010632AC6B73400401309000483A704C04F
:10051000182C93F7F70763F8E7006376F9001305E3
:10052000F007EF10001795456800EF202012F9BF83
:10053000EFF2FFEE2A840565854513050580EF007F
:10054000307B1305F007EF10C01413050018EF10EF
:10055000800F1305F005EF1040101305F007EF10A2
:100560002014EF1060151305C401EF005064EF1064
:100570002011B7370040938707C0DC4393F7F70794
:100580001CACC1B5EFF2BFE937150140C1451305F9
:100590000580EF00B05F75B5EFF27FE837150140D9
:1005A000C14513050580EF00F05C61BDEFF23FE748
:1005B00037150140894513050580EF00B05B51B543
:1005C000EFF2FFE52A84894537350140EF00307AA4
:1005D0007DD9A28537350140EF00F0788545373564
:1005E0000140EF00D0787DD937350140EF00F0773A
:1005F00089BDEFF2DFE22A842181D9371375F40F28
:10060000C13781B5EFF2BFE12A84AD3F3715014014
:10061000894513050580EF00705722855537AD3F9A
:100620000DB5EFF2DFDF41112EC6E93FA13FBD3F1F
:10063000B2452E8571378D37410121B5EFF23FDE8E
:100640002A89AE8401443D3F9537B307890088234A
:100650000504BD3793170401C183E3E897FE2D3FDE
:10066000CDB3EFF2DFDBEF10800419C51305F007FF
:10067000EF102002EF104004E9B35E2189C76A2120
:100680001335150082800545828083960500DA21A6
:10069000831705002A86369742074187634CF70285
:1006A0005A210145BA97C207C18763C6D70283960C
:1006B0002500FA2183172600369742074187634CAD
:1006C000F7006A22AA97C207C187B3A7D70013C54C
:1006D000170082800145828083970500031305007F
:1006E00041113E8863C367001A8883182500039769
:1006F00025004208135808414686635317013A867D
:10070000D62142064186BE965E213E93131E03010A
:10071000B687C206C186135E0E4163D3C6019A87AF
:10072000F621C207C18736977621BA854207B69867
:10073000939608014187C1866353D700C685B38766
:100740000741918D13150801C20742064181C20578
:10075000C183518DDD8D41018280EFF25FCC454533
:10076000553513058007EF10907B81451305600315
:100770004D3D930550051305A00365351305200B6A
:100780005135954513850182553D93055003130559
:10079000700B413DE5451305B00B61359305C00273
:1007A0001305000CBD3D85451305200C9D3DC94535
:1007B0001305300CBD35930500021305400C95352B
:1007C000BD451305600CB13D1305000D253D894560
:1007D0001385C181A5351305000E2D351165B94569
:1007E00013058562A13D1305100E293D1165B9451C
:1007F00013058561A13513051002293513059002F3
:10080000113513054006EF10907125B9EFF23FC185
:10081000AA84056501118545110502C002C202C402
:1008200002C602C802CA02CC231E0100EF00704AB1
:1008300037140140CD477C800D49C1478A85130597
:1008400004803EC44AC2EF0050239307000A7C8014
:100850008A85E147130504803EC44AC2EF00F021B7
:10086000B70704013EC6B70700023ECA6C009D47A9
:1008700037350140FC8602C802CCEF00504985455F
:1008800037350140EF00904CB7370140FCCC49466A
:100890006C0013854406EF20F029FD39013B8545A6
:1008A00013050480EF00102D056161BEEFF23FB724
:1008B000B13F41BE21C5EFF29FB6B7170140138784
:1008C00007806316E5001145EF00B0409DBE138719
:1008D00007C06314E5002145C5BF6314F500414519
:1008E000E5B7938707406315F50013050002E9BFDC
:1008F000B7070140E31CF5FC0545F9B78280B70650
:1009000000209386060C9C421D476376F702EFF2A7
:100910001FB18967938707807390073037460000BF
:10092000374500001306066A930500031305C56BDF
:10093000EF20702B01A03707002013962700130724
:1009400087143297850708C39CC28280EFF29FAB61
:10095000370700201307070B8307070041113704EF
:10096000002085EF930784169306F00594AF23AE1D
:100970000700C146D4AFB70600000546938606536C
:100980002382070023A4070023A6070023A807004B
:1009900023AA070090D394C310A3130584168537A8
:1009A0009306841637050000374400003C001D47BD
:1009B00013060010930584631305654F02C4EF10FE
:1009C000C06B8547AA896305F5028967938707800D
:1009D0007390073037460000374500009306846364
:1009E0001306066AE14513050564EF20D01F01A038
:1009F000B70400209384840B83870400A1E313844D
:100A0000C190230204002324040023260400232889
:100A10000400232A0400232C040413060004814547
:100A2000130584012D34B71700009387C78A232E3E
:100A30000404232004061CC0238034011385C190C4
:100A40007D3DB7440000371500007C001D479386AC
:100A5000C1901306001093850468130505F802C6BB
:100A6000EF10A06185470144631EF504B704002020
:100A7000370A002093848414854A83250A0C637600
:100A8000B40613192400B389240183A709009DC764
:100A9000D8230DE788478545313D83A7090088475E
:100AA0009385C700EF00607D03A509001C4191C339
:100AB000829726998327090023825701050413741E
:100AC000F40F65BF896793870780739007303746B7
:100AD000000037450000938604681306066AE54562
:100AE00013050564EF20301001A037450000130501
:100AF0008568EF20500F41016FF01F94EFF23F9295
:100B000041112E852E84953E15C102C402C628844B
:100B100034852C863887C167FD17C2067D8D420754
:100B2000FD8D558DD98D41016FF0BF918317040064
:100B30003E8663D3070001465A204206930670089A
:100B40003E97BA874207418741860315240063D444
:100B5000E60093077008C207C1876E206352F6044F
:100B6000AA86635305008146AA952E87C205C20650
:100B7000C1851305000FC1866354B5001307000F2C
:100B800093150701C18563DDB600918F158FC207EC
:100B90004207C1834183708474857C86788785BFD2
:100BA0000147814781460146FDB7EFF2BF854111FC
:100BB0006C8461052C003E8A7085748678873D3F81
:100BC0002AC00A852EC2553C4DE183140100835A88
:100BD00041001305A00293844403C204C180938999
:100BE000FAFF035B610003142100A699EFF09FA1B7
:100BF000EFF05F99EFF09F9B2685C209EFF07F9F92
:100C000093D909014E8513048402B38A6A03EFF075
:100C10005F9E4204EFF05F981305B0024180130914
:100C2000FBFFEFF03F9E2299EFF0DF95EFF01F986A
:100C300022854209EFF0FF9B135909014A85EFF025
:100C40005F9BEFF07F951305C002EFF0BF9B01445F
:100C5000EFF05F93EFF09F9563878A005285EFF086
:100C60005F990504D5BFEFF03F9341016FF0CFFCD2
:100C7000635AD00413180601BA87135808011307E2
:100C8000F00E6361070563DB0502AE96C206C186FE
:100C90008145EFF2CFF8130870083308B840C288D6
:100CA00042081358084163D30601B6889396080199
:100CB0000547C1822115D53D6FF0AFF813076008D5
:100CC000E359B7FC82806359D00413980501BA87B1
:100CD000135808011307600863600705635A06028A
:100CE000B296C206C1860146EFF26FF31308000FF9
:100CF0003308C840428742081358084163D30601AD
:100D00003687420741838546211545356FF06FF3DD
:100D10001307F00EE35AC7FC8280EFF24FF003583E
:100D200046009384850193160801C186635AD00852
:100D30007E221397070141876354E0082E858315AF
:100D4000060063D70500B306B800C206C186814518
:100D500003162600635006026354D0063387C7008B
:100D600042074187635EE00493076008014663DD44
:100D7000B700B9A06356D0049307600863C2B704F4
:100D80009307F00E63CEC702B387D500130870082F
:100D90006357F800930670088D8EC206C186B307AC
:100DA000E6001308000F6357F8001307000F118FB8
:100DB000420741874207C20681474183C182F5331A
:100DC000B7070020039407084169130709FEA285AD
:100DD0002685D14613068002613D130709FEA285D0
:100DE0002685D1461306B0036135130709FEA28597
:100DF0002685D14613068002F93593053401C205D4
:100E0000130709FED14613068002C1852685653D7C
:100E10006FF02FE3EFF2AFE02E86AA850145F53D96
:100E20006FF02FE23C4163F3F5028E051397370014
:100E3000AA952A97A1056389E500944123ACD5FEC4
:100E4000D44123AED5FEFDB7FD173CC18280EFF241
:100E50006FDB01112A8428002EC432C6EFF0FF8117
:100E600031E981440329040463FA2403139934000B
:100E700022992C004A85EFF05F8119CD2C004A851C
:100E8000EFF09F8568846C864181C18168856C879D
:100E90002285A685413FF1B78504E9B79D4763EEFA
:100EA0002701930719003CC0A2470E094A941CC0B1
:100EB000B2475CC005616FF02FD8A289228A814AAF
:100EC0007D5B81442C005285EFF01F812ECEB887C8
:100ED000BC8683566A002ACCB387E70203574A00D0
:100EE0003307D702998F63F467013E8BD684850A56
:100EF000210AE31959FD8E04A29426852C00EFF0F7
:100F0000AFFD8AA0CEA04181C181AAA0EEA08144FC
:100F1000938A14008E045689A2943C406379F902A6
:100F2000131A3900229AD2854E85EFF00FF60DC5BF
:100F3000D2854E85EFF04FFA8AA0CEA04181C181C3
:100F4000AAA0EEA02285CA85F13D5689F9B7A1096C
:100F5000D684E3EFFAFAB9BF0509C1B7EFF22FCC97
:100F600041112A84613E2AC428002EC6EFF0EFF01A
:100F700009E5A24532462285D93D41016FF06FCC8B
:100F8000EFF26FC7B714014041112A8485451385DC
:100F90000480CD262945EF1080788545138504808F
:100FA000F5262945EF10A077854513850480D926BD
:100FB00013054006EF10A0762285EFF00FFA814767
:100FC0001307000F930670080146814522853709F3
:100FD0001400E13EB7040020930BA005294C9309AF
:100FE0008401130B800251090397040893075700EB
:100FF000C207C18763C2FB042390F4082C004E850E
:101000007884231561014AC6913F83D704082C00D8
:101010004E857C84231561014AC64E8A8137814AF8
:10102000230401003C4C63FCFA005286A285280090
:10103000ED31850A210AFDB723908409C1B7232C1D
:10104000040413054006EF10806D79BF01A0411123
:101050003EC4B707EFBE3AC69387070837E700E0FC
:101060003CC701A0B71702409843B706FFF04111F3
:101070001367170098C3D84337060200758FD8C38B
:101080009843B706F7FEFD16758F98C39843B706C9
:10109000FCFFFD16758F98C3D843B70601FFFD16F8
:1010A000758FD8C337079F0098C702C402C69843FC
:1010B000C166558F98C3B716024005679C42F18FF1
:1010C0003EC6A24785073EC4B24781E7A247E397E1
:1010D000E7FEB71702409C431397E70063570706E4
:1010E00085473EC632478547631FF704B71702405E
:1010F000D843B706C1FFFD16D8C3D843D8C3D843D9
:1011000013670740D8C3D843758FD8C3D843B706F1
:101110002900558FD8C39843B7060001558F98C34F
:10112000984393166700E3DD06FED843B7160240E6
:10113000719BD8C3D84313672700D8C32147DC422B
:10114000B18BE39EE7FE4101828002C661BFB71604
:101150000240DC421146B18B138741806385C70092
:1011600021466388C702B7177A00938707201CC3FC
:10117000B7170240DC43918393F6F700B7070020CE
:1011800093870700B69794231C43B3D7D7001CC39B
:101190008280DC42D4424166C983BD8BF18E8907CF
:1011A00045466393C700C94781EEB746024083A610
:1011B0000680C18A89CEB7167A009386062021A8B8
:1011C000B7160240D4421396E600E35606FEB71661
:1011D0003D0093860690B387D70251BF01A097F1D7
:1011E000FF1F9381216A174100201301A1E11745D8
:1011F00000001305658497F5FF1F9385A5E013860E
:10120000018363FAC5008322050023A05500110560
:101210009105E3EAC5FE17F5FF1F1305A5E997053C
:101220000020938565556377B500232005001105DF
:10123000E36DB5FEFD42739002BC8942739042801B
:10124000B7220000938202807390023097F2FFFF72
:10125000938282DB93E2320073905230EFF09FE092
:1012600097220000938262CA739012347300203078
:10127000B7F7FF1F03A5477082809C4513F707014E
:1012800013F8F70001C7D8413368E8003727024058
:10129000145B3707000F758F5DEB3707002085461D
:1012A0002302D70C371701406315E5009A213583D7
:1012B0009AA18E2113F7F50F39C318418146854E47
:1012C0003D4F930F800293028004214E3396DE003F
:1012D000B3F8C500631116039398260033131F015A
:1012E0001343F3FF3377E300B318180133E7E80043
:1012F0006399F70750C98506E39AC6FD18C113071D
:10130000F00F6375B70454412146854E3D4F930F4E
:10131000800293028004414EB398CE0033F715014A
:101320006392E8021317260001173313EF001343EB
:10133000F3FFB376D3003317E800D98E6397F70332
:10134000232A15010506E319C6FD54C1828037170B
:101350000140E310E5F6370700200347470C31DB77
:10136000B1B7E39A57F810C979B7E39D57FC232822
:101370001501C9BFB71701406318F500B707002072
:1013800083C7470C91C3B5810CC98280B717014050
:101390006318F500B707002083C7470C91C3B581D8
:1013A0004CC98280B707002023A4A70C8280B7070E
:1013B000002003A7870C854714216310F7021C3116
:1013C000639CE7023C21960793E707F837E700E0C4
:1013D00093F7F70F36972300F740054793D756004A
:1013E0003317D700544189CE938707048A07B7E69D
:1013F00000E0B69798C38280EDF33C219607F9B7D9
:1014000093870706B7E600E08A07B69798C30F10E0
:1014100000008280371702405C439146B18B6385A0
:10142000D700A1466382D706B7177A0093870720B3
:101430001CC1371602405C42370700201307070122
:101440009183BD8BBA9794231C41B3D7D7005CC15D
:101450005442A1829D8ABA969422B3D6D70014C56D
:101460005442AD829D8A36971823B3D7E7005CC5F6
:101470005842398393763700138781803697182333
:10148000B3D7E7021CC982805C435843C166C98355
:10149000BD8B758F8907C5466393D700C94701EF98
:1014A0003747024003270780418B09CF37177A005F
:1014B0001307072021A83717024058439316E70067
:1014C000E3D606FE37173D0013070790B387E70200
:1014D00085B799C5371702401C4F5D8D08CF8280B4
:1014E000B7170240984F1345F5FF798D88CF82805A
:1014F00099C5371702405C4F5D8D48CF8280B71782
:101500000240D84F1345F5FF798DC8CF82801A214C
:101510008D6793870704B6217D8F9E21D58FD621B5
:10152000D58FF621D58F9625D58FB625D58FD62583
:10153000D58FF625D58FD98F1EA15A2DFD7793878C
:10154000F77FF98F5EAD9E291EA982801E2189C575
:1015500093E707041EA18280C207C18393F7F7FBBC
:10156000C207C183C5BF4EA582804A2582800A2555
:101570006D8D3335A0008280EFE27FEA1A29F5777E
:10158000FD17F98FFA2101112A84D98F1EA99A25F6
:10159000DE215625AE84D98FBA25D98F7D771307E2
:1015A000379F758FD98F5EA55E29DA25C207C18363
:1015B00093F7F7CFD98F5EA96800A93DB7470140DF
:1015C000938707806317F404E2476545B335F50256
:1015D000904081460A063305F502EF10901C9306F1
:1015E00040063357D502120793574700B387F602D8
:1015F0001D8D93174500138527039307F06363FC44
:10160000A70013050701420541810AA405616FE0A7
:101610005FE3D2475DBF3355D502598DEDB791C514
:101620005E250967D98F5EA582805A25F977FD1757
:10163000F98FD5BF93F5F51F4EA182800A216D8DDC
:101640003335A000828037370040832747C093F7A7
:10165000F7E75D8D2322A7C08280411102C6B7370C
:10166000004003A747C01375F507137707F83AC67C
:101670003247598D2AC6324723A2E7C041018280F2
:10168000B737004003A747C01367072023A2E7C06E
:1016900082801375F507B737004023A0A7C082806A
:1016A00013650508B737004023A0A7C08280B7376D
:1016B000004003A587C08280B737004023A407C03D
:1016C0008280B70700209387470E9843636FA70275
:1016D000D043B386C7006316D50054413E85B29609
:1016E000D4C35041B306C500631CD700B706002021
:1016F00083A6C60C6306D70054431843B29654C160
:1017000018C16303F50088C38280BA877DBFEFE20A
:101710007FCF41112AC6EF009040B706002083A773
:10172000C60C370600209386C60C1306060D3245FC
:10173000A9EF370700209307472093F5F700130719
:10174000472081C51387F700419BB705002093858B
:10175000450E23A2050098C185659385053FAE9788
:10176000C19B23A2070023A00700B385E7409CC2CA
:101770001CC3B707002023ACB70CB707002023AA6F
:10178000B70CB70700804CC31CC2032A0600B3770E
:10179000AA0091CBEF001055EF10E07E8144268522
:1017A00041016FE07FC99307F5FF3957E364F7FE06
:1017B0009307050113F7F70019C713F707FF410750
:1017C000E3FAE7FCBA87370700200329470D93099E
:1017D000470DE361F9FC370700200324470E130788
:1017E000470E50406374F6000C40A1E59442E38339
:1017F00086FA1440044314C33307F64093060002EC
:1018000063FFE6023305F4009376F50095C6896719
:1018100093870780739007303746000037450000F4
:101820001306C66E9305F00C13054571EF10B03B1F
:1018300001A022872E8475B758C15CC05935584025
:10184000B70600209386860D9042B307E94023A097
:10185000F90063F3C7009CC2B70700203367EA00B2
:101860009387C70D58C09843C1042320040005077F
:1018700098C3EF0030478DD093F7F4008DD389677C
:101880009387078073900730374600003745000084
:101890001306C66E9305001113054571EF10B034A1
:1018A00001A055C1EFE2BFB7B7070020032745FFEE
:1018B00083A7070D2A84B376F7009DE28967938793
:1018C0000780739007303746000037450000130645
:1018D000C66E9305401213054571EF10D03001A07C
:1018E000832605FF9DC28967938707807390073021
:1018F00037460000374500001306C66E93055012A8
:1019000013054571EF10302E01A093C7F7FFF98F33
:10191000232AF5FEEF00B020B70700209387470D7C
:101920009443032744FF130504FF369798C3513BA4
:10193000B70700209387070E9843050798C3EF0069
:10194000703A6FE01FB08280B7E700E0415723870D
:10195000E7402386E740B7F700E023A0070023A273
:101960000700814694C70147D8C737070020832561
:1019700047081307803E814633D6E5023D4790CBAA
:10198000D4CB98C38280EFE29FA9411102C6F3270E
:1019900050303EC6B2470D478D8B6384E70289679E
:1019A0009387078073900730374600003745000063
:1019B000130686739305600B13054571EF10B02273
:1019C00001A0B757002093870700BD8B9DC389678F
:1019D0009387078073900730374600003745000033
:1019E000130686739305B00B13054571EF10B01FF6
:1019F00001A0993FB7E700E0116723A0E710056752
:101A000023A0E71023A60180EFE08FFF01454101ED
:101A10006FE03FA3397106DE16DC1ADA1ED82AD62B
:101A20002ED432D236D03ACE3ECC42CA46C872C646
:101A300076C47AC27EC073110134896793870780A8
:101A400073900730B7F700E023A20700EF00D00E35
:101A500011C5B7E700E0116723A0E72089679387E6
:101A600087887390073073110134F250E252525359
:101A7000C2533255A255125682567247E247524817
:101A8000C248324EA24E124F824F21617300203065
:101A9000896793870780739007309387C180984345
:101AA000050798C382801387C1801C438DE7EFE24E
:101AB0001F97896793870780739007303746000028
:101AC00037450000130686739305301013054571E2
:101AD000EF10701101A0FD171CC391E78967938770
:101AE0008788739007308280930785007D575CC19B
:101AF00018C55CC51CC92320050082802328050069
:101B000082809841FD5693078500631ED7001C49CB
:101B1000D843D8C10CC79CC5CCC31C4188C9850714
:101B20001CC18280B687D4439042E37DC7FECDB707
:101B3000544118451C4998C654C3D4436393A60026
:101B4000D8C39843232805007D1798C38843828013
:101B5000EFE2FF8C41112AC6253F3245005DA137D7
:101B60001335140041016FE0DF8D304115C2EFE203
:101B70001F8B58451445AA87329758C56364D70010
:101B8000184158C52E85CC47EF10C07A6FE07F8B87
:101B90008280EFE2DF882A84E53D83445404130900
:101BA0004402E204E18463459002FD57A302F40479
:101BB000DD3DF93D8344440413090401E204E1845A
:101BC00063449002FD572302F404F13D6FE07F87E8
:101BD0005C50E1DF4A85EF00F05319C1EF00B06EB1
:101BE000FD14E204E184C1B71C48E9DF4A85EF0037
:101BF000705219C1EF00306DFD14E204E184C9B7E1
:101C0000EFE2FF8141111DE189679387078073909F
:101C10000730374600003745000013060676930567
:101C2000001113054571EF10007C01A05C5D2EC60C
:101C30002A84BDC33841B3B7E702B9EF913D3040C4
:101C4000585C1440232C0402B307E602B24554C08A
:101C50003387F600918FB6975CC4FD572302F404D6
:101C600018C4A302F40495E11C4899CB13050401A0
:101C7000EF00504A11C5B7E700E0116723A0E72045
:101C80001D35054541016FE0CFFB13050401A93D5A
:101C900013054402913DEDB78967938707807390E0
:101CA00007303746000037450000130606769305D7
:101CB000501413054571EF10007301A0EFE22FF6E9
:101CC000411129C1B3B7A502AA848DEF3305B5022E
:101CD000930770FB63E8A702130585042EC6EFF097
:101CE0001FA32A8401CDB245AA8799C19307850411
:101CF0002CC01CC044DC8545228519372285410152
:101D00006FE02FF489679387078073900730374619
:101D1000000037450000130606769305601C130586
:101D20004571EF10406C01A0EFE2EFEC011132C6FB
:101D30001DE189679387078073900730374600005D
:101D400037450000130606769305105513054571B7
:101D5000EF10606901A02A84AE898DE53C419DC3E6
:101D600089679387078073900730374600003745AF
:101D70000000130606769305505513054571EF10C4
:101D8000806601A0EF00F05415E5B247014985C710
:101D9000896793870780739007303746000037457F
:101DA0000000130606769305A05513054571EF1044
:101DB000806301A001497D5A930A440237EB00E099
:101DC000916B9DA0B24781E7F939014571A0631578
:101DD00009002808EF00D042F93191235539834793
:101DE0004404E207E1876394470123020404834724
:101DF0005404E207E18763944701A30204046531B8
:101E00006C002808EF00304139ED2285913321C95B
:101E1000B2455685EF0030242285A53BEF00806C4B
:101E200019E123207B210549EFF09FC6045CD9D836
:101E3000CE852285FD14153B04DC1C4899CB130587
:101E40000401EF00302D11C5B7E700E0116723A0B2
:101E5000E720EFF05FC5054505616FE04FDD2285A6
:101E60000D3B4925C9B722852D33AD2D2285CD31B6
:101E70005DD9A1BF15E5EFE28FDA89679387078007
:101E8000739007303746000085653745000013061C
:101E90000676938585AC13054571EF10C05401A0FB
:101EA0009DCD3716002093064660814701471306F3
:101EB0004660214883A846006398A800931737001E
:101EC000B2978CC3C8C321A891E783A80600639387
:101ED0000800B6870507A106E31E07FDFDF3828013
:101EE000EFE2EFD341112A842EC632C4EFF05FBA7D
:101EF000834744047D572246E207E187B245639455
:101F0000E70023020404834754047D57E207E18776
:101F10006394E700A302040432C62EC4EFF0BFB8F6
:101F20001C5CA245324689E713054402EF003017D6
:101F30002285EFF01FC641016FE0AFD037070020C8
:101F40001307070F1C439443B7070020938707111B
:101F500081E67D5798C38280184358471843DDBFF8
:101F6000EFE24FCAB7040020B70700201389C40E60
:101F700083A907122A840325090041112EC61105E1
:101F8000EFF01FBB7D579387C40EB2456311E40485
:101F90009DCDB71700209387077283260900D84389
:101FA00098C6104783260900D0C68326090010472B
:101FB000910654C283260900910614C7032709001D
:101FC0005CCB9843050798C341016FE0EFC6984387
:101FD0004E9440C3637B3401370700200325470F2D
:101FE0008C439105EFF0FFB1C5B7370700200325FB
:101FF000070F8C439105EFF0DFB0B7070020938700
:1020000007119843E372E4FC80C37DBFEFE28FBF0A
:1020100037140020B709002013044473370A002046
:10202000B71A00209384C90F9C4089EF93874A64B4
:1020300098438547E3F8E7FEB7E700E0116723A080
:10204000E720CDB7EFF0DFA45C4403A9C700130578
:102050004900EFF0FFAD13078A0F1C43FD171CC3A7
:102060009C40FD179CC0EFF01FA403250903EFF06F
:102070005F834A85EFF0FF8275B7EFE2CFB7931425
:1020800026002A8B26852E8AB68B3A89BE8AEFF0E7
:102090000FE805CDAA8913054005EFF04FE72A8424
:1020A00015C12328350326864E859305500AEFE097
:1020B0000FBA814783290403C146631A0A00230A21
:1020C000040225A04E85EFF0CFFD7D555DA23307BC
:1020D000FA00030707003306F400230AE60201C7EB
:1020E0008507E396D7FEA30104049D4763F4270305
:1020F000896793870780739007303746000037451C
:102100000000130646779305703913054571EF10EB
:10211000802D01A0130A4400232624032322240532
:10212000528523240404EFF07F9D13058401EFF012
:10213000FF9CA147F11433892741CE9400C8232C7A
:10214000240140D023060404A30604042307040446
:10215000A3070404230804045E86DA8513F504FF4C
:10216000EFE00F9A08C063840A0023A08A00EFF012
:102170003F92B70700209387870F9843B70400204A
:10218000B7190020050798C31387C40E184393841A
:10219000C40E138949646310070E80C098438547B5
:1021A0006316F70693894964930A090A4E85D10993
:1021B000EFF09F93E39C3AFF37150020930A456E9A
:1021C0001305456EEFF05F92371500209309856F78
:1021D0001305856FEFF05F91371500201305C5706B
:1021E000EFF09F903715002013054573EFF0DF8F58
:1021F0003715002013050572EFF01F8FB707002079
:1022000023A8570FB707002023AA370FB7070020CE
:10221000938747109843050798C337070020130793
:1022200087105C54144363F3F6001CC35147B38713
:10223000E702CA97D843144718C454C4144723A2CA
:1022400046012324470198435CC8050798C3EFF073
:102250009F85B707002083A7C711054599CB9C40F0
:10226000D8575C546377F700B7E700E0116723A005
:10227000E7206FE0CF9BB707002083A7C711D9F7EE
:102280009C40D8575C54E3E3E7F880C041B7EFE2E5
:102290000F99B7070020B745000037250000938746
:1022A000C7100147814613060008938585781305FA
:1022B000C500E1330544631E8502EF00B02F631AA9
:1022C000850289679387078073900730B7070020DE
:1022D0007D5723A8E710B707002023AEA710B70744
:1022E000002023A00712EFF00FEA83A701816FE01F
:1022F0004F95FD57E31BF5FE896793870780739021
:1023000007303746000085653745000013064677DD
:102310009385058413054571EF10E00C01A0B70704
:102320000020938707109843050798C38280B7075A
:10233000002003A507128280B707002083A707109B
:1023400063990718EFE2AF8DB70700209387071254
:102350008043050480C321ECB70700209387070F53
:102360009843184305C789679387078073900730A0
:10237000374600008565374500001306467793858C
:1023800075AC13054571EF10000601A0370700205A
:102390001307470F9443104390C3B707002014C39B
:1023A000938747119843050798C3EFF03FB9370665
:1023B0000020930706119C4337170020B705002023
:1023C00013060611130747649385C50E014563750F
:1023D000F4029C41D146DC57B387D7023E9718439D
:1023E000854763F3E7000545B707002083A7471239
:1023F00091C305456FE0EF84370E0020B70E002033
:10240000514F93070E0F9443944281E6FD571CC22F
:10241000C9B79C43DC47DC47D4436374D40014C27F
:102420004DBF83A8870003A8C700D44B1383470080
:1024300023A408012322180183A84600639468009E
:1024400023A2060103A8060023AA07007D1823A0E3
:102450000601945795CA03A8C70183A8070283AF52
:1024600046002324180183A8070223A20801138829
:10247000870163940F0123A2160103A8060023A479
:1024800007027D1823A0060193868E1003A8C702B9
:1024900083A8060063F4080123A00601B306E8033D
:1024A000BA9683A8460083AF880023A4170123A609
:1024B000F70183AF880023A26F0023A46800D4CB68
:1024C0009C4285079CC29C41DC57E36CF8F20545B1
:1024D0000DBFB70700209387871198430145050773
:1024E00098C38280EFD21FF2370400201304041037
:1024F0001C40411185E789679387078073900730F7
:1025000037460000856537450000130646779385FA
:10251000358B13054571EF00106D01A0EFF04FD71B
:102520001C40FD171CC01C4089CB01452AC6EFF09A
:102530008FD7324541016FD03FF0B707002083A706
:10254000870FE5D7B71600203715002081479386FF
:10255000C670370F002013054564D14837030020AB
:10256000370E0020854E59A8DC46DC47CC4F9053EF
:10257000985790C503A807022322B80003284700F4
:10258000938587016313B80050C3104323A4070247
:102590007D1610C38C47D047D84B1388470090C591
:1025A0004CC24C436393050150C3104323AA070058
:1025B0007D1610C313078F10D0570C4363F3C5006B
:1025C00010C3330716032A974C4383AF85008CC78B
:1025D00023A6F70183AF850023A20F0123A40501E1
:1025E0000C43D8CB85050CC31307C30E18435857AB
:1025F0006366E60013074E122320D70198422DF799
:1026000099C3EFF0BF93B7070020138787110443E6
:102610001384871199CC370900208549EFF0DFD169
:1026200009C59307491223A03701FD14E5F82320BB
:102630000400B707002083A74712E38807EEB7E737
:1026400000E0116723A0E7200545CDB5EFD23FDDBF
:1026500041111DE1896793870780739007303746E2
:10266000000037450000130646779305104F130509
:102670004571EF00505701A09DE18967938707805E
:102680007390073037460000374500001306467741
:102690009305204F13054571EF00F05401A0B707D3
:1026A000002083A707109DC38967938707807390D5
:1026B000073037460000374500001306467793057C
:1026C000304F13054571EF00105201A02A842EC629
:1026D000EFF0FFC41840B245B707002003A507126A
:1026E000B307B7001CC06371E50263E1E702014470
:1026F000EFF05FDF11E5B7E700E0116723A0E72007
:10270000228541016FD0FFD363E4E700E371F5FE5A
:1027100081453385A740EFF0BF840544D1BF19E55B
:10272000B7E700E0116723A0E7208280EFD23FCF18
:10273000B707002083A7071041119DC389679387BE
:1027400007807390073037460000374500001306B6
:1027500046779305905413054571EF00D04801A0CA
:102760002AC6EFF0DFBB32458145EFF06FFFEFF097
:102770007FD711E5B7E700E0116723A0E72041010B
:102780006FD03FCCB707002003A70710B707002082
:102790009387471201C7054798C38280EFD23FC88D
:1027A0003704002023A007009307C40E9C4337A7DB
:1027B000A5A51307575A9C5B1304C40E9043631BD3
:1027C000E600D4436398C60098476315D700DC47FA
:1027D0006388E70008400C4093854503EF00E078EC
:1027E000B707002013878710184313868710B71781
:1027F0000020938747645148B3060703B385D70089
:10280000884105C5C841A106BE964841C8C16314A8
:10281000D5005441D4C1D146B306D702B697DC43A4
:10282000DC471CC018C26FD0DFC105E789679387FA
:1028300007807390073037460000856537450000F4
:1028400013064677938525C013054571EF00B0390F
:1028500001A07D1755B7EFD29FBC05E58967938727
:1028600007807390073037460000856537450000C4
:10287000130646779385C5C113054571EF00B03641
:1028800001A0B70700202E8483A5C70EE105EFF055
:102890004FA785452285EFF0AFEC6FD09FBAEFD2FE
:1028A0001FB82A8705E589679387078073900730EB
:1028B0003746000085653745000013064677938547
:1028C00025C513054571EF00103201A0B7070020A0
:1028D0009387C70E54432E858C4303A88600D4CD1E
:1028E0008C4323A0050303A807008C46610823A29C
:1028F000050103A807009C43610823A4060198D79B
:102900001C4385071CC311C27D55B285EFF04FE50E
:102910006FD03FB35C45DC4795E7EFD25FB0896786
:1029200093870780739007303746000085653745E9
:10293000000013064677938525C813054571EF00FF
:10294000902A01A0D04F945398579385870114C6BD
:10295000D0C250436313B60054C3144323A40702E8
:10296000FD1614C33707002003270710D45725EF9F
:102970008C47D047D84B90C5D04748434CC293852D
:1029800047006313B50050C3104323AA07007D1608
:1029900010C3370700201307871010436373D60056
:1029A00014C351473386E6023717002013074764E4
:1029B00032975043084690C7C8C708464CC10CC65A
:1029C000D8CB1C43014585071CC3B707002083A74C
:1029D000C70EDC5763F8D700B7070020054723A2CE
:1029E000E71205458280371700201307C770504350
:1029F0000846D0CF88D308464CC10CC698D7D1B76B
:102A0000B707002083A747111CC1B707002083A781
:102A100007125CC18280EFD29FA0411105E5896752
:102A200093870780739007303746000085653745E8
:102A30000000130646779385D5CF13054571EF0047
:102A4000901A01A085E58967938707807390073006
:102A500037460000856537450000130646779385A5
:102A6000E5CF13054571EF00101801A02EC62AC44A
:102A7000EFF00F82B245B707002083A607129C41F2
:102A80007D5701446381E702224537060020032673
:102A90004611032805005841630DC80063EBE600AA
:102AA00023A005000544EFF00F80228541016FD07F
:102AB0005F993386E640E375F6FE958FBA979CC121
:102AC00081370144CDB7B7070020054723A2E7129D
:102AD0008280B707002083A7C711054581CBB707C0
:102AE000002003A507101335150006058280EFD2DC
:102AF0001F9337040020EFE0BFF9130444131C4078
:102B0000B1E7371500201309857413058574EFE0CC
:102B1000BFFD371500209304C5751305C575EFE09B
:102B2000BFFCB707002023A427130146B7070020E6
:102B3000B145094523A69712EFF04F9808C019C573
:102B4000B74500009385457BEFF0CFB2EFE0BFF5CE
:102B50006FD03F8FEFD2BF8C4CC108C9AA87636288
:102B6000B602184D158E0545637BE6009385470038
:102B7000B707002003A5C712EFE0BFF801456FD0EB
:102B80005F8C6375D6000545E3FBD5FE9385470052
:102B9000B707002003A58712C5B7EFD25F882A8444
:102BA000AE8432890C4CA6864A86A69522855D376E
:102BB00019E16FD01F891C4C2285BE941C5082974E
:102BC000D5B7EFD2DF85B707002083A78712411161
:102BD000AA84DC472EC6C04713054400EFE05FF52A
:102BE00083474402324613F7470011CBA68522855E
:102BF0006D371C502285829741016FD09F84F99BCD
:102C00002302F402FDB7EFD29F8137040020930620
:102C1000841298421C4391EBB70700209387C71298
:102C2000904398C390C26FD0DF815C47FD558843C5
:102C3000493FF1BFEFD22FFC11694111B70A0020C3
:102C4000B7090020370B0020B70B002013090979C2
:102C500083A78A12984329CBDC47814C03AC070039
:102C6000EFF0EFEBEFF0AFEC83A709132A84938426
:102C70000913130A4B13636CF50288C0638F0C02AF
:102C800083A7CB1290431336160003250A00B30521
:102C90008C40EFF0EFA4EFF0FF8411EDB7E700E018
:102CA000116723A0E72001A8854C014C55BFA13F27
:102CB00080C0EFF03F83214CB9A00146E36785FD5A
:102CC000EFF05F82A2856285ED3DF5B78347440250
:102CD0000C4CA24693E717002302F4026686B695D1
:102CE0002285EFF03FE705C18347440213F7470011
:102CF00031CF1C4CA24566862285BE95EFF0FFE9D8
:102D00001C502285829703250A0001464C00EFF0F3
:102D1000AF811DDD9247E3C807FE32445C4889C796
:102D200013054400EFE0DFE0EFF06FE09C40AA8C79
:102D30006374F500EFF03FED924723A09401FD1777
:102D4000E363FCFC8A07CA979C438287F99B2302B2
:102D5000F4027DB783474402F99B2302F40265B76E
:102D600083474402A24593E717002302F4020CCCE8
:102D700095E1896793870780739007303746000095
:102D8000374500001306C67B930590351305457142
:102D9000992D01A0E6866686E6952285EFF09FDBF9
:102DA0009DB78347440213F727005DF72285EFE0C4
:102DB0005FAF91BFEFD2AFE6EFF07FD3B707002050
:102DC00083A7471395E3896793870780739007303C
:102DD00037460000374500001306C67B9305901167
:102DE00013054571092501A0B7070020B74500006C
:102DF00037350000938787131D4781461306000867
:102E00009385457D130545C3EFF02FA74DDD6FD0AA
:102E10004FE3B707002083A7470837177A00130747
:102E20000720B3D7E7023707002093F7F70F230FE8
:102E3000F7121307803EB387E70237070020231EEF
:102E4000F7128280EFD2AFDD2A841165011185452A
:102E50001105EFE00FE8930700207C823715014051
:102E60008D473EC44C00E147130505803EC6EFE0A8
:102E7000CFC022C837440140B70708000C0813052B
:102E800004803ECC02CA231E0100EFE0EFEE854530
:102E900013050480EFE0AFF805616FD08FDAEFD251
:102EA0006FD6B7440140AE893289014493840480CF
:102EB000634524014A856FD02FD8930500042685E9
:102EC000EFE0CFF77DD9B38789008385070026859A
:102ED0000504C205C181EFE0EFF5D9BF1387418139
:102EE0001C43B7160020938646773E95636BD5004A
:102EF000B75600209386068063E5A60008C33E858A
:102F00008280FD57EDBFEFD28FD10545EFE08FC92D
:102F1000EFE0EFA3EFF0FFEF716513050520EFF091
:102F20007FF2B707002083A5470837450000130547
:102F3000C57D5529EFE0CFB3AA85374500001305BD
:102F4000C57E5521B7450000375500009385C57FE4
:102F5000130545804929EFD07F9FEFF04FB33755D8
:102F6000000013054582512B01A0EFD24FCB3755FE
:102F700000001305C58685299307800873B0078074
:102F80000F10000001A0EFD28FC9375500001305C4
:102F90004584A5239307800873B007800F100000B5
:102FA00001A0B687B2882A832E88639B061463F833
:102FB000C50A4167636BE61AB70700016360F63420
:102FC00093568601E147172700001307278D369790
:102FD0001823BA97130700021D8F19CB3398E50009
:102FE000B357F500B318E60033E807013313E500E3
:102FF00013D608013355C80293960801C18293572E
:1030000003013377C802B385A60242073368F7008D
:10301000637AB80046989307F5FF63641801636507
:10302000B8303E853308B8403357C80242031353C3
:1030300003013378C802B386E602420833686800A9
:10304000637BD80046989307F7FF636518017917EB
:103050006363D8003E874205598D8145828001E631
:103060000547B358C702416763E8E80EB707000198
:1030700063EAF82893D68801E14717270000130771
:10308000E78136971423BE9693070002958FFDE7DC
:10309000939E08013387154113DF080193DE0E016B
:1030A0008545935703013355E7033377E703B306A9
:1030B000D5034207D98F63FAD700C6971307F5FFE8
:1030C00063E4170163E5D7263A85958F33D7E70385
:1030D000420313530301B3F7E703B30ED703C20749
:1030E000B3E7670063FBD701C6979306F7FF63E575
:1030F0001701791763E3D70136874205598D82801E
:1031000063E1D504C16763E1F604B707000163E337
:10311000F61E13D78601614897170000938707783A
:10312000BA979823130E00024297330EEE40631AAB
:103130000E0C63EDB61C3335C500134515008145F3
:1031400082808145014582809307F00F63F3D71C8D
:1031500013D786002148C9B71307F00FC686E37E50
:1031600017F193D68800A14709BF1307F00FB28665
:10317000E37BC7E493568600A147B1B5B398F80046
:1031800033D6D50013DF0801335EE6033397F5002D
:10319000B356D500558F939E080193DE0E0133136D
:1031A000F50093550701B376E603B387CE03C20655
:1031B000CD8E63FBF600C6961306FEFF63E416177A
:1031C00063F2F616791EC6969D8E33D6E6039317E4
:1031D0000701C183B3F6E6033385CE0213970601D8
:1031E0005D8F637BA70046979307F6FF636817130D
:1031F0006376A7127916469793150E01098FD18D24
:103200004DB5B357E600B396C601DD8E33D3E50066
:1032100013DF0601B357E303939E060193DE0E010D
:103220003398C5013357E500336807019358080107
:103230003316C6013373E303B385FE024203B3685A
:10324000130163FBB800B6981387F7FF63EAD80C45
:1032500063F8B80CF917B698B388B84033D7E803C9
:10326000420813580801B3F8E8033383EE02C2089A
:10327000B3E5080163FB6500B6951308F7FF63ED3E
:10328000D50863FB65087917B695C207416FD98FDA
:103290001307FFFFB3F6E70093D80701718F418250
:1032A000B38EE602B3856540B386C60213D80E011D
:1032B0003387E802BA96C2963386C80263F3E60003
:1032C0007A9693D80601469663E2C5026385C500E7
:1032D0003E858145828041677D17F98EC206B3FE27
:1032E000EE003315C501F696E374D5FE1385F7FF9E
:1032F0008145828013D70601414839BD93560601A6
:10330000C147D1B193D60801C14785BB8145054569
:1033100082803687014809B5428785BF3E86E9BD70
:10332000BA871DBF328E4DB579154698E5B9791526
:10333000C69761BBB3C7A5008D8B3307C50081E776
:103340008D4763EDC700AA87637EE5089421850752
:103350008505A38FD7FEE3EBE7FE828093763500E9
:10336000AA8789CA942185078505A38FD7FE93F67E
:103370003700C5BF9376C7FF138606FE63F0C70606
:1033800083A3050083A2450083AF850003AFC5007A
:1033900083AE050103AE450103A3850183A8C501E2
:1033A0009385450223A0770003A8C5FF23A25700F9
:1033B00023A4F70123A6E70123A8D70123AAC70165
:1033C00023AC670023AE17019387470223AE07FFA4
:1033D00075B790419107910523AEC7FEE3EBD7FE89
:1033E000E3E6E7F6828039713EDA2ED232D436D661
:1033F0003AD842DC46DE9387818122CC804326CABC
:1034000006CEAA8409C41C4C99E32285FD290C44EC
:1034100054102686228536C6EF001015F24062440D
:10342000D24421618280011126CA4AC806CE22CC2C
:103430004EC652C4AA842E8901C51C4D91E3F121C8
:103440009C4C804499E32685C921971700009387F7
:10345000E756631BF402C0405E24A18BB1C71C4831
:10346000A1C7FD59294A1C4483450900FD17B1E94C
:103470001CC463DD07062286A94526856920FD5701
:103480006308F502294535A0971700009387075573
:103490006314F4008044C9B797170000938707505E
:1034A000E31CF4FAC0444DBFA2852685192A55D9DC
:1034B0007D55F2406244D2444249B249224A0561F4
:1034C00082801CC4050963D70700184C63CAE70053
:1034D000638845011C401387170018C08CA361B78F
:1034E000228626850D20E31035F9D9B71C401387B5
:1034F000170018C0294798A371B793878181AA85BF
:1035000088436FF05FF2011122CC26CA4AC806CE6A
:103510004EC6AA842E89328401C51C4D91E3F5263E
:1035200097170000938787496317F406C0401C4C27
:103530001CC45E24A18BC1C31C48B5CF1C480840E5
:103540009379F90F1379F90F1D8D5C486346F500E7
:10355000A2852685692C25E51C440505FD171CC49C
:103560001C401387170018C0238037015C4863880C
:10357000A7005E24858B81CBA9476316F900A2853D
:103580002685B5240DEDF24062444A85D244424975
:10359000B24905618280971700009387274463141E
:1035A000F400804469B7971700009387273FE31022
:1035B000F4F8C044ADBFA2852685212041D17D59B4
:1035C000D9B741119387818126C2844322C44AC05E
:1035D00006C62A892E8489C49C4C99E32685352603
:1035E000971700009387873D631BF402C0400317C1
:1035F000C40093170701C18393F68700ADEA93F6E1
:10360000070195EEA5472320F900136707045AA484
:103610007D55B2402244924402494101828097176D
:1036200000009387A73B6314F4008044C9B7971741
:1036300000009387A736E31CF4FAC0444DBF918B7A
:103640009DC34C5889C9930744046384F5004A8597
:10365000292B232A04025E242322040093F7B7FDBA
:103660005EA41C481CC05E2493E787005EA41C482F
:1036700099EB5E241307002093F707286385E70082
:10368000A2854A8591295E2413F717001DC35C4863
:1036900023240400B307F0401CCC1C480145B5FBB3
:1036A0008317C40013F707082DD793E707045EA418
:1036B00085B7898B014791E3584818C4F9BFDE25C7
:1036C000011122CC26CA06CE4AC84EC613F787007F
:1036D000AA842E8479EBD841634DE000B841634A57
:1036E000E0000145F2406244D2444249B2490561DA
:1036F000828058547DD703A904009396370123A0F4
:10370000040063DB060670485E24918B99C75C4019
:103710001D8E5C5899C33C401D8E5C540C508146F4
:1037200026858297FD575A24631DF5009440F5477E
:1037300063E8D706B70740208507B3D7D700858B46
:10374000A5C31C48232204001CC09317370163D86B
:103750000700FD576314F5009C4091E368C84C587E
:1037600023A02401BDDD930744046384F50026856E
:10377000ED2E232A0402B5B70C5001468546268556
:103780000297FD572A86E311F5F89C40B5DF75478F
:103790006385E70059476393E70423A0240191B7A9
:1037A000136707045AA47D5535BF83A90501E38A31
:1037B00009F203A905008D8B23A035013309394196
:1037C000014791E3D84918C4E35D20F11C540C5023
:1037D000CA864E86268582976347A0005E2493E7BB
:1037E00007045EA4C9B7AA993309A940F1BF9C494F
:1037F000A5C3011122CC06CE2A8411C51C4D81E738
:103800002EC62122B245971700009387271B639C81
:10381000F5004C408397C5009DC722856244F24065
:1038200005616FF0DFE9971700009387271B63940A
:10383000F5000C44C5B79717000093872716E39B44
:10384000F5FC4C44C1BFF2406244014505618280F1
:1038500001458280411122C406C62A844EA572A564
:10386000232005002322050023240500232205062A
:1038700023280500232A0500232C05002146814525
:103880001305C505EFC0BFBC97170000938787B429
:103890005CD0971700009387A7B61CD49717000039
:1038A000938787BA5CD4971700009387E7BC00D052
:1038B0001CD8B240224441018280970500009385C4
:1038C00045F391AA411126C2130680069384F5FFA1
:1038D000B384C4024AC02E8922C406C69385440715
:1038E0002D2E2A8401CD2320050023222501310518
:1038F00008C4138684068145EFC07FB52285B24097
:10390000224492440249410182801C4DA5E74111A5
:1039100006C622C497070000938767FA1CD59387D1
:10392000C1829C432324050423260504232805047F
:103930006314F50085471CCD2A84352848C02285AC
:103940001D2808C42285052848C4484001469145E1
:10395000EFF05FF008440546A545EFF0BFEF48449F
:103960000946C945EFF01FEF85471CCCB240224401
:1039700041018280828041119387C18226C28443A3
:103980004AC006C69C4C22C42A8981E72685EFF0EE
:10399000DFF7938484048044DC40FD1763D607007E
:1039A0009C40B9CF8440C5BF0317C40039E7C17735
:1039B0008507232204062320040023220400232455
:1039C00004005CC423280400232A0400232C0400E0
:1039D000214681451305C405EFC07FA7232A0402B1
:1039E000232C040223240404232604042285B24049
:1039F000224492440249410182801304840671BF2B
:103A000091454A85EFF01FEC88C049FDB14723205E
:103A1000F9000144E1BF797122D44AD052CC56CA90
:103A20005AC85EC606D626D24ECE2A8AAE8A13045D
:103A300085040149054BFD5B09ECB25022544A85CF
:103A400092540259F249624AD24A424BB24B456102
:103A50008280044483294400FD1963D40900004096
:103A6000E1BFDE24637BFB008397E400638777017B
:103A7000A6855285829A3369A90093848406E9BF9A
:103A80001971A6DAAE848395E500A2DC86DE328465
:103A900063DB0500DE2423A0060093F7070885E713
:103AA000930700401DA0300836C6EF007023B246D1
:103AB000E34205FE7247BD67F98F7977BA9793B7EE
:103AC00017009CC2F1BF930700041CC0F650665457
:103AD000D654014509618280DE25011122CC06CE33
:103AE00026CA4AC8898B2E8489CF930774041CC0C8
:103AF0001CC885475CC8F2406244D2444249056113
:103B0000828074003000AA84EFF09FF7A2452A89D2
:103B10002685212219E98317C40013F7072061FFC6
:103B2000F19B93E727005EA4C9B79707000093872E
:103B300007D99CD45E2408C008C893E707085EA490
:103B4000A2475CC8B24781CF8315E4002685EF0009
:103B5000501C11C55E24F19B93E717005EA45E2400
:103B60003369F9002316240179B7DDC583A7C5FFA2
:103B7000411122C406C626C21384C5FF63D30700C1
:103B80003E94AA84EF00B02097C7FF1F9387875BFE
:103B90009C4391EF2322040097C7FF1F23A4875A59
:103BA0002244B2402685924441016F00701E637E1C
:103BB000F40014403307D4006396E7009843DC43D5
:103BC000369718C05CC0C9BFBA87D84319C3E37D14
:103BD000E4FE94433386D700631F86001040B296FC
:103BE00094C33386D700E31DC7FA10435843B296F7
:103BF00094C3D8C375B76375C400B1479CC04DB7B3
:103C00001040B306C4006316D70014435843B2965D
:103C100014C058C0C0C369B78280011126CA9384FA
:103C20003500F19806CE22CC4AC84EC6A104B14751
:103C300063F9F404B14463E8B4042A89EF00301551
:103C400097C7FF1F9387075098433A8439E497C773
:103C5000FF1F9387674F9C4381EB81454A858127EE
:103C600097C7FF1F23A2A74EA6854A850D2FFD5992
:103C7000631B3507B1472320F9004A85EF00501137
:103C800029A0E3DA04FAB1471CC10145F2406244BD
:103C9000D2444249B249056182801C40858F63C18C
:103CA0000704AD4663F6F6001CC03E9404C001A8AC
:103CB0005C406315870217C7FF1F2325F7484A8515
:103CC000EF00100D1305B40093074400619933070A
:103CD000F5404DDF3A94898F1CC04DBF5CC3C5B71A
:103CE00022874040A5B7130435007198E30085FC96
:103CF000B305A4404A856525E31A35FBA5BF1C46DC
:103D0000FD171CC663DA0700184E63C5E700A94714
:103D10006394F5006FF02FFF1C422E851387170068
:103D200018C28CA38280011122CC26CA4AC84EC672
:103D300052C406CE2A89AE893284B304D6007D5A95
:103D400063149400014509A80C204E864A85EFF0C3
:103D50001FFB0504E31645FFF2406244D24442498A
:103D6000B249224A05618280357122CD26CB4AC9EB
:103D70004EC706CF52C556C35AC1DEDEE2DCE6DAD4
:103D8000AA89AE843289368409C51C4D99E3EFF0C7
:103D9000DFB797170000938767C26398F40C83A47A
:103DA0004900DE24A18BE5C79C48F5C393070002B8
:103DB000A304F1029307000302D22305F10222C6F5
:103DC000930B5002971A0000938A4AC3054C294B63
:103DD0004A841C2099C3639F770DB30C2441638EE2
:103DE0000C00E6864A86A6854E85EFF0DFF3FD5788
:103DF000630FF51C9256E69636D21C206389071C89
:103E0000FD571309140002C802CE3ECA02CCA30912
:103E1000010482D48345090015465685A92F130451
:103E20001900C24751E913F7070109C71307000238
:103E3000A309E10413F7870009C71307B002A30918
:103E4000E104834609001307A002638FE606F247E8
:103E50004A8481462546182093051400130707FD60
:103E60006377E60AB5CA3ECE85A897170000938708
:103E7000E7B66395F40083A4890025B7971700007F
:103E80009387C7B1E39FF4F083A4C90019BFA68547
:103E90004E85EFF00FF319D97D55FA406A44DA44A4
:103EA0004A49BA492A4A9A4A0A4BF65B665CD65C8A
:103EB0000D618280050431BF330555413315AC00D7
:103EC000C98F3EC82289B9B73247930647001843C5
:103ED00036C6634707023ACE18209307E002631DF7
:103EE000F70418309307A002631BF702B2470904D6
:103EF000138747009C433AC663C107023ECA2DA8F8
:103F00003307E04093E727003ACE3EC8F1B7B387C6
:103F1000670385462E84BA973DBFFD57C5B7050494
:103F200002CA8146814725461820930514001307CD
:103F300007FD6374E606F9F20C200D461715000024
:103F4000130545AC0D2D11CD97170000938787AB56
:103F50001D8D93070004B397A700424505045D8DAE
:103F60002AC80C201946171500001305E5A91309E6
:103F700014002304B102012535C197C7FFFF9387C1
:103F8000670895E74247B2471377071009CF9107B3
:103F90003EC69257D2973ED225BDB387670385466A
:103FA0002E84BA9751B79D07E19BA107D5B778003A
:103FB00097060000938666D726860C084E859700E4
:103FC0000000E7000000FD572A8AE314F5FCDE2418
:103FD00093F70704E39207EC1255C1B578009706F2
:103FE0000000938686D426860C084E85012AE1BF00
:103FF000797156CA9C49BA8A984522D426D24ECEA7
:1040000052CC06D64AD05AC85EC6AA892E84B2843B
:10401000368A63D3E700BA879CC00347340419C3C8
:1040200085079CC01C4093F7070281C79C40890705
:104030009CC00329040013796900631A0900130B5B
:104040009401FD5B5C449840998F634CF9041C40DB
:104050008346340493F70702B336D000A5EB13066A
:104060003404D2854E85829AFD576303F5041C40C3
:1040700011469840998B544481446397C700B38498
:10408000E64063D3040081441C4418486354F7009D
:10409000998FBE94014969047D5B639824050145AD
:1040A00009A885465A86D2854E85829A631E750177
:1040B0007D55B250225492540259F249624AD24A72
:1040C000424BB24B456182800509ADBF3307D40036
:1040D00013060003A301C704034754049387160083
:1040E000A2978906A381E7049DBF85462286D285D3
:1040F0004E85829AE30E65FB050945B7797122D496
:1041000026D24AD04ECE06D652CC56CA5AC8B68906
:10411000942D930790063289AA842E841386350441
:10412000638DF60263E2D706930780056386F6186F
:1041300063EDD700638E062093073004638EF60A82
:10414000930A24042301D404C9A09307300663858D
:10415000F60A93074006E395F6FE1C40084393F6E3
:10416000070893054500C5C61C410CC363D807006A
:104170001307D002B307F040A301E4049716000030
:1041800093860689294765A8930700076382F61678
:1041900063E5D7029307E0066389F6189307F006F4
:1041A000E390F6FA0C401C4313F80508138547000A
:1041B0006307080608C39C4385A893075007E38359
:1041C000F6FE930780076389F61293073007E39999
:1041D000F6F61C43D04181459386470014C383AA59
:1041E00007005685492E01C53305554148C05C403E
:1041F0001CC8A301040461A81C43930A24049386E9
:1042000047009C4314C32301F4048547D5B793F6B4
:1042100007041C410CC3B9DAC207C18781BF93F5FB
:10422000050408C3C9D99E231307F0066387E60E69
:10423000970600009386C67D2947A30104044C40DD
:104240000CC463C5050008406D9908C099E3B28AA3
:1042500089CDB28AB3F5E702FD1AB6958C21238089
:10426000BA00B3D5E70263F0E70CA147631EF7007D
:104270001C40858B91CB58401C4863C7E7009307CF
:104280000003A38FFAFEFD1A3306564110C84E876D
:10429000CA867000A2852685EFF09FD57D5A631DE2
:1042A000450B7D55B250225492540259F249624A4C
:1042B000D24A424B45618280A382D5049706000012
:1042C000938606750C40084313F805081C41110538
:1042D000630D080208C313F7150001C793E5050233
:1042E0000CC04147B9FB0C4093F5F5FD0CC0B1B7CC
:1042F0009C4193E707029CC193078007A302F40443
:10430000970600009386067275BF13F8050408C36C
:10431000E30308FCC207C1837DBF970600009386B4
:10432000266F214719BFAE8735B794411C43CC494E
:1043300013F80608138547006306080008C39C436A
:104340008CC339A008C393F606049C43F5DA8EA308
:1043500023280400B28A25BF14485686CA852685BC
:104360008299E30045F51C40898B8DE7B2474844AC
:10437000E35AF5F23E853DB785465686CA852685C1
:104380008299E30065F3050A5C443247998FE3455F
:10439000FAFEE9BF014A930A94017D5BF5B741112A
:1043A00022C42A842E8597D7FF1F23A5073C06C663
:1043B000EFE0DFB2FD576319F50097D7FF1F938732
:1043C000673B9C4391C31CC0B240224441018280A0
:1043D000411122C42E848395E50006C65D2A6349F7
:1043E00005007C48AA977CC8B240224441018280E3
:1043F0005E247D777D17F98F5EA4FDB7DE25011160
:1044000022CC26CA4AC84EC606CE93F70710AA8405
:104410002E843289B68991C78395E5008946014685
:104420000D225E247D777D17F98F5EA48315E4004D
:104430006244F240CE864A86B24942492685D24439
:10444000056125A8411122C42E848395E50006C686
:10445000CD28FD575A24631AF500FD77FD17F98F13
:104460005EA4B2402244410182808567D98F5EA458
:1044700068C8C5BF8395E50025A8411122C42A84D8
:104480002E85B285368697D7FF1F23A5072E06C631
:10449000EFE0FFA0FD576319F50097D7FF1F938743
:1044A000672D9C4391C31CC0B240224441018280CD
:1044B000411122C42A842E8597D7FF1F23AC072AD7
:1044C00006C61122FD576319F50097D7FF1F938782
:1044D000672A9C4391C31CC0B240224441018280A0
:1044E000411122C42A842E85B28597D7FF1F23A3AA
:1044F000072806C6CD20FD576319F50097D7FF1F83
:10450000938747279C4391C31CC0B240224441017A
:104510008280411122C42A842E8597D7FF1F23ABA6
:10452000072406C6C920FD576319F50097D7FF1F5A
:10453000938747249C4391C31CC0B240224441014D
:104540008280411122C42A842E85B285368697D76F
:10455000FF1F23A1072206C67928FD576319F5001E
:1045600097D7FF1F938707219C4391C31CC0B2407C
:1045700022444101828093F5F50F2A966314C50009
:10458000014582801C21E38EB7FE0505C5BF8280F0
:104590008280411122C42A842E85B285368697D71F
:1045A000FF1F23A9071C06C6B928FD576319F5008C
:1045B00097D7FF1F9387071C9C4391C31CC0B24031
:1045C0002244410182809307800517D7FF1F2323D0
:1045D000F71A7D5582809307800517D7FF1F232B7D
:1045E000F7187D5582809307800517D7FF1F232377
:1045F000F718014582809307800517D7FF1F232BEB
:10460000F7167D5582809307800517D7FF1F232358
:10461000F7167D5582800000D0040C11132C3F4406
:10462000512F1F1F20230000D0040D11132B3F54C6
:104630004C180D0B1F230000577764670000000023
:10464000415353455254204641494C45443A206C0D
:10465000696E652025642C2066696C6520222573AF
:1046600022202D3E207461736B2063726561746536
:10467000206661696C65643A2025730D0A000000AC
:1046800053543737383900005B494E464F5D204759
:1046900070696F2053697A65282564290D0A000026
:1046A0002E2E2F557365722F496F2F4770696F4DEE
:1046B000616E616765722E637070000041535345EF
:1046C0005254204641494C45443A206C696E65205D
:1046D00025642C2066696C652022257322202D3EDE
:1046E00020726567206D61782E0D0A002E2E2F46F0
:1046F00072656552544F532F706F727461626C65AE
:104700002F4D656D4D616E672F686561705F342E4A
:1047100063000000657272206174206C696E652010
:104720002564206F662066696C6520222573222E21
:10473000200D0A20000000002E2E2F4672656552C3
:10474000544F532F706F727461626C652F474343EF
:104750002F524953432D562F706F72742E630000F1
:104760002E2E2F4672656552544F532F7175657505
:10477000652E63002E2E2F4672656552544F532FBF
:104780007461736B732E630049444C450000000054
:10479000CC2C0000CC2C0000542D0000602D00001B
:1047A000A22D0000CC2C0000CC2C0000542D0000C9
:1047B000602D0000546D7251000000002E2E2F4617
:1047C00072656552544F532F74696D6572732E6311
:1047D00000000000546D72205376630053797374A7
:1047E000656D436C6B3A25640D0A0000436869707F
:1047F00049443A253038780D0A0000005631302EF1
:10480000342E36004672656552544F53204B657204
:104810006E656C2056657273696F6E3A25730D0A6A
:10482000000000005B4552524F525D207363686583
:1048300064756C6572207374617274206661696C52
:1048400065640D00466174616C204572726F723A46
:10485000204672656552544F53204D616C6C6F63F6
:10486000204661696C6564210D0000004661746139
:104870006C204572726F723A20537461636B204FE3
:10488000766572666C6F7720696E207461736B3A1F
:104890002025730D0A000000000102020303030338
:1048A00004040404040404040505050505050505C0
:1048B00005050505050505050606060606060606A0
:1048C0000606060606060606060606060606060688
:1048D0000606060606060606070707070707070770
:1048E0000707070707070707070707070707070758
:1048F0000707070707070707070707070707070748
:104900000707070707070707070707070707070737
:10491000070707070707070708080808080808081F
:104920000808080808080808080808080808080807
:1049300008080808080808080808080808080808F7
:1049400008080808080808080808080808080808E7
:1049500008080808080808080808080808080808D7
:1049600008080808080808080808080808080808C7
:1049700008080808080808080808080808080808B7
:1049800008080808080808080808080808080808A7
:1049900008080808080808080000000000000000D7
:1049A0000000000000000000000000000000000007
:1049B00000000000000000000000000000000000F7
:1049C00000000000000000000000000000000000E7
:1049D00000000000000000000000000000000000D7
:1049E00000000000000000000000000000000000C7
:1049F0000000000000000000232D302B20000000EC
:104A0000686C4C00656667454647000030313233BC
:104A100034353637383941424344454600000000BA
:104A20003031323334353637383961626364656624
:044A30000000000082
:104A3400000000000000000001020304060708094A
:104A44000000000001020304010203040607080930
:104A540000000000B8490000D8490000984900004F
:104A64000000000000000000000000000000000042
:104A74000000000000000000000000000000000032
:104A84000000000000000000000000000000000022
:104A94000000000000000000000000000000000012
:104AA4000000000000000000000000000000000002
:104AB4000A00000000D8B80502040608AAAAAAAA97
:104AC400070000007417002020000020A4A10000AB
:104AD4000C0C0033330000000050002020000020A4
:00000001FF
