:040000006F008069A4
:100004000000000000000000F6040000F8040000F6
:100014000000000096060000000000000000000040
:100024009606000096060000000000000000000094
:10003400CC0E0000000000000001000000000000E1
:10004400960600009606000096060000960600003C
:10005400960600009606000096060000960600002C
:10006400960600009606000096060000960600001C
:10007400960600009606000096060000960600000C
:1000840096060000960600009606000096060000FC
:1000940096060000960600009606000096060000EC
:1000A40096060000960600009606000096060000DC
:1000B40096060000960600009606000096060000CC
:1000C40096060000960600009606000096060000BC
:1000D40096060000960600009606000096060000AC
:1000E400960600009606000096060000960600009C
:0C00F4009606000096060000960600002C
:10010000130181F806C216C41AC61EC822CA26CC1C
:100110002ACE2ED032D236D43AD63ED842DA46DC77
:100120004ADECEC0D2C2D6C4DAC6DEC8E2CAE6CC47
:10013000EACEEED0F2D2F6D4FAD6FED8F3220030D0
:1001400096DA9702002083A262F823A02200F3250A
:1001500010342EC003A18181EF10102D1703002051
:100160000323C3F603210300824273901234D65254
:10017000739002309240A2423243C2435244E2445E
:10018000724582551256A2563257C2575258E258FB
:1001900072598649164AA64A364BC64B564CE64C0F
:1001A000764D865D165EA65E365FC65F13018107DB
:1001B0007300203013000000130000001300000043
:1001C00013000000130000001300000013000000E3
:1001D00013000000130000001300000013000000D3
:1001E00013000000130000001300000013000000C3
:1001F00013000000130000001300000013000000B3
:1002000083A28181938202E073900234170100205F
:100210000321C1EB024182403243C2435244E244D3
:10022000724582551256A2563257C2575258E2585A
:1002300072598649164AA64A364BC64B564CE64C6E
:10024000764D865D165EA65E365FC65FD652A1020B
:1002500073900230A24213018107828013000000D4
:100260001300000013000000130000001300000042
:100270001300000013000000130000001300000032
:100280001300000013000000130000001300000022
:100290001300000013000000130000001300000012
:1002A0001300000013000000130000001300000002
:1002B00013000000130000001300000013000000F2
:1002C00013000000130000001300000013000000E2
:1002D00013000000130000001300000013000000D2
:1002E00013000000130000001300000013000000C2
:1002F00013000000130000001300000013000000B2
:10030000F322003093F272FF130380181203B3E25A
:100310006200711523205500130585FA10C12115BF
:10032000232005009302000063870200711523203B
:100330000500FD12D5BF71150CC1828000000000C0
:1003400000000000000000000000000000000000AD
:10035000000000000000000000000000000000009D
:10036000000000000000000000000000000000008D
:10037000000000000000000000000000000000007D
:10038000000000000000000000000000000000006D
:10039000000000000000000000000000000000005D
:1003A000000000000000000000000000000000004D
:1003B000000000000000000000000000000000003D
:1003C000000000000000000000000000000000002D
:1003D000000000000000000000000000000000001D
:1003E0000000000000000000000000000000397163
:1003F00001436EC619A0397141536AC866CA62CCFE
:100400005ECE19A0397101535AD056D252D44ED66D
:100410004AD826DA22DC06DE3301614082824111AD
:100420004AC026C222C406C68282B24D4101024D94
:10043000924C224CB24B4101024B924A224AB249A1
:100440004101024992442244B240410182803D432D
:100450002A876373C3029377F700BDEFADE5937608
:1004600006FF3D8ABA960CC34CC30CC74CC7410764
:10047000E36BD7FE11E28280B306C3408A0697027F
:10048000000096966780A6002307B700A306B70072
:100490002306B700A305B7002305B700A304B700E0
:1004A0002304B700A303B7002303B700A302B700D8
:1004B0002302B700A301B7002301B700A300B700D0
:1004C0002300B700828093F5F50F93968500D58DB4
:1004D00093960501D58D61B793962700970200008A
:1004E00096968682E78086FA9680C1171D8F3E9683
:1004F000E374C3F8A5B701A041113EC4B707EFBE2E
:100500003AC69387070837E700E03CC701A0B71752
:1005100002409843B706FFF041111367170098C3D4
:10052000D84337150240B7050200758FD8C39843EA
:10053000B706F7FEFD16758F98C39843B706FCFF04
:10054000FD16758F98C3D843B70601FFFD16758F4A
:10055000D8C337079F0098C702C402C69843C16634
:100560000566558F98C321A0A247638AC7001C4126
:10057000ED8F3EC6A24785073EC4B247F5D7B717F1
:1005800002409C431397E700635A070085473EC625
:10059000324785476309F7004101828002C632472E
:1005A0008547E31BF7FEB7170240D8433706C1FF64
:1005B0007D16D8C3D843D8C3D4433717024093E637
:1005C0000640D4C3D443F18ED4C3D44337062900A4
:1005D000D18ED4C3944337060001D18E94C31C43FB
:1005E00093966700E3DD06FE5C4337160240A146A2
:1005F000F19B5CC35C4393E727005CC35C42B18B17
:10060000E39ED7FE41018280B7160240D842B71759
:100610007A002146318B938707206305C70237177D
:100620000240584311839376F700370700201307E1
:10063000070036971823B3D7E70037070020232099
:10064000F7088280DC42D8424166C983BD8B8907A6
:10065000C546718F638ED70211EF374702400327DB
:100660000780418B19CF37177A0013070720B3870C
:10067000E70275B73717024058439316E700E3D4F3
:1006800006FE37173D0013070790B387E70241BF07
:10069000C9476DF3D9B701A0970100209381811E4E
:1006A0001751002013010196174500001305C5B12D
:1006B00097050020938505951386018263FAC5008E
:1006C0008322050023A0550011059105E3EAC5FE2C
:1006D000170500201305059D973500209385C5D289
:1006E0006377B500232005001105E36DB5FEFD42DB
:1006F000739002BC894273904280B72200009382BB
:10070000028073900230970200009382E28F93E29E
:10071000320073905230EFF09FDF972200009382F7
:10072000E2E473901234730020309C4103A88501E9
:10073000D04DD4415841B3E70701D18F3706F1E0DE
:10074000A2061306F6EF718FD58FD98F5CC1D04505
:100750009C4994451845D18F37F6F1FF860613065C
:10076000D67F718FD58FD98F1CC5DC295855B70618
:1007700010FFFD1793F7F70FFD16758FD207D98F6E
:100780005CD582801C4589C593E717001CC5828013
:10079000F99B1CC58280A54763F7B704138865FFE2
:1007A000131718008328C50042979D47B397E700A9
:1007B00093C7F7FFB3F71701B396E600DD8E54C574
:1007C000994763E5C7047D16931726003E9658594E
:1007D000FD47B397C70093C7F7FFF98F3396C5005E
:1007E0005D8E50D9828013971500032805012E973E
:1007F0009D47B397E70093C7F7FFB3F70701B39699
:10080000E600DD8E14C99947E3FFC7FAB14763E3F9
:10081000C702130796FF1316270014593A96FD478F
:10082000B397C70093C7F7FFF58F3396C5005D8E6A
:1008300010D982804D161317260054553A96FD475D
:10084000B397C70093C7F7FFF58FB395C500DD8D4C
:100850004CD5828008416D8D3335A0008280B7F77A
:10086000FF1F03A54770828003A8850093770801C6
:100870001373F80081C7DC413363F300B7270240EC
:10088000985BB707000FF98FF1E7B707002005471E
:100890002380E70AB71701406307F50C962193F709
:1008A000F60FADE39307F00F63FDD70483284500EF
:1008B000A147854EBD4F130F800293028004414E25
:1008C00021A08507638DC7033397FE00B375D7005A
:1008D000E319B7FE139627000116B395CF0093C511
:1008E000F5FFB3F815013316C300B36816016303AF
:1008F000E809E31858FC18C98507E397C7FD2322C8
:10090000150182800C418147854EBD4F130F800237
:1009100093028004214E21A08507638BC703339780
:10092000FE003376D700E319C7FE13962700B3986D
:10093000CF0093C8F8FFB3F5B8003316C300D18DCC
:100940006308E803E31A58FC18C98507E399C7FD53
:100950000CC189BFB7170140E312F5F4B7070020B7
:1009600083C7070A85DF9621B58296A1C1FE8280E2
:1009700058C95DB758C9B1B7B71701406305F5004D
:1009800011CA0CC98280B707002083C7070AEDDBB4
:10099000B58165FA4CC98280B707002023A2A70A57
:1009A0008280B7160240DC4251777D17F98F5D8D4A
:1009B000C8C28280371702405C439146B18B638581
:1009C000D700A1466381D706B7177A00938707201F
:1009D0001CC1371602405442370700201307070195
:1009E0009182BD8ABA969422B3D7D7005CC1544293
:1009F000A1829D8ABA969422B3D6D70014C55442D8
:100A0000AD829D8A36971823B3D7E7005CC558425C
:100A10003983937637001387418036971823B3D7ED
:100A2000E7021CC982805C4358434166C983BD8B81
:100A30008907C546718F6380D70419EF3747024095
:100A400003270780418B05C337177A001307072058
:100A5000B387E7021CC1B5BF37170240584393164E
:100A6000E700E3D306FE37173D0013070790B3876F
:100A7000E7021CC1B9BFC94765F3C9B799C53717A4
:100A800002401C4F5D8D08CF8280B7170240984FFF
:100A90001345F5FF798D88CF8280EFF25F98162994
:100AA000FA21F577FD17F58FD98F1EA99225DE2142
:100AB000BA255625D18FD98F7D771307379F758F2C
:100AC000D98F5EA55E29DA250111C207C18393F78C
:100AD000F7CFD98F2A845EA86800AE84E13DB7477E
:100AE000014093870780630DF404D2476545B33511
:100AF000F502904081460A063305F502EF10905347
:100B000093064006B357D5021306F063920713D736
:100B100047003387E602198D120513052503637913
:100B2000A60013850701420541810AA4056111BA97
:100B30003355D5025D8D420541810AA4056111B28C
:100B4000E2476DB791C55E250967D98F5EA58280A2
:100B50005A25F977FD17F98F5EA5828093F5F51F69
:100B60004EA182800A216D8D3335A0008280370727
:100B700000201307070C11A03E871C43E3EEA7FEDD
:100B800050435441B305C7006307B5023306D5008F
:100B90006387C7001CC16303E50008C38280370672
:100BA00000200326860AE387C7FED0439C43B29603
:100BB00054C11CC1CDB7B29654C33A85C1BFEFF240
:100BC0007F842A84EF001063370600201306860A0C
:100BD0001C42FDC3B707002003AAC70AB3778A00E7
:100BE000DDEF9307F4FF3957636BF70A93070401AE
:100BF00013F7F7005DEBB70900209389090B83A475
:100C0000090063EEF408B706002003A4060C9386DF
:100C1000060C29A00C4091C5A2862E845840E36B97
:100C2000F7FE1042630D86060C4003A9060033064A
:100C3000F7408CC293060002410963EFC60CB70669
:100C400000209386460B9042B387E44023A0F9002E
:100C500063F3C7009CC2B70700209387870B9443B8
:100C60003367EA0058C0232004001387160098C396
:100C7000EF0050599377F90095C7896793870780EC
:100C8000739007303746000037450000130646E9E9
:100C9000930500111305C5EBEF10107E01A0EF00C6
:100CA000705601494A856FF02FF913F707FF410786
:100CB000E3F7E7FEBA8781B7B70600209387C6132C
:100CC00013F7F70051E71387C6139386C6138D6594
:100CD000C115AE97C19BB705002023A0070023A232
:100CE00007009385050C23A2050094C13387E740D4
:100CF0001CC29CC2B707002023AAE70AB70700203E
:100D000023A8E70AD8C2B70700203707008023A628
:100D1000E70A370A0080D9B53305F4001377F500E8
:100D20001DC389679387078073900730374600009B
:100D300037450000130646E99305F00C1305C5EB93
:100D4000EF10907301A050C15CC015355840C5BD6F
:100D50001387F700419BBA869DBF55C1EFF22FEC78
:100D6000B7070020032745FF83A7C70A2A84B37665
:100D7000F70095C6832605FFA9C689679387078074
:100D8000739007303746000037450000130646E9E8
:100D9000930550121305C5EBEF10106E01A0896783
:100DA000938707807390073037460000374500006F
:100DB000130646E9930540121305C5EBEF10D06BFF
:100DC00001A093C7F7FFF98F232AF5FEEF009042A9
:100DD000B70700209387070B9443032744FF1305AD
:100DE00004FF369798C36133B70700209387C70B7A
:100DF0009843050798C3EF00F0406FF08FE48280BE
:100E0000B7E700E041572387E7402386E740B7F77D
:100E100000E023A0070023A20700814694C70147F2
:100E2000D8C737070020832507081307401F8146CE
:100E300033D6E5023D4790CBD4CB98C38280EFF206
:100E40000FDE411102C6F32750303EC6B2470D47B0
:100E50008D8B639BE704B757002093870700BD8BFA
:100E60009DC38967938707807390073037460000DA
:100E700037450000130606EE9305B00B1305C5EBCE
:100E8000EF10905F01A0AD3FB7E700E0116723A02E
:100E9000E710056723A0E71023A40180EFF04FB609
:100EA000014541016FF0EFD98967938707807390FF
:100EB00007303746000037450000130606EE93055D
:100EC000600B1305C5EBEF10305B01A0397106DE36
:100ED00016DC1ADA1ED82AD62ED432D236D03ACE22
:100EE0003ECC42CA46C872C676C47AC27EC073116E
:100EF000013489679387078073900730B7F700E064
:100F000023A20700EF00D04F11C5B7E700E011673B
:100F100023A0E72089679387878873900730731130
:100F20000134F250E2525253C2533255A255125676
:100F300082567247E2475248C248324EA24E124F82
:100F4000824F2161730020308967938707807390F7
:100F50000730938781809843050798C38280138761
:100F600081801C4391CBFD171CC391E78967938750
:100F70008788739007308280EFF26FCA8967938702
:100F8000078073900730374600003745000013068E
:100F900006EE930530101305C5EBEF10F04D01A0E0
:100FA000930785007D575CC118C55CC51CC923200B
:100FB000050082802328050082809041FD57130799
:100FC00085006314F60039A83E875C439443E37DB3
:100FD000D6FEDCC18CC71C4198C54CC388C98507A7
:100FE0001CC1828018495C43EDB71C495441184527
:100FF000D04398C654C36309A6009843232805002C
:101000007D1798C388438280D8C39843232805005E
:101010007D1798C38843828030410DC2EFF22FC004
:101020005C451845B2975CC563E4E7001C415CC5AC
:101030002E85BE85EF1030396FF0AFC08280EFF2A1
:101040000FBEAA84113703C4540462046184635D33
:101050008002DC5095CB1389440211A87D1493774C
:10106000F40F13948701618485C3DC5091CF4A85C6
:10107000EF00705165D57D14EF00D0719377F40FB8
:10108000139487016184F5F3FD57A382F404C13DF5
:10109000653D03C4440462046184635D80029C482E
:1010A00095CB1389040111A87D149377F40F139441
:1010B0008701618485C39C4891CF4A85EF00B04C7D
:1010C00065D57D14EF00106D9377F40F13948701AD
:1010D0006184F5F3FD572382F40451356FF06FB648
:1010E000EFF2EFB335C55C5D2A84A9C33841B3B7CD
:1010F000E7028DEFAE84893D34405C5C1840232CC0
:101100000402B387F6027D562302C40458C0A3022A
:10111000C404B386D740BA9736971CC458C4B9E8FC
:101120001C48A5E32D3D05456FF0AFB18967938756
:1011300007807390073037460000374500001306DC
:1011400086F0930550141305C5EBEF10F03201A0A3
:1011500089679387078073900730374600003745CB
:101160000000130686F0930500111305C5EBEF1080
:10117000B03001A0130504012535130544020D35D7
:1011800055B713050401EF00104049DDB7E700E053
:10119000116723A0E72079B7EFF26FA801CDB3B7AD
:1011A000A502AA842E8999E73305B502930770FB3F
:1011B00063F4A702896793870780739007303746E7
:1011C000000037450000130686F09305601C1305E8
:1011D000C5EBEF10702A01A013058504CD322A84D7
:1011E00019C9AA87631C09001CC044DC23202405FC
:1011F00085452285F53522856FF0AFA493078504D8
:10120000E5B7EFF22FA0011132C6630105122A845F
:101210002E896388050EEF00B058630F050A2D3341
:10122000045CADE8B247638E07082808EF007047FA
:10123000FD59130B4402B7EA00E0116A0D33EF00C9
:10124000607B193383474404E207E18763943701E5
:101250002302040483475404E207E18763943701BF
:10126000A3020404ED396C002808EF00F0440DEDF2
:10127000E1391C5CA1EFE531B2455A85EF007024DD
:101280002285753BEF00007805E923A04A216D39DE
:10129000045C95C4CA852285FD14BD3B04DC1C4852
:1012A000C5EB7539054505A02285513BEF008075DA
:1012B00061391C5C99C765314139045CE1FCB24776
:1012C000B5FF7139014505616FF00F9749392285E6
:1012D000BD33EF002073CDB7B247E38207F48967CF
:1012E000938707807390073037460000374500002A
:1012F000130686F09305A0551305C5EBEF10D01724
:1013000001A03C41E38907F08967938707807390C8
:1013100007303746000037450000130686F0930576
:1013200050551305C5EBEF10301501A08967938761
:1013300007807390073037460000374500001306DA
:1013400086F0930510551305C5EBEF10F01201A0C0
:1013500013050401EF003023E30505F4B7E700E0CF
:10136000116723A0E72035BF2DC58DC93736002072
:10137000814701481306C613A14813173800B30666
:10138000E60003A346006303A3041307180081CB00
:101390003A88E31417FF99C38CC3C8C38280A1069F
:1013A000C28703A886FF630F0800E30917FF03A89D
:1013B0004600BA87630B0501A10603A886FF05074F
:1013C000E31508FE8E07B297E1B70E07B307E600F4
:1013D000E1B7EFF2CF848967938707807390073076
:1013E00037460000856537450000130686F0938573
:1013F00085AC1305C5EBEF10300801A0EFF22F828A
:101400002A84AE8432898936834744047D57E207B3
:10141000E1876394E70023020404834754047D5763
:10142000E207E1876394E700A30204040D3E1C5C1D
:1014300089C7228529316FF0CF804A86A68513059A
:101440004402EF00900C2285DD3E6FE09FFFEFE24B
:101450007FFB37040020B739002037090020130430
:10146000840D9389892F1309490D1C40FDDFE93C48
:1014700083A7C900C44713854400853E832709001C
:10148000FD172320F9001C40FD171CC0C93C8858DB
:10149000EFF0BF8C2685EFF05F8C1C40E9FBF1B7C5
:1014A000B707002003A7C70CB70700205847184309
:1014B00023A6E70E8280EFE2FFF437040020B7078F
:1014C00000201304840C03A9C70F18401C40AA84F1
:1014D000A308070413854700AE89013EFD576381C9
:1014E000F4041C40CA94C4C363E32403B707002078
:1014F00003A5C70C0C409105C934B707002093879A
:10150000C70E984363F3E40084C36FE0FFF2B707AC
:10151000002003A5070D0C40910545346FE0DFF175
:10152000E38109FCB73700209387472ED8430C404E
:101530001440104798C50C40D0C6032887001040BF
:101540000840944391052322B800110610C7138761
:1015500016005CC998C36FE03FEEEFE25FECB7079F
:1015600000209387C70F8043050480C363170412CC
:10157000B70600209386C60C9C429C43639B0716CB
:10158000370700201307070D90420C43B7070020D0
:101590009387070F8CC210C39843050798C39C42DA
:1015A0009C43FDEB370600201306C60EFD571CC2F8
:1015B0001C42636BF40EB7060020B7370020B70853
:1015C000002001459386C60C938EC7179388880C1C
:1015D000370F00209C429C43CDCF9C42DC47DC4728
:1015E000D8436366E410D84B03A88700CC47032395
:1015F0004700138E47002324B80023A2050163038C
:10160000C30F032807008C5723AA07007D18232047
:10161000070195C503A8070203A3C70183AF4500CF
:10162000138787012324030103A8070223226800EC
:10163000638CEF0A984123A407027D1798C1130712
:101640004F0ECC57032807006373B8000CC31397E1
:1016500025002E970A0776970328470003230700E3
:10166000832F880023A40701050323A6F701832FF6
:10167000880023A2CF012324C801D8CB23206700F0
:1016800083A70800DC57E3E7F5F49C4205459C433B
:10169000A9F7FD571CC215A02135370600201306F7
:1016A000C60E1C42E379F4F0B7370020B7080020DB
:1016B0000145938EC7179388880C83A70800854639
:1016C000D85793172700BA978A07F6979C4363F376
:1016D000F6000545B707002083A7071091C305450D
:1016E0006FE03FD64CC331BF23A20501A1B718C29A
:1016F000E9B7896793870780739007303746000002
:10170000856537450000130646F2938575AC1305D1
:10171000C5EBEF10605601A0EFE2FFCD9319260054
:10172000AA8A4E852E84368BBA8B3E8AEFF02FC95B
:10173000630605142A8913054005EFF04FC8AA84F3
:10174000630305162328250363040416A285930763
:101750004503930604010387050085078505A38FCC
:10176000E7FE19C3E399D5FEA3810404B94763EAF0
:101770007711138C4400628523A6740323A2740599
:1017800023A40404EFF01F8313858401EFF09F82EC
:10179000BD471385C9FFB38B77414A9584C823ACF5
:1017A0007401C4D023860404A3860404238704049C
:1017B000A387040423880404A38804045A86D685D6
:1017C0004199EFE0FFB388C063040A0023209A0028
:1017D000EFF08FF7B70700209387470D984337093D
:1017E00000201309890C050798C30327090069CB5A
:1017F000B70700209389870F83A70900D45481EB92
:1018000003270900585763E8E60A23209900373474
:1018100000201304C417370700201307070E1043D6
:10182000B70700209387470E8C43050610C363F368
:10183000D50094C393972600B6978A07A297D843FA
:101840009443104798C48506D0C4104723228601CC
:1018500023248701DCC894C3EFF06FF083A709004D
:10186000054591CF03270900DC5458576379F700E9
:10187000B7E700E0116723A0E72011A07D556FE0D6
:101880001FBB896793870780739007303746000036
:1018900037450000130646F2930570391305C5EB72
:1018A000EF10803D01A04A85EFF02FCB7D55C1BFE1
:1018B000230A050265BDB73700201384C717A1BFEF
:1018C0002320990098438547630CF700B737002021
:1018D0001384C717B7070020D4549389870F25BFF7
:1018E000B73900201384C917130AC4129389C91782
:1018F0004E85D109EFF0CFEAE39C49FFB7370020CE
:101900001385872A138A872AEFF08FE9B7370020DB
:101910001385C72B9389C72BEFF08FE8373500204D
:101920001305052DEFF0CFE7373500201305852F80
:10193000EFF00FE7373500201305452EEFF04FE6A7
:1019400037070020B70700202326470D23A8370DAF
:10195000B7070020D4549389870F75BDEFE23FACE1
:10196000B7070020B7450000371500009387870EA2
:1019700001478146130600109385C5F11305E54420
:10198000613B054463098500FD576302F50483A7A5
:10199000C1806FE01FABEF001013E31785FE89676E
:1019A0009387078073900730FD56B707002023A662
:1019B000D70E37070020B7070020232CA70E23AE31
:1019C000070EEFF0CFC783A7C1806FE09FA789679D
:1019D0009387078073900730374600008565374549
:1019E0000000130646F2938505841305C5EBEF103E
:1019F000A02801A0B70700209387C70D98430507CB
:101A000098C38280EFE21FA0370400201304C40DA6
:101A10001C4085E7896793870780739007303746B6
:101A20000000856537450000130646F29385358B27
:101A30001305C5EBEF10402401A0EFF0EFD01C40E0
:101A4000FD171CC01C4099C70144EFF04FD12285FF
:101A50006FE09F9EB707002083A7470DF5D7370992
:101A60000020373600203735002081471309091040
:101A70001306062DB70E00201305C517370E0020DC
:101A8000054318424DC35C46DC47CC4F94539857EE
:101A90001388870194C503AF0702832847002322D8
:101AA000BF006388080D144323A40702FD1614C366
:101AB000D84B8C47D447832F47009388470094C561
:101AC000CCC2130F8E0C13884E0E63821F0B0C4377
:101AD000D45723AA0700FD150CC3832508001397CC
:101AE000260036970A072A9763F4D5002320D800EA
:101AF0004C430328070083AF85008CC7050823A645
:101B0000F70183AF850023A21F0123A41501D8CBC1
:101B10002320070103270F005857E3E4E6F62320AC
:101B2000690018422DF381CFB707002083A7C70CA7
:101B30009C43B9EFB70700207D5723A6E70EB704F3
:101B400000209384440F83A9040063880902054A96
:101B500009A8EFF09FA019C123204901FD19638C4A
:101B600009001C40FDD79C4085079CC0C5BF54C3DD
:101B7000B9BF54C30DBF23A0040083270900E38528
:101B800007ECB7E700E0116723A0E720054475BD27
:101B9000EFF01F916DB719E5B7E700E0116723A0DB
:101BA000E7208280EFE2BF87B70700209387C70D49
:101BB00098431DC389679387078073900730374622
:101BC000000037450000130646F2930590541305B4
:101BD000C5EBEF10600A01A09843050798C3814543
:101BE000EFF07F8D053511E5B7E700E0116723A021
:101BF000E7206FE01F85B707002003A5C70F82808D
:101C0000B707002083A7C70D99E7EFE25F81EFF0E8
:101C1000DF946FE01F83B70700209387470F984337
:101C20000145050798C38280B707002083A7C70D29
:101C300099C7B7070020054723A0E7108280B707A0
:101C40000020B705002023A007109385450EB73666
:101C5000002098419386C61719A005CF7D179317CA
:101C600027003386E7000A06369610427DD6BA97DB
:101C70008A073386F6004842A107B697544154C2FA
:101C8000638EF602D446B707002023A4D70C98C170
:101C90008280EFE2CFF889679387078073900730DF
:101CA00037460000856537450000130646F29385E8
:101CB00025C01305C5EBEF00307C01A0D44254C20F
:101CC000D1B7EFE2CFF519CDB70700202E8483A559
:101CD000870CE105EFF06FAE85452285EFF0AFFD93
:101CE0006FE02FF689679387078073900730374638
:101CF0000000856537450000130646F29385C5C18F
:101D00001305C5EBEF00507701A0EFE24FF12A87F2
:101D100021C95443B70700209387870C83A8070085
:101D200003A886002E858C4323AED80083A8070025
:101D300023A0050303A3860003A80700E1088C4342
:101D40001C4361082322130123A4060198D58507AB
:101D50001CC311C27D55B285EFF0EFF56FE06FEE59
:101D60008967938707807390073037460000856541
:101D700037450000130646F2938525C51305C5EBCC
:101D8000EF00906F01A05C45DC47FDC79857D04F2E
:101D9000945348439385870114C6D0C2630AB50C97
:101DA000144323A4070237060020FD1614C303279B
:101DB000C60DD45725EFD0478C47D84B1385470025
:101DC00090C5D047032847004CC26305A80A1043BA
:101DD00023AA07007D1610C3370700201307470EFC
:101DE00010436373D60014C3139726003697131657
:101DF0002700373700201307C717329750430C438B
:101E00000328860090C7850523A6070103288600BE
:101E10002322A80008C6D8CB0CC3B707002083A78D
:101E2000870C0145DC5763EED702828037370020EC
:101E30001307072D5043084303288600D0CF05051C
:101E400023A007030328860008C301452322B80006
:101E50000CC698D7B707002083A7870CDC57E3F69A
:101E6000D7FCB7070020054723A0E710054582806F
:101E700054C33DB750C3A1BFEFE26FDA89679387C0
:101E800007807390073037460000856537450000AE
:101E9000130646F2938525C81305C5EBEF00D05D08
:101EA00001A037070020B70700200327070F83A7EB
:101EB000C70F18C15CC18280EFE26FD651C92E896D
:101EC000ADC52A84EFF04F8837070020B707002000
:101ED0001307C70F9387870C03280700944383C613
:101EE000160591CA9C438544A3880704EFF02F8709
:101EF00026856FE00FD583270900FD568144E387CF
:101F0000D7FEB70600209386060F88428328040078
:101F100050406382A8066360C80623200900EFF0E2
:101F20000F84854426856FE0CFD18967938707802A
:101F3000739007303746000085653745000013066B
:101F400046F29385E5CF1305C5EBEF00F05201A0F3
:101F5000896793870780739007303746000085654F
:101F600037450000130646F29385D5CF1305C5EB20
:101F7000EF00905001A03305C840E370F5FA944299
:101F8000B38707411843B2972320F90014C058C003
:101F90008144A9BFB7070020054723A0E71082802E
:101FA000B707002083A7870F054581CBB70700201F
:101FB00003A5C70D1335150006058280EFE22FC675
:101FC00037040020EFE05FF8130404111C4089C7B8
:101FD000EFE0FFF86FE0EFC6B73700201385C7309A
:101FE0001389C730EFE0DFFBB737002013850732D6
:101FF00093840732EFE0DFFAB707002023A227110E
:102000000146B7070020C145114523A49710EFF002
:10201000AF9808C055DDB7450000938505F6EFF091
:10202000AFB47DB7EFE2AFBF4CC108C9AA876369FF
:10203000B600184D158E05456364E6026FE06FC06B
:102040006375D6000545E3FBD5FE37070020032561
:10205000471093854700EFE05FF601456FE06FBEE4
:10206000370700200325871093854700EFE0FFF432
:1020700001456FE00FBDEFE28FBA2A84AE8432894A
:1020800031A0184C1C502285BA9482970C4CA6861D
:102090004A86A695228579376DF56FE08FBAEFE213
:1020A0000FB8B707002083A74710AA842E89DC4702
:1020B000C04713054400EFE05FF38347440213F782
:1020C000470009EBF99B2302F4021C5022858297FA
:1020D0006FE02FB74A86A6852285713F1C50228566
:1020E00082976FE00FB6EFE28FB33704002013043E
:1020F00044101C40984301CBDC47FD5588434537CD
:102100001C40984375FB37070020130787101443C2
:102110001CC314C06FE0EFB2EFE2EFADB7090020CF
:1021200037090020B7040020116A370B0020411145
:10213000938949101309C91093840411130A8AF36F
:10214000130B8B1037EC00E0916BA54A83A70900B5
:102150009843630D070EDC4783AC0700EFF09F89BF
:10216000EFF07FA9832709002A846363F5102320F9
:10217000A9000146637695118840B3858C40EFF045
:10218000EFA7EFF03F8819E123207C21884001462A
:102190008A85EFF00F875DD98247224463CF070815
:1021A0005C4889C713054400EFE03FE4EFF0BFA4AB
:1021B00083270900AA8C6363F50C824723209901C9
:1021C000E3E6FAFC8A07D2979C438287834744025E
:1021D00013F7270045CFF99B2302F40245BF83473D
:1021E0004402924593E717002302F4020CCCD5C9B0
:1021F000E6866686E6952285353549BF83474402E3
:102200000C4C924693E717002302F4026686B695BB
:102210002285093D25DD8347440213F747003DEB46
:10222000F99B2302F4021C502285829785B78347CD
:102230004402F99B2302F40291BF9247B2452285E2
:1022400082978247E3C407F4224499BFEFF08FFAE4
:10225000EFF07F9A832709002A84636BF5008327B8
:102260000B0023208900814C90431336160029B7B8
:102270009D3D23208900EFF0EFF809BFAD3535BF54
:10228000EFF04FF8A2856685193D09B72285EFE08A
:10229000DFACEDBD1C4C924566862285BE95E13BC8
:1022A00059B78967938707807390073037460000D6
:1022B00037450000130686F6930590351305C5EBE8
:1022C000EF00901B01A0EFE28F95CD39B7070020FA
:1022D00083A7071185C7B7070020B745000037253A
:1022E00000009387471139478146130600109385F4
:1022F00005F813058511EFF02FC21DE1896793875B
:1023000007807390073037460000374500001306FA
:1023100086F6930590111305C5EBEF00F01501A0AB
:102320006FE02F92B707002083A7070837177A00BE
:1023300013070720B3D7E7021307803EB706002034
:1023400093F7F70F3387E702238DF610B7070020C6
:10235000239CE7108280EFE28F8CAA841165011123
:1023600085451105EFE08FF1930700207C8237153A
:1023700001408D474C003EC413050580E1473744BA
:1023800001403EC6EFE04FCEB70708000C0813052A
:1023900004803ECC26C802CA231E0100EFE0EFEF06
:1023A000854513050480EFE0EFF905616FE06F8963
:1023B000EFE24F85B2896359C00237440140AE84D1
:1023C0003389C50013040480930500042285EFE0DF
:1023D0006FF97DD985048385F4FF2285C205C1810B
:1023E000EFE0CFF7E31299FE4E856FE0EF8493871D
:1023F0000181944337370020130747403695636BBC
:10240000E50037570020130707806365A70088C3DE
:1024100036858280FD5636858280EFE24F80371404
:102420000140130404C0014685452285EFE0CFD466
:102430001305800CEFF02FF6228505468545EFE069
:10244000AFD31305800CEFF00FF5F1BFEFD29FFB78
:10245000AA84804C856A416A37190140B749000057
:10246000938A2AFD7D1A130909C031C483C5040467
:10247000854605462285EFE00FB2F840BC4458DCA3
:102480007CC489452285EFE0EFBC65DD6C44139682
:1024900005014182333656011346160033F44501D7
:1024A0004A858945EFE04FCDA285138589F8EF0075
:1024B000A07C804C45FC01440146DDB7EFD23FF6DD
:1024C0008545AA8413050020EFE04FDB3165EFE07E
:1024D0004FCD372401409385040213050440EFE0FB
:1024E000CFA4130504408545EFE0CFA983274440DE
:1024F0003707000513040440D98F5CC06FD07FF408
:10250000B7170140138707806308E502138707C0E8
:10251000630DE500630BF50293870740630EF50238
:10252000B70701406301F50282802145EFD23FEFFA
:10253000EFE0CFD46FD0FFF01145EFD25FEEEFE0C8
:10254000EFD36FD01FF00545D5B74145EFD23FED32
:10255000EFE0CFD26FD0FFEE13050002EFD23FECD9
:10256000EFE0CFD16FD0FFEDEFD2DFE941110545AC
:10257000EFE08FC2EFE04F897533716513050520D9
:10258000D93BB707002083A507083745000013058E
:1025900085F9DD25EFE0AFACAA85374500001305CE
:1025A00085FAD92DB745000037450000938585FB96
:1025B000130505FC37090020C1251309091303275A
:1025C00009008D4663D3E616373400209304443364
:1025D000B7090020938709129C230F00F00F93F78F
:1025E000F70F638F0716373A002013044A39032781
:1025F00009008D4763CBE702E147B307F7020323E6
:102600000400832844000328840048440C485048B0
:1026100005072320E900A69723A0670023A217013E
:1026200023A40701C8C78CCBD0CBB7450000372502
:1026300000003C00154793064A39130600089385AD
:1026400005FE1305C544B709002002C4EFF0CF8C86
:10265000938789129C230F00F00F93F7F70F638B7A
:102660000716373A002013040A3E032709008D4756
:1026700063CBE702E147B307F70203230400832893
:1026800044000328840048440C4850480507232090
:10269000E900A69723A0670023A2170123A407013E
:1026A000C8C78CCBD0CBB745000037250000938539
:1026B000C5FE7C00154793060A3E13060008130565
:1026C000A54102C6EFF04F85832509006352B0048F
:1026D0002684854981445C20854585048DE708442E
:1026E000053508449305C400EFE00F985C4891C796
:1026F00050304E240844EFE02FA81C40228591C39F
:10270000829723023401832509006104E3C5B4FCE8
:1027100037450000130505FF8523EFF02FA437444C
:102720000000130584009D25EDBFE147B307F702C4
:10273000373400200507930444332320E9001307AE
:102740000010A697DAA337170140130707C098C7F0
:102750000947DAA7414723A0070094CBD8CB8DBD0A
:1027600013850912373A0020752013044A39E30013
:1027700005E8B7170140938707801CC489475EA40A
:10278000B7270140938707401CCCC1477CC0A147B5
:102790003CC4B7070E005CD4B72700009387C74B33
:1027A0000547138509122312040023280400232A55
:1027B0000400232E04001CC02300E4042320040290
:1027C000232204022324040223280402230AE4020D
:1027D000A92831BD13858912373A00202528130412
:1027E0000A3EE30405E8B7170140938707C01CC4FD
:1027F00085475EA48D471CC8C147138589122320D5
:102800000400231204005CC8232C0400232E0400BF
:102810002928A1BD1C2181EB1C3191C30290854761
:102820001CB105458280014582808547A3000500D3
:102830001CA18280B687B2882A832E88639B0614E7
:1028400063F8C50A4167636BE61AB7070001636066
:10285000F63493568601E147171700001307077DEA
:1028600036971823BA97130700021D8F19CB339898
:10287000E500B357F500B318E60033E8070133135A
:10288000E50013D608013355C80293960801C182AA
:10289000935703013377C802B385A6024207336812
:1028A000F700637AB80046989307F5FF6364180150
:1028B0006365B8303E853308B8403357C8024203D9
:1028C000135303013378C802B386E6024208336823
:1028D0006800637BD80046989307F7FF636518018B
:1028E00079176363D8003E874205598D8145828000
:1028F00001E60547B358C702416763E8E80EB7072A
:10290000000163EAF82893D68801E1471717000011
:102910001307C77136971423BE9693070002958F4D
:10292000FDE7939E08013387154113DF080193DE0D
:102930000E018545935703013355E7033377E703CA
:10294000B306D5034207D98F63FAD700C69713079A
:10295000F5FF63E4170163E5D7263A85958F33D7F2
:10296000E703420313530301B3F7E703B30ED7039F
:10297000C207B3E7670063FBD701C6979306F7FF6B
:1029800063E51701791763E3D70136874205598D4F
:10299000828063E1D504C16763E1F604B7070001F3
:1029A00063E3F61E13D786016148971700009387EB
:1029B000E767BA979823130E00024297330EEE4052
:1029C000631A0E0C63EDB61C3335C50013451500B4
:1029D000814582808145014582809307F00F63F332
:1029E000D71C13D786002148C9B71307F00FC68636
:1029F000E37E17F193D68800A14709BF1307F00FB4
:102A0000B286E37BC7E493568600A147B1B5B3987D
:102A1000F80033D6D50013DF0801335EE6033397A1
:102A2000F500B356D500558F939E080193DE0E0135
:102A30003313F50093550701B376E603B387CE034E
:102A4000C206CD8E63FBF600C6961306FEFF63E456
:102A5000161763F2F616791EC6969D8E33D6E603D8
:102A600093170701C183B3F6E6033385CE021397AC
:102A700006015D8F637BA70046979307F6FF6368A7
:102A800017136376A7127916469793150E01098FCF
:102A9000D18D4DB5B357E600B396C601DD8E33D365
:102AA000E50013DF0601B357E303939E060193DEAF
:102AB0000E013398C5013357E50033680701935879
:102AC00008013316C6013373E303B385FE024203E4
:102AD000B368130163FBB800B6981387F7FF63EA86
:102AE000D80C63F8B80CF917B698B388B84033D748
:102AF000E803420813580801B3F8E8033383EE02F1
:102B0000C208B3E5080163FB6500B6951308F7FF3B
:102B100063EDD50863FB65087917B695C207416F69
:102B2000D98F1307FFFFB3F6E70093D80701718F22
:102B30004182B38EE602B3856540B386C60213D8E0
:102B40000E013387E802BA96C2963386C80263F351
:102B5000E6007A9693D80601469663E2C50263853D
:102B6000C5003E858145828041677D17F98EC2068A
:102B7000B3FEEE003315C501F696E374D5FE13855A
:102B8000F7FF8145828013D70601414839BD93562E
:102B90000601C147D1B193D60801C14785BB814524
:102BA000054582803687014809B5428785BF3E8644
:102BB000E9BDBA871DBF328E4DB579154698E5B986
:102BC0007915C69761BBB3C7A5008D8B3307C500C8
:102BD00081E78D4763EDC700AA87637EE5089421EE
:102BE00085078505A38FD7FEE3EBE7FE828093760A
:102BF0003500AA8789CA942185078505A38FD7FE4A
:102C000093F63700C5BF9376C7FF138606FE63F0C1
:102C1000C70683A3050083A2450083AF850003AFE9
:102C2000C50083AE050103AE450103A3850183A85A
:102C3000C5019385450223A0770003A8C5FF23A201
:102C4000570023A4F70123A6E70123A8D70123AA4D
:102C5000C70123AC670023AE17019387470223AE59
:102C600007FF75B790419107910523AEC7FEE3EBCF
:102C7000D7FEE3E6E7F6828039713EDA2ED232D40F
:102C800036D63AD842DC46DE9387418122CC804357
:102C900026CA06CEAA8409C41C4C99E32285ED29D4
:102CA0000C4454102686228536C6EF00F013F240FD
:102CB0006244D24421618280011126CA4AC806CEEC
:102CC00022CC4EC652C4AA842E8901C51C4D91E364
:102CD000E1219C4C804499E326857D2997170000CB
:102CE0009387C746631BF402C0405E24A18BB1C723
:102CF0001C48A1C7FD59294A1C4483450900FD17FA
:102D0000B1E91CC463DD07062286A945268561203A
:102D1000FD576308F502294535A0971700009387F2
:102D2000E7446314F4008044C9B797170000938701
:102D3000E73FE31CF4FAC0444DBFA2852685112A63
:102D400055D97D55F2406244D2444249B249224AA3
:102D5000056182801CC4050963D70700184C63CA4B
:102D6000E700638845011C401387170018C08CA337
:102D700061B7228626850520E31035F9D9B71C40B6
:102D80001387170018C0294798A371B7938741810B
:102D9000AA85884315B7011122CC26CA4AC806CE97
:102DA0004EC6AA842E89328401C51C4D91E3ED26BE
:102DB00097170000938787396317F406C0401C4CAF
:102DC0001CC45E24A18BC1C31C48B5CF1C4808405D
:102DD0009379F90F1379F90F1D8D5C486346F5005F
:102DE000A2852685692C25E51C440505FD171CC414
:102DF0001C401387170018C0238037015C48638884
:102E0000A7005E24858B81CBA9476316F900A285B4
:102E10002685B5240DEDF24062444A85D2444249EC
:102E2000B2490561828097170000938727346314A5
:102E3000F400804469B7971700009387272FE310A9
:102E4000F4F8C044ADBFA2852685212041D17D592B
:102E5000D9B741119387418126C2844322C44AC015
:102E600006C62A892E8489C49C4C99E326852D2682
:102E7000971700009387872D631BF402C040031748
:102E8000C40093170701C18393F68700ADEA93F658
:102E9000070195EEA5472320F900136707045AA4FC
:102EA0007D55B240224492440249410182809717E5
:102EB00000009387A72B6314F4008044C9B79717C9
:102EC00000009387A726E31CF4FAC0444DBF918B02
:102ED0009DC34C5889C9930744046384F5004A850F
:102EE0003123232A04025E242322040093F7B7FD32
:102EF0005EA41C481CC05E2493E787005EA41C48A7
:102F000099EB5E241307002093F707286385E700F9
:102F1000A2854A85A1215E2413F717001DC35C48D2
:102F200023240400B307F0401CCC1C480145B5FB2A
:102F30008317C40013F707082DD793E707045EA48F
:102F400085B7898B014791E3584818C4F9BFDE253E
:102F5000011122CC26CA06CE4AC84EC613F78700F6
:102F6000AA842E8479EBD841634DE000B841634ACE
:102F7000E0000145F2406244D2444249B249056151
:102F8000828058547DD703A904009396370123A06B
:102F9000040063DB060670485E24918B99C75C4091
:102FA0001D8E5C5899C33C401D8E5C540C5081466C
:102FB00026858297FD575A24631DF5009440F547F6
:102FC00063E8D706B70740208507B3D7D700858BBE
:102FD000A5C31C48232204001CC09317370163D8E3
:102FE0000700FD576314F5009C4091E368C84C58F6
:102FF00023A02401BDDD930744046384F5002685E6
:10300000F526232A0402B5B70C50014685462685CD
:103010000297FD572A86E311F5F89C40B5DF754706
:103020006385E70059476393E70423A0240191B720
:10303000136707045AA47D5535BF83A90501E38AA8
:1030400009F203A905008D8B23A03501330939410D
:10305000014791E3D84918C4E35D20F11C540C509A
:10306000CA864E86268582976347A0005E2493E732
:1030700007045EA4C9B7AA993309A940F1BF9C49C6
:10308000B9CF011122CC06CE2A8411C51C4D81E78F
:103090002EC61922B245971700009387270B639B12
:1030A000F5004C408397C50095C722856244F240E5
:1030B000056171BD971700009387470B6394F50076
:1030C0000C44CDB79717000093874706E39CF5FCA7
:1030D0004C44C9BFF240624401450561828001450C
:1030E0008280411122C406C62A844EA572A52320DF
:1030F000050023220500232405002322050623289A
:103100000500232A0500232C0500214681451305CF
:10311000C505EFD0CFB397170000938787B35CD076
:10312000971700009387A7B51CD4971700009387C3
:1031300087B95CD4971700009387E7BB00D01CD8F1
:10314000B24022444101828097050000938565F3D7
:10315000A9A2411126C2130680069384F5FFB38409
:10316000C4024AC02E8922C406C6938544073D2660
:103170002A8401CD2320050023222501310508C41E
:10318000138684068145EFD08FAC2285B24022445D
:1031900092440249410182801C4DADE3411106C6B3
:1031A00022C497070000938767FA1CD59387C181D3
:1031B0009C432324050423260504232805046314C3
:1031C000F50085471CCD2A841D2848C02285052886
:1031D00008C422852D2048C4484001469145113736
:1031E00008440546A545F53D48440946C945D53D31
:1031F00085471CCCB240224441018280828041112B
:103200009387C18126C284434AC006C69C4C22C40F
:103210002A8999E326854937938484048044DC40D5
:10322000FD1763D607009C40B9CF8440C5BF031784
:10323000C40039E7C1778507232204062320040050
:1032400023220400232404005CC423280400232A2E
:103250000400232C0400214681451305C405EFD04A
:103260000F9F232A0402232C040223240404232670
:1032700004042285B24022449244024941018280E2
:103280001304840671BF91454A85E13588C051FD1C
:10329000B1472320F9000144E9BF797122D44AD013
:1032A00052CC56CA5AC85EC606D626D24ECE2A8AF6
:1032B000AE8A130485040149054BFD5B09ECB2504D
:1032C00022544A8592540259F249624AD24A424BE8
:1032D000B24B45618280044483294400FD1963D4C4
:1032E00009000040E1BFDE24637BFB008397E4001C
:1032F00063877701A6855285829A3369A9009384F2
:103300008406E9BF1971A6DAAE848395E500A2DCD4
:1033100086DE328463DB0500DE2423A0060093F7FB
:10332000070885E7930700401DA0300836C6EF0068
:103330001023B246E34205FE7247BD67F98F7977E5
:10334000BA9793B717009CC2F1BF930700041CC043
:10335000F6506654D654014509618280DE2501117C
:1033600022CC06CE26CA4AC8898B2E8489CF9307E1
:1033700074041CC01CC885475CC8F2406244D24437
:1033800042490561828074003000AA84A53FA245AD
:103390002A892685212219E98317C40013F70720FB
:1033A00069FFF19B93E727005EA4D1B79707000060
:1033B0009387C7D99CD45E2408C008C893E7070840
:1033C0005EA4A2475CC8B24781CF8315E40026857E
:1033D000EF00101C11C55E24F19B93E717005EA45B
:1033E0005E243369F9002316240141BFDDC583A79C
:1033F000C5FF411122C406C626C21384C5FF63D38C
:1034000007003E94AA84EF00702097D7FF1F938790
:10341000A7D29C4391EF2322040097D7FF1F23AD2F
:1034200087D02244B2402685924441016F00301E6D
:10343000637EF40014403307D4006396E70098439A
:10344000DC43369718C05CC0C9BFBA87D84319C3DC
:10345000E37DE4FE94433386D700631F860010406B
:10346000B29694C33386D700E31DC7FA104358437E
:10347000B29694C3D8C375B76375C400B1479CC0F6
:103480004DB71040B306C4006316D7001443584329
:10349000B29614C058C0C0C369B78280011126CA51
:1034A00093843500F19806CE22CC4AC84EC6A104BA
:1034B000B14763F9F404B14463E8B4042A89EF0026
:1034C000F01497D7FF1F938727C798433A8439E4AE
:1034D00097D7FF1F938787C69C4381EB81454A8519
:1034E000352F97D7FF1F23ABA7C4A6854A853D2755
:1034F000FD59631B3507B1472320F9004A85EF00CA
:10350000101129A0E3DA04FAB1471CC10145F240C9
:103510006244D2444249B249056182801C40858F91
:1035200063C10704AD4663F6F6001CC03E9404C0B8
:1035300001A85C406315870217D7FF1F232EF7BE33
:103540004A85EF00D00C1305B4009307440061993D
:103550003307F5404DDF3A94898F1CC04DBF5CC3E3
:10356000C5B722874040A5B7130435007198E30022
:1035700085FCB305A4404A855525E31A35FBA5BF54
:103580001C46FD171CC663DA0700184E63C5E7002A
:10359000A9476394F5006FF01F801C422E851387A6
:1035A000170018C28CA38280011122CC26CA4AC8F7
:1035B0004EC652C406CE2A89AE893284B304D600E0
:1035C0007D5A63149400014501A80C204E864A855B
:1035D000453F0504E31745FFF2406244D2444249A7
:1035E000B249224A05618280357122CD26CB4AC973
:1035F0004EC706CF52C556C35AC1DEDEE2DCE6DA5C
:10360000AA89AE843289368409C51C4D99E3EFF04E
:10361000BFB897170000938767B36397F40C83A430
:103620004900DE24A18BFDC39C48EDC39307000233
:10363000A304F1029307000302D22305F10222C67C
:10364000930B5002971A0000938A4AB4054C294BF9
:103650004A841C2099C3639E770DB30C2441638D6B
:103660000C00E6864A86A6854E853D3FFD57630FD2
:10367000F51C9256E69636D21C206389071CFD572E
:103680001309140002C802CE3ECA02CCA3090104E9
:1036900082D48345090015465685A92F13041900C5
:1036A000C24751E913F7070109C713070002A3092D
:1036B000E10413F7870009C71307B002A309E10467
:1036C000834609001307A002638FE606F2474A8487
:1036D00081462546182093051400130707FD6377DC
:1036E000E60AB5CA3ECE85A897170000938707A8BB
:1036F0006395F40083A489002DB797170000938782
:10370000E7A2E390F4F283A4C90021BFA6854E8509
:10371000EFF02FF401DD7D55FA406A44DA444A495E
:10372000BA492A4A9A4A0A4BF65B665CD65C0D6136
:103730008280050439BF330555413315AC00C98F6C
:103740003EC82289B9B7324793064700184336C6A8
:10375000634707023ACE18209307E002631DF7047F
:1037600018309307A002631BF702B24709041387BE
:1037700047009C433AC663C107023ECA2DA83307DF
:10378000E04093E727003ACE3EC8F1B7B38767031E
:1037900085462E84BA973DBFFD57C5B7050402CABA
:1037A000814681472546182093051400130707FD1D
:1037B0006374E606F9F20C200D4617150000130598
:1037C000659D0D2D11CD971700009387A79C1D8D2A
:1037D00093070004B397A700424505045D8D2AC8EE
:1037E0000C201946171500001305059B130914003A
:1037F0002304B102012535C197D7FFFF9387878046
:1038000095E74247B2471377071009CF91073EC6A5
:103810009257D2973ED22DBDB387670385462E843B
:10382000BA9751B79D07E19BA107D5B778009706D6
:1038300000009386A6D726860C084E8597000000C8
:10384000E7000000FD572A8AE314F5FCDE2493F715
:103850000704E39207EC1255C1B578009706000003
:103860009386C6D426860C084E85012AE1BF79715D
:1038700056CA9C49BA8A984522D426D24ECE52CCFA
:1038800006D64AD05AC85EC6AA892E84B284368A21
:1038900063D3E700BA879CC00347340419C3850784
:1038A0009CC01C4093F7070281C79C4089079CC0BD
:1038B0000329040013796900631A0900130B9401AA
:1038C000FD5B5C449840998F634CF9041C4083462F
:1038D000340493F70702B336D000A5EB1306340483
:1038E000D2854E85829AFD576303F5041C4011462C
:1038F0009840998B544481446397C700B384E64051
:1039000063D3040081441C4418486354F700998F22
:10391000BE94014969047D5B63982405014509A8AB
:1039200085465A86D2854E85829A631E75017D55DD
:10393000B250225492540259F249624AD24A424B3E
:10394000B24B456182800509ADBF3307D400130631
:103950000003A301C7040347540493871600A297EA
:103960008906A381E7049DBF85462286D2854E85C0
:10397000829AE30E65FB050945B7797122D426D2F8
:103980004AD04ECE06D652CC56CA5AC8B689942DC5
:10399000930790063289AA842E8413863504638D9A
:1039A000F60263E2D706930780056386F61863ED97
:1039B000D700638E062093073004638EF60A930ABD
:1039C00024042301D404C9A0930730066385F60AB2
:1039D00093074006E395F6FE1C40084393F607085C
:1039E00093054500C5C61C410CC363D807001307E7
:1039F000D002B307F040A301E404970600009386C9
:103A0000267A294765A8930700076382F61663E5BF
:103A1000D7029307E0066389F6189307F006E39050
:103A2000F6FA0C401C4313F805081385470063079A
:103A3000080608C39C4385A893075007E383F6FE56
:103A4000930780076389F61293073007E399F6F628
:103A50001C43D04181459386470014C383AA0700C5
:103A60005685492E01C53305554148C05C401CC8E8
:103A7000A301040461A81C43930A2404938647000D
:103A80009C4314C32301F4048547D5B793F6070478
:103A90001C410CC3B9DAC207C18781BF93F5050485
:103AA00008C3C9D99E231307F0066387E60E97065D
:103AB00000009386E66E2947A30104044C400CC421
:103AC00063C5050008406D9908C099E3B28A89CDA5
:103AD000B28AB3F5E702FD1AB6958C212380BA00AD
:103AE000B3D5E70263F0E70CA147631EF7001C4063
:103AF000858B91CB58401C4863C7E70093070003B0
:103B0000A38FFAFEFD1A3306564110C84E87CA86A7
:103B10007000A2852685EFF09FD57D5A631D450B69
:103B20007D55B250225492540259F249624AD24A07
:103B3000424B45618280A382D5049706000093869C
:103B400026660C40084313F805081C411105630D57
:103B5000080208C313F7150001C793E505020CC05E
:103B60004147B9FB0C4093F5F5FD0CC0B1B79C4142
:103B700093E707029CC193078007A302F40497060A
:103B800000009386266375BF13F8050408C3E3039A
:103B900008FCC207C1837DBF97060000938646607C
:103BA000214719BFAE8735B794411C43CC4913F860
:103BB0000608138547006306080008C39C438CC3AE
:103BC00039A008C393F606049C43F5DA8EA3232894
:103BD0000400B28A25BF14485686CA852685829974
:103BE000E30045F51C40898B8DE7B2474844E35A12
:103BF000F5F23E853DB785465686CA85268582996B
:103C0000E30065F3050A5C443247998FE345FAFE09
:103C1000E9BF014A930A94017D5BF5B7411122C4C3
:103C20002A842E8597F7FF1F23AE077C06C6EFE098
:103C30000FFCFD576319F50097F7FF1F9387877CEB
:103C40009C4391C31CC0B240224441018280411177
:103C500022C42E848395E50006C65D2A63490500CB
:103C60007C48AA977CC8B2402244410182805E24ED
:103C70007D777D17F98F5EA4FDB7DE25011122CC7B
:103C800026CA4AC84EC606CE93F70710AA842E84C9
:103C90003289B68991C78395E500894601460D2290
:103CA0005E247D777D17F98F5EA48315E40062445E
:103CB000F240CE864A86B24942492685D244056101
:103CC00025A8411122C42E848395E50006C6CD287F
:103CD000FD575A24631AF500FD77FD17F98F5EA48E
:103CE000B2402244410182808567D98F5EA468C8B2
:103CF000C5BF8395E50025A8411122C42A842E85DD
:103D0000B285368697F7FF1F23AE076E06C6EFE033
:103D10002FEAFD576319F50097F7FF1F9387876E0A
:103D20009C4391C31CC0B240224441018280411196
:103D300022C42A842E8597F7FF1F23A5076C06C689
:103D40001122FD576319F50097F7FF1F9387876BC3
:103D50009C4391C31CC0B240224441018280411166
:103D600022C42A842E85B28597F7FF1F23AC0768EB
:103D700006C6CD20FD576319F50097F7FF1F9387FF
:103D800067689C4391C31CC0B240224441018280B9
:103D9000411122C42A842E8597F7FF1F23A40766AA
:103DA00006C6C920FD576319F50097F7FF1F9387D3
:103DB00067659C4391C31CC0B2402244410182808C
:103DC000411122C42A842E85B285368697F7FF1FBB
:103DD00023AA076206C67928FD576319F50097F7ED
:103DE000FF1F938727629C4391C31CC0B2402244AB
:103DF0004101828093F5F50F2A966314C5000145B1
:103E000082801C21E38EB7FE0505C5BF82808280BB
:103E1000411122C42A842E85B285368697F7FF1F6A
:103E200023A2075E06C6B928FD576319F50097F768
:103E3000FF1F9387275D9C4391C31CC0B24022445F
:103E4000410182809307800517F7FF1F232CF75A43
:103E50007D5582809307800517F7FF1F2324F75AAB
:103E60007D5582809307800517F7FF1F232CF75895
:103E7000014582809307800517F7FF1F2324F75819
:103E80007D5582809307800517F7FF1F232CF75677
:103E90007D5582802E2E2F4672656552544F532FCA
:103EA000706F727461626C652F4D656D4D616E67E8
:103EB0002F686561705F342E6300000065727220A8
:103EC0006174206C696E65202564206F66206669C8
:103ED0006C6520222573222E200D0A200000000090
:103EE0002E2E2F4672656552544F532F706F727489
:103EF00061626C652F4743432F524953432D562F20
:103F0000706F72742E6300002E2E2F4672656552FC
:103F1000544F532F71756575652E630049444C45A8
:103F2000000000002E2E2F4672656552544F532F0D
:103F30007461736B732E63008C210000FC21000000
:103F4000FC2100002E220000DE210000CC21000018
:103F5000FC210000FC2100002E220000DE210000D8
:103F6000546D7251000000002E2E2F46726565526E
:103F7000544F532F74696D6572732E6300000000F7
:103F8000546D722053766300546F7563684B657986
:103F9000323A2025640A0D0053797374656D436CC1
:103FA0006B3A25640D0A00004368697049443A255C
:103FB0003038780D0A0000005631302E342E36008D
:103FC0004672656552544F53204B65726E656C2086
:103FD00056657273696F6E3A25730D0A0000000012
:103FE000546F7563684B6579000000004C454400D0
:103FF0005B494E464F5D204770696F2053697A6573
:10400000282564290D0A00005B4552524F525D205D
:1040100073686F756C646E27742072756E2061749E
:104020002068657265212100000102020303030379
:104030000404040404040404050505050505050538
:104040000505050505050505060606060606060618
:104050000606060606060606060606060606060600
:1040600006060606060606060707070707070707E8
:1040700007070707070707070707070707070707D0
:1040800007070707070707070707070707070707C0
:1040900007070707070707070707070707070707B0
:1040A0000707070707070707080808080808080898
:1040B0000808080808080808080808080808080880
:1040C0000808080808080808080808080808080870
:1040D0000808080808080808080808080808080860
:1040E0000808080808080808080808080808080850
:1040F0000808080808080808080808080808080840
:10410000080808080808080808080808080808082F
:10411000080808080808080808080808080808081F
:10412000080808080808080800000000000000004F
:10413000000000000000000000000000000000007F
:10414000000000000000000000000000000000006F
:10415000000000000000000000000000000000005F
:10416000000000000000000000000000000000004F
:10417000000000000000000000000000000000003F
:104180000000000000000000232D302B2000000064
:10419000686C4C0065666745464700003031323335
:1041A0003435363738394142434445460000000033
:1041B000303132333435363738396162636465669D
:0441C00000000000FB
:1041C40000000000000000000102030406070809C3
:1041D40000000000010203040102030406070809A9
:1041E4000000000048410000684100002841000030
:1041F40000000000000000000000000000000000BB
:1042040000000000000000000000000000000000AA
:10421400000000000000000000000000000000009A
:10422400000000000000000000000000000000008A
:10423400000000000000000000000000000000007A
:1042440000D8B80502040608AAAAAAAA0E0000000B
:104254000434002020000020005000202000002012
:00000001FF
