:040000006F00F03667
:100004000000000000000000D8090000DA09000028
:10001400000000006C0B0000000000000000000065
:100024006C0B00006C0B00000000000000000000DE
:10003400781400000000000000010000000000002F
:10004400B40600006C0B00006C0B00006C0B00008D
:100054006C0B00006C0B00006C0B00006C0B0000C0
:100064006C0B00006C0B00006C0B00006C0B0000B0
:100074006C0B00006C0B00006C0B00006C0B0000A0
:100084006C0B00006C0B00006C0B00006C0B000090
:100094006C0B00006C0B00006C0B00006C0B000080
:1000A4006C0B00006C0B00006C0B00006C0B000070
:1000B4006C0B00006C0B00006C0B00006C0B000060
:1000C4006C0B00006C0B00006C0B00006C0B000050
:1000D4006C0B00006C0B00006C0B00006C0B000040
:1000E4006C0B00006C0B00006C0B00006C0B000030
:0C00F4006C0B00006C0B00006C0B00009B
:10010000130181F806C216C41AC61EC822CA26CC1C
:100110002ACE2ED032D236D43AD63ED842DA46DC77
:100120004ADECEC0D2C2D6C4DAC6DEC8E2CAE6CC47
:10013000EACEEED0F2D2F6D4FAD6FED8F3220030D0
:1001400096DA9702002083A222FB23A02200F32547
:1001500010342EC003A18181EF2040071703002037
:10016000032383F903210300824273901234D65291
:10017000739002309240A2423243C2435244E2445E
:10018000724582551256A2563257C2575258E258FB
:1001900072598649164AA64A364BC64B564CE64C0F
:1001A000764D865D165EA65E365FC65F13018107DB
:1001B0007300203013000000130000001300000043
:1001C00013000000130000001300000013000000E3
:1001D00013000000130000001300000013000000D3
:1001E00013000000130000001300000013000000C3
:1001F00013000000130000001300000013000000B3
:1002000083A28181938202E073900234170100205F
:10021000032181EE024182403243C2435244E24410
:10022000724582551256A2563257C2575258E2585A
:1002300072598649164AA64A364BC64B564CE64C6E
:10024000764D865D165EA65E365FC65FD652A1020B
:1002500073900230A24213018107828013000000D4
:100260001300000013000000130000001300000042
:100270001300000013000000130000001300000032
:100280001300000013000000130000001300000022
:100290001300000013000000130000001300000012
:1002A0001300000013000000130000001300000002
:1002B00013000000130000001300000013000000F2
:1002C00013000000130000001300000013000000E2
:1002D00013000000130000001300000013000000D2
:1002E00013000000130000001300000013000000C2
:1002F00013000000130000001300000013000000B2
:10030000F322003093F272FF130380181203B3E25A
:100310006200711523205500130585FA10C12115BF
:10032000232005009302000063870200711523203B
:100330000500FD12D5BF71150CC1828000000000C0
:1003400000000000000000000000000000000000AD
:10035000000000000000000000000000000000009D
:10036000000000000000000000000000000000008D
:10037000000000000000000000000000000000007D
:10038000000000000000000000000000000000006D
:10039000000000000000000000000000000000005D
:1003A000000000000000000000000000000000004D
:1003B000000000000000000000000000000000003D
:1003C000000000000000000000000000000000002D
:1003D000000000000000000000000000000000001D
:1003E0000000000000000000000000000000397163
:1003F00001436EC619A0397141536AC866CA62CCFE
:100400005ECE19A0397101535AD056D252D44ED66D
:100410004AD826DA22DC06DE3301614082824111AD
:100420004AC026C222C406C68282B24D4101024D94
:10043000924C224CB24B4101024B924A224AB249A1
:100440004101024992442244B240410182803D432D
:100450002A876373C3029377F700BDEFADE5937608
:1004600006FF3D8ABA960CC34CC30CC74CC7410764
:10047000E36BD7FE11E28280B306C3408A0697027F
:10048000000096966780A6002307B700A306B70072
:100490002306B700A305B7002305B700A304B700E0
:1004A0002304B700A303B7002303B700A302B700D8
:1004B0002302B700A301B7002301B700A300B700D0
:1004C0002300B700828093F5F50F93968500D58DB4
:1004D00093960501D58D61B793962700970200008A
:1004E00096968682E78086FA9680C1171D8F3E9683
:1004F000E374C3F8A5B7EFF29FF24111AA84371451
:100500000140EF10F0072AC6130404C003C604021A
:1005100022858545134616002380C402EF00701221
:100520009305800C6800EF105037CDB7EFF23FEF26
:1005300041112A84EF10D0042AC6B73400401309B1
:10054000000483A704C0182C93F7F70763F8E700AB
:100550006376F9001305F007EF00F0399545680060
:10056000EF10B033F9BFEFF2FFE9B71401400569AE
:10057000B7090020370A0020938404C0854A130974
:1005800029FD03A6890C13070A1581466303D606C5
:100590001C438C4763959500CE27638555018506DE
:1005A0001107EDB783C70702054685CF3724014001
:1005B00013050440854605468545C92513040440B6
:1005C000C1477CC489452285EF00C07665DDB72729
:1005D000014003A6C7444206418233362601134632
:1005E000160026858945EF00D0050545EF10D03768
:1005F00049BF834700020290EFF27FE22A8405653B
:10060000854513050580EF00901B1305F007EF00EB
:10061000902E13050018EF0050291305F005EF0088
:10062000102A1305F007EF00F02DEF00302F13050F
:10063000C401EF009003EF00F02AB7370040938722
:1006400007C0DC4393F7F7071CACE5BBEFF23FDDD7
:100650003724014041110546AA8493050022130561
:1006600004401125854513050020EF007013316506
:10067000EF001006938504021305044051238545BD
:1006800013050440C92B930720527C84280085471A
:100690003EC623150100EF00407D83274440370705
:1006A000000513040440D98F5CC0930700025CDC92
:1006B000410141BBEFF2BFD6EF00B02519C51305CC
:1006C000F007EF005023EF007025A5BB21C5EFF226
:1006D0001FD5B7170140138707806316E500114542
:1006E000EF00100CB9BB138707C06314E500214568
:1006F000C5BF6314F5004145E5B79387074063150F
:10070000F50013050002E9BFB7070140E31CF5FC43
:100710000545F9B78280B70600209386860C9C4277
:100720001D476376F702EFF29FCF896793870780B3
:100730007390073037460000374500001306C60A9D
:100740009305C0021305850CEF20806D01A03707CB
:10075000002013962700130707153297850708C353
:100760009CC28280EFF21FCA411185452145EF00EE
:10077000300337140140B7050020130504C09385EA
:100780000500D923130504C0054689455D2D3707AB
:1007900000201307070C8307070085EF9387419418
:1007A0009306F00594AF23AE0700C146D4AFB70659
:1007B000000005469386865F2382070023A4070076
:1007C00023A6070023A8070023AA070090D394C3F9
:1007D00010A3138541948137938641943705000017
:1007E000374400005C001D47130600109305C40346
:1007F0001305C55202C2EF10602D85476305F5024F
:100800008967938707807390073037460000374524
:1008100000009306C4031306C60ADD45130545040C
:10082000EF20006001A0370700201307070B8307A4
:10083000070037040020B1EBB716014093070417F7
:100840009386068094C78946D6A7B726014093862B
:10085000064094CFB7060E00D4D7B70600009386A3
:10086000C6642382070023A8070023AA070023AE3B
:10087000070023A0070223A2070223A4070223A83C
:100880000702238AA70294C308A31305041761353E
:100890009306041737050000374400003C00154755
:1008A00013060010930544081305655602C4EF10A3
:1008B000E02185476305F502896793870780739078
:1008C00007303746000037450000930644081306FA
:1008D000C60AE14513054504EF20805401A03707FF
:1008E00000201307870B830707008DEBB716014025
:1008F00093870192938606C094C78D4694CBC146D8
:1009000023A0070023820700CAA7D4CB23AC07008B
:1009100023AE07002380070285471CA3138501929D
:10092000DD3BB7440000370500007C009386019250
:100930001D4713060010938504091305654F02C671
:10094000EF10C01885470144631DF504B70400206B
:10095000370A002093840415854A83258A0C637521
:10096000B40613192400B389240183A7090095C78D
:10097000D82305E788478545913B83A70900884729
:100980009385C700D12603A509001C4191C3829716
:100990002699832709002382570105041374F40F55
:1009A0006DBF8967938707807390073037460000D3
:1009B00037450000938604091306C60AE54513056A
:1009C0004504EF20E04501A0374500001305450927
:1009D000EF20004541018DB401A041113EC4B7078D
:1009E000EFBE3AC69387070837E700E03CC701A08F
:1009F000B71702409843B706FFF04111136717007D
:100A000098C3D84337060200758FD8C39843B706FA
:100A1000F7FEFD16758F98C39843B706FCFFFD16C9
:100A2000758F98C3D843B70601FFFD16758FD8C3DD
:100A300037079F0098C702C402C69843C166558F06
:100A400098C3B716024005679C42F18F3EC6A24785
:100A500085073EC4B24781E7A247E397E7FEB71791
:100A600002409C431397E7006357070685473EC63D
:100A700032478547631FF704B7170240D843B706CC
:100A8000C1FFFD16D8C3D843D8C3D8431367074066
:100A9000D8C3D843758FD8C3D843B7062900558F1C
:100AA000D8C39843B7060001558F98C3984393164F
:100AB0006700E3DD06FED843B7160240719BD8C33A
:100AC000D84313672700D8C32147DC42B18BE39E8C
:100AD000E7FE4101828002C661BFB7160240DC42D8
:100AE000370700201146B18B130707096385C7003C
:100AF00021466388C702B7177A00938707201CC373
:100B0000B7170240DC43918393F6F700B707002044
:100B10009387C700B69794231C43B3D7D7001CC351
:100B20008280DC42D4424166C983BD8BF18E890745
:100B300045466393C700C94781EEB746024083A686
:100B40000680C18A89CEB7167A009386062021A82E
:100B5000B7160240D4421396E600E35606FEB716D7
:100B60003D0093860690B387D70251BF01A097013D
:100B70000020938121D2174100201301A14817457D
:100B800000001305258C97F5FF1F9385A547138655
:100B9000018263FAC5008322050023A055001105D8
:100BA0009105E3EAC5FE17F5FF1F1305A55097153C
:100BB00000209385A5BB6377B500232005001105B0
:100BC000E36DB5FEFD42739002BC89427390428092
:100BD000B7220000938202807390023097F2FFFFE9
:100BE0009382824293E2320073905230EFF05FE0E2
:100BF00097220000938242D5739012347300203004
:100C00005C413707F1E01307F7EF944D7D8F9C416E
:100C1000D58FD44DD58FD441A206D58FD98F5CC145
:100C20001C4537F7F1FF1307D77FD4457D8F9C49CB
:100C3000D58F94458606D58FD98F1CC55C5537074F
:100C400010FF7D177D8FDC29FD1793F7F70FD20773
:100C5000D98F5CD582801C4589C593E717001CC5D8
:100C60008280F99BEDBF5C4193F5F50F01C6DD8DE8
:100C70004CC1828093C5F5FFFD8DDDBFA54763F7AD
:100C8000B7048D47138765FF3307F7020328C500B4
:100C90009D47B397E70093C7F7FFB3F70701B396F4
:100CA000E600DD8E54C5994763E3C70495477D167A
:100CB0003306F6025859FD47B397C70093C7F7FFAD
:100CC000F98F3396C5005D8E50D982800D473387EA
:100CD000E502032805019D47B397E70093C7F7FF97
:100CE000B3F70701B396E600DD8E14C96DBFB147B7
:100CF00063E2C702954765163306F6021859FD47A9
:100D0000B397C70093C7F7FFF98F3396C5005D8E81
:100D100010D9828095474D163306F6025855FD4787
:100D2000B397C70093C7F7FFF98FB395C500DD8D63
:100D30004CD5828008416D8D3335A0008280B7F795
:100D4000FF1F03A5477082809C4513F7070113F826
:100D5000F70001C7D8413368E80037270240145B29
:100D60003707000F758F5DEB370700208546230698
:100D7000D70C371701406315E5009A2135839AA1F6
:100D80008E2113F7F50F39C318418146854E3D4F2B
:100D9000930F800293028004214E3396DE00B3F855
:100DA000C500631116039398260033131F011343E4
:100DB000F3FF3377E300B318180133E7E8006399D2
:100DC000F70750C98506E39AC6FD18C11307F00F4F
:100DD0006375B70454412146854E3D4F930F800201
:100DE00093028004414EB398CE0033F7150163920D
:100DF000E8021317260001173313EF001343F3FF24
:100E0000B376D3003317E800D98E6397F703232A0C
:100E100015010506E319C6FD54C18280371701404C
:100E2000E310E5F6370700200347C70C31DBB1B705
:100E3000E39A57F810C979B7E39D57FC23281501A9
:100E4000C9BFB71701406318F500B707002083C773
:100E5000C70C91C3B58119C20CC982804CC982806C
:100E6000B707002023A8A70C8280B707002003A79C
:100E7000070D854714216310F7021C31639CE702BC
:100E80003C21960793E707F837E700E093F7F70F61
:100E900036972300F740054793D756003317D700FE
:100EA000544189CE938707048A07B7E600E0B697D6
:100EB00098C38280EDF33C219607F9B79387070624
:100EC000B7E600E08A07B69798C30F10000082804B
:100ED000B7160240DC4251777D17F98F5D8DC8C28D
:100EE0008280371702405C439146B18B6385D700FF
:100EF000A1466382D706B7177A00938707201CC1E3
:100F0000371602405C42370700201307C701918360
:100F1000BD8BBA9794231C41B3D7D7005CC1544210
:100F2000A1829D8ABA969422B3D6D70014C55442A2
:100F3000AD829D8A36971823B3D7E7005CC5584227
:100F40003983937637001387418036971823B3D7B8
:100F5000E7021CC982805C435843C166C983BD8BCC
:100F6000758F8907C5466393D700C94701EF374797
:100F7000024003270780418B09CF37177A001307F8
:100F8000072021A83717024058439316E700E3D6FD
:100F900006FE37173D0013070790B387E70285B7B2
:100FA00099C5371702401C4F5D8D08CF8280B71757
:100FB0000240984F1345F5FF798D88CF828099C5FF
:100FC000371702405C4F5D8D48CF8280B7170240D3
:100FD000D84F1345F5FF798DC8CF8280EFF22FC42B
:100FE0001A29F577FD17F98FFA2101112A84D98F73
:100FF0001EA99A25DE215625AE84D98FBA25D98F10
:101000007D771307379F758FD98F5EA55E29DA2507
:10101000C207C18393F7F7CFD98F5EA96800D13596
:10102000B7470140938707806317F404E24765459B
:10103000B335F502904081460A063305F502EF10FC
:10104000F019930640063357D5021207935747000D
:10105000B387F6021D8D9317450013852703930769
:10106000F06363FCA70013050701420541810AA450
:1010700005616FF00FBDD2475DBF3355D502598D65
:10108000EDB791C55E250967D98F5EA582805A2587
:10109000F977FD17F98FD5BF93F5F51F4EA1828023
:1010A0000A216D8D3335A0008280373700408327B9
:1010B00047C093F7F7E75D8D2322A7C082804111D7
:1010C00002C6B737004003A747C01375F50713776B
:1010D00007F83AC63247598D2AC6324723A2E7C0DD
:1010E00041018280B737004003A747C0136707203C
:1010F00023A2E7C082801375F507B737004023A00D
:10110000A7C0828013650508B737004023A0A7C099
:101110008280B737004003A587C08280B737004080
:1011200023A407C08280B70700209387C70E984387
:10113000636FA702D043B386C7006316D50054413E
:101140003E85B296D4C35041B306C500631CD70098
:10115000B706002083A6460D6306D7005443184304
:10116000B29654C118C16303F50088C38280BA8760
:101170007DBFEFF22FA941112AC6EF00703FB706DD
:10118000002083A7460D370600209386460D1306E0
:10119000860D3245A9EF370700209307871F93F587
:1011A000F7001307871F81C51387F700419BB70519
:1011B00000209385C50E23A2050098C185659385FF
:1011C000053FAE97C19B23A2070023A00700B3856C
:1011D000E7409CC21CC3B707002023A0B70EB70787
:1011E000002023AEB70CB70700804CC31CC2032AF3
:1011F0000600B377AA0091CBEF00D053EF10407CEC
:101200008144268541016FF02FA39307F5FF3957DD
:10121000E364F7FE9307050113F7F70019C713F707
:1012200007FF4107E3FAE7FCBA87370700200329E5
:10123000C70D9309C70DE361F9FC370700200324AC
:10124000C70E1307C70E50406374F6000C40A1E5AB
:101250009442E38386FA1440044314C33307F640F0
:101260009306000263FFE6023305F4009376F5006F
:1012700095C68967938707807390073037460000CB
:10128000374500001306860F9305F00C1305051271
:10129000EF10103901A022872E8475B758C15CC0A9
:1012A00059355840B70600209386060E9042B30782
:1012B000E94023A0F90063F3C7009CC2B7070020F0
:1012C0003367EA009387470E58C09843C104232030
:1012D0000400050798C3EF00F0458DD093F7F400A4
:1012E0008DD3896793870780739007303746000056
:1012F000374500001306860F9305001113050512EC
:10130000EF10103201A055C1EFF26F91B707002026
:10131000032745FF83A7870D2A84B376F7009DE254
:1013200089679387078073900730374600003745F9
:1013300000001306860F9305401213050512EF10E7
:10134000302E01A0832605FF9DC289679387078001
:101350007390073037460000374500001306860FAC
:101360009305501213050512EF10902B01A093C79F
:10137000F7FFF98F232AF5FEEF00901FB707002033
:101380009387C70D9443032744FF130504FF369743
:1013900098C3513BB70700209387870E98430507F2
:1013A00098C3EF0030396FF0CF898280B7E700E053
:1013B00041572387E7402386E740B7F700E023A0A3
:1013C000070023A20700814694C70147D8C7370703
:1013D0000020832507091307803E814633D6E502A6
:1013E0003D4790CBD4CB98C38280EFF24F8341111D
:1013F00002C6F32750303EC6B2470D478D8B63843B
:10140000E7028967938707807390073037460000AB
:1014100037450000130646149305600B13050512AB
:10142000EF10102001A0B757002093870700BD8B55
:101430009DC3896793870780739007303746000004
:1014400037450000130646149305B00B130505122B
:10145000EF10101D01A0993FB7E700E0116723A02E
:10146000E710056723A0E71023A40180EFE05FD910
:10147000014541016FE0FFFC397106DE16DC1ADA26
:101480001ED82AD62ED432D236D03ACE3ECC42CA3C
:1014900046C872C676C47AC27EC0731101348967A9
:1014A0009387078073900730B7F700E023A2070007
:1014B000EF00B00D11C5B7E700E0116723A0E720EA
:1014C0008967938787887390073073110134F250CE
:1014D000E2525253C2533255A255125682567247A7
:1014E000E2475248C248324EA24E124F824F21610B
:1014F0007300203089679387078073900730938744
:1015000081809843050798C38280138781801C439C
:101510008DE7EFE2DFF089679387078073900730EC
:101520003746000037450000130646149305301077
:1015300013050512EF10D00E01A0FD171CC391E793
:101540008967938787887390073082809307850027
:101550007D575CC118C55CC51CC92320050082806D
:101560002328050082809841FD5693078500631E5D
:10157000D7001C49D843D8C10CC79CC5CCC31C415B
:1015800088C985071CC18280B687D4439042E37D19
:10159000C7FECDB7544118451C4998C654C3D4431F
:1015A0006393A600D8C39843232805007D1798C3EA
:1015B00088438280EFE2BFE641112AC6253F3245CB
:1015C000005DA1371335140041016FE09FE7304102
:1015D00015C2EFE2DFE458451445AA87329758C593
:1015E0006364D700184158C52E85CC47EF1020788A
:1015F0006FE03FE58280EFE29FE22A84E53D83448D
:10160000540413094402E204E18463459002FD5747
:10161000A302F404DD3DF93D8344440413090401AD
:10162000E204E18463449002FD572302F404F13D97
:101630006FE03FE15C50E1DF4A85EF00305219C1B5
:10164000EF00F06CFD14E204E184C1B71C48E9DF4F
:101650004A85EF00B05019C1EF00706BFD14E20431
:10166000E184C9B7EFE2BFDB41111DE189679387D0
:101670000780739007303746000037450000130697
:10168000C6169305001113050512EF10607901A02D
:101690005C5D2EC62A84BDC33841B3B7E702B9EFFB
:1016A000913D3040585C1440232C0402B307E602FD
:1016B000B24554C03387F600918FB6975CC4FD578E
:1016C0002302F40418C4A302F40495E11C4899CB46
:1016D00013050401EF00904811C5B7E700E011675A
:1016E00023A0E7201D35054541016FE09FD5130577
:1016F0000401A93D13054402913DEDB78967938725
:101700000780739007303746000037450000130606
:10171000C6169305501413050512EF10607001A052
:10172000EFE2FFCF411121C1B3B7A502AA8485EF33
:101730003305B502930770FB63E7A7021305850421
:101740002EC6053C2A8401CDB245AA8799C19307CC
:1017500085042CC01CC044DC8545228521372285A8
:1017600041016FE01FCE8967938707807390073030
:1017700037460000374500001306C6169305601C67
:1017800013050512EF10C06901A0EFE2DFC60111D9
:1017900032C61DE18967938707807390073037460B
:1017A0000000374500001306C616930510551305B3
:1017B0000512EF10E06601A02A84AE898DE53C4158
:1017C0009DC3896793870780739007303746000071
:1017D000374500001306C61693055055130505122C
:1017E000EF10006401A0EF00505315E5B247014926
:1017F00085C7896793870780739007303746000055
:10180000374500001306C6169305A05513050512AB
:10181000EF10006101A001497D5A930A440237EBA1
:1018200000E0916B9DA0B24781E7C531014561A001
:10183000631509002808EF003041C139152B5D39C7
:1018400083474404E207E1876394470123020404C9
:1018500083475404E207E18763944701A302040429
:101860006D316C002808EF00903F29ED22859933F7
:1018700031C5B2455685EF0090222285AD3BEF0081
:10188000606B19E123207B210549AD31045CC1DC8B
:10189000CE852285FD14253B04DC1C4899CB13051D
:1018A0000401EF00B02B11C5B7E700E0116723A0DA
:1018B000E720A139054505616FE07FB72285253B0B
:1018C000952DD9B72285053BB5252285E5314DDD1E
:1018D000B1BF15E5EFE2BFB48967938707807390C6
:1018E0000730374600008565374500001306C616E9
:1018F000938585AC13050512EF10805201A09DCD94
:10190000371600209306865F814701471306865FDE
:10191000214883A846006398A80093173700B29720
:101920008CC3C8C321A891E783A80600639308006D
:10193000B6870507A106E31E07FDFDF38280EFE2EF
:101940001FAE41112A842EC632C46D36834744042B
:101950007D572246E207E187B2456394E700230200
:101960000404834754047D57E207E1876394E7004A
:10197000A302040432C62EC4493E1C5CA245324672
:1019800089E713054402EF0010162285AD314101AD
:101990006FE03FAB370700201307870F1C439443CA
:1019A000B70700209387871181E67D5798C382800F
:1019B000184358471843DDBFEFE2DFA4B704002007
:1019C000B70700201389440F83A987122A840325AF
:1019D000090041112EC61105753E7D579387440FAE
:1019E000B2456311E4049DCDB7170020938747717A
:1019F00083260900D84398C6104783260900D0C61D
:101A0000832609001047910654C2832609009106D7
:101A100014C7032709005CCB9843050798C341010D
:101A20006FE09FA198434E9440C3637A3401370717
:101A300000200325C70F8C4391053536CDB73707F6
:101A400000200325870F8C439105313EB707002006
:101A5000938787119843E374E4FC80C3C9B7EFE22E
:101A60007F9A37140020B709002013048472370AC4
:101A70000020B71A0020938449109C4089EF938777
:101A80008A6398438547E3F8E7FEB7E700E011670C
:101A900023A0E720CDB7EFF0FFA55C4403A9C70062
:101AA00013054900EFF01FAF13070A101C43FD1781
:101AB0001CC39C40FD179CC0EFF03FA50325090304
:101AC000EFF07F844A85EFF01F8475B7EFE2BF9295
:101AD000931426002A8B26852E8AB68B3A89BE8AD5
:101AE000EFF02FE905CDAA8913054005EFF06FE867
:101AF0002A8415C12328350326864E859305500A6E
:101B0000EFE0FF94814783290403C146631A0A006A
:101B1000230A040225A04E85EFF0EFFE7D555DA25D
:101B20003307FA00030707003306F400230AE6022E
:101B300001C78507E396D7FEA30104049D4763F41C
:101B40002703896793870780739007303746000023
:101B50003745000013060618930570391305051262
:101B6000EF10002C01A0130A440023262403232293
:101B70002405528523240404EFF09F9E130584015D
:101B8000EFF01F9EA147F11433892741CE9400C87E
:101B9000232C240140D023060404A30604042307B5
:101BA0000404A3070404230804045E86DA8513F5FD
:101BB00004FFEFE0EFF408C063840A0023A08A006A
:101BC000EFF05F93B7070020938707109843B7049F
:101BD0000020B7190020050798C31387440F184346
:101BE0009384440F138989636310070E80C0984360
:101BF00085476316F70693898963930A090A4E8518
:101C0000D109EFF0BF94E39C3AFF37150020930A07
:101C1000856D1305856DEFF07F93371500209309CF
:101C2000C56E1305C56EEFF07F92371500201305C2
:101C30000570EFF0BF913715002013058572EFF0A6
:101C4000FF903715002013054571EFF03F90B7075F
:101C5000002023AC570FB707002023AE370FB7077C
:101C600000209387C7109843050798C337070020C3
:101C7000130707115C54144363F3F6001CC3514768
:101C8000B387E702CA97D843144718C454C414470B
:101C900023A246012324470198435CC8050798C343
:101CA000EFF0BF86B707002083A74712054599CB01
:101CB0009C40D8575C546377F700B7E700E01167A2
:101CC00023A0E7206FE0AFF6B707002083A74712F5
:101CD000D9F79C40D8575C54E3E3E7F880C041B79C
:101CE000EFE2EFF3B7070020B7450000372500000B
:101CF00093874711014781461306000893854519CC
:101D00001305E5A5E1330544631E8502EF00902E1F
:101D1000631A850289679387078073900730B70736
:101D200000207D5723ACE710B707002023A2A7129D
:101D3000B707002023A40712EFF02FEB83A7C18081
:101D40006FE02FF0FD57E31BF5FE8967938707804F
:101D5000739007303746000085653745000013064D
:101D600006189385058413050512EF10600B01A07A
:101D7000B7070020938787109843050798C3828090
:101D8000B707002003A587128280B707002083A72A
:101D9000871063980718EFE28FE8B7070020938752
:101DA00087128043050480C339E8B7070020938772
:101DB000870F9843184305C78967938707807390F7
:101DC00007303746000085653745000013060618C2
:101DD000938575AC13050512EF10800401A0370739
:101DE00000201307C70F9443104390C3B707002088
:101DF00014C39387C7119843050798C3613E3706FC
:101E00000020930786119C4337170020B705002058
:101E100013068611130787639385450F0145637584
:101E2000F4029C41D146DC57B387D7023E97184352
:101E3000854763F3E7000545B707002083A7C7126E
:101E400091C305456FE0EFDF370E0020B70E00208D
:101E5000514F93078E0F9443944281E6FD571CC265
:101E6000C9B79C43DC47DC47D4436374D40014C235
:101E70004DBF83A8870003A8C700D44B1383470036
:101E800023A408012322180183A846006394680054
:101E900023A2060103A8060023AA07007D1823A099
:101EA0000601945795CA03A8C70183A8070283AF08
:101EB00046002324180183A8070223A208011388DF
:101EC000870163940F0123A2160103A8060023A42F
:101ED00007027D1823A0060193860E1103A8C702EE
:101EE00083A8060063F4080123A00601B306E803F3
:101EF000BA9683A8460083AF880023A4170123A6BF
:101F0000F70183AF880023A26F0023A46800D4CB1D
:101F10009C4285079CC29C41DC57E36CF8F2054566
:101F20000DBFB707002093870712984301450507A7
:101F300098C38280EFE20FCD370400201304841091
:101F40001C40411185E789679387078073900730AC
:101F5000374600008565374500001306061893854F
:101F6000358B13050512EF00B06B01A0EFF08FD891
:101F70001C40FD171CC01C4089CB01452AC6EFF050
:101F8000CFD8324541016FE02FCBB707002083A7A0
:101F90000710E5D7B7160020371500208147938634
:101FA0000670370F002013058563D14837030020E2
:101FB000370E0020854E59A8DC46DC47CC4F9053A5
:101FC000985790C503A807022322B80003284700AA
:101FD000938587016313B80050C3104323A40702FD
:101FE0007D1610C38C47D047D84B1388470090C547
:101FF0004CC24C436393050150C3104323AA07000E
:102000007D1610C313070F11D0570C4363F3C5009F
:1020100010C3330716032A974C4383AF85008CC740
:1020200023A6F70183AF850023A20F0123A4050196
:102030000C43D8CB85050CC31307430F18435857DF
:102040006366E6001307CE122320D70198422DF7CE
:1020500099C3EFF03F94B70700201387071204439A
:102060001384071291CC370900208549393B09C5F3
:102070009307C91223A03701FD14EDF823200400B3
:10208000B707002083A7C712E38907EEB7E700E090
:10209000116723A0E7200545D5B5EFE24FB8411100
:1020A0001DE18967938707807390073037460000EA
:1020B00037450000130606189305104F1305051247
:1020C000EF00105601A09DE1896793870780739008
:1020D0000730374600003745000013060618930501
:1020E000204F13050512EF00B05301A0B7070020E1
:1020F00083A787109DC389679387078073900730F4
:102100003746000037450000130606189305304F88
:1021100013050512EF00D05001A02A842EC689397C
:102120001840B245B707002003A58712B307B700D0
:102130001CC06370E50263E0E7020144E53B11E582
:10214000B7E700E0116723A0E720228541016FE097
:102150004FAF63E4E700E372F5FE81453385A740A6
:10216000EFF09F850544D9BF19E5B7E700E0116797
:1021700023A0E7208280EFE28FAAB707002083A781
:10218000871041119DC3896793870780739007303B
:102190003746000037450000130606189305905493
:1021A00013050512EF00D04701A02AC6EFF05FBC6F
:1021B00032458145EFF05F80B53B11E5B7E700E0C0
:1021C000116723A0E72041016FE0AFA7B707002008
:1021D00003A78710B70700209387C71201C70547D9
:1021E00098C38280EFE2AFA33704002023A007004A
:1021F0009307440F9C4337A7A5A51307575A9C5B29
:102200001304440F9043631BE600D4436398C60055
:1022100098476315D700DC476388E70008400C4007
:1022200093854503EF000078B70700201387071157
:10223000184313860711B717002093878763514807
:10224000B3060703B385D700884105C5C841A10679
:10225000BE964841C8C16314D5005441D4C1D1468B
:10226000B306D702B697DC43DC471CC018C26FE048
:102270004F9D05E78967938707807390073037463E
:10228000000085653745000013060618938525C0B4
:1022900013050512EF00D03801A07D1755B7EFE206
:1022A0000F9805E589679387078073900730374655
:1022B0000000856537450000130606189385C5C1E3
:1022C00013050512EF00D03501A0B70700202E84BA
:1022D00083A5470FE105EFF00FA985452285EFF0B3
:1022E000AFED6FE00F96EFE28F932A8705E58967E0
:1022F0009387078073900730374600008565374520
:10230000000013060618938525C513050512EF0076
:10231000303101A0B70700209387470F54432E8523
:102320008C4303A88600D4CD8C4323A0050303A8C7
:1023300007008C46610823A2050103A807009C43FF
:10234000610823A4060198D71C4385071CC311C24A
:102350007D55B285EFF04FE66FE0AF8E5C45DC4710
:1023600095E7EFE2CF8B89679387078073900730FB
:10237000374600008565374500001306061893852B
:1023800025C813050512EF00B02901A0D04F9453C2
:1023900098579385870114C6D0C250436313B60083
:1023A00054C3144323A40702FD1614C337070020A7
:1023B00003278710D45725EF8C47D047D84B90C5BB
:1023C000D04748434CC2938547006313B50050C3C0
:1023D000104323AA07007D1610C3370700201307F8
:1023E000071110436373D60014C351473386E602C6
:1023F000371700201307876332975043084690C76A
:10240000C8C708464CC10CC6D8CB1C43014585073C
:102410001CC3B707002083A7470FDC5763F8D7001A
:10242000B7070020054723A6E71205458280371726
:1024300000201307077050430846D0CF88D30846C2
:102440004CC10CC698D7D1B7B707002083A7C711D6
:102450001CC1B707002083A787125CC18280EFD21E
:102460001FFC411105E5896793870780739007304A
:10247000374600008565374500001306061893852A
:10248000D5CF13050512EF00B01901A085E58967C6
:10249000938707807390073037460000856537457E
:1024A0000000130606189385E5CF13050512EF000B
:1024B000301701A02EC62AC4EFF0CF83B245B7076C
:1024C000002083A687129C417D5701446381E70267
:1024D0002245370600200326C6110328050058416F
:1024E000630DC80063EBE60023A005000544EFF090
:1024F000CF81228541016FD0DFF43386E640E3755A
:10250000F6FE958FBA979CC181370144CDB7B707C6
:102510000020054723A6E7128280B707002083A783
:102520004712054581CBB707002003A58710133557
:10253000150006058280EFD29FEE37040020EFE001
:102540007FFB1304C4131C40B1E7371500201309A7
:10255000C5731305C573EFE07FFF371500209304A3
:10256000057513050575EFE07FFEB707002023A86A
:1025700027130146B7070020B145094523AA971242
:10258000EFF00F9A08C019C5B74500009385051CE8
:10259000EFF02FB4EFE07FF76FD0BFEAEFD23FE864
:1025A0004CC108C9AA876362B602184D158E05454D
:1025B000637BE60093854700B707002003A5471318
:1025C000EFE07FFA01456FD0DFE76375D600054580
:1025D000E3FBD5FE93854700B707002003A507134B
:1025E000C5B7EFD2DFE32A84AE8432890C4CA686CD
:1025F0004A86A69522855D3719E16FD09FE41C4C71
:102600002285BE941C508297D5B7EFD25FE1B70701
:10261000002083A707134111AA84DC472EC6C047B8
:1026200013054400EFE01FF783474402324613F7D7
:10263000470011CBA68522856D371C5022858297D5
:1026400041016FD01FE0F99B2302F402FDB7EFD2E6
:102650001FDD370400209306041398421C4391EBBE
:10266000B707002093874713904398C390C26FD059
:102670005FDD5C47FD558843493FF1BFEFD2BFD7CF
:1026800011694111B70A0020B7090020370B00205B
:10269000B70B00201309C91983A70A13984329CB44
:1026A000DC47814C03AC0700EFF08FECEFF04FED0F
:1026B00083A789132A8493848913130ACB13636C29
:1026C000F50288C0638F0C0283A74B139043133627
:1026D000160003250A00B3058C40EFF04FA6EFF07B
:1026E0007F8511EDB7E700E0116723A0E72001A87F
:1026F000854C014C55BFA13F80C0EFF0BF83214CFA
:10270000A9A00146E36785FDEFF0DF82A28562851F
:10271000ED3DF5B7834744020C4CA24693E7170002
:102720002302F4026686B69522858D3D19CD834736
:10273000440213F7470021CF1C4CA2456686228530
:10274000BE9545351C502285829703250A00014617
:102750004C00EFF08F8329D19247E3C807FE324443
:102760005C4889C713054400EFE0DFE2EFF04FE17A
:102770009C40AA8C6373F500D93D924723A0940135
:10278000FD17E364FCFC8A07CA979C438287F99B88
:102790002302F40245BF83474402F99B2302F4025B
:1027A0006DB783474402A24593E717002302F40262
:1027B0000CCC95E189679387078073900730374683
:1027C0000000374500001306861C9305903513055D
:1027D0000512B92501A0E6866686E69522857D3B31
:1027E000ADB78347440213F7270045FB2285EFE08E
:1027F0009FB1A1BFEFD2BFC23D3BB707002083A767
:10280000C71395E38967938707807390073037462E
:102810000000374500001306861C93059011130530
:102820000512FD2B01A0B7070020B7450000372592
:102830000000938707141D478146130600089385FF
:10284000051E1305C567EFF06FA84DDD6FD07FBF84
:10285000B707002083A7070937177A001307072057
:10286000B3D7E7023707002093F7F70F2303F714D6
:102870001307803EB387E702370700202312F714BF
:102880008280EFD2DFB92A841165011185451105D7
:10289000EFE00FF1930700207C82371501408D4750
:1028A0003EC44C00E147130505803EC6EFE0CFC9AA
:1028B00022C837440140B70708000C0813050480FC
:1028C0003ECC02CA231E0100EFE04FF185451305FF
:1028D0000480EFE00FFB05616FD0BFB6EFD29FB26F
:1028E000B7440140AE893289014493840480634532
:1028F00024014A856FD05FB4930500042685EFE07C
:102900002FFA7DD9B38789008385070026850504C2
:10291000C205C181EFE04FF8D9BF138701811C4385
:10292000B7160020938686763E95636BD500B75622
:1029300000209386068063E5A60008C33E8582805A
:10294000FD57EDBFEFD2BFAD0545EFE06FD1EFE032
:10295000CF98FD3D7165130505202537B707002089
:1029600083A50709374500001305851E5529EFE0AB
:102970000FBDAA85374500001305851F5521B745B2
:10298000000037450000938585201305052149295E
:10299000EFD05FDDEFF0CFB437450000130505231E
:1029A000512B01A0EFD2BFA73745000013058527A3
:1029B00085299307800873B007800F10000001A0DD
:1029C000EFD2FFA53745000013050525A523930782
:1029D000800873B007800F10000001A0B687B2888E
:1029E0002A832E88639B061463F8C50A4167636BCC
:1029F000E61AB70700016360F63493568601E14793
:102A0000172700001307478A36971823BA9713072A
:102A100000021D8F19CB3398E500B357F500B318AA
:102A2000E60033E807013313E50013D608013355F8
:102A3000C80293960801C182935703013377C802F5
:102A4000B385A60242073368F700637AB800469858
:102A50009307F5FF636418016365B8303E8533085A
:102A6000B8403357C8024203135303013378C802F6
:102A7000B386E602420833686800637BD800469854
:102A80009307F7FF6365180179176363D8003E87E2
:102A90004205598D8145828001E60547B358C7023A
:102AA000416763E8E80EB707000163EAF82893D6A8
:102AB0008801E147171700001307077F3697142393
:102AC000BE9693070002958FFDE7939E080133871A
:102AD000154113DF080193DE0E018545935703016D
:102AE0003355E7033377E703B306D5034207D98F9E
:102AF00063FAD700C6971307F5FF63E4170163E590
:102B0000D7263A85958F33D7E70342031353030142
:102B1000B3F7E703B30ED703C207B3E7670063FB5E
:102B2000D701C6979306F7FF63E51701791763E3AB
:102B3000D70136874205598D828063E1D504C1678C
:102B400063E1F604B707000163E3F61E13D78601BD
:102B500061489717000093872775BA979823130E3B
:102B600000024297330EEE40631A0E0C63EDB61C62
:102B70003335C500134515008145828081450145E7
:102B800082809307F00F63F3D71C13D78600214888
:102B9000C9B71307F00FC686E37E17F193D68800F6
:102BA000A14709BF1307F00FB286E37BC7E4935632
:102BB0008600A147B1B5B398F80033D6D50013DF2E
:102BC0000801335EE6033397F500B356D500558F01
:102BD000939E080193DE0E013313F5009355070110
:102BE000B376E603B387CE03C206CD8E63FBF60051
:102BF000C6961306FEFF63E4161763F2F616791EF7
:102C0000C6969D8E33D6E60393170701C183B3F6AC
:102C1000E6033385CE02139706015D8F637BA70021
:102C200046979307F6FF636817136376A712791622
:102C3000469793150E01098FD18D4DB5B357E60018
:102C4000B396C601DD8E33D3E50013DF0601B3571B
:102C5000E303939E060193DE0E013398C5013357BB
:102C6000E50033680701935808013316C601337332
:102C7000E303B385FE024203B368130163FBB800AC
:102C8000B6981387F7FF63EAD80C63F8B80CF91706
:102C9000B698B388B84033D7E80342081358080100
:102CA000B3F8E8033383EE02C208B3E5080163FB1F
:102CB0006500B6951308F7FF63EDD50863FB65085B
:102CC0007917B695C207416FD98F1307FFFFB3F687
:102CD000E70093D80701718F4182B38EE602B38576
:102CE0006540B386C60213D80E013387E802BA9650
:102CF000C2963386C80263F3E6007A9693D806013B
:102D0000469663E2C5026385C5003E8581458280A3
:102D100041677D17F98EC206B3FEEE003315C5017B
:102D2000F696E374D5FE1385F7FF8145828013D7AD
:102D30000601414839BD93560601C147D1B193D62A
:102D40000801C14785BB814505458280368701481A
:102D500009B5428785BF3E86E9BDBA871DBF328E61
:102D60004DB579154698E5B97915C69761BBB3C7D6
:102D7000A5008D8B3307C50081E78D4763EDC70044
:102D8000AA87637EE508942185078505A38FD7FE72
:102D9000E3EBE7FE828093763500AA8789CA942107
:102DA00085078505A38FD7FE93F63700C5BF9376B9
:102DB000C7FF138606FE63F0C70683A3050083A240
:102DC000450083AF850003AFC50083AE050103AEA8
:102DD000450103A3850183A8C5019385450223A06E
:102DE000770003A8C5FF23A2570023A4F70123A659
:102DF000E70123A8D70123AAC70123AC670023AEAC
:102E000017019387470223AE07FF75B790419107DB
:102E1000910523AEC7FEE3EBD7FEE3E6E7F682803B
:102E200039713EDA2ED232D436D63AD842DC46DE7A
:102E30009387418122CC804326CA06CEAA8409C446
:102E40001C4C99E32285ED290C44541026862285DA
:102E500036C6EF00F013F2406244D2442161828012
:102E6000011126CA4AC806CE22CC4EC652C4AA8434
:102E70002E8901C51C4D91E3E1219C4C804499E3CE
:102E800026857D299717000093870754631BF4025A
:102E9000C0405E24A18BB1C71C48A1C7FD59294A77
:102EA0001C4483450900FD17B1E91CC463DD070616
:102EB0002286A94526856120FD576308F50229452C
:102EC00035A097170000938727526314F4008044BD
:102ED000C9B7971700009387274DE31CF4FAC04445
:102EE0004DBFA2852685112A55D97D55F2406244F1
:102EF000D2444249B249224A056182801CC4050974
:102F000063D70700184C63CAE700638845011C407B
:102F10001387170018C08CA361B722862685052069
:102F2000E31035F9D9B71C401387170018C029479B
:102F300098A371B793874181AA85884315B701117A
:102F400022CC26CA4AC806CE4EC6AA842E8932840E
:102F500001C51C4D91E3ED26971700009387C746E6
:102F60006317F406C0401C4C1CC45E24A18BC1C373
:102F70001C48B5CF1C4808409379F90F1379F90F15
:102F80001D8D5C486346F500A2852685692C25E5E4
:102F90001C440505FD171CC41C401387170018C0EE
:102FA000238037015C486388A7005E24858B81CB32
:102FB000A9476316F900A2852685B5240DEDF240D8
:102FC00062444A85D2444249B249056182809717DA
:102FD0000000938767416314F400804469B7971732
:102FE00000009387673CE310F4F8C044ADBFA285AE
:102FF0002685212041D17D59D9B74111938741813F
:1030000026C2844322C44AC006C62A892E8489C4A3
:103010009C4C99E326852D26971700009387C73A85
:10302000631BF402C0400317C40093170701C18358
:1030300093F68700ADEA93F6070195EEA5472320A6
:10304000F900136707045AA47D55B2402244924404
:10305000024941018280971700009387E738631483
:10306000F4008044C9B7971700009387E733E31C47
:10307000F4FAC0444DBF918B9DC34C5889C9930746
:1030800044046384F5004A853123232A04025E2424
:103090002322040093F7B7FD5EA41C481CC05E24E5
:1030A00093E787005EA41C4899EB5E241307002079
:1030B00093F707286385E700A2854A85A1215E244E
:1030C00013F717001DC35C4823240400B307F04026
:1030D0001CCC1C480145B5FB8317C40013F7070837
:1030E0002DD793E707045EA485B7898B014791E349
:1030F000584818C4F9BFDE25011122CC26CA06CED5
:103100004AC84EC613F78700AA842E8479EBD841AB
:10311000634DE000B841634AE0000145F24062447B
:10312000D2444249B2490561828058547DD703A9EF
:1031300004009396370123A0040063DB0606704861
:103140005E24918B99C75C401D8E5C5899C33C40AE
:103150001D8E5C540C50814626858297FD575A245B
:10316000631DF5009440F54763E8D706B707402094
:103170008507B3D7D700858BA5C31C48232204003D
:103180001CC09317370163D80700FD576314F5007F
:103190009C4091E368C84C5823A02401BDDD9307EF
:1031A00044046384F5002685F526232A0402B5B776
:1031B0000C500146854626850297FD572A86E31165
:1031C000F5F89C40B5DF75476385E7005947639381
:1031D000E70423A0240191B7136707045AA47D557F
:1031E00035BF83A90501E38A09F203A905008D8B88
:1031F00023A0350133093941014791E3D84918C467
:10320000E35D20F11C540C50CA864E8626858297B9
:103210006347A0005E2493E707045EA4C9B7AA9998
:103220003309A940F1BF9C49B9CF011122CC06CE88
:103230002A8411C51C4D81E72EC61922B245971765
:10324000000093876718639BF5004C408397C50087
:1032500095C722856244F240056171BD9717000051
:10326000938787186394F5000C44CDB79717000037
:1032700093878713E39CF5FC4C44C9BFF24062443A
:1032800001450561828001458280411122C406C644
:103290002A844EA572A5232005002322050023249D
:1032A00005002322050623280500232A0500232CD8
:1032B0000500214681451305C505EFD04F999717A5
:1032C0000000938787B35CD0971700009387A7B55A
:1032D0001CD497170000938787B95CD49717000018
:1032E0009387E7BB00D01CD8B240224441018280C2
:1032F00097050000938565F3A9A2411126C2130624
:1033000080069384F5FFB384C4024AC02E8922C488
:1033100006C6938544073D262A8401CD2320050057
:1033200023222501310508C4138684068145EFD088
:103330000F922285B2402244924402494101828088
:103340001C4DADE3411106C622C4970700009387C8
:1033500067FA1CD59387C1819C4323240504232647
:103360000504232805046314F50085471CCD2A8431
:103370001D2848C02285052808C422852D2048C460
:10338000484001469145113708440546A545F53D9D
:1033900048440946C945D53D85471CCCB240224426
:1033A00041018280828041119387C18126C284437A
:1033B0004AC006C69C4C22C42A8999E3268549370F
:1033C000938484048044DC40FD1763D607009C404E
:1033D000B9CF8440C5BF0317C40039E7C17785075B
:1033E00023220406232004002322040023240400B3
:1033F0005CC423280400232A0400232C0400214653
:1034000081451305C405EFD08F84232A0402232CA1
:10341000040223240404232604042285B240224407
:1034200092440249410182801304840671BF914590
:103430004A85E13588C051FDB1472320F900014498
:10344000E9BF797122D44AD052CC56CA5AC85EC656
:1034500006D626D24ECE2A8AAE8A130485040149A6
:10346000054BFD5B09ECB25022544A859254025937
:10347000F249624AD24A424BB24B456182800444CF
:1034800083294400FD1963D409000040E1BFDE2414
:10349000637BFB008397E40063877701A6855285F1
:1034A000829A3369A90093848406E9BF1971A6DA68
:1034B000AE848395E500A2DC86DE328463DB050002
:1034C000DE2423A0060093F7070885E79307004052
:1034D0001DA0300836C6EF001023B246E34205FEB9
:1034E0007247BD67F98F7977BA9793B717009CC277
:1034F000F1BF930700041CC0F6506654D654014532
:1035000009618280DE25011122CC06CE26CA4AC876
:10351000898B2E8489CF930774041CC01CC88547EF
:103520005CC8F2406244D244424905618280740022
:103530003000AA84A53FA2452A892685212219E9BF
:103540008317C40013F7072069FFF19B93E7270057
:103550005EA4D1B7970700009387C7D99CD45E2497
:1035600008C008C893E707085EA4A2475CC8B24732
:1035700081CF8315E4002685EF00101C11C55E2461
:10358000F19B93E717005EA45E243369F9002316CC
:10359000240141BFDDC583A7C5FF411122C406C672
:1035A00026C21384C5FF63D307003E94AA84EF00AC
:1035B000702097D7FF1F938767B99C4391EF232211
:1035C000040097D7FF1F23A387B82244B240268563
:1035D000924441016F00301E637EF40014403307B3
:1035E000D4006396E7009843DC43369718C05CC06C
:1035F000C9BFBA87D84319C3E37DE4FE9443338639
:10360000D700631F86001040B29694C33386D7005C
:10361000E31DC7FA10435843B29694C3D8C375B795
:103620006375C400B1479CC04DB71040B306C400D9
:103630006316D70014435843B29614C058C0C0C391
:1036400069B78280011126CA93843500F19806CEAD
:1036500022CC4AC84EC6A104B14763F9F404B14470
:1036600063E8B4042A89EF00F01497D7FF1F93870B
:10367000E7AD98433A8439E497D7FF1F938747AD66
:103680009C4381EB81454A85352F97D7FF1F23A1A6
:10369000A7ACA6854A853D27FD59631B3507B14771
:1036A0002320F9004A85EF00101129A0E3DA04FA7B
:1036B000B1471CC10145F2406244D2444249B2497B
:1036C000056182801C40858F63C10704AD4663F6A7
:1036D000F6001CC03E9404C001A85C40631587023C
:1036E00017D7FF1F2324F7A64A85EF00D00C130538
:1036F000B4009307440061993307F5404DDF3A94D5
:10370000898F1CC04DBF5CC3C5B722874040A5B799
:10371000130435007198E30085FCB305A4404A8585
:103720005525E31A35FBA5BF1C46FD171CC663DAF9
:103730000700184E63C5E700A9476394F5006FF0D2
:103740001F801C422E851387170018C28CA382800D
:10375000011122CC26CA4AC84EC652C406CE2A89B6
:10376000AE893284B304D6007D5A631494000145B7
:1037700001A80C204E864A85453F0504E31745FF06
:10378000F2406244D2444249B249224A05618280F1
:10379000357122CD26CB4AC94EC706CF52C556C376
:1037A0005AC1DEDEE2DCE6DAAA89AE8432893684EA
:1037B00009C51C4D99E3EFF0BFB897170000938738
:1037C000A7C06397F40C83A44900DE24A18BFDC33A
:1037D0009C48EDC393070002A304F1029307000382
:1037E00002D22305F10222C6930B5002971A000061
:1037F000938A8AC1054C294B4A841C2099C3639E35
:10380000770DB30C2441638D0C00E6864A86A685AD
:103810004E853D3FFD57630FF51C9256E69636D216
:103820001C206389071CFD571309140002C802CE2F
:103830003ECA02CCA309010482D48345090015467F
:103840005685A92F13041900C24751E913F7070140
:1038500009C713070002A309E10413F7870009C78A
:103860001307B002A309E104834609001307A0026D
:10387000638FE606F2474A84814625461820930561
:103880001400130707FD6377E60AB5CA3ECE85A884
:1038900097170000938747B56395F40083A48900C8
:1038A0002DB797170000938727B0E390F4F283A415
:1038B000C90021BFA6854E85EFF02FF401DD7D55AF
:1038C000FA406A44DA444A49BA492A4A9A4A0A4BAF
:1038D000F65B665CD65C0D618280050439BF3305FA
:1038E00055413315AC00C98F3EC82289B9B732475C
:1038F00093064700184336C6634707023ACE18209E
:103900009307E002631DF70418309307A002631BBE
:10391000F702B2470904138747009C433AC663C1C4
:1039200007023ECA2DA83307E04093E727003ACEAE
:103930003EC8F1B7B387670385462E84BA973DBF6B
:10394000FD57C5B7050402CA8146814725461820A0
:1039500093051400130707FD6374E606F9F20C20C3
:103960000D46171500001305A5AA0D2D11CD9717AB
:1039700000009387E7A91D8D93070004B397A70064
:10398000424505045D8D2AC80C2019461715000014
:10399000130545A8130914002304B102012535C1FC
:1039A00097C7FFFF9387076695E74247B2471377AC
:1039B000071009CF91073EC69257D2973ED22DBD30
:1039C000B387670385462E84BA9751B79D07E19B5D
:1039D000A107D5B77800970600009386A6D726865C
:1039E0000C084E8597000000E7000000FD572A8A6A
:1039F000E314F5FCDE2493F70704E39207EC125579
:103A0000C1B57800970600009386C6D426860C08B8
:103A10004E85012AE1BF797156CA9C49BA8A9845F8
:103A200022D426D24ECE52CC06D64AD05AC85EC632
:103A3000AA892E84B284368A63D3E700BA879CC0F1
:103A40000347340419C385079CC01C4093F7070241
:103A500081C79C4089079CC0032904001379690031
:103A6000631A0900130B9401FD5B5C449840998F25
:103A7000634CF9041C408346340493F70702B336C1
:103A8000D000A5EB13063404D2854E85829AFD57EB
:103A90006303F5041C4011469840998B54448144BB
:103AA0006397C700B384E64063D3040081441C4499
:103AB00018486354F700998FBE94014969047D5BEF
:103AC00063982405014509A885465A86D2854E8506
:103AD000829A631E75017D55B25022549254025948
:103AE000F249624AD24A424BB24B45618280050993
:103AF000ADBF3307D40013060003A301C704034777
:103B0000540493871600A2978906A381E7049DBFFA
:103B100085462286D2854E85829AE30E65FB05098D
:103B200045B7797122D426D24AD04ECE06D652CC91
:103B300056CA5AC8B689942D930790063289AA842A
:103B40002E8413863504638DF60263E2D70693074D
:103B500080056386F61863EDD700638E0620930711
:103B60003004638EF60A930A24042301D404C9A006
:103B7000930730066385F60A93074006E395F6FE41
:103B80001C40084393F6070893054500C5C61C4131
:103B90000CC363D807001307D002B307F040A3019A
:103BA000E4049716000093866687294765A8930763
:103BB00000076382F61663E5D7029307E006638980
:103BC000F6189307F006E390F6FA0C401C4313F83E
:103BD0000508138547006307080608C39C4385A8AA
:103BE00093075007E383F6FE930780076389F61275
:103BF00093073007E399F6F61C43D041814593863D
:103C0000470014C383AA07005685492E01C5330512
:103C1000554148C05C401CC8A301040461A81C4372
:103C2000930A2404938647009C4314C32301F4049D
:103C30008547D5B793F607041C410CC3B9DAC20710
:103C4000C18781BF93F5050408C3C9D99E23130713
:103C5000F0066387E60E970600009386267C2947C8
:103C6000A30104044C400CC463C5050008406D99D1
:103C700008C099E3B28A89CDB28AB3F5E702FD1A8A
:103C8000B6958C212380BA00B3D5E70263F0E70C28
:103C9000A147631EF7001C40858B91CB58401C4800
:103CA00063C7E70093070003A38FFAFEFD1A3306EC
:103CB000564110C84E87CA867000A2852685EFF04F
:103CC0009FD57D5A631D450B7D55B25022549254A9
:103CD0000259F249624AD24A424B45618280A3822C
:103CE000D50497060000938666730C40084313F8CA
:103CF00005081C411105630D080208C313F71500E0
:103D000001C793E505020CC04147B9FB0C4093F590
:103D1000F5FD0CC0B1B79C4193E707029CC1930726
:103D20008007A302F404970600009386667075BFAF
:103D300013F8050408C3E30308FCC207C1837DBF71
:103D4000970600009386866D214719BFAE8735B769
:103D500094411C43CC4913F80608138547006306B9
:103D6000080008C39C438CC339A008C393F606041B
:103D70009C43F5DA8EA323280400B28A25BF144899
:103D80005686CA8526858299E30045F51C40898BB5
:103D90008DE7B2474844E35AF5F23E853DB7854684
:103DA0005686CA8526858299E30065F3050A5C4438
:103DB0003247998FE345FAFEE9BF014A930A94011D
:103DC0007D5BF5B7411122C42A842E8597E7FF1F3A
:103DD00023AC079806C6EFE05FB4FD576319F50002
:103DE00097E7FF1F938747989C4391C31CC0B2403D
:103DF000224441018280411122C42E848395E50032
:103E000006C65D2A634905007C48AA977CC8B24073
:103E10002244410182805E247D777D17F98F5EA464
:103E2000FDB7DE25011122CC26CA4AC84EC606CEF1
:103E300093F70710AA842E843289B68991C7839597
:103E4000E500894601460D225E247D777D17F98FB6
:103E50005EA48315E4006244F240CE864A86B249ED
:103E600042492685D244056125A8411122C42E84E9
:103E70008395E50006C6CD28FD575A24631AF50040
:103E8000FD77FD17F98F5EA4B24022444101828084
:103E90008567D98F5EA468C8C5BF8395E50025A84E
:103EA000411122C42A842E85B285368697E7FF1FEA
:103EB00023AC078A06C6EFE07FA2FD576319F50021
:103EC00097E7FF1F9387478A9C4391C31CC0B2406A
:103ED000224441018280411122C42A842E8597E721
:103EE000FF1F23A3078806C61122FD576319F5009B
:103EF00097E7FF1F938747879C4391C31CC0B2403D
:103F0000224441018280411122C42A842E85B28537
:103F100097E7FF1F23AA078406C6CD20FD57631924
:103F2000F50097E7FF1F938727849C4391C31CC02C
:103F3000B240224441018280411122C42A842E854C
:103F400097E7FF1F23A2078206C6C920FD57631902
:103F5000F50097E7FF1F938727819C4391C31CC0FF
:103F6000B240224441018280411122C42A842E851C
:103F7000B285368697D7FF1F23A8077E06C6792805
:103F8000FD576319F50097D7FF1F9387E77D9C4383
:103F900091C31CC0B24022444101828093F5F50FC9
:103FA0002A966314C500014582801C21E38EB7FE6A
:103FB0000505C5BF82808280411122C42A842E85D6
:103FC000B285368697D7FF1F23A0077A06C6B92881
:103FD000FD576319F50097D7FF1F9387E7789C4338
:103FE00091C31CC0B24022444101828093078005E6
:103FF00017D7FF1F232AF7767D5582809307800508
:1040000017D7FF1F2322F7767D55828093078005FF
:1040100017D7FF1F232AF774014582809307800575
:1040200017D7FF1F2322F7747D55828093078005E1
:1040300017D7FF1F232AF7727D5582805777646751
:1040400000000000415353455254204641494C451D
:10405000443A206C696E652025642C2066696C6585
:104060002022257322202D3E207461736B20637201
:1040700065617465206661696C65643A2025730D1D
:104080000A000000546F7563684B657900000000FA
:104090004C4544005B494E464F5D204770696F2098
:1040A00053697A65282564290D0A00002E2E2F55A4
:1040B0007365722F496F2F4770696F4D616E61672D
:1040C00065722E6370700000415353455254204670
:1040D00041494C45443A206C696E652025642C208A
:1040E00066696C652022257322202D3E207265674B
:1040F000206D61782E0D0A002E2E2F4672656552B6
:10410000544F532F706F727461626C652F4D656DE3
:104110004D616E672F686561705F342E630000002B
:10412000657272206174206C696E65202564206F51
:10413000662066696C6520222573222E200D0A20D8
:10414000000000002E2E2F4672656552544F532FEB
:10415000706F727461626C652F4743432F524953ED
:10416000432D562F706F72742E6300002E2E2F4633
:1041700072656552544F532F71756575652E6300D6
:104180002E2E2F4672656552544F532F7461736BF8
:10419000732E630049444C450000000014270000C2
:1041A0001427000096270000A2270000E227000045
:1041B000142700001427000096270000A227000003
:1041C000546D7251000000002E2E2F46726565520C
:1041D000544F532F74696D6572732E630000000095
:1041E000546D72205376630053797374656D436C1C
:1041F0006B3A25640D0A00004368697049443A250A
:104200003038780D0A0000005631302E342E36003A
:104210004672656552544F53204B65726E656C2033
:1042200056657273696F6E3A25730D0A00000000BF
:104230005B4552524F525D207363686564756C65CF
:1042400072207374617274206661696C65640D001C
:10425000466174616C204572726F723A20467265D5
:104260006552544F53204D616C6C6F6320466169F9
:104270006C6564210D000000466174616C2045721C
:10428000726F723A20537461636B204F7665726669
:104290006C6F7720696E207461736B3A2025730D03
:1042A0000A000000000102020303030304040404E3
:1042B00004040404050505050505050505050505B2
:1042C0000505050506060606060606060606060692
:1042D000060606060606060606060606060606067E
:1042E0000606060607070707070707070707070762
:1042F000070707070707070707070707070707074E
:10430000070707070707070707070707070707073D
:10431000070707070707070707070707070707072D
:104320000707070708080808080808080808080811
:1043300008080808080808080808080808080808FD
:1043400008080808080808080808080808080808ED
:1043500008080808080808080808080808080808DD
:1043600008080808080808080808080808080808CD
:1043700008080808080808080808080808080808BD
:1043800008080808080808080808080808080808AD
:10439000080808080808080808080808080808089D
:1043A00008080808000000000000000000000000ED
:1043B00000000000000000000000000000000000FD
:1043C00000000000000000000000000000000000ED
:1043D00000000000000000000000000000000000DD
:1043E00000000000000000000000000000000000CD
:1043F00000000000000000000000000000000000BD
:1044000000000000232D302B20000000686C4C00C1
:1044100065666745464700003031323334353637FC
:1044200038394142434445460000000030313233C0
:1044300034353637383961626364656600000000E0
:104440000200000003000000100000000000000057
:104450000000000001020304060708090000000034
:10446000010203040102030406070809000000001A
:10447000C4430000E4430000A44300000000000027
:10448000000000000000000000000000000000002C
:10449000000000000000000000000000000000001C
:1044A000000000000000000000000000000000000C
:1044B00000000000000000000000000000000000FC
:1044C00000000000000000000000000000000000EC
:1044D00000D8B80502040608AAAAAAAA0700000084
:1044E000681700202C000020005000202C00002025
:00000001FF
