:040000006F009016E7
:100004000000000000000000D2070000D407000038
:10001400000000006609000000000000000000006D
:1000240066090000660900000000000000000000EE
:100034007211000000000000000100000000000038
:1000440066090000660900006609000066090000F0
:1000540066090000660900006609000066090000E0
:1000640066090000660900006609000066090000D0
:1000740066090000660900006609000066090000C0
:1000840066090000660900006609000066090000B0
:1000940066090000660900006609000066090000A0
:1000A4006609000066090000660900006609000090
:1000B4006609000066090000660900006609000080
:1000C4006609000066090000660900006609000070
:1000D4006609000066090000660900006609000060
:1000E4006609000066090000660900006609000050
:0C00F400660900006609000066090000B3
:10010000130181F806C216C41AC61EC822CA26CC1C
:100110002ACE2ED032D236D43AD63ED842DA46DC77
:100120004ADECEC0D2C2D6C4DAC6DEC8E2CAE6CC47
:10013000EACEEED0F2D2F6D4FAD6FED8F3220030D0
:1001400096DA9702002083A2A2FA23A02200F325C8
:1001500010342EC003A18181EF10904217030020BC
:10016000032303F903210300824273901234D65211
:10017000739002309240A2423243C2435244E2445E
:10018000724582551256A2563257C2575258E258FB
:1001900072598649164AA64A364BC64B564CE64C0F
:1001A000764D865D165EA65E365FC65F13018107DB
:1001B0007300203013000000130000001300000043
:1001C00013000000130000001300000013000000E3
:1001D00013000000130000001300000013000000D3
:1001E00013000000130000001300000013000000C3
:1001F00013000000130000001300000013000000B3
:1002000083A28181938202E073900234170100205F
:10021000032101EE024182403243C2435244E24490
:10022000724582551256A2563257C2575258E2585A
:1002300072598649164AA64A364BC64B564CE64C6E
:10024000764D865D165EA65E365FC65FD652A1020B
:1002500073900230A24213018107828013000000D4
:100260001300000013000000130000001300000042
:100270001300000013000000130000001300000032
:100280001300000013000000130000001300000022
:100290001300000013000000130000001300000012
:1002A0001300000013000000130000001300000002
:1002B00013000000130000001300000013000000F2
:1002C00013000000130000001300000013000000E2
:1002D00013000000130000001300000013000000D2
:1002E00013000000130000001300000013000000C2
:1002F00013000000130000001300000013000000B2
:10030000F322003093F272FF130380181203B3E25A
:100310006200711523205500130585FA10C12115BF
:10032000232005009302000063870200711523203B
:100330000500FD12D5BF71150CC1828000000000C0
:1003400000000000000000000000000000000000AD
:10035000000000000000000000000000000000009D
:10036000000000000000000000000000000000008D
:10037000000000000000000000000000000000007D
:10038000000000000000000000000000000000006D
:10039000000000000000000000000000000000005D
:1003A000000000000000000000000000000000004D
:1003B000000000000000000000000000000000003D
:1003C000000000000000000000000000000000002D
:1003D000000000000000000000000000000000001D
:1003E0000000000000000000000000000000397163
:1003F00001436EC619A0397141536AC866CA62CCFE
:100400005ECE19A0397101535AD056D252D44ED66D
:100410004AD826DA22DC06DE3301614082824111AD
:100420004AC026C222C406C68282B24D4101024D94
:10043000924C224CB24B4101024B924A224AB249A1
:100440004101024992442244B240410182803D432D
:100450002A876373C3029377F700BDEFADE5937608
:1004600006FF3D8ABA960CC34CC30CC74CC7410764
:10047000E36BD7FE11E28280B306C3408A0697027F
:10048000000096966780A6002307B700A306B70072
:100490002306B700A305B7002305B700A304B700E0
:1004A0002304B700A303B7002303B700A302B700D8
:1004B0002302B700A301B7002301B700A300B700D0
:1004C0002300B700828093F5F50F93968500D58DB4
:1004D00093960501D58D61B793962700970200008A
:1004E00096968682E78086FA9680C1171D8F3E9683
:1004F000E374C3F8A5B7EFF29FF237140140AA8462
:10050000130404C003C60402228585451346160061
:100510002380C4020D2F1305800CEF105000DDB7AF
:10052000EFF25FEE2A84854513050020EF003001CD
:100530003165352F9305040237240140130504402B
:100540006D291305044085452123130404409307B6
:1005500000025CDC8569C14737190140C1647CC475
:10056000938929FD130909C0FD14B74A0000854588
:10057000228585460546092385452285D52189455D
:1005800022857D236DDD032AC4044A85894513161F
:100590000A01418233363601134616006D25B375C4
:1005A0009A001385CAC2EF20E03D89452285712358
:1005B0007DBFB7170140138707806305E5021387E6
:1005C00007C06303E5026303F502938707406301F5
:1005D000F502B70701406310F5020545EFF23FE46D
:1005E000B92F85B51145DDBF2145CDBF4145FDB7CB
:1005F00013050002E5B78280B70600209386060C3B
:100600009C420D476356F702EFF27FE189679387BB
:100610000780739007303746000037450000130607
:1006200086BC9305F002130545BEEF20A03501A05E
:1006300037070020139627001307471432978507C2
:1006400008C39CC28280EFF2FFDB41118545214542
:10065000FD2537140140B7050020130504C093851C
:100660000500ED2105468945130504C0E92B37092E
:1006700000209307090B9C230F00F00F93F7F70F4F
:10068000B7040020B1EF1305090BEF10706929C9F9
:10069000938744150947DAA7372701401307074016
:1006A0001304048098CF37070E00D8D723A0070083
:1006B00005472382070080C723A8070023AA070055
:1006C00023AE07001305090B23A0070223A207028C
:1006D00023A4070223A80702238AE702EF10B065CC
:1006E00013854415113FB7450000370500003C0055
:1006F00093864415154713060010938505BA130514
:10070000055202C4B7040020EF10A0069387840BA3
:100710009C230F00F00F93F7F70F9DEF1385840BC9
:10072000EF10106015C937170140938741901307E8
:1007300007C098C70547DAA70D4798CB414723A0C4
:10074000070023820700D8CB23AC070023AE0700A5
:100750001385840BEF10305E13854190713DB745D2
:10076000000037050000938641907C001547130672
:1007700000109385C5BA1305654F3704002002C6E3
:1007800013044414EF00F07E8144370900208549AA
:100790008325090C63D7B4021C40D82305E388479E
:1007A0008545013D1C4088479385C7004526084084
:1007B0001C4191C382971C40238237018504110498
:1007C000C1BF37450000130505BBEF20A01B410149
:1007D000A5B101A041113EC4B707EFBE3AC6938749
:1007E000070837E700E03CC701A0B717024098436D
:1007F000B706FFF041111367170098C3D8433706B7
:100800000200758FD8C39843B706F7FEFD16758FA3
:1008100098C39843B706FCFFFD16758F98C3D8435D
:10082000B70601FFFD16758FD8C337079F0098C71D
:1008300002C402C69843C166558F98C3B7160240DA
:1008400005679C42F18F3EC6A24785073EC4B2476A
:1008500081E7A247E397E7FEB71702409C4313974F
:10086000E7006357070685473EC632478547631F43
:10087000F704B7170240D843B706C1FFFD16D8C327
:10088000D843D8C3D84313670740D8C3D843758F1C
:10089000D8C3D843B7062900558FD8C39843B706A5
:1008A0000001558F98C3984393166700E3DD06FE59
:1008B000D843B7160240719BD8C3D84313672700AB
:1008C000D8C32147DC42B18BE39EE7FE4101828021
:1008D00002C661BFB7160240DC423707002011464E
:1008E000B18B130707096385C70021466388C702D8
:1008F000B7177A00938707201CC3B7170240DC4361
:10090000918393F6F700B70700209387C700B69747
:1009100094231C43B3D7D7001CC38280DC42D4424B
:100920004166C983BD8BF18E890745466393C70035
:10093000C94781EEB746024083A60680C18A89CEA8
:10094000B7167A009386062021A8B7160240D44233
:100950001396E600E35606FEB7163D009386069012
:10096000B387D70251BF01A097010020938181F284
:100970001741002013010169173500001305C55BFD
:1009800097F5FF1F938505681386018263FAC500FA
:100990008322050023A0550011059105E3EAC5FE59
:1009A00017F5FF1F13050571971500209385C59650
:1009B0006377B500232005001105E36DB5FEFD4208
:1009C000739002BC894273904280B72200009382E8
:1009D00002807390023097F2FFFF9382E26293E20B
:1009E000320073905230EFF05FE097220000938264
:1009F00062AD73901234730020305C413707F1E030
:100A00001307F7EF944D7D8F9C41D58FD44DD58F33
:100A1000D441A206D58FD98F5CC11C4537F7F1FFB1
:100A20001307D77FD4457D8F9C49D58F9445860683
:100A3000D58FD98F1CC55C55370710FF7D177D8F6B
:100A4000DC29FD1793F7F70FD207D98F5CD5828089
:100A50001C4589C593E717001CC58280F99BEDBF33
:100A60001C4591C537075000D98F1CC582803707B8
:100A7000B0FF7D17F98FD5BFA54763F7B7048D4742
:100A8000138765FF3307F7020328C5009D47B39717
:100A9000E70093C7F7FFB3F70701B396E600DD8ED3
:100AA00054C5994763E3C70495477D163306F6029C
:100AB0005859FD47B397C70093C7F7FFF98F33968F
:100AC000C5005D8E50D982800D473387E50203282B
:100AD00005019D47B397E70093C7F7FFB3F70701F9
:100AE000B396E600DD8E14C96DBFB14763E2C7025D
:100AF000954765163306F6021859FD47B397C700A8
:100B000093C7F7FFF98F3396C5005D8E10D98280A9
:100B100095474D163306F6025855FD47B397C70063
:100B200093C7F7FFF98FB395C500DD8D4CD5828053
:100B300008416D8D3335A000828093C5F5FF0CC14F
:100B40008280B7F7FF1F03A5477082809C4513F78B
:100B5000070113F8F70001C7D8413368E8003727C9
:100B60000240145B3707000F758F5DEB37070020DD
:100B700085462302D70C371701406315E5009A21FB
:100B800035839AA18E2113F7F50F39C31841814699
:100B9000854E3D4F930F800293028004214E339681
:100BA000DE00B3F8C50063111603939826003313D3
:100BB0001F011343F3FF3377E300B318180133E742
:100BC000E8006399F70750C98506E39AC6FD18C186
:100BD0001307F00F6375B70454412146854E3D4F0E
:100BE000930F800293028004414EB398CE0033F7F6
:100BF00015016392E8021317260001173313EF0063
:100C00001343F3FFB376D3003317E800D98E63970D
:100C1000F703232A15010506E319C6FD54C1828096
:100C200037170140E310E5F6370700200347470C6C
:100C300031DBB1B7E39A57F810C979B7E39D57FC98
:100C400023281501C9BFB71701406318F500B7077E
:100C5000002083C7470C91C3B58119C20CC982809B
:100C60004CC98280B707002023A4A70C8280B71646
:100C70000240DC4251777D17F98F5D8DC8C28280BA
:100C8000371702405C439146B18B6385D700A1467C
:100C90006382D706B7177A00938707201CC13716DF
:100CA00002405C42370700201307C7019183BD8BC8
:100CB000BA9794231C41B3D7D7005CC15442A18298
:100CC0009D8ABA969422B3D6D70014C55442AD82F9
:100CD0009D8A36971823B3D7E7005CC558423983FD
:100CE000937637001387418036971823B3D7E702EE
:100CF0001CC982805C435843C166C983BD8B758F14
:100D00008907C5466393D700C94701EF37470240BB
:100D100003270780418B09CF37177A001307072075
:100D200021A83717024058439316E700E3D606FE82
:100D300037173D0013070790B387E70285B799C5BA
:100D4000371702401C4F5D8D08CF8280B7170240D5
:100D5000984F1345F5FF798D88CF8280EFF22FEC05
:100D60001A29F577FD17F98FFA2101112A84D98FF5
:100D70001EA99A25DE215625AE84D98FBA25D98F92
:100D80007D771307379F758FD98F5EA55E29DA258A
:100D9000C207C18393F7F7CFD98F5EA96800CD351D
:100DA000B7470140938707806317F404E24765451E
:100DB000B335F502904081460A063305F502EF107F
:100DC0002078930640063357D50212079357470001
:100DD000B387F6021D8D93174500138527039307EC
:100DE000F06363FCA70013050701420541810AA4D3
:100DF00005616FF00FE5D2475DBF3355D502598DC0
:100E0000EDB791C55E250967D98F5EA582805A2509
:100E1000F977FD17F98FD5BF93F5F51F4EA18280A5
:100E20000A216D8D3335A0008280B707002093879B
:100E3000470E9843636FA702D043B386C70063167B
:100E4000D50054413E85B296D4C35041B306C50087
:100E5000631CD700B706002083A6C60C6306D70024
:100E600054431843B29654C118C16303F50088C3B4
:100E70008280BA877DBFEFF2EFD841112AC6EF001A
:100E80007037B706002083A7C60C3706002093866C
:100E9000C60C1306060D3245A1EF37070020930755
:100EA000871B93F5F7001307871B81C51387F7008E
:100EB000419BB70500209385450E23A2050098C1EC
:100EC0008565C115AE97C19B23A2070023A007002B
:100ED000B385E7409CC21CC3B707002023ACB70C06
:100EE000B707002023AAB70CB70700804CC31CC269
:100EF000032A0600B377AA0085E39307F5FF395765
:100F0000636CF7009307050113F7F70041C313F76C
:100F100007FF410763EBE706814489A022872E84FF
:100F200061A058C15CC011375840B70600209386B5
:100F3000860D9042B307E94023A0F90063F3C70090
:100F40009CC2B70700203367EA009387C70D58C0DB
:100F50009843C10423200400050798C3EF00D0453F
:100F600093F7F400D1CB896793870780739007309C
:100F70003746000037450000130606C493050011EC
:100F8000130585C6EF10102001A0BA87370700208F
:100F90000329470D9309470DE360F9F8370700204F
:100FA0000324470E1307470E50406374F6000C40AD
:100FB000B5F59442E38286F61440044314C3330724
:100FC000F64093060002E3F1E6F63305F40093766B
:100FD000F500A1DA89679387078073900730374659
:100FE000000037450000130606C49305F00C1305F6
:100FF00085C6EF10301901A0268541016FF0CFC3DF
:1010000055C1EFF2CFC1B7070020032745FF83A7E3
:10101000070D2A84B376F7009DE2896793870780DE
:10102000739007303746000037450000130606C4AA
:1010300093054012130585C6EF10D01401A0832636
:1010400005FF9DC2896793870780739007303746F5
:10105000000037450000130606C49305501213051F
:1010600085C6EF10301201A093C7F7FFF98F232A2E
:10107000F5FEEF003018B70700209387470D944323
:10108000032744FF130504FF369798C3793BB7073E
:1010900000209387070E9843050798C3EF00D031CF
:1010A0006FF02FBA8280B7E700E041572387E7400F
:1010B0002386E740B7F700E023A0070023A207003C
:1010C000814694C70147D8C7370700208325070901
:1010D0001307401F814633D6E5023D4790CBD4CB62
:1010E00098C38280EFF2AFB3411102C6F3275030AC
:1010F0003EC6B2470D478D8B6384E70289679387AD
:10110000078073900730374600003745000013060C
:10111000C6C89305600B130585C6EF10B00601A085
:10112000B757002093870700BD8B9DC389679387BE
:1011300007807390073037460000374500001306DC
:10114000C6C89305B00B130585C6EF10B00301A008
:10115000993FB7E700E0116723A0E710056723A0D8
:10116000E71023A40180EFF0AF89014541016FF042
:101170004FAD397106DE16DC1ADA1ED82AD62ED407
:1011800032D236D03ACE3ECC42CA46C872C676C4B7
:101190007AC27EC073110134896793870780739088
:1011A0000730B7F700E023A20700EF00500611C593
:1011B000B7E700E0116723A0E72089679387878856
:1011C0007390073073110134F250E2525253C253FC
:1011D0003255A255125682567247E2475248C248CB
:1011E000324EA24E124F824F216173002030896728
:1011F0009387078073900730938781809843050712
:1012000098C38280138781801C438DE7EFF22FA162
:10121000896793870780739007303746000037450A
:1012200000001306C6C893053010130585C6EF10DD
:10123000607501A0FD171CC391E7896793878788B4
:10124000739007308280930785007D575CC118C575
:101250005CC51CC9232005008280232805008280EC
:101260009841FD5693078500631ED7001C49D8435B
:10127000D8C10CC79CC5CCC31C4188C985071CC1FB
:101280008280B687D4439042E37DC7FECDB75441F8
:1012900018451C4998C654C3D4436393A600D8C3C9
:1012A0009843232805007D1798C388438280EFF276
:1012B0000F9741112AC6253F3245005DA1371335EE
:1012C000140041016FF0EF97304115C2EFF22F95F6
:1012D00058451445AA87329758C56364D70018410A
:1012E00058C52E85CC47EF10C05E6FF08F95828079
:1012F000EFF2EF922A84E53D83445404130944023B
:10130000E204E18463459002FD57A302F404DD3D4D
:10131000F93D8344440413090401E204E184634475
:101320009002FD572302F404F13D6FF08F915C5061
:10133000E1DF4A85EF00503A19C1EF001055FD1466
:10134000E204E184C1B71C48E9DF4A85EF00D038E8
:1013500019C1EF009053FD14E204E184C9B7EFF224
:101360000F8C41111DE189679387078073900730C7
:101370003746000037450000130646CB93050011A1
:10138000130585C6EF10006001A05C5D2EC62A849F
:10139000BDC33841B3B7E702B9EF913D3040585C67
:1013A0001440232C0402B307E602B24554C033872D
:1013B000F600918FB6975CC4FD572302F40418C45D
:1013C000A302F40495E11C4899CB13050401EF0036
:1013D000B03011C5B7E700E0116723A0E7201D3545
:1013E000054541016FF0EF8513050401A93D130583
:1013F0004402913DEDB7896793870780739007306A
:101400003746000037450000130646CB93055014BD
:10141000130585C6EF10005701A0EFF24F80411170
:1014200021C1B3B7A502AA8485EF3305B50293079E
:1014300070FB63E7A702130585042EC62D3C2A84A2
:1014400001CDB245AA8799C1930785042CC01CC061
:1014500044DC854522852137228541016FE07FFEEE
:1014600089679387078073900730374600003745B8
:101470000000130646CB9305601C130585C6EF10CC
:10148000605001A0EFE23FF7011132C61DE189670C
:101490009387078073900730374600003745000078
:1014A000130646CB93051055130585C6EF10804DE6
:1014B00001A02A84AE898DE53C419DC3896793874D
:1014C0000780739007303746000037450000130649
:1014D00046CB93055055130585C6EF10A04A01A0D1
:1014E000EF00703B15E5B247014985C789679387CF
:1014F0000780739007303746000037450000130619
:1015000046CB9305A055130585C6EF10A04701A053
:1015100001497D5A930A440237EB00E0916B95A094
:10152000B24781E7C531014559A063150900280874
:10153000EF005029C1397D295D3983474404E20712
:10154000E187639447012302040483475404E207BC
:10155000E18763944701A30204046D316C002808FD
:10156000EF00B02721ED2285993329C5B245568574
:10157000EF00B00A2285AD3B812519E123207B21B4
:101580000549B531045CC9DCCE852285FD142D3BAF
:1015900004DC1C4899CB13050401EF00F01311C5BE
:1015A000B7E700E0116723A0E720A93905450561E9
:1015B0006FE0FFE722852D3B0125D9B722850D3B42
:1015C000E52B2285ED314DDDB9BF15E5EFE23FE5B5
:1015D00089679387078073900730374600008565D9
:1015E00037450000130646CB938585AC130585C6A9
:1015F000EF10403901A09DCD371600209306861BC1
:10160000814701471306861B214883A8460063983B
:10161000A80093173700B2978CC3C8C321A891E7DD
:1016200083A8060063930800B6870507A106E31E9A
:1016300007FDFDF38280EFE29FDE41112A842EC672
:1016400032C47536834744047D572246E207E1875A
:10165000B2456394E70023020404834754047D5792
:10166000E207E1876394E700A302040432C62EC4B4
:10167000513E1C5CA245324689E713054402EF0047
:10168000407E2285B53141016FE0BFDBB7160020F7
:101690000546B7E700E011679385861F8C41E37D1F
:1016A000B6FE23A0E720CDBF370700201307070FA2
:1016B0001C439443B70700209387C71081E67D57EA
:1016C00098C38280184358471843DDBFEFE29FD389
:1016D000B7040020B70700201389C40E83A9C711DF
:1016E0002A840325090041112EC611054D367D5768
:1016F0009387C40EB2456311E4049DCDB717002053
:101700009387472D83260900D84398C61047832620
:101710000900D0C6832609001047910654C28326CB
:101720000900910614C7032709005CCB98430507FD
:1017300098C341016FE05FD098434E9440C3637AF1
:101740003401370700200325470F8C439105093EDC
:10175000CDB7370700200325070F8C4391050936C5
:10176000B70700209387C7109843E374E4FC80C355
:10177000C9B7EFE25FC813192600AA8A4A852E8AE4
:10178000368BBA8BBE89EFF00FEF1DC1AA8413050B
:101790004005EFF04FEE2A8409C904D98147C146BC
:1017A000631A0A00230A050225A02685EFF05F854B
:1017B0007D5559AA3307FA00030707003306F400E2
:1017C000230AE60201C78507E396D7FEA3010404B6
:1017D0009D4763F477038967938707807390073089
:1017E0003746000037450000130686CC9305703954
:1017F000130585C6EF10001901A0130A4400528595
:10180000232674032322740523240404EFF0FFA489
:1018100013058401EFF07FA421471305C9FF3307A7
:101820007741269500C818CC40D023060404A306AF
:10183000040423070404A3070404230804045A86A9
:10184000D6854199EFE0DFAB08C06384090023A08F
:101850008900EFF0DF99B70700209387870F98433F
:10186000B7040020B7190020050798C31387C40EDA
:1018700018439384C40E1389891F69EB80C0984371
:1018800085476310F7069389891F930A090A4E85D5
:10189000D109EFF05F9BE39C3AFF37150020930AD4
:1018A000852913058529EFF01F9A37150020930924
:1018B000C52A1305C52AEFF01F9937150020130517
:1018C000052CEFF05F98371500201305452DEFF03C
:1018D0009F97B707002023A8570FB707002023AA18
:1018E000370FB7070020938707109843050798C361
:1018F00037070020130747105C54144363F3F600C6
:101900001CC35147B387E702CA97D843144718C48A
:1019100054C4144723A246012324470198435CC8BA
:10192000050798C3EFF01F8EB707002083A7871124
:10193000054599CB9C40D8575C546377F700B7E7CF
:1019400000E0116723A0E7206FE07FAEB70700201B
:1019500083A78711D9F79C40D8575C54E3E3E7F895
:1019600080C041B7EFE2BFABB7070020B74500002A
:10197000371500009387871001478146130600083A
:101980009385C5CD1305C568ED330544631E8502F7
:10199000EF00101E631A8502896793870780739092
:1019A0000730B70700207D5723A6E710B7070020B0
:1019B00023ACA710B707002023AE0710EFF08FF27B
:1019C00083A7C1806FE0FFA7FD57E31BF5FE896782
:1019D0009387078073900730374600008565374549
:1019E0000000130686CC93850584130585C6EF0099
:1019F000707901A0B70700209387C70F98430507A8
:101A000098C38280B707002003A5C7118280B7075B
:101A1000002083A7C70F63980718EFE25FA0B707FE
:101A200000209387C7118043050480C339E8B707B6
:101A300000209387070F9843184305C7896793874A
:101A400007807390073037460000856537450000F2
:101A5000130686CC938575AC130585C6EF0090728E
:101A600001A0370700201307470F9443104390C38A
:101A7000B707002014C3938707119843050798C33D
:101A80002531370600209307C6109C4337170020E6
:101A9000B70500201306C6101307871F9385C50ED0
:101AA00001456375F4029C41D146DC57B387D702E8
:101AB0003E971843854763F3E7000545B7070020C5
:101AC00083A7071291C305456FE0BF97370E00202B
:101AD000B70E0020514F93070E0F9443944281E6B6
:101AE000FD571CC2C9B79C43DC47DC47D443637431
:101AF000D40014C24DBF83A8870003A8C700D44BED
:101B00001383470023A408012322180183A8460059
:101B10006394680023A2060103A8060023AA070015
:101B20007D1823A00601945795CA03A8C70183A86E
:101B3000070283AF46002324180183A8070223A2CB
:101B400008011388870163940F0123A2160103A8DB
:101B5000060023A407027D1823A0060193864E10D9
:101B600003A8C70283A8060063F4080123A00601A6
:101B7000B306E803BA9683A8460083AF880023A47F
:101B8000170123A6F70183AF880023A26F0023A4C7
:101B90006800D4CB9C4285079CC29C41DC57E36C17
:101BA000F8F205450DBFB70700209387471198430A
:101BB0000145050798C38280EFE2DF8437040020E7
:101BC0001304C40F1C40411185E789679387078080
:101BD00073900730374600008565374500001306CF
:101BE00086CC9385358B130585C6EF00B05901A0CF
:101BF000EFF0EFDF1C40FD171CC01C4089CB0145F6
:101C00002AC6EFF02FE0324541016FE0FF82B707AF
:101C1000002083A7870FE5D7B716002037150020CF
:101C200081479386062C370F00201305851FD14866
:101C300037030020370E0020854E59A8DC46DC47CC
:101C4000CC4F9053985790C503A807022322B800A1
:101C500003284700938587016313B80050C31043DE
:101C600023A407027D1610C38C47D047D84B138896
:101C7000470090C54CC24C436393050150C31043C9
:101C800023AA07007D1610C313074F10D0570C432B
:101C900063F3C50010C3330716032A974C4383AF81
:101CA00085008CC723A6F70183AF850023A20F010F
:101CB00023A405010C43D8CB85050CC31307C30E21
:101CC000184358576366E60013070E122320D70106
:101CD00098422DF799C3EFF03F9DB7070020138777
:101CE000471104431384471191CC370900208549DB
:101CF000393B09C59307091223A03701FD14EDF8FC
:101D000023200400B707002083A70712E38907EE0A
:101D1000B7E700E0116723A0E7200545D5B519E531
:101D2000B7E700E0116723A0E7208280EFE22FEF02
:101D3000B707002083A7C70F41119DC38967938709
:101D400007807390073037460000374500001306C0
:101D500086CC93059054130585C6EF00B04201A0D0
:101D60002AC6493932458145EFF05F96B13511E514
:101D7000B7E700E0116723A0E72041016FE06FECB7
:101D8000B707002003A7C70FB707002093870712E4
:101D900001C7054798C3828023A00700B70700202A
:101DA00013874710184313864710B71700209387EF
:101DB000871F5148B3060703B385D700884115C56F
:101DC000C841A106BE964841C8C16314D50054411C
:101DD000D4C1D146B306D702B697DC43D447B70780
:101DE000002023A6D70E18C2828015E7EFE22FE36A
:101DF00089679387078073900730374600008565B1
:101E000037450000130686CC938525C0130585C68B
:101E1000EF00503701A07D1771BFEFE24FE005E5FD
:101E20008967938707807390073037460000856580
:101E300037450000130686CC9385C5C1130585C6BA
:101E4000EF00503401A0B70700202E8483A5C70EF1
:101E5000E105EFF0EFC085452285EFF03F876FE0A9
:101E60004FDEEFE2CFDB2A8705E58967938707809E
:101E7000739007303746000085653745000013062C
:101E800086CC938525C5130585C6EF00B02F01A02C
:101E9000B70700209387C70E54432E858C4303A8B1
:101EA0008600D4CD8C4323A0050303A807008C46ED
:101EB000610823A2050103A807009C43610823A42D
:101EC000060198D71C4385071CC311C27D55B285F6
:101ED000EFF0CFFF6FE0EFD65C45DC4795E7EFE230
:101EE0000FD48967938707807390073037460000C7
:101EF000856537450000130686CC938525C81305F4
:101F000085C6EF00302801A0D04F94539857938591
:101F1000870114C6D0C250436313B60054C31443A0
:101F200023A40702FD1614C3370700200327C70F99
:101F3000D45725EF8C47D047D84B90C5D04748435E
:101F40004CC2938547006313B50050C3104323AAC6
:101F500007007D1610C337070020130747101043F2
:101F60006373D60014C351473386E6023717002047
:101F70001307871F32975043084690C7C8C70846C3
:101F80004CC10CC6D8CB1C43014585071CC3B70701
:101F9000002083A7C70EDC5763F8D700B7070020DF
:101FA000054723A0E7120545828037170020130755
:101FB000072C50430846D0CF88D308464CC10CC6E6
:101FC00098D7D1B7B707002083A707111CC1B7075F
:101FD000002083A7C7115CC18280EFE24FC441118A
:101FE00005E58967938707807390073037460000BF
:101FF000856537450000130686CC9385D5CF13053C
:1020000085C6EF00301801A085E5896793870780B2
:10201000739007303746000085653745000013068A
:1020200086CC9385E5CF130585C6EF00B01501A0DA
:102030002EC62AC4EFF0AF9BB245B707002083A697
:10204000C7119C417D5701446381E7022245370651
:10205000002003260611032805005841630DC8001F
:1020600063EBE60023A005000544EFF0AF9922855D
:1020700041016FE00FBD3386E640E375F6FE958FB4
:10208000BA979CC181370144CDB7B70700200547F7
:1020900023A0E7128280B707002083A78711054598
:1020A00081CBB707002003A5C70F13351500060520
:1020B0008280EFE2CFB637040020EFF04F93130495
:1020C00004131C40B1E7371500201309852E1305B2
:1020D000852EEFF04F97371500209304C52F130579
:1020E000C52FEFF04F96B707002023A22713014614
:1020F000B7070020B145094523A49712EFF0EFB1CF
:1021000008C019C5B7450000938585D0EFF0EFCB27
:10211000EFF04F8F6FE0EFB2EFE26FB04CC108C944
:10212000AA876362B602184D158E0545637BE600EB
:1021300093854700B707002003A58712EFF04F9261
:1021400001456FE00FB06375D6000545E3FBD5FE92
:1021500093854700B707002003A54712C5B7EFE2F4
:102160000FAC2A84AE8432890C4CA6864A86A6958A
:1021700022855D3719E16FE0CFAC1C4C2285BE94FF
:102180001C508297D5B7EFE28FA9B707002083A72D
:1021900047124111AA84DC472EC6C04713054400EC
:1021A000EFF0EF8E83474402324613F7470011CB1E
:1021B000A68522856D371C502285829741016FE0EC
:1021C0004FA8F99B2302F402FDB7EFE24FA53704B5
:1021D00000209306441298421C4391EBB70700205D
:1021E00093878712904398C390C26FE08FA55C4796
:1021F000FD558843493FF1BFEFE2EF9F116941115F
:10220000B70A0020B7090020370B0020B70B0020C9
:10221000130949CE83A74A12984329CBDC47814C46
:1022200003AC0700EFF00FFDEFF0CFFD83A7C9125D
:102230002A849384C912130A0B13636CF50288C0B5
:10224000638F0C0283A78B1290431336160003256D
:102250000A00B3058C40EFF00FBEEFF0FF9511EDD3
:10226000B7E700E0116723A0E72001A8854C014CE7
:1022700055BFA13F80C0EFF03F94214CA9A001467B
:10228000E36785FDEFF05F93A2856285ED3DF5B7CD
:10229000834744020C4CA24693E717002302F40242
:1022A0006686B69522858D3D19CD8347440213F786
:1022B000470021CF1C4CA24566862285BE95453538
:1022C0001C502285829703250A0001464C00EFF03E
:1022D0006F9B29D19247E3C807FE32445C4889C707
:1022E00013054400EFE0BFFAEFF0CFF19C40AA8C59
:1022F0006373F500D93D924723A09401FD17E36471
:10230000FCFC8A07CA979C438287F99B2302F4024C
:1023100045BF83474402F99B2302F4026DB783470C
:102320004402A24593E717002302F4020CCC95E186
:1023300089679387078073900730374600003745D9
:102340000000130606D193059035130585C61D2D93
:1023500001A0E6866686E69522857D3BADB783477C
:10236000440213F7270045FB2285EFE07FC9A1BF98
:10237000EFE2EF8A3D3BB707002083A7071395E301
:102380008967938707807390073037460000374589
:102390000000130606D193059011130585C6DD23B1
:1023A00001A0B7070020B74500003725000093873C
:1023B00047131D47814613060008938585D21305F0
:1023C000851FEFF00FBB4DDD6FE0AF87B707002033
:1023D00083A7070937177A0013070720B3D7E70247
:1023E0003707002093F7F70F230DF7121307803EEE
:1023F000B387E70237070020231CF7128280EFE241
:102400000F822A841165011185451105EFE03F9384
:10241000930700207C82371501408D473EC44C0055
:10242000E147130505803EC6EFE04FF222C837446E
:102430000140B70708000C08130504803ECC02CA0F
:10244000231E0100EFE09F91854513050480EFE016
:102450005F9B05616FD0FFFEEFD2DFFAB74401400A
:10246000AE893289014493840480634524014A85FE
:102470006FD09FFC930500042685EFE07F9A7DD9FD
:10248000B38789008385070026850504C205C181BD
:10249000EFE09F98D9BF138701811C43B716002036
:1024A000938646313E95636BD500B75600209386E0
:1024B000068063E5A60008C33E858280FD57EDBF18
:1024C000EFD2FFF50545EFE0EFF9EFE0AFC0FD3DDE
:1024D0007165130505202537B707002083A5070977
:1024E00037450000130505D37129EFE08FE5AA8574
:1024F00037450000130505D47121B7450000374565
:102500000000938505D5130585D5AD29EFE0AF9380
:1025100037440000EFF00FC5130584D7B52BEDBF8E
:102520001C2181EB1C3191C3029085471CB10545EC
:102530008280014582808547A30005001CA182801E
:10254000B687B2882A832E88639B061463F8C50A6F
:102550004167636BE61AB70700016360F634935670
:102560008601E14717270000130747833697182392
:10257000BA97130700021D8F19CB3398E500B357A4
:10258000F500B318E60033E807013313E50013D66E
:1025900008013355C80293960801C182935703017D
:1025A0003377C802B385A60242073368F700637A1F
:1025B000B80046989307F5FF636418016365B83067
:1025C0003E853308B8403357C80242031353030112
:1025D0003378C802B386E602420833686800637B3A
:1025E000D80046989307F7FF63651801791763636E
:1025F000D8003E874205598D8145828001E6054716
:10260000B358C702416763E8E80EB707000163EA01
:10261000F82893D68801E1471717000013070778B9
:1026200036971423BE9693070002958FFDE7939E7D
:1026300008013387154113DF080193DE0E0185453C
:10264000935703013355E7033377E703B306D50305
:102650004207D98F63FAD700C6971307F5FF63E4E3
:10266000170163E5D7263A85958F33D7E7034203F1
:1026700013530301B3F7E703B30ED703C207B3E75E
:10268000670063FBD701C6979306F7FF63E5170161
:10269000791763E3D70136874205598D828063E15C
:1026A000D504C16763E1F604B707000163E3F61ED2
:1026B00013D786016148971700009387276EBA9752
:1026C0009823130E00024297330EEE40631A0E0C4D
:1026D00063EDB61C3335C500134515008145828076
:1026E0008145014582809307F00F63F3D71C13D710
:1026F00086002148C9B71307F00FC686E37E17F19D
:1027000093D68800A14709BF1307F00FB286E37B79
:10271000C7E493568600A147B1B5B398F80033D605
:10272000D50013DF0801335EE6033397F500B35697
:10273000D500558F939E080193DE0E013313F500EB
:1027400093550701B376E603B387CE03C206CD8E59
:1027500063FBF600C6961306FEFF63E4161763F2EA
:10276000F616791EC6969D8E33D6E603931707019B
:10277000C183B3F6E6033385CE02139706015D8F5E
:10278000637BA70046979307F6FF6368171363768A
:10279000A7127916469793150E01098FD18D4DB565
:1027A000B357E600B396C601DD8E33D3E50013DFE1
:1027B0000601B357E303939E060193DE0E0133989F
:1027C000C5013357E50033680701935808013316F4
:1027D000C6013373E303B385FE024203B3681301FA
:1027E00063FBB800B6981387F7FF63EAD80C63F869
:1027F000B80CF917B698B388B84033D7E803420845
:1028000013580801B3F8E8033383EE02C208B3E5B6
:10281000080163FB6500B6951308F7FF63EDD50863
:1028200063FB65087917B695C207416FD98F130707
:10283000FFFFB3F6E70093D80701718F4182B38E93
:10284000E602B3856540B386C60213D80E0133870E
:10285000E802BA96C2963386C80263F3E6007A9617
:1028600093D80601469663E2C5026385C5003E859E
:102870008145828041677D17F98EC206B3FEEE0066
:102880003315C501F696E374D5FE1385F7FF814530
:10289000828013D70601414839BD93560601C147CE
:1028A000D1B193D60801C14785BB814505458280DA
:1028B0003687014809B5428785BF3E86E9BDBA879C
:1028C0001DBF328E4DB579154698E5B97915C69775
:1028D00061BBB3C7A5008D8B3307C50081E78D476A
:1028E00063EDC700AA87637EE50894218507850507
:1028F000A38FD7FEE3EBE7FE828093763500AA87AD
:1029000089CA942185078505A38FD7FE93F63700E2
:10291000C5BF9376C7FF138606FE63F0C70683A381
:10292000050083A2450083AF850003AFC50083AED9
:10293000050103AE450103A3850183A8C501938565
:10294000450223A0770003A8C5FF23A2570023A4B4
:10295000F70123A6E70123A8D70123AAC70123ACC7
:10296000670023AE17019387470223AE07FF75B7B1
:1029700090419107910523AEC7FEE3EBD7FEE3E656
:10298000E7F6828039713EDA2ED232D436D63AD882
:1029900042DC46DE9387418122CC804326CA06CEA4
:1029A000AA8409C41C4C99E32285ED290C445410D7
:1029B0002686228536C6EF00F013F2406244D244E8
:1029C00021618280011126CA4AC806CE22CC4EC699
:1029D00052C4AA842E8901C51C4D91E3E1219C4C6F
:1029E000804499E326857D29971700009387074D3A
:1029F000631BF402C0405E24A18BB1C71C48A1C771
:102A0000FD59294A1C4483450900FD17B1E91CC43E
:102A100063DD07062286A94526856120FD576308E8
:102A2000F502294535A0971700009387274B6314BB
:102A3000F4008044C9B79717000093872746E31C2A
:102A4000F4FAC0444DBFA2852685112A55D97D557B
:102A5000F2406244D2444249B249224A056182802E
:102A60001CC4050963D70700184C63CAE7006388D4
:102A700045011C401387170018C08CA361B722863C
:102A800026850520E31035F9D9B71C4013871700B8
:102A900018C0294798A371B793874181AA858843B5
:102AA00015B7011122CC26CA4AC806CE4EC6AA8442
:102AB0002E89328401C51C4D91E3ED269717000045
:102AC0009387C73F6317F406C0401C4C1CC45E24A8
:102AD000A18BC1C31C48B5CF1C4808409379F90F9E
:102AE0001379F90F1D8D5C486346F500A285268594
:102AF000692C25E51C440505FD171CC41C401387E3
:102B0000170018C0238037015C486388A7005E2443
:102B1000858B81CBA9476316F900A2852685B5244C
:102B20000DEDF24062444A85D2444249B249056102
:102B30008280971700009387673A6314F4008044FB
:102B400069B79717000093876735E310F4F8C0441E
:102B5000ADBFA2852685212041D17D59D9B741112C
:102B60009387418126C2844322C44AC006C62A896B
:102B70002E8489C49C4C99E326852D269717000046
:102B80009387C733631BF402C0400317C400931735
:102B90000701C18393F68700ADEA93F6070195EE2E
:102BA000A5472320F900136707045AA47D55B240B6
:102BB0002244924402494101828097170000938782
:102BC000E7316314F4008044C9B797170000938776
:102BD000E72CE31CF4FAC0444DBF918B9DC34C58C5
:102BE00089C9930744046384F5004A853123232A65
:102BF00004025E242322040093F7B7FD5EA41C4860
:102C00001CC05E2493E787005EA41C4899EB5E24F9
:102C10001307002093F707286385E700A2854A85FC
:102C2000A1215E2413F717001DC35C482324040070
:102C3000B307F0401CCC1C480145B5FB8317C4000A
:102C400013F707082DD793E707045EA485B7898B90
:102C5000014791E3584818C4F9BFDE25011122CC81
:102C600026CA06CE4AC84EC613F78700AA842E8409
:102C700079EBD841634DE000B841634AE00001457B
:102C8000F2406244D2444249B249056182805854BC
:102C90007DD703A904009396370123A0040063DBCA
:102CA000060670485E24918B99C75C401D8E5C5867
:102CB00099C33C401D8E5C540C50814626858297FA
:102CC000FD575A24631DF5009440F54763E8D70685
:102CD000B70740208507B3D7D700858BA5C31C480D
:102CE000232204001CC09317370163D80700FD5747
:102CF0006314F5009C4091E368C84C5823A024015C
:102D0000BDDD930744046384F5002685F526232A58
:102D10000402B5B70C500146854626850297FD573B
:102D20002A86E311F5F89C40B5DF75476385E70017
:102D300059476393E70423A0240191B7136707045D
:102D40005AA47D5535BF83A90501E38A09F203A979
:102D500005008D8B23A0350133093941014791E3EB
:102D6000D84918C4E35D20F11C540C50CA864E8625
:102D7000268582976347A0005E2493E707045EA43C
:102D8000C9B7AA993309A940F1BF9C49B9CF01112C
:102D900022CC06CE2A8411C51C4D81E72EC61922ED
:102DA000B2459717000093876711639BF5004C406D
:102DB0008397C50095C722856244F240056171BDC5
:102DC00097170000938787116394F5000C44CDB7E3
:102DD000971700009387870CE39CF5FC4C44C9BF10
:102DE000F2406244014505618280014582804111C3
:102DF00022C406C62A844EA572A5232005002322DC
:102E00000500232405002322050623280500232A84
:102E10000500232C0500214681451305C505EFD08B
:102E20000FE397170000938787B35CD097170000D4
:102E30009387A7B51CD497170000938787B95CD4F4
:102E4000971700009387E7BB00D01CD8B2402244FC
:102E50004101828097050000938565F3A9A2411185
:102E600026C2130680069384F5FFB384C4024AC0C9
:102E70002E8922C406C6938544073D262A8401CDA7
:102E80002320050023222501310508C4138684066A
:102E90008145EFD0CFDB2285B240224492440249E3
:102EA000410182801C4DADE3411106C622C4970743
:102EB0000000938767FA1CD59387C1819C43232424
:102EC000050423260504232805046314F50085471B
:102ED0001CCD2A841D2848C02285052808C42285C7
:102EE0002D2048C448400146914511370844054605
:102EF000A545F53D48440946C945D53D85471CCC07
:102F0000B240224441018280828041119387C18175
:102F100026C284434AC006C69C4C22C42A8999E32F
:102F200026854937938484048044DC40FD1763D6AA
:102F300007009C40B9CF8440C5BF0317C40039E7E0
:102F4000C1778507232204062320040023220400DE
:102F5000232404005CC423280400232A0400232C17
:102F60000400214681451305C405EFD04FCE232A26
:102F70000402232C040223240404232604042285AF
:102F8000B2402244924402494101828013048406E3
:102F900071BF91454A85E13588C051FDB147232075
:102FA000F9000144E9BF797122D44AD052CC56CA03
:102FB0005AC85EC606D626D24ECE2A8AAE8A1304D8
:102FC00085040149054BFD5B09ECB25022544A854A
:102FD00092540259F249624AD24A424BB24B45617D
:102FE0008280044483294400FD1963D40900004011
:102FF000E1BFDE24637BFB008397E40063877701F6
:10300000A6855285829A3369A90093848406E9BF14
:103010001971A6DAAE848395E500A2DC86DE3284DF
:1030200063DB0500DE2423A0060093F7070885E78D
:10303000930700401DA0300836C6EF001023B246AB
:10304000E34205FE7247BD67F98F7977BA9793B768
:1030500017009CC2F1BF930700041CC0F6506654D1
:10306000D654014509618280DE25011122CC06CEAD
:1030700026CA4AC8898B2E8489CF930774041CC042
:103080001CC885475CC8F2406244D244424905618D
:10309000828074003000AA84A53FA2452A89268533
:1030A000212219E98317C40013F7072069FFF19B58
:1030B00093E727005EA4D1B7970700009387C7D98D
:1030C0009CD45E2408C008C893E707085EA4A24702
:1030D0005CC8B24781CF8315E4002685EF00101C41
:1030E00011C55E24F19B93E717005EA45E2433694B
:1030F000F9002316240141BFDDC583A7C5FF411197
:1031000022C406C626C21384C5FF63D307003E94BB
:10311000AA84EF00702097D7FF1F938767029C4314
:1031200091EF2322040097D7FF1F23AB870022448F
:10313000B2402685924441016F00301E637EF40048
:1031400014403307D4006396E7009843DC43369776
:1031500018C05CC0C9BFBA87D84319C3E37DE4FE79
:1031600094433386D700631F86001040B29694C301
:103170003386D700E31DC7FA10435843B29694C371
:10318000D8C375B76375C400B1479CC04DB7104034
:10319000B306C4006316D70014435843B29614C054
:1031A00058C0C0C369B78280011126CA9384350014
:1031B000F19806CE22CC4AC84EC6A104B14763F9A5
:1031C000F404B14463E8B4042A89EF00F01497D7FB
:1031D000FF1F9387E7F698433A8439E497D7FF1F98
:1031E000938747F69C4381EB81454A85352F97D7D6
:1031F000FF1F23A9A7F4A6854A853D27FD59631B18
:103200003507B1472320F9004A85EF00101129A0A6
:10321000E3DA04FAB1471CC10145F2406244D244EA
:103220004249B249056182801C40858F63C1070411
:10323000AD4663F6F6001CC03E9404C001A85C4095
:103240006315870217D7FF1F232CF7EE4A85EF007F
:10325000D00C1305B4009307440061993307F5407F
:103260004DDF3A94898F1CC04DBF5CC3C5B7228720
:103270004040A5B7130435007198E30085FCB30501
:10328000A4404A855525E31A35FBA5BF1C46FD170A
:103290001CC663DA0700184E63C5E700A9476394AC
:1032A000F5006FF01F801C422E851387170018C28F
:1032B0008CA38280011122CC26CA4AC84EC652C4B1
:1032C00006CE2A89AE893284B304D6007D5A6314AF
:1032D0009400014501A80C204E864A85453F05040F
:1032E000E31745FFF2406244D2444249B249224AC0
:1032F00005618280357122CD26CB4AC94EC706CFE3
:1033000052C556C35AC1DEDEE2DCE6DAAA89AE84D3
:103310003289368409C51C4D99E3EFF0BFB8971781
:1033200000009387A7B96397F40C83A44900DE24B7
:10333000A18BFDC39C48EDC393070002A304F102D7
:103340009307000302D22305F10222C6930B500219
:10335000971A0000938A8ABA054C294B4A841C208C
:1033600099C3639E770DB30C2441638D0C00E686F0
:103370004A86A6854E853D3FFD57630FF51C925644
:10338000E69636D21C206389071CFD5713091400EA
:1033900002C802CE3ECA02CCA309010482D48345EE
:1033A000090015465685A92F13041900C24751E993
:1033B00013F7070109C713070002A309E10413F774
:1033C000870009C71307B002A309E1048346090077
:1033D0001307A002638FE606F2474A84814625461A
:1033E000182093051400130707FD6377E60AB5CA92
:1033F0003ECE85A897170000938747AE6395F400EB
:1034000083A489002DB797170000938727A9E3901D
:10341000F4F283A4C90021BFA6854E85EFF02FF4F6
:1034200001DD7D55FA406A44DA444A49BA492A4ADC
:103430009A4A0A4BF65B665CD65C0D618280050495
:1034400039BF330555413315AC00C98F3EC82289B9
:10345000B9B7324793064700184336C66347070299
:103460003ACE18209307E002631DF7041830930743
:10347000A002631BF702B2470904138747009C436D
:103480003AC663C107023ECA2DA83307E04093E75E
:1034900027003ACE3EC8F1B7B387670385462E842E
:1034A000BA973DBFFD57C5B7050402CA814681479B
:1034B0002546182093051400130707FD6374E606DC
:1034C000F9F20C200D46171500001305A5A30D2DCC
:1034D00011CD971700009387E7A21D8D9307000475
:1034E000B397A700424505045D8D2AC80C201946F4
:1034F00017150000130545A1130914002304B10298
:10350000012535C197D7FFFF9387C7AF95E742479E
:10351000B2471377071009CF91073EC69257D2974B
:103520003ED22DBDB387670385462E84BA9751B727
:103530009D07E19BA107D5B7780097060000938609
:10354000A6D726860C084E8597000000E7000000ED
:10355000FD572A8AE314F5FCDE2493F70704E3926F
:1035600007EC1255C1B57800970600009386C6D4C3
:1035700026860C084E85012AE1BF797156CA9C49FE
:10358000BA8A984522D426D24ECE52CC06D64AD0FC
:103590005AC85EC6AA892E84B284368A63D3E700ED
:1035A000BA879CC00347340419C385079CC01C40DC
:1035B00093F7070281C79C4089079CC00329040038
:1035C00013796900631A0900130B9401FD5B5C44D5
:1035D0009840998F634CF9041C408346340493F758
:1035E0000702B336D000A5EB13063404D2854E850E
:1035F000829AFD576303F5041C4011469840998B4D
:10360000544481446397C700B384E64063D3040005
:1036100081441C4418486354F700998FBE940149B3
:1036200069047D5B63982405014509A885465A868F
:10363000D2854E85829A631E75017D55B250225403
:1036400092540259F249624AD24A424BB24B456106
:1036500082800509ADBF3307D40013060003A30120
:10366000C7040347540493871600A2978906A381D1
:10367000E7049DBF85462286D2854E85829AE30E59
:1036800065FB050945B7797122D426D24AD04ECEC2
:1036900006D652CC56CA5AC8B689942D93079006BE
:1036A0003289AA842E8413863504638DF60263E280
:1036B000D706930780056386F61863EDD700638EFF
:1036C000062093073004638EF60A930A240423012C
:1036D000D404C9A0930730066385F60A9307400611
:1036E000E395F6FE1C40084393F607089305450052
:1036F000C5C61C410CC363D807001307D002B3072B
:10370000F040A301E40497160000938666802947E1
:1037100065A8930700076382F61663E5D70293074F
:10372000E0066389F6189307F006E390F6FA0C407A
:103730001C4313F80508138547006307080608C3F0
:103740009C4385A893075007E383F6FE9307800701
:103750006389F61293073007E399F6F61C43D041CC
:1037600081459386470014C383AA07005685492ED6
:1037700001C53305554148C05C401CC8A301040481
:1037800061A81C43930A2404938647009C4314C3F6
:103790002301F4048547D5B793F607041C410CC3F5
:1037A000B9DAC207C18781BF93F5050408C3C9D937
:1037B0009E231307F0066387E60E970600009386A4
:1037C00026752947A30104044C400CC463C50500B9
:1037D00008406D9908C099E3B28A89CDB28AB3F5E1
:1037E000E702FD1AB6958C212380BA00B3D5E70213
:1037F00063F0E70CA147631EF7001C40858B91CB5B
:1038000058401C4863C7E70093070003A38FFAFEE4
:10381000FD1A3306564110C84E87CA867000A2852D
:103820002685EFF09FD57D5A631D450B7D55B2501F
:10383000225492540259F249624AD24A424B45619B
:103840008280A382D504970600009386666C0C40A4
:10385000084313F805081C411105630D080208C34D
:1038600013F7150001C793E505020CC04147B9FBEA
:103870000C4093F5F5FD0CC0B1B79C4193E70702EE
:103880009CC193078007A302F40497060000938667
:10389000666975BF13F8050408C3E30308FCC20793
:1038A000C1837DBF9706000093868666214719BFB6
:1038B000AE8735B794411C43CC4913F806081385ED
:1038C00047006306080008C39C438CC339A008C3A3
:1038D00093F606049C43F5DA8EA323280400B28AEB
:1038E00025BF14485686CA8526858299E30045F58A
:1038F0001C40898B8DE7B2474844E35AF5F23E8578
:103900003DB785465686CA8526858299E30065F3CC
:10391000050A5C443247998FE345FAFEE9BF014A44
:10392000930A94017D5BF5B7411122C42A842E8548
:1039300097E7FF1F23A0079E06C6EFE0DFB5FD5700
:103940006319F50097E7FF1F9387C79C9C4391C3BA
:103950001CC0B240224441018280411122C42E8405
:103960008395E50006C65D2A634905007C48AA9751
:103970007CC8B2402244410182805E247D777D175D
:10398000F98F5EA4FDB7DE25011122CC26CA4AC8F4
:103990004EC606CE93F70710AA842E843289B689C4
:1039A00091C78395E500894601460D225E247D7707
:1039B0007D17F98F5EA48315E4006244F240CE8641
:1039C0004A86B24942492685D244056125A841115B
:1039D00022C42E848395E50006C6CD28FD575A24BF
:1039E000631AF500FD77FD17F98F5EA4B2402244FB
:1039F000410182808567D98F5EA468C8C5BF839561
:103A0000E50025A8411122C42A842E85B285368678
:103A100097E7FF1F23A0079006C6EFE0FFA3FD571F
:103A20006319F50097E7FF1F9387C78E9C4391C3E7
:103A30001CC0B240224441018280411122C42A8428
:103A40002E8597E7FF1F23A7078C06C61122FD5777
:103A50006319F50097E7FF1F9387C78B9C4391C3BA
:103A60001CC0B240224441018280411122C42A84F8
:103A70002E85B28597E7FF1F23AE078806C6CD20A7
:103A8000FD576319F50097E7FF1F9387A7889C43AD
:103A900091C31CC0B240224441018280411122C422
:103AA0002A842E8597E7FF1F23A6078606C6C9200E
:103AB000FD576319F50097E7FF1F9387A7859C4380
:103AC00091C31CC0B240224441018280411122C4F2
:103AD0002A842E85B285368697E7FF1F23AC07829E
:103AE00006C67928FD576319F50097E7FF1F9387EE
:103AF00067829C4391C31CC0B24022444101828032
:103B000093F5F50F2A966314C500014582801C21A8
:103B1000E38EB7FE0505C5BF82808280411122C4B5
:103B20002A842E85B285368697D7FF1F23A4077E69
:103B300006C6B928FD576319F50097D7FF1F93876D
:103B4000677D9C4391C31CC0B240224441018280E6
:103B50009307800517D7FF1F232EF77A7D558280A4
:103B60009307800517D7FF1F2326F77A7D5582809C
:103B70009307800517D7FF1F232EF7780145828012
:103B80009307800517D7FF1F2326F7787D5582807E
:103B90009307800517D7FF1F232EF7767D55828068
:103BA000546F7563684B6579000000004C45440014
:103BB0005B494E464F5D204770696F2053697A65B7
:103BC000282564290D0A00002E2E2F557365722FAB
:103BD000496F2F4770696F4D616E616765722E6323
:103BE00070700000415353455254204641494C45A2
:103BF000443A206C696E652025642C2066696C65EA
:103C00002022257322202D3E20D7A2B2E1B5C44741
:103C100070696FB4F3D3DA6D5F6770696FCAFDD7EF
:103C2000E9B4F3D0A12E0D0A000000006375727292
:103C3000656E7441646356616C756525640A0D0098
:103C40002E2E2F4672656552544F532F706F72742B
:103C500061626C652F4D656D4D616E672F686561A2
:103C6000705F342E63000000657272206174206CF6
:103C7000696E65202564206F662066696C65202268
:103C80002573222E200D0A20000000002E2E2F4624
:103C900072656552544F532F706F727461626C6518
:103CA0002F4743432F524953432D562F706F727441
:103CB0002E6300002E2E2F4672656552544F532FEF
:103CC00071756575652E63002E2E2F4672656552DF
:103CD000544F532F7461736B732E630049444C45EA
:103CE000000000009022000090220000122300003B
:103CF0001E2300005E23000090220000902200009E
:103D0000122300001E230000546D725100000000B9
:103D10002E2E2F4672656552544F532F74696D6570
:103D200072732E6300000000546D7220537663009E
:103D300053797374656D436C6B3A25640D0A00000A
:103D40004368697049443A253038780D0A0000000C
:103D50005631302E342E36004672656552544F531C
:103D6000204B65726E656C2056657273696F6E3A92
:103D700025730D0A000000005B4552524F525D2032
:103D800073686F756C646E27742072756E20617431
:103D9000206865726521210000010202030303030C
:103DA00004040404040404040505050505050505CB
:103DB00005050505050505050606060606060606AB
:103DC0000606060606060606060606060606060693
:103DD000060606060606060607070707070707077B
:103DE0000707070707070707070707070707070763
:103DF0000707070707070707070707070707070753
:103E00000707070707070707070707070707070742
:103E1000070707070707070708080808080808082A
:103E20000808080808080808080808080808080812
:103E30000808080808080808080808080808080802
:103E400008080808080808080808080808080808F2
:103E500008080808080808080808080808080808E2
:103E600008080808080808080808080808080808D2
:103E700008080808080808080808080808080808C2
:103E800008080808080808080808080808080808B2
:103E900008080808080808080000000000000000E2
:103EA0000000000000000000000000000000000012
:103EB0000000000000000000000000000000000002
:103EC00000000000000000000000000000000000F2
:103ED00000000000000000000000000000000000E2
:103EE00000000000000000000000000000000000D2
:103EF0000000000000000000232D302B20000000F7
:103F0000686C4C00656667454647000030313233C7
:103F100034353637383941424344454600000000C5
:103F2000303132333435363738396162636465662F
:043F3000000000008D
:103F34000200000003000000100000000000000068
:103F44000000000001020304060708090000000045
:103F5400010203040102030406070809000000002B
:103F6400B83E0000D83E0000983E0000000000006B
:103F7400000000000000000000000000000000003D
:103F8400000000000000000000000000000000002D
:103F9400000000000000000000000000000000001D
:103FA400000000000000000000000000000000000D
:103FB40000000000000000000000000000000000FD
:103FC40000D8B80502040608AAAAAAAA0700000095
:103FD400141300202C000020005000202C0000208E
:00000001FF
