:040000006F00103845
:100004000000000000000000EA090000EC09000004
:10001400000000007E0B0000000000000000000053
:100024007E0B00007E0B00000000000000000000BA
:100034006A1400000000000000010000000000003D
:100044007E0600007E0B00007E0B00007E0B00008D
:100054007E0B00007E0B00007E0B00007E0B000078
:100064007E0B00007E0B00007E0B00007E0B000068
:100074007E0B00007E0B00007E0B00007E0B000058
:100084007E0B00007E0B00007E0B00007E0B000048
:100094007E0B00007E0B00007E0B00007E0B000038
:1000A4007E0B00007E0B00007E0B00007E0B000028
:1000B4007E0B00007E0B00007E0B00007E0B000018
:1000C4007E0B00007E0B00007E0B00007E0B000008
:1000D4007E0B00007E0B00007E0B00007E0B0000F8
:1000E4007E0B00007E0B00007E0B00007E0B0000E8
:0C00F4007E0B00007E0B00007E0B000065
:10010000130181F806C216C41AC61EC822CA26CC1C
:100110002ACE2ED032D236D43AD63ED842DA46DC77
:100120004ADECEC0D2C2D6C4DAC6DEC8E2CAE6CC47
:10013000EACEEED0F2D2F6D4FAD6FED8F3220030D0
:1001400096DA9702002083A222FB23A02200F32547
:1001500010342EC003A18181EF2000051703002079
:10016000032383F903210300824273901234D65291
:10017000739002309240A2423243C2435244E2445E
:10018000724582551256A2563257C2575258E258FB
:1001900072598649164AA64A364BC64B564CE64C0F
:1001A000764D865D165EA65E365FC65F13018107DB
:1001B0007300203013000000130000001300000043
:1001C00013000000130000001300000013000000E3
:1001D00013000000130000001300000013000000D3
:1001E00013000000130000001300000013000000C3
:1001F00013000000130000001300000013000000B3
:1002000083A28181938202E073900234170100205F
:10021000032181EE024182403243C2435244E24410
:10022000724582551256A2563257C2575258E2585A
:1002300072598649164AA64A364BC64B564CE64C6E
:10024000764D865D165EA65E365FC65FD652A1020B
:1002500073900230A24213018107828013000000D4
:100260001300000013000000130000001300000042
:100270001300000013000000130000001300000032
:100280001300000013000000130000001300000022
:100290001300000013000000130000001300000012
:1002A0001300000013000000130000001300000002
:1002B00013000000130000001300000013000000F2
:1002C00013000000130000001300000013000000E2
:1002D00013000000130000001300000013000000D2
:1002E00013000000130000001300000013000000C2
:1002F00013000000130000001300000013000000B2
:10030000F322003093F272FF130380181203B3E25A
:100310006200711523205500130585FA10C12115BF
:10032000232005009302000063870200711523203B
:100330000500FD12D5BF71150CC1828000000000C0
:1003400000000000000000000000000000000000AD
:10035000000000000000000000000000000000009D
:10036000000000000000000000000000000000008D
:10037000000000000000000000000000000000007D
:10038000000000000000000000000000000000006D
:10039000000000000000000000000000000000005D
:1003A000000000000000000000000000000000004D
:1003B000000000000000000000000000000000003D
:1003C000000000000000000000000000000000002D
:1003D000000000000000000000000000000000001D
:1003E0000000000000000000000000000000397163
:1003F00001436EC619A0397141536AC866CA62CCFE
:100400005ECE19A0397101535AD056D252D44ED66D
:100410004AD826DA22DC06DE3301614082824111AD
:100420004AC026C222C406C68282B24D4101024D94
:10043000924C224CB24B4101024B924A224AB249A1
:100440004101024992442244B240410182803D432D
:100450002A876373C3029377F700BDEFADE5937608
:1004600006FF3D8ABA960CC34CC30CC74CC7410764
:10047000E36BD7FE11E28280B306C3408A0697027F
:10048000000096966780A6002307B700A306B70072
:100490002306B700A305B7002305B700A304B700E0
:1004A0002304B700A303B7002303B700A302B700D8
:1004B0002302B700A301B7002301B700A300B700D0
:1004C0002300B700828093F5F50F93968500D58DB4
:1004D00093960501D58D61B793962700970200008A
:1004E00096968682E78086FA9680C1171D8F3E9683
:1004F000E374C3F8A5B7EFF29FF24111AA84371451
:100500000140EF10B0052AC6130404C003C604025C
:1005100022858545134616002380C402EF00301261
:10052000930540066800EF101035CDB7EFF23FEFAE
:1005300041112A84EF1090022AC6B73400401309F3
:10054000000483A704C0182C93F7F70763F8E700AB
:100550006376F9001305F007EF00B03989456800AC
:10056000EF107031F9BFEFF2FFE937090020B7143F
:1005700001408569370A0020894A130909159384C7
:1005800004C0938929FD83278A0C63DBFA0483273F
:100590008900054683C7070285CF3724014013052C
:1005A0000440854605468545C12D13040440C147D6
:1005B0007CC489452285EF00A07765DDB72701401F
:1005C00003A6C7444206418233363601134616005D
:1005D00026858945EF00B0060145EF10B03665B7B6
:1005E000834700020290EFF29FE32A840565854568
:1005F00013050580EF00701C1305F007EF00702F46
:1006000013050018EF00302A1305F005EF00F02A5B
:100610001305F007EF00D02EEF0010301305C401D2
:10062000EF007004EF00D02BB7370040938707C06E
:10063000DC4393F7F7071CAC29B5EFF25FDE2A84A1
:10064000854513050020EF0070153165EF00100897
:100650009305040237240140130504405D2B130564
:1006600004408545112583274440370700051304BE
:100670000440D98F5CC0930700025CDCD9B3EFF271
:100680001FDAEF00D02819C51305F007EF00702618
:10069000EF0090287DB321C5EFF27FD8B717014056
:1006A000138707806316E5001145EF00300F51BB3B
:1006B000138707C06314E5002145C5BF6314F50027
:1006C0004145E5B7938707406315F5001305000220
:1006D000E9BFB7070140E31CF5FC0545F9B7828087
:1006E000B70600209386860C9C421D476356F7028E
:1006F000EFF2FFD289679387078073900730374600
:100700000000374500001306460793050003130554
:100710000509EF20406D01A0370700201396270040
:10072000130707153297850708C39CC28280EFF232
:100730007FCD411185452145EF005006371401401A
:10074000B7050020130504C093850500E52B054679
:100750008945130504C0E525B70400209387040CE0
:100760009C230F00F00F93F7F70FA1E71385040CFC
:10077000EF2020211DCD938741941307F00598AFFA
:1007800023AE07004147D8AF054798D3370700008D
:100790001307675E2382070023A4070023A6070030
:1007A00023A8070023AA070098C31385040CEF2091
:1007B000A01E138541942D37938641943705000080
:1007C000374400005C001D471306001093054400E9
:1007D0001305C55202C2EF10602E85472A896305B2
:1007E000F5028967938707807390073037460000CA
:1007F000374500009306440013064607F9451305E4
:10080000C500EF20405E01A0B70400209387040BD1
:100810009C230F00F00F93F7F70F37040020B5E388
:100820001385040BEF20E01529CD371701409307FE
:1008300004171307078098C70947DAA7372701402D
:100840001307074098CF37070E00D8D737070000A7
:100850001307A7632382070023A8070023AA070022
:1008600023AE070098C31385040B23A0070223A21D
:10087000070223A4070223A80702238A2703EF20E5
:10088000A01113050417A93D9306041737050000AE
:10089000374400003C001547130600109305C404BC
:1008A0001305655602C4EF10602185472A89630548
:1008B000F5028967938707807390073037460000F9
:1008C000374500009306C40413064607FD4513058B
:1008D000C500EF20405101A0B70400209387840B8E
:1008E0009C230F00F00F93F7F70FA9E31385840BF8
:1008F000EF20200905CD3717014093870192130798
:1009000007C098C70D4798CB414723A00700238213
:10091000070023962701D8CB23AC070023AE07009E
:100920001385840B23800702EF20000713850192B3
:10093000453BB7440000370500007C0093860192D8
:100940001D4713060010938584051305654F02C6E5
:10095000EF10C01685470144631DF504B70400205D
:10096000370A002093840415854A83258A0C635630
:10097000B40613192400B389240183A7090095C77D
:10098000D82305E788478545393383A70900884779
:100990009385C700452E03A509001C4191C382978A
:1009A0002699832709002382570105041374F40F45
:1009B0006DBF8967938707807390073037460000C3
:1009C0003745000093868405130646079305000209
:1009D0001305C500EF20204101A037450000130595
:1009E000C505EF204040410181BC01A041113EC43A
:1009F000B707EFBE3AC69387070837E700E03CC762
:100A000001A0B71702409843B706FFF041111367E2
:100A1000170098C3D84337060200758FD8C3984390
:100A2000B706F7FEFD16758F98C39843B706FCFF0F
:100A3000FD16758F98C3D843B70601FFFD16758F55
:100A4000D8C337079F0098C702C402C69843C1663F
:100A5000558F98C3B716024005679C42F18F3EC67A
:100A6000A24785073EC4B24781E7A247E397E7FE66
:100A7000B71702409C431397E70063570706854763
:100A80003EC632478547631FF704B7170240D84375
:100A9000B706C1FFFD16D8C3D843D8C3D8431367E0
:100AA0000740D8C3D843758FD8C3D843B7062900A9
:100AB000558FD8C39843B7060001558F98C3984304
:100AC00093166700E3DD06FED843B7160240719B1C
:100AD000D8C3D84313672700D8C32147DC42B18B62
:100AE000E39EE7FE4101828002C661BFB716024065
:100AF000DC42370700201146B18B130707096385D5
:100B0000C70021466388C702B7177A00938707207A
:100B10001CC3B7170240DC43918393F6F700B70775
:100B200000209387C700B69794231C43B3D7D70000
:100B30001CC38280DC42D4424166C983BD8BF18EE6
:100B4000890745466393C700C94781EEB74602400F
:100B500083A60680C18A89CEB7167A0093860620BE
:100B600021A8B7160240D4421396E600E35606FECB
:100B7000B7163D0093860690B387D70251BF01A0F8
:100B800097010020938101D1174100201301814773
:100B9000174500001305458797F5FF1F9385854688
:100BA0001386018263FAC5008322050023A0550045
:100BB00011059105E3EAC5FE17F5FF1F1305854FE3
:100BC000971500209385857A6377B500232005006B
:100BD0001105E36DB5FEFD42739002BC894273902E
:100BE0004280B7220000938202807390023097F215
:100BF000FFFF9382624193E2320073905230EFF034
:100C00005FE097220000938262D0739012347300E9
:100C100020305C413707F1E01307F7EF944D7D8FEB
:100C20009C41D58FD44DD58FD441A206D58FD98F75
:100C30005CC11C4537F7F1FF1307D77FD4457D8F83
:100C40009C49D58F94458606D58FD98F1CC55C5598
:100C5000370710FF7D177D8FDC29FD1793F7F70FFE
:100C6000D207D98F5CD582801C4589C593E71700D0
:100C70001CC58280F99BEDBFA54763F7B7048D477C
:100C8000138765FF3307F7020328C5009D47B39715
:100C9000E70093C7F7FFB3F70701B396E600DD8ED1
:100CA00054C5994763E3C70495477D163306F6029A
:100CB0005859FD47B397C70093C7F7FFF98F33968D
:100CC000C5005D8E50D982800D473387E502032829
:100CD00005019D47B397E70093C7F7FFB3F70701F7
:100CE000B396E600DD8E14C96DBFB14763E2C7025B
:100CF000954765163306F6021859FD47B397C700A6
:100D000093C7F7FFF98F3396C5005D8E10D98280A7
:100D100095474D163306F6025855FD47B397C70061
:100D200093C7F7FFF98FB395C500DD8D4CD5828051
:100D300008416D8D3335A0008280B7F7FF1F03A5F2
:100D4000477082809C4513F7070113F8F70001C72D
:100D5000D8413368E80037270240145B3707000F9B
:100D6000758F5DEB3707002085462306D70C3717B4
:100D700001406315E5009A2135839AA18E2113F76E
:100D8000F50F39C318418146854E3D4F930F8002C0
:100D900093028004214E3396DE00B3F8C500631140
:100DA00016039398260033131F011343F3FF337781
:100DB000E300B318180133E7E8006399F70750C957
:100DC0008506E39AC6FD18C11307F00F6375B704D3
:100DD00054412146854E3D4F930F8002930280047B
:100DE000414EB398CE0033F715016392E802131712
:100DF000260001173313EF001343F3FFB376D3003C
:100E00003317E800D98E6397F703232A15010506E7
:100E1000E319C6FD54C1828037170140E310E5F69F
:100E2000370700200347C70C31DBB1B7E39A57F807
:100E300010C979B7E39D57FC23281501C9BFB7171F
:100E400001406318F500B707002083C7C70C91C3A2
:100E5000B58119C20CC982804CC98280B7070020B5
:100E600023A8A70C8280B707002003A7070D85479A
:100E700014216310F7021C31639CE7023C219607A2
:100E800093E707F837E700E093F7F70F369723006B
:100E9000F740054793D756003317D700544189CE02
:100EA000938707048A07B7E600E0B69798C3828065
:100EB000EDF33C219607F9B793870706B7E600E004
:100EC0008A07B69798C30F1000008280B7160240B9
:100ED000DC4251777D17F98F5D8DC8C2828037174C
:100EE00002405C439146B18B6385D700A146638283
:100EF000D706B7177A00938707201CC13716024020
:100F00005C42370700201307C7019183BD8BBA9756
:100F100094231C41B3D7D7005CC15442A1829D8A5F
:100F2000BA969422B3D6D70014C55442AD829D8A96
:100F300036971823B3D7E7005CC5584239839376B8
:100F400037001387418036971823B3D7E7021CC9AF
:100F500082805C435843C166C983BD8B758F890706
:100F6000C5466393D700C94701EF374702400327BF
:100F70000780418B09CF37177A001307072021A874
:100F80003717024058439316E700E3D606FE37179B
:100F90003D0013070790B387E70285B799C5371758
:100FA00002401C4F5D8D08CF8280B7170240984FDA
:100FB0001345F5FF798D88CF828099C53717024098
:100FC0005C4F5D8D48CF8280B7170240D84F1345E4
:100FD000F5FF798DC8CF8280EFF26FC41A29F577BB
:100FE000FD17F98FFA2101112A84D98F1EA99A259C
:100FF000DE215625AE84D98FBA25D98F7D77130788
:10100000379F758FD98F5EA55E29DA25C207C18308
:1010100093F7F7CFD98F5EA96800D135B747014064
:10102000938707806317F404E2476545B335F502FB
:10103000904081460A063305F502EF10901693069C
:1010400040063357D502120793574700B387F6027D
:101050001D8D93174500138527039307F06363FCE9
:10106000A70013050701420541810AA405616FF03D
:101070004FBDD2475DBF3355D502598DEDB791C5F0
:101080005E250967D98F5EA582805A25F977FD17FD
:10109000F98FD5BF93F5F51F4EA182800A216D8D82
:1010A0003335A000828037370040832747C093F74D
:1010B000F7E75D8D2322A7C08280411102C6B737B2
:1010C000004003A747C01375F507137707F83AC622
:1010D0003247598D2AC6324723A2E7C04101828098
:1010E000B737004003A747C01367072023A2E7C014
:1010F00082801375F507B737004023A0A7C0828010
:1011000013650508B737004023A0A7C08280B73712
:10111000004003A587C08280B737004023A407C0E2
:101120008280B70700209387C70E9843636FA7029A
:10113000D043B386C7006316D50054413E85B296AE
:10114000D4C35041B306C500631CD700B7060020C6
:1011500083A6460D6306D70054431843B29654C184
:1011600018C16303F50088C38280BA877DBFEFF2A0
:101170006FA941112AC6EF00703DB706002083A772
:10118000460D370600209386460D1306860D324520
:10119000A1EF370700209307871F93F5F700130788
:1011A000871F81C51387F700419BB70500209385F2
:1011B000C50E23A2050098C18965C115AE97C19BD4
:1011C00023A2070023A00700B385E7409CC21CC3ED
:1011D000B707002023A0B70EB707002023AEB70C37
:1011E000B70700804CC31CC2032A0600B377AA00CD
:1011F00085E39307F5FF3957636CF7009307050103
:1012000013F7F70041C313F707FF410763EBE70646
:10121000814489A022872E8461A058C15CC0113707
:101220005840B70600209386060E9042B307E94067
:1012300023A0F90063F3C7009CC2B70700203367FF
:10124000EA009387470E58C09843C1042320040046
:10125000050798C3EF00D04B93F7F400D1CB896713
:1012600093870780739007303746000037450000AA
:101270001306C60E9305001113054511EF10B03685
:1012800001A0BA87370700200329C70D9309C70DAE
:10129000E360F9F8370700200324C70E1307C70ED1
:1012A00050406374F6000C40B5F59442E38286F634
:1012B0001440044314C33307F64093060002E3F1DD
:1012C000E6F63305F4009376F500A1DA8967938793
:1012D000078073900730374600003745000013063B
:1012E000C60E9305F00C13054511EF10D02F01A089
:1012F000268541016FF04F9455C1EFF24F92B70729
:101300000020032745FF83A7870D2A84B376F700C3
:101310009DE2896793870780739007303746000006
:10132000374500001306C60E9305401213054511FC
:10133000EF10702B01A0832605FF9DC2896793875C
:1013400007807390073037460000374500001306CA
:10135000C60E9305501213054511EF10D02801A0B9
:1013600093C7F7FFF98F232AF5FEEF00301EB7076A
:1013700000209387C70D9443032744FF130504FF00
:10138000369798C3793BB70700209387870E984319
:10139000050798C3EF00D0376FF0AF8A8280B7E7B8
:1013A00000E041572387E7402386E740B7F700E096
:1013B00023A0070023A20700814694C70147D8C78E
:1013C00037070020832507091307401F814633D6BE
:1013D000E5023D4790CBD4CB98C38280EFF22F84B7
:1013E000411102C6F32750303EC6B2470D478D8BE0
:1013F0006384E702896793870780739007303746D5
:10140000000037450000130686139305600B130593
:101410004511EF10501D01A0B7570020938707001A
:10142000BD8B9DC3896793870780739007303746CC
:10143000000037450000130686139305B00B130513
:101440004511EF10501A01A0993FB7E700E011676E
:1014500023A0E710056723A0E71023A40180EFE095
:101460003FDA014541016FE0DFFD397106DE16DC30
:101470001ADA1ED82AD62ED432D236D03ACE3ECC64
:1014800042CA46C872C676C47AC27EC0731101349D
:1014900089679387078073900730B7F700E023A22E
:1014A0000700EF00500C11C5B7E700E0116723A05B
:1014B000E720896793878788739007307311013419
:1014C000F250E2525253C2533255A255125682562E
:1014D0007247E2475248C248324EA24E124F824FE4
:1014E00021617300203089679387078073900730EC
:1014F000938781809843050798C3828013878180F2
:101500001C438DE7EFE2BFF18967938707807390F3
:101510000730374600003745000013068613930551
:10152000301013054511EF10100C01A0FD171CC35E
:1015300091E7896793878788739007308280930744
:1015400085007D575CC118C55CC51CC923200500FA
:1015500082802328050082809841FD5693078500EC
:10156000631ED7001C49D843D8C10CC79CC5CCC347
:101570001C4188C985071CC18280B687D44390422C
:10158000E37DC7FECDB7544118451C4998C654C3E6
:10159000D4436393A600D8C39843232805007D173E
:1015A00098C388438280EFE29FE741112AC6253F16
:1015B0003245005DA1371335140041016FE07FE82B
:1015C000304115C2EFE2BFE558451445AA8732976E
:1015D00058C56364D700184158C52E85CC47EF1015
:1015E00060756FE01FE68280EFE27FE32A84E53DCD
:1015F0008344540413094402E204E18463459002E5
:10160000FD57A302F404DD3DF93D8344440413096E
:101610000401E204E18463449002FD572302F404D0
:10162000F13D6FE01FE25C50E1DF4A85EF00504F73
:1016300019C1EF00106AFD14E204E184C1B71C482F
:10164000E9DF4A85EF00D04D19C1EF009068FD1425
:10165000E204E184C9B7EFE29FDC41111DE1896733
:1016600093870780739007303746000037450000A6
:10167000130606169305001113054511EF10A07609
:1016800001A05C5D2EC62A84BDC33841B3B7E70212
:10169000B9EF913D3040585C1440232C0402B3074D
:1016A000E602B24554C03387F600918FB6975CC40A
:1016B000FD572302F40418C4A302F40495E11C4866
:1016C00099CB13050401EF00B04511C5B7E700E061
:1016D000116723A0E7201D35054541016FE07FD646
:1016E00013050401A93D13054402913DEDB7896737
:1016F0009387078073900730374600003745000016
:10170000130606169305501413054511EF10A06D2E
:1017100001A0EFE2DFD0411121C1B3B7A502AA8435
:1017200085EF3305B502930770FB63E7A702130546
:1017300085042EC62D3C2A8401CDB245AA8799C1C5
:10174000930785042CC01CC044DC854522852137C5
:10175000228541016FE0FFCE8967938707807390F0
:10176000073037460000374500001306061693057C
:10177000601C13054511EF10006701A0EFE2BFC721
:10178000011132C61DE18967938707807390073086
:10179000374600003745000013060616930510551E
:1017A00013054511EF10206401A02A84AE898DE550
:1017B0003C419DC389679387078073900730374604
:1017C0000000374500001306061693055055130513
:1017D0004511EF10406101A0EF00705015E5B247D0
:1017E000014985C78967938707807390073037461B
:1017F000000037450000130606169305A055130593
:101800004511EF10405E01A001497D5A930A440240
:1018100037EB00E0916B95A0B24781E7C5310145F8
:1018200059A0631509002808EF00503EC139392B33
:101830005D3983474404E207E1876394470123024B
:10184000040483475404E207E18763944701A30239
:1018500004046D316C002808EF00B03C21ED2285B6
:10186000993329C5B2455685EF00B01F2285AD3B9F
:10187000452519E123207B210549B531045CC9DCEC
:10188000CE852285FD142D3B04DC1C4899CB130525
:101890000401EF00F02811C5B7E700E0116723A0AD
:1018A000E720A939054505616FE07FB822852D3B0A
:1018B0008525D9B722850D3BA12D2285ED314DDD42
:1018C000B9BF15E5EFE2BFB58967938707807390CD
:1018D00007303746000085653745000013060616B9
:1018E000938585AC13054511EF10E04F01A09DCD08
:1018F000372600209306861F814701471306861F5F
:10190000214883A846006398A80093173700B29730
:101910008CC3C8C321A891E783A80600639308007D
:10192000B6870507A106E31E07FDFDF38280EFE2FF
:101930001FAF41112A842EC632C475368347440432
:101940007D572246E207E187B2456394E700230210
:101950000404834754047D57E207E1876394E7005A
:10196000A302040432C62EC4513E1C5CA24532467A
:1019700089E713054402EF0050132285B531410178
:101980006FE03FAC370700201307870F1C439443D9
:10199000B70700209387871181E67D5798C382801F
:1019A000184358471843DDBFEFE2DFA5B704002016
:1019B000B70700201389440F83A987122A840325BF
:1019C000090041112EC611057D3E7D579387440FB6
:1019D000B2456311E4049DCDB727002093874731BA
:1019E00083260900D84398C6104783260900D0C62D
:1019F000832609001047910654C2832609009106E8
:101A000014C7032709005CCB9843050798C341011D
:101A10006FE09FA298434E9440C3637A3401370726
:101A200000200325C70F8C4391053D36CDB73707FE
:101A300000200325870F8C439105393EB70700200E
:101A4000938787119843E374E4FC80C3C9B7EFE23E
:101A50007F9B37240020B709002013048432370A03
:101A60000020B72A0020938449109C4089EF938777
:101A70008A2398438547E3F8E7FEB7E700E011675C
:101A800023A0E720CDB7EFF01FA65C4403A9C70051
:101A900013054900EFF03FAF13070A101C43FD1771
:101AA0001CC39C40FD179CC0EFF05FA503250903F4
:101AB000EFF09F844A85EFF03F8475B7EFE2BF9364
:101AC00013192600AA8A4A852E8A368BBA8BBE89BC
:101AD000EFF0EFE91DC1AA8413054005EFF02FE9EF
:101AE0002A8409C904D98147C146631A0A00230A16
:101AF000050225A02685EFF03F807D5555A23307CE
:101B0000FA00030707003306F400230AE60201C7C0
:101B10008507E396D7FEA30104049D4763F477038A
:101B200089679387078073900730374600003745F1
:101B30000000130646179305703913054511EF1081
:101B4000802A01A0130A440052852326740323220D
:101B5000740523240404EFF0DF9F13058401EFF0E4
:101B60005F9F21471305C9FF33077741269500C8BA
:101B700018CC40D023060404A3060404230704045D
:101B8000A3070404230804045A86D6854199EFE08C
:101B90002FF708C06384090023A08900EFF0BF94E9
:101BA000B7070020938707109843B7040020B72990
:101BB0000020050798C31387440F18439384440FEC
:101BC000138989236310070E80C0984385476316E5
:101BD000F70693898923930A090A4E85D109EFF004
:101BE0001F96E39C3AFF37250020930A852D1305A5
:101BF000852DEFF0DF94372500209309C52E1305BE
:101C0000C52EEFF0DF933725002013050530EFF0E8
:101C10001F933725002013058532EFF05F9237259B
:101C2000002013054531EFF09F91B707002023AC4A
:101C3000570FB707002023AE370FB7070020938751
:101C4000C7109843050798C33707002013070711EB
:101C50005C54144363F3F6001CC35147B387E70297
:101C6000CA97D843144718C454C4144723A2460142
:101C70002324470198435CC8050798C3EFF01F88E9
:101C8000B707002083A74712054599CB9C40D8573A
:101C90005C546377F700B7E700E0116723A0E72003
:101CA0006FE0EFF8B707002083A74712D9F79C40F1
:101CB000D8575C54E3E3E7F880C041B7EFE22FF672
:101CC000B7070020B745000037250000938747116C
:101CD0000147814613060020938585181305E5A466
:101CE000F13B0544631E8502EF00102D631A850247
:101CF00089679387078073900730B70700207D5767
:101D000023ACE710B707002023A2A712B7070020D3
:101D100023A40712EFF08FEC83A7C1806FE06FF26E
:101D2000FD57E31BF5FE89679387078073900730A3
:101D30003746000085653745000013064617938532
:101D4000058413054511EF10000A01A0B707002014
:101D5000938787109843050798C38280B7070020B0
:101D600003A587128280B707002083A78710639896
:101D70000718EFE2CFEAB707002093878712804366
:101D8000050480C339E8B70700209387870F98437D
:101D9000184305C7896793870780739007303746D4
:101DA000000085653745000013064617938575AC1E
:101DB00013054511EF10200301A03707002013077A
:101DC000C70F9443104390C3B707002014C39387F1
:101DD000C7119843050798C3753637060020930747
:101DE00086119C4337270020B70500201306861173
:101DF000130787239385450F01456375F4029C41C2
:101E0000D146DC57B387D7023E971843854763F323
:101E1000E7000545B707002083A7C71291C3054512
:101E20006FE02FE2370E0020B70E0020514F9307CE
:101E30008E0F9443944281E6FD571CC2C9B79C4360
:101E4000DC47DC47D4436374D40014C24DBF83A87D
:101E5000870003A8C700D44B1383470023A40801BD
:101E60002322180183A846006394680023A2060178
:101E700003A8060023AA07007D1823A00601945793
:101E800095CA03A8C70183A8070283AF460023248D
:101E9000180183A8070223A208011388870163940D
:101EA0000F0123A2160103A8060023A407027D1830
:101EB00023A0060193860E1103A8C70283A806007B
:101EC00063F4080123A00601B306E803BA9683A8C9
:101ED000460083AF880023A4170123A6F70183AF30
:101EE000880023A26F0023A46800D4CB9C428507FE
:101EF0009CC29C41DC57E36CF8F205450DBFB70767
:101F000000209387071298430145050798C38280F4
:101F1000EFE24FCF37040020130484101C4041111E
:101F200085E78967938707807390073037460000FD
:101F3000856537450000130646179385358B1305D5
:101F40004511EF00506A01A0EFF0EFD91C40FD17DA
:101F50001CC01C4089CB01452AC6EFF02FDA324560
:101F600041016FE06FCDB707002083A70710E5D7C9
:101F7000B726002037250020814793860630370F8B
:101F8000002013058523D14837030020370E002099
:101F9000854E59A8DC46DC47CC4F9053985790C5E6
:101FA00003A807022322B80003284700938587016E
:101FB0006313B80050C3104323A407027D1610C357
:101FC0008C47D047D84B1388470090C54CC24C4330
:101FD0006393050150C3104323AA07007D1610C365
:101FE00013070F11D0570C4363F3C50010C3330719
:101FF00016032A974C4383AF85008CC723A6F701AD
:1020000083AF850023A20F0123A405010C43D8CB85
:1020100085050CC31307430F184358576366E60042
:102020001307CE122320D70198422DF799C3EFF062
:102030007F95B70700201387071204431384071204
:1020400091CC370900208549393B09C59307C9124E
:1020500023A03701FD14EDF823200400B70700206A
:1020600083A7C712E38907EEB7E700E0116723A053
:10207000E7200545D5B5EFE28FBA41111DE189672B
:10208000938707807390073037460000374500007C
:10209000130646179305104F13054511EF00B05472
:1020A00001A09DE1896793870780739007303746C9
:1020B000000037450000130646179305204F13050F
:1020C0004511EF00505201A0B707002083A78710E9
:1020D0009DC3896793870780739007303746000058
:1020E00037450000130646179305304F1305451179
:1020F000EF00704F01A02A842EC689391840B245DE
:10210000B707002003A58712B307B7001CC0637090
:10211000E50263E0E7020144E53B11E5B7E700E0D3
:10212000116723A0E720228541016FE08FB163E4AE
:10213000E700E372F5FE81453385A740EFF0DF86C7
:102140000544D9BF19E5B7E700E0116723A0E720F0
:102150008280EFE2CFACB707002083A78710411140
:102160009DC38967938707807390073037460000C7
:102170003745000013064617930590541305451183
:10218000EF00704601A02AC6EFF05FBC32458145E2
:10219000EFF09F81B53B11E5B7E700E0116723A0A1
:1021A000E72041016FE0EFA9B707002003A78710E0
:1021B000B70700209387C71201C7054798C38280DD
:1021C000EFE2EFA53704002023A007009307440F98
:1021D00098439C431304440F18439C5B63E8E70057
:1021E00008400C4093854503EF000078B7070020B6
:1021F00013870711184313860711B7270020938709
:1022000087235148B3060703B385D700884105C526
:10221000C841A106BE964841C8C16314D5005441C7
:10222000D4C1D146B306D702B697DC43DC471CC005
:1022300018C26FE00FA105E7896793870780739045
:1022400007303746000085653745000013064617FE
:10225000938525C013054511EF00F03801A07D17C7
:1022600055B7EFE2CF9B05E58967938707807390A9
:1022700007303746000085653745000013064617CE
:102280009385C5C113054511EF00F03501A0B707CF
:1022900000202E8483A5470FE105EFF0EFAB8545C5
:1022A0002285EFF06FF06FE0CF99EFE24F972A872A
:1022B00005E58967938707807390073037460000EC
:1022C00085653745000013064617938525C5130518
:1022D0004511EF00503101A0B70700209387470F49
:1022E00054432E858C4303A88600D4CD8C4323A071
:1022F000050303A807008C46610823A2050103A873
:1023000007009C43610823A4060198D71C43850756
:102310001CC311C27D55B285EFF00FE96FE06F92DB
:102320005C45DC4795E7EFE28F8F896793870780ED
:102330007390073037460000856537450000130667
:102340004617938525C813054511EF00D02901A034
:10235000D04F945398579385870114C6D0C25043E9
:102360006313B60054C3144323A40702FD1614C319
:102370003707002003278710D45725EF8C47D04715
:10238000D84B90C5D04748434CC293854700631350
:10239000B50050C3104323AA07007D1610C33707AA
:1023A00000201307071110436373D60014C351476D
:1023B0003386E602372700201307872332975043DE
:1023C000084690C7C8C708464CC10CC6D8CB1C43AA
:1023D000014585071CC3B707002083A7470FDC57BB
:1023E00063F8D700B7070020054723A6E712054585
:1023F0008280372700201307073050430846D0CF8C
:1024000088D308464CC10CC698D7D1B7B70700206F
:1024100083A7C7111CC1B707002083A787125CC11F
:102420008280EFD2DFFF411105E58967938707803E
:102430007390073037460000856537450000130666
:1024400046179385D5CF13054511EF00D01901A08C
:1024500085E58967938707807390073037460000CA
:10246000856537450000130646179385E5CF1305AC
:102470004511EF00501701A02EC62AC4EFF0AF8619
:10248000B245B707002083A687129C417D570144BF
:102490006381E7022245370600200326C611032880
:1024A00005005841630DC80063EBE60023A005005A
:1024B0000544EFF0AF84228541016FD09FF8338649
:1024C000E640E375F6FE958FBA979CC181370144CB
:1024D000CDB7B7070020054723A6E7128280B707CC
:1024E000002083A74712054581CBB707002003A52D
:1024F00087101335150006058280EFD25FF237048E
:102500000020EFE05FFE1304C4131C40B1E7372541
:1025100000201309C5331305C533EFF04F8237256B
:1025200000209304053513050535EFF04F81B707FB
:10253000002023A827130146B7070020B14509450D
:1025400023AA9712EFF0EF9C08C019C5B745000009
:102550009385451BEFF0EFB6EFE05FFA6FD07FEEAB
:10256000EFD2FFEB4CC108C9AA876362B602184DCF
:10257000158E0545637BE60093854700B70700206D
:1025800003A54713EFE05FFD01456FD09FEB637537
:10259000D6000545E3FBD5FE93854700B70700202D
:1025A00003A50713C5B7EFD29FE72A84AE8432890B
:1025B0000C4CA6864A86A69522855D3719E16FD018
:1025C0005FE81C4C2285BE941C508297D5B7EFD291
:1025D0001FE5B707002083A707134111AA84DC4732
:1025E0002EC6C04713054400EFE0FFF983474402BD
:1025F000324613F7470011CBA68522856D371C5054
:102600002285829741016FD0DFE3F99B2302F40218
:10261000FDB7EFD2DFE037040020930604139842A1
:102620001C4391EBB707002093874713904398C34F
:1026300090C26FD01FE15C47FD558843493FF1BF11
:10264000EFD27FDB11694111B70A0020B7090020E2
:10265000370B0020B70B00201309091983A70A13B1
:10266000984329CBDC47814C03AC0700EFF00FEE19
:10267000EFF0CFEE83A789132A8493848913130A7A
:10268000CB13636CF50288C0638F0C0283A74B13D6
:1026900090431336160003250A00B3058C40EFF073
:1026A0000FA9EFF0FF8611EDB7E700E0116723A057
:1026B000E72001A8854C014C55BFA13F80C0EFF039
:1026C0003F85214CA9A00146E36785FDEFF05F84BB
:1026D000A2856285ED3DF5B7834744020C4CA246C6
:1026E00093E717002302F4026686B69522858D3D96
:1026F00019CD8347440213F7470021CF1C4CA24554
:1027000066862285BE9545351C5022858297032515
:102710000A0001464C00EFF06F8629D19247E3C8CA
:1027200007FE32445C4889C713054400EFE0BFE56B
:10273000EFF0CFE29C40AA8C6373F500D93D92473D
:1027400023A09401FD17E364FCFC8A07CA979C430D
:102750008287F99B2302F40245BF83474402F99B19
:102760002302F4026DB783474402A24593E71700A2
:102770002302F4020CCC95E189679387078073905C
:10278000073037460000374500001306C61B930587
:10279000903513054511812D01A0E6866686E695E4
:1027A00022857D3BADB78347440213F7270045FBE5
:1027B0002285EFE07FB4A1BFEFD27FC63D3BB707D4
:1027C000002083A7C71395E38967938707807390D9
:1027D000073037460000374500001306C61B930537
:1027E000901113054511012501A0B7070020B74539
:1027F000000037250000938707141D478146130604
:1028000000209385451D13050564EFF02FAB4DDDCA
:102810006FD03FC3B707002083A7070937177A0097
:1028200013070720B3D7E7023707002093F7F70F06
:102830002303F7141307803EB387E702370700200E
:102840002312F7148280EFD29FBD2A8411650111F3
:1028500085451105EFE08FF4930700207C82371542
:1028600001408D473EC44C00E147130505803EC63C
:10287000EFE04FCD22C837440140B70708000C08ED
:10288000130504803ECC02CA231E0100EFE0CFF402
:10289000854513050480EFE08FFE05616FD07FBA98
:1028A000EFD25FB6B7440140AE89328901449384C8
:1028B0000480634524014A856FD01FB89305000446
:1028C0002685EFE0AFFD7DD9B387890083850700BA
:1028D00026850504C205C181EFE0CFFBD9BF138770
:1028E00001811C43B7260020938686363E95636B94
:1028F000D500B75600209386068063E5A60008C37E
:102900003E858280FD57EDBFEFD27FB10545EFE0F8
:10291000EFD4EFE0AF9DFD3D716513050520253730
:10292000B707002083A50709374500001305C51D1B
:102930005D29EFE08FC0AA85374500001305C51E4D
:102940005D21B7450000374500009385C51F13057D
:1029500045205129EFD0BFDDEFF04FB637450000DD
:1029600013054522592B01A0EFD27FAB89679387CE
:102970000780739007303745000013054524A521D3
:1029800001A01C2181EB1C3191C3029085471CB131
:1029900005458280014582808547A30005001CA172
:1029A0008280B687B2882A832E88639B061463F8D8
:1029B000C50A4167636BE61AB70700016360F63426
:1029C00093568601E147172700001307278A369799
:1029D0001823BA97130700021D8F19CB3398E5000F
:1029E000B357F500B318E60033E807013313E500E9
:1029F00013D608013355C80293960801C182935734
:102A000003013377C802B385A60242073368F70093
:102A1000637AB80046989307F5FF6364180163650D
:102A2000B8303E853308B8403357C80242031353C9
:102A300003013378C802B386E602420833686800AF
:102A4000637BD80046989307F7FF636518017917F1
:102A50006363D8003E874205598D8145828001E637
:102A60000547B358C702416763E8E80EB70700019E
:102A700063EAF82893D68801E14717170000130787
:102A8000E77E36971423BE9693070002958FFDE7E5
:102A9000939E08013387154113DF080193DE0E0171
:102AA0008545935703013355E7033377E703B306AF
:102AB000D5034207D98F63FAD700C6971307F5FFEE
:102AC00063E4170163E5D7263A85958F33D7E7038B
:102AD000420313530301B3F7E703B30ED703C2074F
:102AE000B3E7670063FBD701C6979306F7FF63E57B
:102AF0001701791763E3D70136874205598D828024
:102B000063E1D504C16763E1F604B707000163E33D
:102B1000F61E13D786016148971700009387077543
:102B2000BA979823130E00024297330EEE40631AB1
:102B30000E0C63EDB61C3335C500134515008145F9
:102B400082808145014582809307F00F63F3D71C93
:102B500013D786002148C9B71307F00FC686E37E56
:102B600017F193D68800A14709BF1307F00FB2866B
:102B7000E37BC7E493568600A147B1B5B398F8004C
:102B800033D6D50013DF0801335EE6033397F50033
:102B9000B356D500558F939E080193DE0E01331373
:102BA000F50093550701B376E603B387CE03C2065B
:102BB000CD8E63FBF600C6961306FEFF63E4161780
:102BC00063F2F616791EC6969D8E33D6E6039317EA
:102BD0000701C183B3F6E6033385CE0213970601DE
:102BE0005D8F637BA70046979307F6FF6368171313
:102BF0006376A7127916469793150E01098FD18D2A
:102C00004DB5B357E600B396C601DD8E33D3E5006C
:102C100013DF0601B357E303939E060193DE0E0113
:102C20003398C5013357E50033680701935808010D
:102C30003316C6013373E303B385FE024203B36860
:102C4000130163FBB800B6981387F7FF63EAD80C4B
:102C500063F8B80CF917B698B388B84033D7E803CF
:102C6000420813580801B3F8E8033383EE02C208A0
:102C7000B3E5080163FB6500B6951308F7FF63ED44
:102C8000D50863FB65087917B695C207416FD98FE0
:102C90001307FFFFB3F6E70093D80701718F418256
:102CA000B38EE602B3856540B386C60213D80E0123
:102CB0003387E802BA96C2963386C80263F3E60009
:102CC0007A9693D80601469663E2C5026385C500ED
:102CD0003E858145828041677D17F98EC206B3FE2D
:102CE000EE003315C501F696E374D5FE1385F7FFA4
:102CF0008145828013D70601414839BD93560601AC
:102D0000C147D1B193D60801C14785BB814505456F
:102D100082803687014809B5428785BF3E86E9BD76
:102D2000BA871DBF328E4DB579154698E5B979152C
:102D3000C69761BBB3C7A5008D8B3307C50081E77C
:102D40008D4763EDC700AA87637EE5089421850758
:102D50008505A38FD7FEE3EBE7FE828093763500EF
:102D6000AA8789CA942185078505A38FD7FE93F684
:102D70003700C5BF9376C7FF138606FE63F0C7060C
:102D800083A3050083A2450083AF850003AFC50080
:102D900083AE050103AE450103A3850183A8C501E8
:102DA0009385450223A0770003A8C5FF23A25700FF
:102DB00023A4F70123A6E70123A8D70123AAC7016B
:102DC00023AC670023AE17019387470223AE07FFAA
:102DD00075B790419107910523AEC7FEE3EBD7FE8F
:102DE000E3E6E7F6828039713EDA2ED232D436D667
:102DF0003AD842DC46DE9387418122CC804326CA02
:102E000006CEAA8409C41C4C99E32285ED290C4402
:102E100054102686228536C6EF00F013F240624435
:102E2000D24421618280011126CA4AC806CE22CC32
:102E30004EC652C4AA842E8901C51C4D91E3E121DE
:102E40009C4C804499E326857D2997170000938741
:102E5000E753631BF402C0405E24A18BB1C71C483A
:102E6000A1C7FD59294A1C4483450900FD17B1E952
:102E70001CC463DD07062286A94526856120FD570F
:102E80006308F502294535A097170000938707527C
:102E90006314F4008044C9B7971700009387074D67
:102EA000E31CF4FAC0444DBFA2852685112A55D9EA
:102EB0007D55F2406244D2444249B249224A0561FA
:102EC00082801CC4050963D70700184C63CAE70059
:102ED000638845011C401387170018C08CA361B795
:102EE000228626850520E31035F9D9B71C401387C3
:102EF000170018C0294798A371B793874181AA8505
:102F0000884315B7011122CC26CA4AC806CE4EC640
:102F1000AA842E89328401C51C4D91E3ED269717B2
:102F200000009387A7466317F406C0401C4C1CC4DE
:102F30005E24A18BC1C31C48B5CF1C4808409379BF
:102F4000F90F1379F90F1D8D5C486346F500A285D2
:102F50002685692C25E51C440505FD171CC41C406D
:102F60001387170018C0238037015C486388A700C7
:102F70005E24858B81CBA9476316F900A28526853F
:102F8000B5240DEDF24062444A85D2444249B2492B
:102F90000561828097170000938747416314F4000E
:102FA000804469B7971700009387473CE310F4F813
:102FB000C044ADBFA2852685212041D17D59D9B716
:102FC00041119387418126C2844322C44AC006C668
:102FD0002A892E8489C49C4C99E326852D2697172F
:102FE00000009387A73A631BF402C0400317C40094
:102FF00093170701C18393F68700ADEA93F60701A3
:1030000095EEA5472320F900136707045AA47D55C0
:10301000B240224492440249410182809717000045
:103020009387C7386314F4008044C9B7971700002A
:103030009387C733E31CF4FAC0444DBF918B9DC303
:103040004C5889C9930744046384F5004A853123A9
:10305000232A04025E242322040093F7B7FD5EA412
:103060001C481CC05E2493E787005EA41C4899EBB3
:103070005E241307002093F707286385E700A285E5
:103080004A85A1215E2413F717001DC35C48232441
:103090000400B307F0401CCC1C480145B5FB831766
:1030A000C40013F707082DD793E707045EA485B77C
:1030B000898B014791E3584818C4F9BFDE250111F7
:1030C00022CC26CA06CE4AC84EC613F78700AA8469
:1030D0002E8479EBD841634DE000B841634AE000AB
:1030E0000145F2406244D2444249B24905618280BE
:1030F00058547DD703A904009396370123A00400F8
:1031000063DB060670485E24918B99C75C401D8E78
:103110005C5899C33C401D8E5C540C5081462685FA
:103120008297FD575A24631DF5009440F54763E8E4
:10313000D706B70740208507B3D7D700858BA5C32F
:103140001C48232204001CC09317370163D80700D2
:10315000FD576314F5009C4091E368C84C5823A0C8
:103160002401BDDD930744046384F5002685F5261C
:10317000232A0402B5B70C500146854626850297DE
:10318000FD572A86E311F5F89C40B5DF7547638546
:10319000E70059476393E70423A0240191B713671D
:1031A00007045AA47D5535BF83A90501E38A09F2B6
:1031B00003A905008D8B23A035013309394101474F
:1031C00091E3D84918C4E35D20F11C540C50CA8621
:1031D0004E86268582976347A0005E2493E7070406
:1031E0005EA4C9B7AA993309A940F1BF9C49B9CFD8
:1031F000011122CC06CE2A8411C51C4D81E72EC6B2
:103200001922B2459717000093874718639BF50072
:103210004C408397C50095C722856244F240056102
:1032200071BD97170000938767186394F5000C44ED
:10323000CDB79717000093876713E39CF5FC4C44C8
:10324000C9BFF24062440145056182800145828028
:10325000411122C406C62A844EA572A5232005006A
:103260002322050023240500232205062328050028
:10327000232A0500232C0500214681451305C50599
:10328000EFD0EF9C97170000938787B35CD0971718
:1032900000009387A7B51CD497170000938787B9C0
:1032A0005CD4971700009387E7BB00D01CD8B240CE
:1032B00022444101828097050000938565F3A9A20D
:1032C000411126C2130680069384F5FFB384C4021D
:1032D0004AC02E8922C406C6938544073D262A8407
:1032E00001CD2320050023222501310508C41386C2
:1032F00084068145EFD0AF952285B24022449244A6
:103300000249410182801C4DADE3411106C622C431
:1033100097070000938767FA1CD59387C1819C4368
:103320002324050423260504232805046314F5003B
:1033300085471CCD2A841D2848C02285052808C43D
:1033400022852D2048C44840014691451137084444
:103350000546A545F53D48440946C945D53D85473F
:103360001CCCB2402244410182808280411193876B
:10337000C18126C284434AC006C69C4C22C42A8905
:1033800099E326854937938484048044DC40FD1703
:1033900063D607009C40B9CF8440C5BF0317C40063
:1033A00039E7C1778507232204062320040023225E
:1033B0000400232404005CC423280400232A0400FE
:1033C000232C0400214681451305C405EFD02F8826
:1033D000232A0402232C04022324040423260404A5
:1033E0002285B24022449244024941018280130462
:1033F000840671BF91454A85E13588C051FDB147CA
:103400002320F9000144E9BF797122D44AD052CC7B
:1034100056CA5AC85EC606D626D24ECE2A8AAE8A6A
:10342000130485040149054BFD5B09ECB25022549D
:103430004A8592540259F249624AD24A424BB24BEF
:1034400045618280044483294400FD1963D4090046
:103450000040E1BFDE24637BFB008397E4006387C9
:103460007701A6855285829A3369A90093848406E0
:10347000E9BF1971A6DAAE848395E500A2DC86DE89
:10348000328463DB0500DE2423A0060093F70708DF
:1034900085E7930700401DA0300836C6EF001023D3
:1034A000B246E34205FE7247BD67F98F7977BA9756
:1034B00093B717009CC2F1BF930700041CC0F650DD
:1034C0006654D654014509618280DE25011122CC63
:1034D00006CE26CA4AC8898B2E8489CF93077404E6
:1034E0001CC01CC885475CC8F2406244D2444249B3
:1034F0000561828074003000AA84A53FA2452A8914
:103500002685212219E98317C40013F7072069FFD4
:10351000F19B93E727005EA4D1B79707000093873C
:10352000C7D99CD45E2408C008C893E707085EA4E6
:10353000A2475CC8B24781CF8315E4002685EF001F
:10354000101C11C55E24F19B93E717005EA45E2456
:103550003369F9002316240141BFDDC583A7C5FFE8
:10356000411122C406C626C21384C5FF63D30700D7
:103570003E94AA84EF00702097D7FF1F938707BD62
:103580009C4391EF2322040097D7FF1F23A087BC01
:103590002244B2402685924441016F00301E637E72
:1035A000F40014403307D4006396E7009843DC43EB
:1035B000369718C05CC0C9BFBA87D84319C3E37D2A
:1035C000E4FE94433386D700631F86001040B29612
:1035D00094C33386D700E31DC7FA10435843B2960D
:1035E00094C3D8C375B76375C400B1479CC04DB7C9
:1035F0001040B306C4006316D70014435843B29674
:1036000014C058C0C0C369B78280011126CA938410
:103610003500F19806CE22CC4AC84EC6A104B14767
:1036200063F9F404B14463E8B4042A89EF00F014A8
:1036300097D7FF1F938787B198433A8439E497D788
:10364000FF1F9387E7B09C4381EB81454A85352F67
:1036500097D7FF1F23AEA7AEA6854A853D27FD5904
:10366000631B3507B1472320F9004A85EF0010118D
:1036700029A0E3DA04FAB1471CC10145F2406244D3
:10368000D2444249B249056182801C40858F63C1A2
:103690000704AD4663F6F6001CC03E9404C001A8C2
:1036A0005C406315870217D7FF1F2321F7AA4A85BD
:1036B000EF00D00C1305B400930744006199330761
:1036C000F5404DDF3A94898F1CC04DBF5CC3C5B730
:1036D00022874040A5B7130435007198E30085FCAC
:1036E000B305A4404A855525E31A35FBA5BF1C4602
:1036F000FD171CC663DA0700184E63C5E700A9472B
:103700006394F5006FF01F801C422E85138717000D
:1037100018C28CA38280011122CC26CA4AC84EC688
:1037200052C406CE2A89AE893284B304D6007D5AAB
:1037300063149400014501A80C204E864A85453F3C
:103740000504E31745FFF2406244D2444249B249BE
:10375000224A05618280357122CD26CB4AC94EC7E7
:1037600006CF52C556C35AC1DEDEE2DCE6DAAA89CC
:10377000AE843289368409C51C4D99E3EFF0BFB899
:1037800097170000938787C06397F40C83A44900C0
:10379000DE24A18BFDC39C48EDC393070002A30464
:1037A000F1029307000302D22305F10222C6930B14
:1037B0005002971A0000938A6AC1054C294B4A842B
:1037C0001C2099C3639E770DB30C2441638D0C00BC
:1037D000E6864A86A6854E853D3FFD57630FF51C5C
:1037E0009256E69636D21C206389071CFD571309B2
:1037F000140002C802CE3ECA02CCA309010482D43E
:103800008345090015465685A92F13041900C247A0
:1038100051E913F7070109C713070002A309E104DF
:1038200013F7870009C71307B002A309E104834611
:1038300009001307A002638FE606F2474A84814617
:103840002546182093051400130707FD6377E60A41
:10385000B5CA3ECE85A897170000938727B5639514
:10386000F40083A489002DB797170000938707B051
:10387000E390F4F283A4C90021BFA6854E85EFF042
:103880002FF401DD7D55FA406A44DA444A49BA49C9
:103890002A4A9A4A0A4BF65B665CD65C0D618280C6
:1038A000050439BF330555413315AC00C98F3EC8F7
:1038B0002289B9B7324793064700184336C6634793
:1038C00007023ACE18209307E002631DF704183070
:1038D0009307A002631BF702B2470904138747004E
:1038E0009C433AC663C107023ECA2DA83307E04095
:1038F00093E727003ACE3EC8F1B7B3876703854602
:103900002E84BA973DBFFD57C5B7050402CA81464C
:1039100081472546182093051400130707FD63749B
:10392000E606F9F20C200D4617150000130585AACE
:103930000D2D11CD971700009387C7A91D8D9307F3
:103940000004B397A700424505045D8D2AC80C20EA
:10395000194617150000130525A8130914002304A0
:10396000B102012535C197C7FFFF9387A76995E786
:103970004247B2471377071009CF91073EC69257C7
:10398000D2973ED22DBDB387670385462E84BA9762
:1039900051B79D07E19BA107D5B7780097060000B6
:1039A0009386A6D726860C084E8597000000E70070
:1039B0000000FD572A8AE314F5FCDE2493F7070480
:1039C000E39207EC1255C1B5780097060000938684
:1039D000C6D426860C084E85012AE1BF797156CAE5
:1039E0009C49BA8A984522D426D24ECE52CC06D6CD
:1039F0004AD05AC85EC6AA892E84B284368A63D356
:103A0000E700BA879CC00347340419C385079CC0EC
:103A10001C4093F7070281C79C4089079CC003297B
:103A2000040013796900631A0900130B9401FD5B0C
:103A30005C449840998F634CF9041C4083463404DD
:103A400093F70702B336D000A5EB13063404D285F2
:103A50004E85829AFD576303F5041C401146984039
:103A6000998B544481446397C700B384E64063D381
:103A7000040081441C4418486354F700998FBE9495
:103A8000014969047D5B63982405014509A88546C1
:103A90005A86D2854E85829A631E75017D55B25035
:103AA000225492540259F249624AD24A424BB24BD2
:103AB000456182800509ADBF3307D40013060003BA
:103AC000A301C7040347540493871600A2978906ED
:103AD000A381E7049DBF85462286D2854E85829AC2
:103AE000E30E65FB050945B7797122D426D24AD089
:103AF0004ECE06D652CC56CA5AC8B689942D9307D4
:103B000090063289AA842E8413863504638DF602CA
:103B100063E2D706930780056386F61863EDD70046
:103B2000638E062093073004638EF60A930A2404FA
:103B30002301D404C9A0930730066385F60A9307CE
:103B40004006E395F6FE1C40084393F607089305EC
:103B50004500C5C61C410CC363D807001307D0023B
:103B6000B307F040A301E40497160000938646874C
:103B7000294765A8930700076382F61663E5D70215
:103B80009307E0066389F6189307F006E390F6FAC8
:103B90000C401C4313F8050813854700630708060B
:103BA00008C39C4385A893075007E383F6FE930759
:103BB00080076389F61293073007E399F6F61C43F2
:103BC000D04181459386470014C383AA07005685D8
:103BD000492E01C53305554148C05C401CC8A301AE
:103BE000040461A81C43930A2404938647009C4361
:103BF00014C32301F4048547D5B793F607041C4189
:103C00000CC3B9DAC207C18781BF93F5050408C3A5
:103C1000C9D99E231307F0066387E60E97060000B6
:103C20009386067C2947A30104044C400CC463C559
:103C3000050008406D9908C099E3B28A89CDB28A1F
:103C4000B3F5E702FD1AB6958C212380BA00B3D5EF
:103C5000E70263F0E70CA147631EF7001C40858B69
:103C600091CB58401C4863C7E70093070003A38F1C
:103C7000FAFEFD1A3306564110C84E87CA867000F8
:103C8000A2852685EFF09FD57D5A631D450B7D5596
:103C9000B250225492540259F249624AD24A424BDB
:103CA00045618280A382D5049706000093864673FF
:103CB0000C40084313F805081C411105630D080268
:103CC00008C313F7150001C793E505020CC041476F
:103CD000B9FB0C4093F5F5FD0CC0B1B79C4193E7DF
:103CE00007029CC193078007A302F4049706000013
:103CF0009386467075BF13F8050408C3E30308FCF8
:103D0000C207C1837DBF970600009386666D214779
:103D100019BFAE8735B794411C43CC4913F8060848
:103D2000138547006306080008C39C438CC339A071
:103D300008C393F606049C43F5DA8EA323280400F7
:103D4000B28A25BF14485686CA8526858299E30023
:103D500045F51C40898B8DE7B2474844E35AF5F29C
:103D60003E853DB785465686CA8526858299E300FD
:103D700065F3050A5C443247998FE345FAFEE9BFD3
:103D8000014A930A94017D5BF5B7411122C42A844C
:103D90002E8597E7FF1F23A9075C06C6EFE03FB417
:103DA000FD576319F50097E7FF1F9387E75B9C4377
:103DB00091C31CC0B240224441018280411122C4FF
:103DC0002E848395E50006C65D2A634905007C487C
:103DD000AA977CC8B2402244410182805E247D774C
:103DE0007D17F98F5EA4FDB7DE25011122CC26CA0E
:103DF0004AC84EC606CE93F70710AA842E8432898D
:103E0000B68991C78395E500894601460D225E2457
:103E10007D777D17F98F5EA48315E4006244F2403C
:103E2000CE864A86B24942492685D244056125A8F4
:103E3000411122C42E848395E50006C6CD28FD5786
:103E40005A24631AF500FD77FD17F98F5EA4B2407E
:103E50002244410182808567D98F5EA468C8C5BFAE
:103E60008395E50025A8411122C42A842E85B285B8
:103E7000368697E7FF1F23A9074E06C6EFE05FA22D
:103E8000FD576319F50097E7FF1F9387E74D9C43A4
:103E900091C31CC0B240224441018280411122C41E
:103EA0002A842E8597E7FF1F23A0074C06C6112200
:103EB000FD576319F50097E7FF1F9387E74A9C4377
:103EC00091C31CC0B240224441018280411122C4EE
:103ED0002A842E85B28597E7FF1F23A7074806C6C9
:103EE000CD20FD576319F50097E7FF1F9387C7475C
:103EF0009C4391C31CC0B2402244410182804111C5
:103F000022C42A842E8597E7FF1F23AF074406C6E5
:103F1000C920FD576319F50097E7FF1F9387C74432
:103F20009C4391C31CC0B240224441018280411194
:103F300022C42A842E85B285368697E7FF1F23A5E3
:103F4000074206C67928FD576319F50097E7FF1F5A
:103F5000938787419C4391C31CC0B24022444101D6
:103F6000828093F5F50F2A966314C500014582807F
:103F70001C21E38EB7FE0505C5BF828082804111FA
:103F800022C42A842E85B285368697E7FF1F23AD8B
:103F9000073C06C6B928FD576319F50097E7FF1FD0
:103FA0009387873C9C4391C31CC0B240224441018B
:103FB00082809307800517E7FF1F2327F73A7D5577
:103FC00082809307800517E7FF1F232FF7387D5561
:103FD00082809307800517E7FF1F2327F7380145E5
:103FE00082809307800517E7FF1F232FF7367D5543
:103FF00082809307800517E7FF1F2327F7367D553B
:1040000082800000577764670000000041535345E9
:104010005254204641494C45443A206C696E652013
:1040200025642C2066696C652022257322202D3E94
:10403000207461736B2063726561746520666169C9
:104040006C65643A2025730D0A000000546F756397
:10405000684B6579000000004C4544005B494E46C2
:104060004F5D204770696F2053697A652825642960
:104070000D0A00002E2E2F557365722F496F2F47A2
:1040800070696F4D616E616765722E6370700000BC
:10409000415353455254204641494C45443A206CC3
:1040A000696E652025642C2066696C652022257365
:1040B00022202D3E20D7A2EFBFBDEFBFBDEFBFBD79
:1040C0004770696FEFBFBDEFBFBDEFBFBDEFBFBDB5
:1040D0006D5F6770696FEFBFBDEFBFBDEFBFBDEF35
:1040E000BFBDEFBFBDD0A12E0D0A00002E2E2F4662
:1040F00072656552544F532F706F727461626C65B4
:104100002F4D656D4D616E672F686561705F342E50
:1041100063000000657272206174206C696E652016
:104120002564206F662066696C6520222573222E27
:10413000200D0A20000000002E2E2F4672656552C9
:10414000544F532F706F727461626C652F474343F5
:104150002F524953432D562F706F72742E630000F7
:104160002E2E2F4672656552544F532F717565750B
:10417000652E63002E2E2F4672656552544F532FC5
:104180007461736B732E630049444C45000000005A
:10419000D8260000D82600005A2700006627000015
:1041A000A6270000D8260000D82600005A270000C5
:1041B00066270000546D7251000000002E2E2F461D
:1041C00072656552544F532F74696D6572732E6317
:1041D00000000000546D72205376630053797374AD
:1041E000656D436C6B3A25640D0A00004368697085
:1041F00049443A253038780D0A0000005631302EF7
:10420000342E36004672656552544F53204B65720A
:104210006E656C2056657273696F6E3A25730D0A70
:10422000000000005B4552524F525D207363686589
:1042300064756C6572207374617274206661696C58
:1042400065640D005B464154414C5D20D5BBEFBF1A
:10425000BDEFBFBDEFBFBDEFBFBDEFBFBD546173CD
:104260006B3A2025730D0A000001020203030303C9
:1042700004040404040404040505050505050505F6
:1042800005050505050505050606060606060606D6
:1042900006060606060606060606060606060606BE
:1042A00006060606060606060707070707070707A6
:1042B000070707070707070707070707070707078E
:1042C000070707070707070707070707070707077E
:1042D000070707070707070707070707070707076E
:1042E0000707070707070707080808080808080856
:1042F000080808080808080808080808080808083E
:10430000080808080808080808080808080808082D
:10431000080808080808080808080808080808081D
:10432000080808080808080808080808080808080D
:1043300008080808080808080808080808080808FD
:1043400008080808080808080808080808080808ED
:1043500008080808080808080808080808080808DD
:10436000080808080808080800000000000000000D
:10437000000000000000000000000000000000003D
:10438000000000000000000000000000000000002D
:10439000000000000000000000000000000000001D
:1043A000000000000000000000000000000000000D
:1043B00000000000000000000000000000000000FD
:1043C0000000000000000000232D302B2000000022
:1043D000686C4C00656667454647000030313233F3
:1043E00034353637383941424344454600000000F1
:1043F000303132333435363738396162636465665B
:0444000000000000B8
:104404000200000003000000100000000000000093
:104414000000000001020304060708090000000070
:104424000102030401020304060708090000000056
:1044340088430000A8430000684300000000000017
:104444000000000000000000000000000000000068
:104454000000000000000000000000000000000058
:104464000000000000000000000000000000000048
:104474000000000000000000000000000000000038
:104484000000000000000000000000000000000028
:1044940000D8B80502040608AAAAAAAA07000000C0
:1044A400682300202C000020005000202C00002055
:00000001FF
